:100000000C94190F0C94D6110C9407120C943812FE
:100010000C9469120C949A120C94CB120C94FC124E
:100020000C942D130C944A0F0C944A0F0C944A0F05
:100030000C944A0F0C94CA810C944A0F0C944A0FEA
:100040000C944A0F0C94255C0C944A0F0C944A0FA4
:100050000C944A0F0C944A0F0C94FB6D0C944C0FAB
:100060000C944A0F0C9477360C944A0F0C944A0F58
:100070000C944A0F0C944A0F0C944A0F0C944A0F9C
:100080000C944A0F0C944A0F0C944A0F0C944A0F8C
:100090000C944A0F0C944A0F0C944A0F0C944A0F7C
:1000A0000C944A0F0C944A0F0C944A0F0C944A0F6C
:1000B0000C944A0F0C944A0F0C944A0F0C944A0F5C
:1000C0000C944A0F0C944A0F0C944A0F0C944A0F4C
:1000D0000C944A0F0C944A0F0C944A0F0C944A0F3C
:1000E0000C944A0F821087108C1096100F11A010DC
:1000F000A810B010BA10C410CE10DD10E7100F1108
:10010000F110FB1005112F11321125112911691160
:1001100036113A114011441148114E115211561125
:1001200069115C1160116411D31FD31FDE1FDE1F24
:10013000DE1FE91FE91FE91FFE1FF41FF41FF41F54
:10014000466E556E716E806E9A6EA96EC36EC76EE6
:10015000CF6E084AD73B3BCE016E84BCBFFDC12F9A
:100160003D6C74319ABD56833DDA3D00C77F11BEA8
:10017000D9E4BB4C3E916BAAAABE000000803F05AB
:10018000A84CCDB2D44EB93836A9020C50B99186DC
:1001900088083CA6AAAA2ABE000000803F000C9452
:1001A000716E0C9444360C94A0100C94E7870C9458
:1001B0007AAB0C942F110C943A110C94FB100C9404
:1001C000BA100C9427440C94DFA60C941C8E0C944B
:1001D000806E0C94BCAF0C9423870C94A8100C94E4
:1001E00002B10C94F7830C9469110C943BA00C940D
:1001F00088900C9429110C943C930C944E110C94FF
:100200001E980C94DD100C9432110C94CF6E0C944B
:100210008FB20C94325B0C94E7100C9419AF0C94D1
:1002200002AE0C94466E0C94C76E0C9464110C9440
:1002300060110C940F110C94FB870C9487100C9494
:10024000CE100C9444110C945D8B0C94B0100C9453
:1002500005110C94D6AC0C9440360C94F41F0C94FD
:10026000B5880C94DE1F0C94FE1F0C949A6E0C94AF
:10027000CA9B0C94B1AA0C9482AE0C945C110C94A1
:1002800096100C94F4990C9462B20C94EBB60C9406
:10029000D31F0C9428AC0C94C36E0C9436110C94A0
:1002A0005FB00C9431870C948C100C9482100C94D9
:1002B00048110C94FEAA0C945D850C94AAB10C9480
:1002C000556E0C94A96E0C94E5910C945E130C94ED
:1002D000C4100C9415870C9484AD0C9456110C9496
:1002E000F1100C9425110C9452110C94E91F0C94EC
:1002F00040110000090A02080B0C0D070603040157
:1003000000000000000000000000000000000000ED
:1003100000000000000000000000000000001110BC
:100320000F000000000000000000000000000000BE
:10033000000000000000000001021020200808104A
:100340002040102040800201020108040201010245
:10035000040810204080804020100804020180041E
:100360000201804020100804020108040201010279
:100370000408102040800102040810204080050578
:100380000505070508080808020202020A0A08080B
:100390000404040401010101010101010303030339
:1003A00003030303040707070C0C0C0C0C0C0C0CC8
:1003B0000202020206060606060606060B0B0B0BD9
:1003C0000B0B0B0B00002200250028002B002E0039
:1003D0003100340002010000050108010B0100009A
:1003E0002100240027002A002D00300033000101E5
:1003F0000000040107010A0153544F505045442E98
:1004000020005072696E7465722073746F7070652D
:10041000642064756520746F206572726F72732E2C
:100420002046697820746865206572726F72206159
:100430006E6420757365204D39393920746F2072D0
:100440006573746172742E202854656D70657261D5
:10045000747572652069732072657365742E2053FC
:1004600065742069742061667465722072657374A6
:10047000617274696E6729004B494C4C45442E20CB
:10048000005072696E7465722068616C7465642EC8
:10049000206B696C6C28292063616C6C6564210099
:1004A0006F6B00526573656E643A20002200556ED2
:1004B0006B6E6F776E20636F6D6D616E643A202294
:1004C000004368616E67652066696C616D656E7476
:1004D000005A204F6666736574203A20007A5F6D7B
:1004E00061783A20007A5F6D696E3A20005A204F99
:1004F0006666736574005A204F6666736574206F74
:100500006B007A5F6D696E3A2000795F6D696E3AB3
:100510002000785F6D696E3A2000205A3A00205919
:100520003A0020436F756E7420583A200020453AF7
:1005300000205A3A0020593A00583A004649524D94
:10054000574152455F4E414D453A4D61726C696E5F
:100550002056313B20537072696E7465722F67723A
:10056000626C206D617368757020666F72206765BC
:100570006E36204649524D574152455F55524C3ACE
:10058000687474703A2F2F6669726D776172652E88
:10059000756C74696D616B65722E636F6D2050525E
:1005A0004F544F434F4C5F56455253494F4E3A318B
:1005B0002E30204D414348494E455F545950453AED
:1005C000556C74696D616B65722045585452554481
:1005D00045525F434F554E543A3120555549443AA0
:1005E00030303030303030302D303030302D303011
:1005F00030302D303030302D303030303030303001
:10060000303030300A00556C74696D616B65722052
:100610004F66662E0042656420646F6E652E002072
:10062000423A0020453A00543A0042656420486549
:100630006174696E672E0048656174696E67206435
:100640006F6E652E0020573A0020453A00543A005C
:1006500048656174696E672E2E2E002042403A0074
:1006600020403A00202F003A00205400202F002084
:10067000423A00202F006F6B20543A002569206D0C
:10068000696E2C2025692073656300456E642066C1
:10069000696C65206C69737400426567696E2066D9
:1006A000696C65206C697374004E6F206D6F7665A0
:1006B0002E00526573756D696E67207072696E7475
:1006C000005761697420666F7220757365722E2EF3
:1006D0002E00536C6565702E2E2E00256920686FE4
:1006E000757273202569206D696E75746573004499
:1006F0006F6E65207072696E74696E672066696CD2
:10070000650053544F505045442E20005072696E7E
:100710007465722073746F707065642064756520F1
:10072000746F206572726F72732E20466978207420
:100730006865206572726F7220616E6420757365E2
:10074000204D39393920746F207265737461727469
:100750002E202854656D706572617475726520690C
:10076000732072657365742E20536574206974203C
:1007700061667465722072657374617274696E6704
:1007800029006F6B004E6F204C696E65204E756DB1
:10079000626572207769746820636865636B73753E
:1007A0006D2C204C617374204C696E653A20004EAC
:1007B0006F20436865636B73756D2077697468207B
:1007C0006C696E65206E756D6265722C204C61736C
:1007D00074204C696E653A2000636865636B7375BD
:1007E0006D206D69736D617463682C204C61737446
:1007F000204C696E653A20004C696E65204E756D1F
:10080000626572206973206E6F74204C617374206E
:100810004C696E65204E756D6265722B312C204CD3
:10082000617374204C696E653A20004D313130009F
:10083000446F6E6520736176696E672066696C65CA
:100840002E006F6B004D3239002020506C616E6EAF
:10085000657242756666657242797465733A200006
:100860002046726565204D656D6F72793A20004DA6
:100870006179203239203230313700436F6D706931
:100880006C65643A20002844617669642042726194
:10089000616D2900207C20417574686F723A2000D8
:1008A0004D617920323920323031372031383A33B6
:1008B000303A313300204C61737420557064617498
:1008C00065643A2000312E302E30004D61726C6923
:1008D0006E0020536F667477617265205265736590
:1008E0007400205761746368646F67205265736594
:1008F00074002042726F776E206F7574205265739A
:100900006574002045787465726E616C2052657361
:10091000657400506F7765725570007374617274FE
:10092000002200656E717565696E672022002200E5
:10093000656E717565696E67202200FFFFFF00001C
:10094000A0400000A0400000004000005243000012
:10095000524300005243000000000000000000006D
:1009600000000000524300005243000052430000C8
:10097000000000000000000000006563686F3A009E
:100980004572726F723A007C3C3E5E2B3D3F2F5B9E
:100990005D3B2C2A225C0020746F6F206C6F6E67A9
:1009A00020657874727573696F6E207072657665F4
:1009B0006E7465640020636F6C6420657874727572
:1009C00073696F6E2070726576656E74656400651C
:1009D00063686F3A00656E6473746F707320686942
:1009E000743A205A00205A3A00656E6473746F702E
:1009F00073206869743A20590020593A00656E6482
:100A000073746F7073206869743A20580020583AE4
:100A100000656E6473746F7073206869743A2000A7
:100A200024F4D43050C38E20C2A24017828B7011A0
:100A3000127A910D816CD90AA861E108C75866073E
:100A4000615143061E4B5D05C145A7041A411104BF
:100A5000093D9803713931034036DB026533910259
:100A6000D4305402802E1D02632CEE01752AC5017C
:100A7000B028A001102781018F2564012B244B0190
:100A8000E0223401AC211F018D200D01801FFC00EC
:100A9000841EED00971DDF00B81CD200E61BC600C7
:100AA000201BBC00641AB200B219A8000A19A000E9
:100AB0006A189900D117910040178B00B516840071
:100AC00031167E00B31579003A157300C7146F0014
:100AD00058146A00EE1366008813630025135E0045
:100AE000C7125B006C12570015125400C11151005F
:100AF00070114F0021114B00D61049008D10470096
:100B00004610440002104200C00F4000800F3E001B
:100B1000420F3C00060F3B00CB0E3800930E37000F
:100B20005C0E3500270E3400F30D3200C10D31008C
:100B3000900D3000600D2E00320D2D00050D2C00A3
:100B4000D90C2B00AE0C2900850C29005C0C270069
:100B5000350C27000E0C2600E80B2400C40B2400E3
:100B6000A00B23007D0B23005A0B2100390B210021
:100B7000180B2000F80A1F00D90A1E00BB0A1E002D
:100B80009D0A1D00800A1D00630A1C00470A1B0005
:100B90002C0A1B00110A1A00F7091A00DD091900B6
:100BA000C4091900AB091900920917007B09180044
:100BB000630917004C0916003609160020091600B3
:100BC0000A091500F5081500E0081400CC08140007
:100BD000B8081400A4081400900813007D0812003F
:100BE0006B08130058081200460812003408110060
:100BF000230811001208110001081100F00710006D
:100C0000E0071000D0071000C0071000B0070F0069
:100C1000A107100091070E0083070F0074070F0053
:100C200065070E0057070E0049070E003B070D0031
:100C30002E070E0020070D0013070D0006070D00FC
:100C4000F9060C00ED060D00E0060C00D4060C00C1
:100C5000C8060C00BC060C00B0060C00A4060B0075
:100C600099060C008D060B0082060B0077060B0020
:100C70006C060B0061060A0057060B004C060A00C2
:100C800042060A0038060A002E060A0024060A0058
:100C90001A060A001006090007060A00FD050900E9
:100CA000F4050900EB050900E2050900D905090072
:100CB000D0050900C7050900BE050900B5050800F3
:100CC000AD050800A50509009C050800940508006D
:100CD0008C050800840508007C05080074050800E0
:100CE0006C050700650508005D050700560508004E
:100CF0004E050700470507004005080038050700B6
:100D0000310507002A050700230507001C0506001A
:100D1000160507000F050700080506000205070075
:100D2000FB040600F5040700EE040600E8040600D4
:100D3000E2040700DB040600D5040600CF04060029
:100D4000C9040600C3040600BD040600B70406007B
:100D5000B1040500AC040600A6040600A0040500CA
:100D60009B04060095040500900406008A04050013
:100D700085040500800406007A040500750405005A
:100D8000700405006B04050066040500610405009D
:100D90005C04050057040500520405004D040500DD
:100DA00048040500430405003E0404003A0405001D
:100DB00035040500300404002C0405002704040059
:100DC000230405001E0404001A0404001604050090
:100DD000110404000D0404000904050004040400C7
:100DE00000040400FC030400F8030400F4030400FE
:100DF000F0030400EC030400E8030400E40304002F
:100E0000E0030400DC030400D8030400D40304005E
:100E1000D0030400CC030400C8030300C50303008F
:100E200024F404D9201BC40C5C0E9804C4095F028E
:100E300065077101F405F900FB04B300480487005D
:100E4000C10369005803550003034500BE023A0080
:100E50008402310053022A002902250004022000E6
:100E6000E4011C00C8011900AF011700980114002B
:100E700084011300710110006101100051010E0086
:100E800043010D0036010B002B010B0020010B006C
:100E9000150109000C01090003010800FB0008000E
:100EA000F3000800EB000700E4000600DE00060087
:100EB000D8000600D2000600CC000500C7000500DF
:100EC000C2000500BD000400B9000400B500040024
:100ED000B1000400AD000400A9000400A500030057
:100EE000A20003009F0004009B0003009800030081
:100EF0009500020093000300900003008D000200A3
:100F00008B000300880002008600020084000300BA
:100F1000810002007F0002007D0002007B000200D1
:100F200079000200770001007600020074000200E0
:100F300072000100710002006F0002006D000100EC
:100F40006C0002006A0001006900020067000100F5
:100F500066000100650001006400020062000100FB
:100F600061000100600001005F0002005D000100FF
:100F70005C0001005B0001005A0001005900010003
:100F80005800010057000100560001005500010003
:100F90005400010053000000530001005200010002
:100FA00051000100500001004F0001004E00000000
:100FB0004E0001004D0001004C0001004B000000FC
:100FC0004B0001004A0001004900010048000000F8
:100FD00048000100470001004600000046000100F3
:100FE00045000000450001004400010043000000EE
:100FF00043000100420000004200010041000000E7
:1010000041000100400001003F0000003F000100DE
:101010003E0000003E0001003D0000003D000100D8
:101020003C0000003C0000003C0001003B000000D0
:101030003B0001003A0000003A00010039000000C6
:1010400039000100380000003800000038000100BD
:1010500037000000370001003600000036000000B5
:1010600036000100350000003500000035000100A9
:1010700034000000340000003400010033000000A0
:101080003300000033000100320000003200000095
:101090003200010031000000310000003100010089
:1010A0003000000030000000300001002F00000080
:1010B0002F0000002F0000002F0001002E00000074
:1010C0002E0000002E0001002D0000002D00000069
:1010D0002D0000002D0001002C0000002C0000005D
:1010E0002C0000002C0001002B0000002B00000051
:1010F0002B0000002B0001002A0000002A00000045
:101100002A0000002A000100290000002900000038
:10111000290000002900000029000100280000002B
:10112000280000002800000028000000280001001E
:101130002700000027000000270000002700000013
:101140002700010026000000260000002600000005
:1011500026000000260001002500000025000000F8
:1011600025000000250000002500000025000100EA
:1011700024000000240000002400000024000000DF
:1011800024000100230000002300000023000000D1
:1011900023000000230000002300000023000100C2
:1011A00022000000220000002200000022000000B7
:1011B00022000000220001002100000021000000A8
:1011C000210000002100000021000000210000009B
:1011D000210001002000000020000000200000008D
:1011E000200000002000000020000000200000007F
:1011F000200001001F0000001F0000001F00000071
:101200001F0000001F0000001F0000001F00010061
:101210001E0000001E0000001E0000001E00000056
:101220006563686F3A004572723A204D41585445E3
:101230004D50204245440054656D7065726174756F
:1012400072652068656174656420626564207377E7
:10125000697463686564206F66662E204D4158543A
:10126000454D50207472696767657265642021215D
:10127000004572723A204D494E54454D50003A2077
:1012800045787472756465722073776974636865F4
:1012900064206F66662E204D494E54454D50207493
:1012A00072696767657265642021004572723A2031
:1012B0004D415854454D50003A204578747275643C
:1012C0006572207377697463686564206F66662E43
:1012D000204D415854454D502074726967676572BE
:1012E000656420210048656174696E6720666169E4
:1012F0006C656400202D20496E76616C6964206500
:1013000078747275646572206E756D6265722021E5
:1013100000504944204175746F74756E652066698C
:101320006E69736865642120507574207468652047
:101330006C617374204B702C204B6920616E6420AB
:101340004B6420636F6E7374616E74732066726F8A
:101350006D2061626F766520696E746F20436F6ED9
:1013600066696775726174696F6E2E6800504944D2
:10137000204175746F74756E65206661696C656473
:10138000212074696D656F75740020403A006F6BA1
:1013900020543A006F6B20423A0050494420417576
:1013A000746F74756E65206661696C656421205484
:1013B000656D706572617475726520746F6F2068F9
:1013C00069676800204B643A2000204B693A20008E
:1013D000204B703A200020436C6173736963205086
:1013E000494420002054753A2000204B753A2000D3
:1013F000206D61783A2000206D696E3A20002064EB
:101400003A200020626961733A20006563686F3A90
:10141000004572726F723A0000000000300E010049
:10142000C00E0A00500F1400D00F1E0060102800DC
:10143000E010320070113C00F011460070125000B4
:1014400000135A008013640000146E00901478009A
:101450001015820090158C00101696009016A000B2
:101460001017AA009017B4001018BE009018C800FA
:101470001019D2009019DC00101AE600801AF00052
:10148000001BFA00801B0401F01B0E01701C1801E8
:10149000F01C2201601D2C01E01D3601501E400190
:1014A000D01E4A01401F5401B01F5E013020680168
:1014B000A020720110217C01902186010022900160
:1014C0006026F401902A5802802EBC02503220037C
:1014D000E03584035039E803803C4C044D38342017
:1014E000582059205A20450043616E6E6F74206564
:1014F0006E746572207375626469723A20004D32B1
:1015000034004D3233202573006175746F25692EC8
:1015100067006572726F722077726974696E6720F6
:10152000746F2066696C65004E6F742053442070A0
:1015300072696E74696E67002F005344207072697F
:101540006E74696E67206279746520002E004465B0
:101550006C6574696F6E206661696C65642C2046E9
:10156000696C653A200046696C652064656C657439
:1015700065643A002E006F70656E206661696C6567
:10158000642C2046696C653A200057726974696E54
:101590006720746F2066696C653A20002E006F70BA
:1015A000656E206661696C65642C2046696C653ADD
:1015B00020002E006F70656E206661696C65642C7A
:1015C0002046696C653A200046696C652073656C3D
:1015D0006563746564002053697A653A2000466942
:1015E0006C65206F70656E65643A20002E006F7028
:1015F000656E206661696C65642C2046696C653A8D
:1016000020004E6F772066726573682066696C658E
:101610003A20004E6F7720646F696E672066696CB0
:10162000653A20002220706F73002220706172657D
:101630006E743A2200535542524F5554494E45203C
:1016400043414C4C207461726765743A2200747295
:1016500079696E6720746F2063616C6C20737562AA
:101660002D67636F64652066696C657320776974A4
:101670006820746F6F206D616E79206C6576656C83
:10168000732E204D4158206C6576656C2069733A45
:101690000053442063617264206F6B006F70656E4D
:1016A000526F6F74206661696C656400766F6C754B
:1016B0006D652E696E6974206661696C656400539E
:1016C0004420696E6974206661696C006563686FA7
:1016D0003A004572726F723A0048617264636F64D7
:1016E00065642044656661756C7420536574746923
:1016F0006E6773204C6F616465640053746F72652C
:10170000642073657474696E67732072657472699E
:1017100065766564002044002049002020204D3378
:1017200030312050005049442073657474696E67ED
:10173000733A00205A0020590020204D32303620C4
:101740005800486F6D65206F666673657420286D5C
:101750006D293A00204500205A0020580020420000
:1017600020540020204D32303520530041647661F2
:101770006E636564207661726961626C65733A209C
:10178000533D4D696E2066656564726174652028FD
:101790006D6D2F73292C20543D4D696E207472613C
:1017A00076656C20666565647261746520286D6D70
:1017B0002F73292C20423D6D696E696D756D207304
:1017C00065676D656E742074696D6520286D732979
:1017D0002C20583D6D6178696D756D205859206ACF
:1017E00065726B20286D6D2F73292C20205A3D6D5A
:1017F0006178696D756D205A206A65726B20286D5D
:101800006D2F73292C2020453D6D6178696D756DB4
:101810002045206A65726B20286D6D2F732900208A
:10182000540020204D323034205300416363656CF6
:1018300065726174696F6E3A20533D616363656CD4
:1018400065726174696F6E2C20543D7265747261AB
:10185000637420616363656C65726174696F6E00A7
:10186000204500205A0020590020204D32303120E0
:1018700058004D6178696D756D20416363656C65D5
:10188000726174696F6E20286D6D2F7332293A0072
:10189000204500205A0020590020204D32303320AE
:1018A00058004D6178696D756D206665656472617B
:1018B00074657320286D6D2F73293A002045002030
:1018C0005A0020590020204D3932205800537465A9
:1018D00070732070657220756E69743A0053657478
:1018E00074696E67732053746F7265640065636812
:1018F0006F3A0002436172642072656D6F766564B1
:10190000004361726420696E736572746564002DB2
:101910002D3A2D2D002D2D2D00534400205900016E
:1019200020000120004D363030004368616E67654D
:101930002066696C616D656E7400466C6F77004659
:101940006C6F770046616E20737065656400466158
:101950006E207370656564004265640042656400D2
:101960004E6F7A7A6C65004E6F7A7A6C65005370B0
:10197000656564005370656564004D61696E004D76
:10198000383420583020593000473238005A00503F
:1019900072656865617420504C4120426564005056
:1019A00072656865617420504C4120310050726549
:1019B00070617265005072656865617420414253C0
:1019C000204265640050726568656174204142532D
:1019D0002031005072657061726500580059005ADC
:1019E0000045787472756465720045787472756428
:1019F0006572004D6F7665205A004D6F76652059EF
:101A0000004D6F76652058004D6F766520617869CE
:101A100073004D6F766520302E316D6D004D6F7601
:101A20006520316D6D004D6F76652031306D6D0034
:101A300050726570617265004D6F766520617869DE
:101A40007300436F6F6C646F776E005072656865EA
:101A50006174204142530050726568656174205082
:101A60004C41004D6F7665205A004175746F2068B7
:101A70006F6D65004D38340044697361626C652098
:101A80007374657070657273004D61696E00537494
:101A90006F7265206D656D6F7279004265640042FA
:101AA0006564004E6F7A7A6C65004E6F7A7A6C6569
:101AB0000046616E2073706565640046616E207338
:101AC000706565640054656D7065726174757265EA
:101AD0000053746F7265206D656D6F727900426599
:101AE0006400426564004E6F7A7A6C65004E6F7ACE
:101AF0007A6C650046616E207370656564004661AE
:101B00006E2073706565640054656D7065726174F4
:101B1000757265005072656865617420414253209A
:101B2000636F6E66005072656865617420504C4149
:101B300020636F6E66005049442D43005049442D88
:101B400043005049442D44005049442D440050491D
:101B5000442D49005049442D49005049442D50001E
:101B60005049442D500046616E20737065656400D5
:101B700046616E207370656564004265640042656D
:101B800064004E6F7A7A6C65004E6F7A7A6C6500ED
:101B9000436F6E74726F6C004573746570732F6D54
:101BA0006D004573746570732F6D6D005A737465A5
:101BB00070732F6D6D005A73746570732F6D6D00A7
:101BC0005973746570732F6D6D00597374657073FC
:101BD0002F6D6D005873746570732F6D6D005873A1
:101BE000746570732F6D6D00412D72657472616341
:101BF0007400412D7265747261637400416D617887
:101C0000206500416D6178206500416D6178207A22
:101C100000416D6178207A00416D61782079004142
:101C20006D6178207900416D6178207800416D61A7
:101C3000782078005654726176206D696E00565493
:101C4000726176206D696E00566D696E00566D6921
:101C50006E00566D6178206500566D6178206500D4
:101C6000566D6178207A00566D6178207A00566D45
:101C70006178207900566D6178207900566D617821
:101C8000207800566D617820780056652D6A65725F
:101C90006B0056652D6A65726B00567A2D6A657207
:101CA0006B00567A2D6A65726B005678792D6A65DD
:101CB000726B005678792D6A65726B0041636365BB
:101CC0006C00416363656C00436F6E74726F6C00EF
:101CD0004D617920323920323031372031383A3372
:101CE000303A3135003131353230305F73696E67EB
:101CF0006C6500556C74696D616B65722B3A31359A
:101D00002E30352E30322E4D6F6562797573004658
:101D100069726D776172652076657273696F6E00A6
:101D20004669726D776172652076657273696F6E50
:101D300000526573746F7265206661696C736166C9
:101D400065004C6F6164206D656D6F72790053742E
:101D50006F7265206D656D6F7279004D6F74696F7C
:101D60006E0054656D7065726174757265004D61C9
:101D7000696E004D383420582059205A2045004DB6
:101D80003234004D323320257300052E2E004D6174
:101D9000696E004E6F20534420636172640050727C
:101DA000696E742066726F6D2053440053746F70B7
:101DB000207072696E7400526573756D6520707263
:101DC000696E74005061757365207072696E74007D
:101DD000436F6E74726F6C00507265706172650053
:101DE00054756E6500496E666F2073637265656E2B
:101DF000004E414E494E495459494E46CDCCCC3DFA
:101E00000AD7233C17B7D13877CC2B329595E624E7
:101E10001FB14F0A000020410000C84200401C468C
:101E200020BCBE4CCA1B0E5AAEC59D744036B1AA2A
:101E3000443611241FBECFEFD1E2DEBFCDBF00E09C
:101E40000CBF14E0A0E0B2E0ECE8F5E801E00BBF65
:101E500002C007900D92AE35B107D9F722E1AEE589
:101E6000B4E001C01D92A130B207E1F71FE0C8E164
:101E7000DFE000E006C021970109802FFE010E94EB
:101E800050BCC631D10780E00807A9F70E94F1B61F
:101E90000C94B4C20C9400001F920F920FB60F92D4
:101EA00011242F933F938F939F93AF93BF93809170
:101EB0005F0490916004A0916104B091620430913C
:101EC0005E0423E0230F2D3720F40196A11DB11DE0
:101ED00005C026E8230F0296A11DB11D20935E04C4
:101EE00080935F0490936004A0936104B0936204B4
:101EF0008091630490916404A0916504B09166049C
:101F00000196A11DB11D8093630490936404A09376
:101F10006504B0936604BF91AF919F918F913F91FB
:101F20002F910F900FBE0F901F9018952FB7F89418
:101F300060915F04709160048091610490916204EB
:101F40002FBF08953FB7F894809163049091640483
:101F5000A0916504B091660426B5A89B05C02F3FEB
:101F600019F00196A11DB11D3FBFBA2FA92F982FBF
:101F70008827820F911DA11DB11DBC01CD0142E03A
:101F8000660F771F881F991F4A95D1F70895CF9242
:101F9000DF92EF92FF92CF93DF936B017C010E945F
:101FA000A20FEB01C114D104E104F10479F00E9405
:101FB000A20F6C1B7D0B683E7340A0F381E0C81A32
:101FC000D108E108F108C851DC4FECCFDF91CF9187
:101FD000FF90EF90DF90CF900895019739F0880F30
:101FE000991F880F991F02970197F1F70895789428
:101FF00084B5826084BD84B5816084BD85B582600E
:1020000085BD85B5816085BDEEE6F0E080818160AB
:102010008083E1E8F0E010828081826080838081AB
:1020200081608083E0E8F0E0808181608083E1EB83
:10203000F0E0808184608083E0EBF0E0808181606B
:102040008083E1E9F0E0808182608083808181602B
:102050008083E0E9F0E0808181608083E1EAF0E064
:10206000808182608083808181608083E0EAF0E00B
:10207000808181608083E1E2F1E080818260808301
:10208000808181608083E0E2F1E0808181608083F3
:10209000EAE7F0E0808184608083808182608083D1
:1020A0008081816080838081806880831092C100FC
:1020B00008951F93CF93DF93182FEB0161E00E94E7
:1020C0006A11209711F460E004C0CF3FD10539F4C4
:1020D00061E0812FDF91CF911F910C94A611E12F28
:1020E000F0E0EE50FD4FE4914E2F50E0FA013197B1
:1020F000E131F10508F093C08827EE58FF4F8F4F6C
:102100000C9450BC84B5806884BDC7BD8DC084B5B7
:10211000806284BDC8BD88C0809180008068809343
:102120008000D0938900C09388007EC08091800099
:10213000806280938000D0938B00C0938A0074C02B
:102140008091B00080688093B000C093B3006CC0F1
:102150008091B00080628093B000C093B40064C0EE
:1021600080919000806880939000D0939900C093F4
:1021700098005AC080919000806280939000D09324
:102180009B00C0939A0050C080919000886080931B
:102190009000D0939D00C0939C0046C08091A00009
:1021A00080688093A0008091A0008F7B8093A00026
:1021B000D093A900C093A80037C08091A00080628E
:1021C0008093A000D093AB00C093AA002DC0809153
:1021D000A00088608093A000D093AD00C093AC00B5
:1021E00023C080912001806880932001D093290131
:1021F000C093280119C08091200180628093200142
:10220000D0932B01C0932A010FC0809120018860D8
:1022100080932001D0932D01C0932C0105C0C038BC
:10222000D1050CF055CF4FCFDF91CF911F9108957D
:1022300090E0FC013197E131F10508F04AC08827B0
:10224000ED57FF4F8F4F0C9450BC809180008F77DB
:1022500003C0809180008F7D80938000089584B5B5
:102260008F7702C084B58F7D84BD08958091B000C2
:102270008F7703C08091B0008F7D8093B000089568
:10228000809190008F7707C0809190008F7D03C070
:1022900080919000877F8093900008958091A000A6
:1022A0008F7707C08091A0008F7D03C08091A00030
:1022B000877F8093A0000895809120018F7707C0C9
:1022C000809120018F7D03C080912001877F8093C2
:1022D00020010895CF93DF9390E0FC01E85CFC4F70
:1022E0002491FC01E258FC4F8491882361F190E035
:1022F000880F991FFC01E252FC4FC591D491FC015B
:10230000EC53FC4FA591B491611109C09FB7F894AB
:102310008881209582238883EC912E230BC0623024
:1023200061F49FB7F8943881822F80958323888346
:10233000EC912E2B2C939FBF06C08FB7F894E881A9
:102340002E2B28838FBFDF91CF9108951F93CF93BA
:10235000DF93282F30E0F901EE50FD4F8491F90111
:10236000E85CFC4FD491F901E258FC4FC491CC23B6
:10237000C9F0162F81110E941811EC2FF0E0EE0F1A
:10238000FF1FEC53FC4FA591B4918FB7F894111136
:1023900005C09C91ED2FE095E92302C0EC91ED2B57
:1023A000EC938FBFDF91CF911F9108951F920F92F1
:1023B0000FB60F9211240BB60F922F933F934F93AA
:1023C0005F936F937F938F939F93AF93BF93EF939D
:1023D000FF9380916B0490916C04892B29F0E0911C
:1023E0006B04F0916C041995FF91EF91BF91AF913F
:1023F0009F918F917F916F915F914F913F912F911D
:102400000F900BBE0F900FBE0F901F9018951F924C
:102410000F920FB60F9211240BB60F922F933F938A
:102420004F935F936F937F938F939F93AF93BF93DC
:10243000EF93FF9380916D0490916E04892B29F0A6
:10244000E0916D04F0916E041995FF91EF91BF91A9
:10245000AF919F918F917F916F915F914F913F913C
:102460002F910F900BBE0F900FBE0F901F901895DD
:102470001F920F920FB60F9211240BB60F922F934B
:102480003F934F935F936F937F938F939F93AF93FC
:10249000BF93EF93FF9380916F0490917004892B09
:1024A00029F0E0916F04F09170041995FF91EF917C
:1024B000BF91AF919F918F917F916F915F914F915C
:1024C0003F912F910F900BBE0F900FBE0F901F905A
:1024D00018951F920F920FB60F9211240BB60F9200
:1024E0002F933F934F935F936F937F938F939F931C
:1024F000AF93BF93EF93FF93809171049091720417
:10250000892B29F0E0917104F09172041995FF91E3
:10251000EF91BF91AF919F918F917F916F915F915B
:102520004F913F912F910F900BBE0F900FBE0F90C8
:102530001F9018951F920F920FB60F9211240BB691
:102540000F922F933F934F935F936F937F938F934C
:102550009F93AF93BF93EF93FF9380916704909104
:102560006804892B29F0E0916704F09168041995BB
:10257000FF91EF91BF91AF919F918F917F916F915B
:102580005F914F913F912F910F900BBE0F900FBE17
:102590000F901F9018951F920F920FB60F92112453
:1025A0000BB60F922F933F934F935F936F937F934D
:1025B0008F939F93AF93BF93EF93FF9380916904A1
:1025C00090916A04892B29F0E0916904F0916A04E2
:1025D0001995FF91EF91BF91AF919F918F917F914D
:1025E0006F915F914F913F912F910F900BBE0F9084
:1025F0000FBE0F901F9018951F920F920FB60F925B
:1026000011240BB60F922F933F934F935F936F93C9
:102610007F938F939F93AF93BF93EF93FF9380919B
:10262000730490917404892B29F0E0917304F09164
:1026300074041995FF91EF91BF91AF919F918F9184
:102640007F916F915F914F913F912F910F900BBEB2
:102650000F900FBE0F901F9018951F920F920FB6FC
:102660000F9211240BB60F922F933F934F935F93CA
:102670006F937F938F939F93AF93BF93EF93FF934A
:102680008091750490917604892B29F0E09175046E
:10269000F09176041995FF91EF91BF91AF919F91C1
:1026A0008F917F916F915F914F913F912F910F90FB
:1026B0000BBE0F900FBE0F901F901895CF92DF9218
:1026C000EF92FF920F931F93CF93DF936C01EB0177
:1026D0007B01E40EF51E00E010E0CE15DF0561F091
:1026E0006991D601ED91FC910190F081E02DC60138
:1026F0001995080F191FF1CFC801DF91CF911F91D4
:102700000F91FF90EF90DF90CF90089561157105C4
:1027100079F0FB0101900020E9F73197AF01461BEA
:10272000570BDC01ED91FC910280F381E02D1994AF
:1027300080E090E008950C948613DC01ED91FC910B
:102740000190F081E02D1994FC01659175918591BE
:1027500094910895EF92FF920F931F93CF93DF937D
:10276000EC01CC0FDD1FCC0FDD1FCE018A5A964F36
:102770000E94A4139E012259394F79018E010E59EE
:10278000194FF80120813181428153810E94FFB6A7
:10279000F7016083718382839383CE018259964FC0
:1027A0000E94A4139E012A5A394F7901F801208111
:1027B0003181428153810E94FFB6F70160837183AA
:1027C00082839383CE018E59964F0E94A413C55FD6
:1027D000DD4FF80120813181428153810E94FFB693
:1027E000688379838A839B83DF91CF911F910F91B7
:1027F000FF90EF9008952F923F924F925F926F92C9
:102800007F928F929F92AF92BF92CF92DF92EF9280
:10281000FF920F931F93CF93DF9300D01F92CDB7FA
:10282000DEB79C838B83FC01E55CF64F94905C01E2
:10283000AA0CBB1CAA0CBB1CC5018259994F1C01D8
:10284000FC0110821182128213822AE736E046E7E9
:1028500056E062E776E08EE696E00E947E5AC50179
:10286000865B964F0E94A4136B017C01692D990C25
:10287000770B880B990B0E94A8B82B013C01C5016E
:10288000845C994F4C0120E030E040EC5FE3C701ED
:10289000B6010E94FDBAA30192010E94FDBAF401A3
:1028A0006083718382839383C5018F5D9D4F9A837B
:1028B0008983FC016081718182819381609305022B
:1028C00070930602809307029093080220E030E0A4
:1028D00040E752E40E94FEB72EE4C22E26E0D22E3C
:1028E0007B018C0128E436E044E456E060E476E0C5
:1028F0008CE396E00E94F04F0E94B662F1011082D4
:102900001182128213822AE736E046E756E062E738
:1029100076E08EE696E00E947E5AC501825C964F74
:102920005C010E94A4139058A30192010E94FDBA79
:10293000F401608371838283938320E030E040E779
:1029400052E4609105027091060280910702909115
:1029500008020E94FEB77B018C0128E436E044E4C3
:1029600056E060E476E08CE396E00E94F04F0E942F
:10297000B662C5010E94A4139B01AC010E94FFB680
:10298000A30192010E94FDBAF401608371838283E6
:10299000938320E030E040E05FE3E981FA816081E9
:1029A0007181828193810E94FDBA609305027093C8
:1029B0000602809307029093080220E030E040E78F
:1029C00052E40E94FEB77B018C0128E436E044E427
:1029D00056E060E476E08CE396E00E94F04F0E94BF
:1029E000B6628B819C810E94AA13F1018081918142
:1029F000A281B381F40180839183A283B383109277
:102A000005021092060210920702109208020E941C
:102A1000155CEB81FC81ED5AF94F81E080830F90CA
:102A20000F900F900F90DF91CF911F910F91FF901A
:102A3000EF90DF90CF90BF90AF909F908F907F905E
:102A40006F905F904F903F902F900895FC012491DC
:102A5000222341F03091C00035FFFCCF2093C60007
:102A60000196F4CF22E030E081E199E00C94AE3899
:102A7000FC012491222341F03091C00035FFFCCFAE
:102A80002093C6000196F4CF2AE030E081E199E07E
:102A90000C94FC37CF93DF931F921F92CDB7DEB714
:102AA0002091FB113091FC11CE01019621153105C9
:102AB00019F48150924102C0821B930B9A8389833F
:102AC00089819A810F900F90DF91CF910895209185
:102AD000910430919204243031050CF069C0BC019E
:102AE000209193043091940440E6429FC001439F9B
:102AF000900D112485569B4F0E94A0BFEAE7F9E094
:102B00008491882341F09091C00095FFFCCF809381
:102B1000C6003196F5CFE0E3F9E08491882341F0D7
:102B20009091C00095FFFCCF8093C6003196F5CF01
:102B3000809193049091940420E6289FF001299FAE
:102B4000F00D1124E556FB4F8191882339F09091C7
:102B5000C00095FFFCCF8093C600F6CFEEE2F9E00F
:102B60008491882341F09091C00095FFFCCF809321
:102B7000C6003196F5CF8091C00085FFFCCF8AE07A
:102B80008093C6008091930490919404019664E030
:102B900070E00E94FBBB9093940480939304809117
:102BA00091049091920401969093920480939104E1
:102BB00008952091910430919204243031050CF055
:102BC00069C0BC01209193043091940440E6429F77
:102BD000C001439F900D112485569B4F0E942CBF2E
:102BE000EAE7F9E08491882341F09091C00095FFD5
:102BF000FCCF8093C6003196F5CFE3E2F9E08491F3
:102C0000882341F09091C00095FFFCCF8093C600CF
:102C10003196F5CF809193049091940420E6289FFB
:102C2000F001299FF00D1124E556FB4F8191882377
:102C300039F09091C00095FFFCCF8093C600F6CF8D
:102C4000E1E2F9E08491882341F09091C00095FF82
:102C5000FCCF8093C6003196F5CF8091C00085FFF0
:102C6000FCCF8AE08093C6008091930490919404F5
:102C7000019664E070E00E94FBBB90939404809303
:102C80009304809191049091920401969093920400
:102C900080939104089540E052EC61E070E081E19E
:102CA00099E00E94B036EBE1F9E08491882341F08D
:102CB0009091C00095FFFCCF8093C6003196F5CF70
:102CC0008091C00085FFFCCF8AE08093C6008AE730
:102CD00099E0FC012491222341F03091C00035FF9E
:102CE000FCCF2093C6003196F5CF24B720FF14C047
:102CF000E3E1F9E03491332341F04091C00045FF16
:102D0000FCCF3093C6003196F5CF3091C00035FF2F
:102D1000FCCF3AE03093C60021FF14C0E3E0F9E0B5
:102D20003491332341F04091C00045FFFCCF3093F4
:102D3000C6003196F5CF3091C00035FFFCCF3AE0A8
:102D40003093C60022FF14C0E2EFF8E03491332341
:102D500041F04091C00045FFFCCF3093C600319652
:102D6000F5CF3091C00035FFFCCF3AE03093C6007C
:102D700023FF14C0E2EEF8E03491332341F0409198
:102D8000C00045FFFCCF3093C6003196F5CF30919F
:102D9000C00035FFFCCF3AE03093C60025FF14C0D9
:102DA000E2EDF8E02491222341F03091C00035FF9C
:102DB000FCCF2093C6003196F5CF2091C00025FFAF
:102DC000FCCF2AE02093C60014BEEBECF8E024917F
:102DD000222341F03091C00035FFFCCF2093C60084
:102DE0003196F5CFE5ECF8E02491222341F03091C3
:102DF000C00035FFFCCF2093C6003196F5CF20915F
:102E0000C00025FFFCCF2AE02093C600FC012491DE
:102E1000EAE7F9E0222349F03091C00035FFFCCF0A
:102E20002093C60031962491F5CFE5EBF8E024918C
:102E3000222341F03091C00035FFFCCF2093C60023
:102E40003196F5CFE0EAF8E02491222341F0309169
:102E5000C00035FFFCCF2093C6003196F5CFE4E9E2
:102E6000F8E02491222341F03091C00035FFFCCFDF
:102E70002093C6003196F5CFE6E8F8E024912223AE
:102E800041F03091C00035FFFCCF2093C600319651
:102E9000F5CF2091C00025FFFCCF2AE02093C6008B
:102EA000EBE7F8E02491222341F03091C00035FF98
:102EB000FCCF2093C6003196F5CFEFE6F8E02491E1
:102EC000222341F03091C00035FFFCCF2093C60093
:102ED0003196F5CF2091C00025FFFCCF2AE020934A
:102EE000C600FC018491EAE7F9E0882349F090915B
:102EF000C00095FFFCCF8093C60031968491F5CF3A
:102F0000E0E6F8E08491882341F09091C00095FFBD
:102F1000FCCF8093C6003196F5CF0E944A154AE057
:102F200050E0BC0181E199E00E94CE37E9E4F8E08D
:102F30008491882341F09091C00095FFFCCF80934D
:102F4000C6003196F5CF4AE050E060ED74E081E1D3
:102F500099E00E94CE378091C00085FFFCCF8AE0C7
:102F60008093C600109297041092980410929904CE
:102F700010929A040E9477800E9418680E94AE4FB7
:102F80000E9476810E94A6630E940B96FFEF23EDBC
:102F900080E3F15020408040E1F700C00000089538
:102FA00080918B0490918C0460E070E001960C9409
:102FB00081BC80918B0490918C044AE050E060E0E9
:102FC00070E001960C94F0BD682F70E0209195049C
:102FD0003091960440E6429FC001439F900D11241A
:102FE00085569B4F0E9495BF9C0190938C048093C3
:102FF0008B0481E0232B09F480E008950E94960F52
:1030000060938704709388048093890490938A0462
:1030100008950E94960F60938704709388048093AC
:10302000890490938A04E0919504F0919604E956FE
:10303000FB4F8081811114C0E0EAF4E08491882381
:1030400041F09091C00095FFFCCF8093C60031966F
:10305000F5CF8091C00085FFFCCF8AE08093C60049
:10306000089581E199E00E940237E3EAF4E0849157
:10307000882341F09091C00095FFFCCF8093C6005B
:103080003196F5CF4091200650912106609122069D
:10309000709123064F5F5F4F6F4F7F4F2AE030E004
:1030A00081E199E00E94A7378091C00085FFFCCFA5
:1030B0008AE08093C6000C9409182F923F924F9299
:1030C0005F926F927F928F929F92AF92BF92CF92B8
:1030D000DF92EF92FF920F931F93CF93DF93CDB7C1
:1030E000DEB76E970FB6F894DEBF0FBECDBF30E6E9
:1030F000F32E44E0A42EB12C5CE0852E57E0952EF3
:103100006AE0E62E72E8672E77E0772EDD24D3940E
:103110008091920990919309209194093091950999
:10312000821B930B8F779927892B09F428C28091F2
:1031300091049091920404970CF021C281E199E0EE
:103140000E94E6368093900420918E0430918F0483
:103150008A3061F08D3051F08A3321F490918D04E2
:10316000992321F02F3531050CF42BC121153105A0
:1031700019F410928D046AC3E0919304F0919404C1
:10318000FE9E8001FF9E100D1124200F311FD901DA
:10319000A556BB4F1C9280918D0481110DC11092D8
:1031A0008D04E956FB4F1082980125563B4F2901AB
:1031B0006EE470E0C9010E9495BF0097E9F1909319
:1031C0008C0480938B0484199509800F911F4AE029
:1031D00050E060E070E084569B4F0E94F0BD609329
:1031E0002406709325068093260690932706009167
:1031F00020061091210620912206309123060F5FB0
:103200001F4F2F4F3F4F40909304509094046017EE
:1032100071078207930709F4F3C0F49CC001F59C81
:10322000900D11246BE278E085569B4F0E945ABFA7
:10323000892B09F0E5C076C16AE270E0C2010E9404
:1032400095BF892B09F444C0E0E8F9E08491882314
:1032500041F09091C00095FFFCCF8093C60031965D
:10326000F5CFE5E8F7E08491882341F09091C00024
:1032700095FFFCCF8093C6003196F5CF4091200694
:103280005091210660912206709123062AE030E0D9
:1032900081E199E00E94A7378091C00085FFFCCFB3
:1032A0008AE08093C60010928F0410928E04CEC2E2
:1032B0008091240690912506A0912606B0912706BC
:1032C0008093200690932106A0932206B0932306B4
:1032D0008091930490919404F89E8001F99E100DC2
:1032E0001124C80185569B4F2C0167E470E00E94B1
:1032F00095BF009709F44BC090938C0480938B0486
:1033000084199509800F911F60E070E084569B4FEF
:103310000E9481BC0E9470B86430710508F037C00B
:103320008091790481111AC08091840681112FC087
:10333000F3018491E2E8F7E0882349F09091C0001E
:1033400095FFFCCF8093C60031968491F5CF809194
:10335000C00085FFFCCFE092C60019C0F401849143
:10336000ECE0F7E0882349F09091C00095FFFCCF96
:103370008093C60031968491F5CF8091C00085FF7F
:10338000FCCFE092C60082E097E00E949A9580917F
:103390009304909194040196B5010E94FBBB909315
:1033A00094048093930480919104909192040196E7
:1033B000909392048093910410928F0410928E0443
:1033C000A7CE8B3311F4D0928D0490918D0491117E
:1033D0009FCE4091930450919404B9016F5F7F4F49
:1033E00070938F0460938E04F49EF001F59EF00DAF
:1033F00011242E0F3F1FF901E556FB4F808388CE25
:10340000F49C8001F59C100D1124C80185569B4F3A
:103410002C016AE270E00E9495BF009709F450C049
:1034200020E0312CF801E20FF11DE556FB4F308111
:103430003A3219F02F5F3326F5CF90938C048093A6
:103440008B0484199509800F911F60E070E0845609
:103450009B4F0E9481BC0E9470B8232D30E026173C
:10346000370709F425CFE0E8F9E08491882341F09B
:103470009091C00095FFFCCF8093C6003196F5CFA8
:10348000E9EDF7E08491882341F09091C00095FF29
:10349000FCCF8093C6003196F5CF40912006509125
:1034A000210660912206709123062AE030E081E136
:1034B00099E00E94A7378091C00085FFFCCF2CC007
:1034C000E0E8F9E08491882341F09091C00095FFF5
:1034D000FCCF8093C6003196F5CFEFEAF7E08491F8
:1034E000882341F09091C00095FFFCCF8093C600E7
:1034F0003196F5CF40912006509121066091220629
:10350000709123062AE030E081E199E00E94A7371C
:103510008091C00085FFFCCF8AE08093C6000E94A6
:103520003118C1CEE0E8F9E08491882341F0909110
:10353000C00095FFFCCF8093C6003196F5CFE8EF31
:10354000F7E08491882341F09091C00095FFFCCF73
:103550008093C6003196F5CF409120065091210608
:1035600060912206709123062AE030E081E199E023
:103570000E94A7378091C00085FFFCCFCDCF8091FE
:103580008606882309F462C180918E0490918F048D
:10359000892B09F05BC18091910490919204892B51
:1035A00011F41092770400E611E084E0C82ED12CCB
:1035B0009CE3892E912CA12CB12C2BED222E26E000
:1035C000322E9E012F5F3F4F7901409107095091A4
:1035D00008096091090970910A098091FF0890918A
:1035E0000009A0910109B0910209481759076A071B
:1035F0007B0708F02BC1809191049091920404976D
:103600000CF024C180917704811120C180915A0867
:1036100090915B08A0915C08B0915D0880930709C8
:1036200090930809A0930909B0930A0982E598E0EC
:103630000E94CE3DAC01982F409390048A30B9F09F
:103640009D30A9F0933229F480918D04882379F07C
:1036500002C09A33C9F320918E0430918F042F3524
:1036600031052CF44F3F8FEF580709F0D1C040913E
:103670000709509108096091090970910A09809120
:10368000FF0890910009A0910109B0910209481723
:1036900059076A077B0708F481C0EFEEF6E08491D2
:1036A000882341F09091C00095FFFCCF8093C60025
:1036B0003196F5CF8091C00085FFFCCFFAE0F09302
:1036C000C6000E94960F60937B0470937C048093E5
:1036D0007D0490937E0440907F045090800460901D
:1036E000810470908204641975098609970928EE8F
:1036F00033E040E050E00E940FBC29013A01CA01CA
:10370000B901A50194010E940FBCCA01B901A5012C
:1037100094010E940FBC7F936F93C301B20120E11B
:103720003EE040E050E00E940FBC3F932F933F9259
:103730002F92FF92EF920E94C4BFEAE7F9E08491D2
:103740000FB6F894DEBF0FBECDBF882349F090912D
:10375000C00095FFFCCF8093C60031968491F5CFD1
:10376000F7018191882339F09091C00095FFFCCF3B
:103770008093C600F6CF8091C00085FFFCCF3AE071
:103780003093C600C7010E948B9584E896E00E94A2
:10379000AE7A61E084E896E00E9418788091900407
:1037A000833211F41093770420918E0430918F04AA
:1037B0002115310509F4DDCC809193049091940496
:1037C000089FF001099FF00D11242E0F3F1FF901F2
:1037D000E556FB4F1082FC01E956FB4F1083209108
:1037E0009104309192042F5F3F4F309392042093C5
:1037F00091040196B6010E94FBBB909394048093C0
:10380000930410928D0410928F0410928E04DDCEDA
:103810009B3311F410938D0480918D048111D5CECA
:103820008091930490919404B9016F5F7F4F7093DE
:103830008F0460938E04089FF001099FF00D1124FE
:10384000E20FF31FE556FB4F4083BFCE6E960FB6D7
:10385000F894DEBF0FBECDBFDF91CF911F910F91C6
:10386000FF90EF90DF90CF90BF90AF909F908F90A0
:103870007F906F905F904F903F902F9008957F9230
:103880008F929F92AF92BF92CF92DF92EF92FF9270
:103890000F931F93CF93DF938EE6E82E86E0F82EEA
:1038A0000CE316E090E8C92E96E0D92EC5EDD3E0E2
:1038B0007C2E84E0780E89910E94E417882311F110
:1038C0000E94D0174B015C01F6016081611102C0BA
:1038D00060911B0670E080E090E00E94A8B8F701BC
:1038E00020813181428153810E94FDBA9B01AC014C
:1038F000C501B4010E94FFB6F80160837183828321
:1039000093830AC0F70180819181A281B381F8017C
:1039100080839183A283B383F4E0EF0EF11C0C5FEC
:103920001F4F8FEFC81AD80A7C12C5CF86E40E94B9
:10393000E4178823D9F00E94D0176B017C016093B3
:103940002C0670932D0680932E0690932F0620E070
:1039500030E0A9010E9416BA181644F4C09205027C
:10396000D0920602E0920702F0920802DF91CF9116
:103970001F910F91FF90EF90DF90CF90BF90AF908D
:103980009F908F907F9008950E943F1C89E40E9431
:10399000E417882359F00E94D01760933006709383
:1039A0003106809332069093330608C01092300699
:1039B0001092310610923206109233068AE40E9469
:1039C000E417882359F00E94D0176093340670934F
:1039D0003506809336069093370608951092340684
:1039E0001092350610923606109237060895CF923F
:1039F000DF92EF92FF92CF93DF93EC01C0905606D7
:103A0000D0905706E0905806F0905906A70196010D
:103A1000688179818A819B810E94F4B787FF04C005
:103A2000C882D982EA82FB82C0905A06D0905B0697
:103A3000E0905C06F0905D06A70196016C817D81A7
:103A40008E819F810E94F4B787FF04C0CC82DD8203
:103A5000EE82FF82C0905E06D0905F06E090600626
:103A6000F0906106A7019601688579858A859B8516
:103A70000E94F4B787FF04C0C886D986EA86FB8611
:103A8000C0900B02D0900C02E0900D02F0900E025C
:103A9000A7019601688179818A819B810E9416BA6B
:103AA000181624F4C882D982EA82FB82C0900F02E1
:103AB000D0901002E0901102F0901202A70196013E
:103AC0006C817D818E819F810E9416BA181624F424
:103AD000CC82DD82EE82FF82C0901302D09014026D
:103AE000E0901502F0901602A7019601688579858D
:103AF0008A859B850E9416BA181624F4C886D98632
:103B0000EA86FB86DF91CF91FF90EF90DF90CF9018
:103B10000895CF92DF92EF92FF920F931F938CE361
:103B200096E00E94F71C0E94960F609387047093A2
:103B300088048093890490938A0420913C063091F4
:103B40003D0640913E0650913F0660916E06709191
:103B50006F0680917006909171060E94F4B78111F2
:103B600021C020914006309141064091420650917B
:103B7000430660917206709173068091740690916D
:103B800075060E94F4B781110DC020E030E040E7D7
:103B900052E46091050270910602809107029091B3
:103BA00008021EC060911F0270912002072E000CB7
:103BB000880B990B0E94A8B820910502309106024B
:103BC00040910702509108020E94FDBA20E030E0C7
:103BD00040E752E40E94FEB720E030E048EC52E4B7
:103BE0000E94FEB72EE4C22E26E0D22E7B018C016D
:103BF00028E436E044E456E060E476E08CE396E0C6
:103C00000E94F04F80913C0690913D06A0913E06A7
:103C1000B0913F0680936E0690936F06A093700656
:103C2000B09371068091400690914106A0914206A2
:103C3000B09143068093720690937306A093740626
:103C4000B09375068091440690914506A091460672
:103C5000B09147068093760690937706A0937806F6
:103C6000B09379068091480690914906A0914A0642
:103C7000B0914B0680937A0690937B06A0937C06C6
:103C8000B0937D061F910F91FF90EF90DF90CF9042
:103C90000895AF92BF92CF92DF92EF92FF920F936F
:103CA0001F93CF93DF93F82EE0E3F6E02481358174
:103CB0004681578160817181828193810E9429BAF6
:103CC000EB01182F092F60911F0270912002072E1F
:103CD000000C880B990B0E94A8B820910502309126
:103CE000060240910702509108020E94FDBA20E0AE
:103CF00030E040E752E40E94FEB720E030E048ECBC
:103D000052E40E94FEB75B016C0180914E068F93D6
:103D1000FF920F931F93DF93CF9382E0E82E01E091
:103D200020E040E356E06CE376E08EE696E00E9409
:103D3000DC48EEE6F6E0ACE3B6E04D915D916D91C6
:103D40007C911397408351836283738314964D91C2
:103D50005D916D917C91179744835583668377833A
:103D600018964D915D916D917C911B97408751877D
:103D7000628773871C968D919D910D90BC91A02DAB
:103D800084879587A687B7870E94960F60938704DC
:103D9000709388048093890490938A040F900F9005
:103DA0000F900F900F900F90DF91CF911F910F9177
:103DB000FF90EF90DF90CF90BF90AF900895F89470
:103DC0000E94F968159A10925306469A109254066A
:103DD000439A10925506409AE0E8F9E084918823CE
:103DE00041F09091C00095FFFCCF8093C6003196C2
:103DF000F5CFE1E8F4E08491882341F09091C00090
:103E000095FFFCCF8093C6003196F5CF8091C0001E
:103E100085FFFCCF8AE08093C60088E794E00E948B
:103E2000A995FFCFCF92DF92EF92FF920F931F934E
:103E30000E94960F009183041091840420918504C0
:103E400030918604C0908704D0908804E090890463
:103E5000F0908A04DC01CB018C199D09AE09BF09E1
:103E6000081719072A073B0730F4012B022B032BF5
:103E700011F00E94DF1E8091010290910202A09138
:103E80000302B0910402892B8A2B8B2B19F10E941B
:103E9000960F009187041091880420918904309135
:103EA0008A04DC01CB01801B910BA20BB30B0091A8
:103EB00001021091020220910302309104020817BE
:103EC00019072A073B0730F49091A40B8091A30BAC
:103ED000981741F01F910F91FF90EF90DF90CF90D6
:103EE0000C94D44F159A10925306469A1092540689
:103EF000439A10925506409AEDCF0E94F96880913E
:103F00007904811138C081E0809379048091200682
:103F100090912106A0912206B091230680931C0661
:103F200090931D06A0931E06B0931F06E0E8F9E0EB
:103F30008491882341F09091C00095FFFCCF80933D
:103F4000C6003196F5CFE2E0F4E08491882341F099
:103F50009091C00095FFFCCF8093C6003196F5CFBD
:103F60008091C00085FFFCCF8AE08093C60088EF77
:103F700093E00C949A950895809179040895677060
:103F80007727E82FF0E0EE50FD4FE4918E2F90E080
:103F9000FC013697EC30F10588F58827EC56FF4F89
:103FA0008F4F0C9450BC8091B100887F8093B100FA
:103FB0008091B100682B6093B100089580919100C9
:103FC000887F8093910080919100682B609391008D
:103FD00008958091A100887F8093A1008091A10025
:103FE000682B6093A100089580912101887F8093C0
:103FF000210180912101682B6093210108951F9375
:10400000CF93DF93EC0180914E0680937A0484E590
:104010000E94E417182F811102C010E074C00E94A2
:10402000D0170E9477B860937A046623B1F3EAE769
:10403000F9E09491992341F08091C00085FFFCCF75
:104040009093C6003196F5CFCD36D105B9F054F432
:10405000C836D105B1F0C936D10509F045C0EEE248
:10406000F3E021C0CA3DD10531F0CD3DD105E1F5E8
:10407000E9EEF2E036C0E0E0F3E029C0E7E1F3E08A
:104080001CC0E5E4F3E08191882371F19091C000B8
:1040900095FFFCCF8093C600F6CF9091C00095FFAE
:1040A000FCCF8093C60081918111F7CF1DC0909104
:1040B000C00095FFFCCF8093C60081918111F7CF9E
:1040C00013C09091C00095FFFCCF8093C6008191F2
:1040D0008111F7CF09C09091C00095FFFCCF80936C
:1040E000C60081918111F7CF40E050E060917A04E1
:1040F00081E199E00E9408388091C00085FFFCCFE3
:104100008AE08093C600812FDF91CF911F9108959F
:104110003F924F925F926F927F928F929F92AF9257
:10412000BF92CF92DF92EF92FF920F931F93CF93A4
:10413000DF93CDB7DEB7E4970FB6F894DEBF0FBEBE
:10414000CDBF87E40E94E417882309F496C30E9438
:10415000D0170E9470B864307105D9F144F4623010
:10416000710521F15CF577FF17C00C94F9336A35BE
:10417000710509F42DC334F46C31710509F46FC075
:104180000C94F9336B35710509F426C36C35710550
:1041900009F427C30C94F93380917904811106C086
:1041A0000E943F1C0E94891D0C94983580917904CF
:1041B000811104C00E94C41C81E007C08091790471
:1041C000811107C00E94C41C80E00E94491E0C940B
:1041D000983582ED96E00E949A9580E50E94E4175A
:1041E000882339F00E94D0170E9477B86B017C01B8
:1041F00003C0C12CD12C760183E50E94E4178823EB
:1042000061F00E94D01720E030E04AE754E40E94B9
:10421000FDBA0E9477B86B017C010E94B6620E94D1
:10422000960FC60ED71EE81EF91E0E94960F6093C9
:104230008704709388048093890490938A040E9471
:10424000960F6C157D058E059F0510F00C94F933C3
:104250000E94D0650E94121F0E942E96F0CF80917E
:10426000050290910602A0910702B0910802809386
:10427000280690932906A0932A06B0932B068091D6
:104280001F029091200290937F0680937E0684E621
:1042900090E09093200280931F020E94960F6093FB
:1042A0008704709388048093890490938A0481E042
:1042B0000E941C5C80916E0690916F06A091700622
:1042C000B091710680933C0690933D06A0933E0604
:1042D000B0933F068091720690917306A091740688
:1042E000B09175068093400690934106A0934206D4
:1042F000B09343068091760690917706A091780658
:10430000B09179068093440690934506A0934606A3
:10431000B093470680917A0690917B06A0917C0627
:10432000B0917D068093480690934906A0934A0673
:10433000B0934B06109205021092060210920702EB
:104340001092080288E50E94E417882311F080E0AB
:104350000AC089E50E94E4178111F9CF8AE50E941D
:10436000E41791E089278093090281110CC088E548
:104370000E94E417882309F47AC189E50E94E417B2
:10438000882309F474C110926E0610926F06109281
:1043900070061092710610927206109273061092B7
:1043A000740610927506EBE3F9E014912AE736E003
:1043B00046E756E062E776E08EE696E00E947E5A97
:1043C0008AE499E00E94A41320E030E040EC5FE32F
:1043D0000E94FDBA6B017C01612F110F770B880BD6
:1043E000990B0E94A8B89B01AC01C701B6010E94BD
:1043F000FDBA60933C0670933D0680933E06909311
:104400003F068EE499E00E94A413ECE3F9E01491D6
:1044100020E030E040EC5FE30E94FDBA6B017C01DC
:10442000612F110F770B880B990B0E94A8B89B0185
:10443000AC01C701B6010E94FDBA609340067093BB
:1044400041068093420690934306209121023091C9
:1044500022024091230250912402209305023093BE
:1044600006024093070250930802C0902502D090A4
:104470002602E0902702F0902802C701B6010E94B0
:10448000F4B787FF08C0C0920502D0920602E092FE
:104490000702F09208028AE499E00E94A4136B01DB
:1044A0007C018EE499E00E94A4139B01AC01C7013A
:1044B000B6010E9416BA181614F00C94FC338EE460
:1044C00099E00E94A4136B017C018AE499E00E94A8
:1044D000A4139B01AC01C701B6010E94FEB79B016A
:1044E000AC010E94FDBA20E030E040E85FE30E94AA
:1044F000FFB60E9478BB9B01AC01609105027091F0
:10450000060280910702909108020E94FDBA609312
:10451000050270930602809307029093080220E040
:1045200030E040E752E4609105027091060280910C
:104530000702909108020E94FEB7FEE4CF2EF6E03B
:10454000DF2E7B018C0128E436E044E456E060E491
:1045500076E08CE396E00E94F04F0E94B66280E025
:1045600090E00E94AA1381E090E00E94AA132AE73B
:1045700036E046E756E062E776E08EE696E00E9497
:104580007E5A80916E0690916F06A0917006B09150
:10459000710680933C0690933D06A0933E06B0932F
:1045A0003F068091720690917306A0917406B091B7
:1045B00075068093400690934106A0934206B093FF
:1045C000430620E030E040E752E46091050270913C
:1045D000060280910702909108020E94FEB77B01BB
:1045E0008C0128E436E044E456E060E476E08CE3B5
:1045F00096E00E94F04F109205021092060210926F
:104600000702109208020E94B6620E94155C809117
:104610003C0690913D06A0913E06B0913F068093E6
:104620006E0690936F06A0937006B093710680910A
:10463000400690914106A0914206B09143068093B6
:10464000720690937306A0937406B09375068091DA
:10465000440690914506A0914606B0914706809386
:10466000760690937706A0937806B09379068091AA
:10467000090281110C94063488E50E94E417811127
:104680000C9406348091090281110C940C3489E554
:104690000E94E41781110C940C3488E50E94E41701
:1046A0008823D1F00E94D917672B682B692BA1F0C2
:1046B0000E94D017209162063091630640916406F3
:1046C000509165060E94FFB660936E0670936F0668
:1046D000809370069093710689E50E94E417882301
:1046E000D1F00E94D917672B682B692BA1F00E948B
:1046F000D017209166063091670640916806509168
:1047000069060E94FFB660937206709373068093E9
:104710007406909375068091090281110C941234ED
:104720008AE50E94E41781110C9412348AE50E94F4
:10473000E4178823D1F00E94D917672B682B692BC7
:10474000A1F00E94D01720916A0630916B0640912B
:104750006C0650916D060E94FFB6609376067093CA
:10476000770680937806909379062AE736E046E745
:1047700056E062E776E08EE696E00E947E5A80E0A0
:104780000E941C5C8091280690912906A0912A061F
:10479000B0912B068093050290930602A093070226
:1047A000B093080280917E0690917F06909320023C
:1047B00080931F020E94960F609387047093880471
:1047C0008093890490938A040E94155C0C94F933B9
:1047D00010921B060C94F93381E080931B060C9415
:1047E000F93385E40E94E417811102C00E94B66289
:1047F00065EDA62E63E0B62E72E6C72E76E0D72EC4
:10480000EEE6EE2EE6E0FE2E10E0F50181915F016E
:104810000E94E417882331F1133061F40E94D0170D
:10482000F70160837183828393838AE796E00E9415
:10483000055B18C00E94D017F601208131814281AA
:1048400053810E94FFB6F701608371838283938353
:104850002AE736E046E756E062E776E08EE696E045
:104860000E947E5A1F5FF4E0CF0ED11C24E0E20EBE
:10487000F11C143051F60C94F9338DE40E94E417C6
:10488000882311F40C9428330E94D0170E9470B82A
:104890006237710509F497C70CF0BBC06E31710522
:1048A00009F469C20CF046C06631710509F4F4C11F
:1048B000BCF46131710509F4B1C134F462307105A1
:1048C00008F44EC10C94F9336431710509F4B0C198
:1048D0000CF0DCC16231710509F494C60C94F93313
:1048E0006931710509F4F7C1CCF46731710509F438
:1048F000D9C16831710511F00C94F93384E896E060
:104900000E94A2720E94960F60937F0470938004AD
:1049100080938104909382040C94F9336B31710578
:1049200009F4EDC10CF4DDC16C31710509F4EDC180
:104930000C94F9336435710509F464C6ACF56A3238
:10494000710509F452C354F46F31710509F4F0C2D2
:104950006032710509F44EC20C94F9336235710569
:1049600009F447C60CF049C66135710511F00C9485
:10497000F9330E94F9680E94B662409A0E9415635A
:1049800010924D0610924C0668EE73E080E090E0C5
:104990000E94C70F10920A0286E096E00E949A9544
:1049A0000E942E960C94F9336936710509F46AC396
:1049B00024F56C35710509F45DC66836710509F496
:1049C00032C36535710511F00C94F93383E50E940B
:1049D000E4170E94D01720E030E04AE754E40E9438
:1049E000FDBA0E9477B86093830470938404809327
:1049F0008504909386040C94F9336B36710509F4A1
:104A0000F2C50CF4C0C56D36710509F448C40C94A8
:104A1000F9336D3D710511F40C94AA2E0CF047C0CA
:104A20006E3B710509F4A9C4E4F46737710509F414
:104A300094C054F46337710509F4A1C66537710554
:104A400009F4ACC60C94F9336937710511F40C9470
:104A5000C62C0CF497C76C38710509F402C30C948A
:104A6000F9336C3C710511F40C94002E8CF4693C04
:104A7000710511F40C94C22D6B3C710511F40C946A
:104A8000E32D683C710511F00C94F9330C944A2D18
:104A90006E3C710511F40C947E2E14F40C94202EAF
:104AA0006C3D710511F40C949B2E0C94F933653F09
:104AB00031E0730711F40C94F32F34F56E3291E06A
:104AC000790711F40C94A72F64F4623E710511F478
:104AD0000C94D02E6D32714011F40C94E12E0C9494
:104AE000F933603921E0720711F40C94ED2F643F23
:104AF00031E0730711F40C94F02F6F32714011F014
:104B00000C94F9330C94B52F633593E0790711F4C5
:104B10000C94FC2F84F4673FF1E07F0711F40C94B0
:104B2000F92F14F40C94F62F6835724011F40C949C
:104B3000D1300C94F933603A83E0780709F4C4C1AA
:104B4000673E93E0790711F40C9411336B3873408E
:104B500011F00C94F9330C94EB32EBE6F3E020C740
:104B600081EC96E00E949A9580E50E94E4178823E4
:104B700039F00E94D0170E9477B86B017C0103C006
:104B8000C12CD12C760183E50E94E417882361F0C3
:104B90000E94D01720E030E04AE754E40E94FDBABA
:104BA0000E9477B86B017C010E94B6620E94960F4A
:104BB00060938704709388048093890490938A0497
:104BC000C114D104E104F104C1F00E94960FC60E95
:104BD000D71EE81EF91E0E94960F6C157D058E05E6
:104BE0009F05B0F40E94F996811112C00E94D06511
:104BF0000E94121F0E942E96EECF0E94F9968111FC
:104C000007C00E94D0650E94121F0E942E96F5CF09
:104C100082EB96E00E949A950C94F93389EA96E02B
:104C20000E949A9515984698439840980C94F933A9
:104C3000E9E9F6E08491882341F09091C00095FF66
:104C4000FCCF8093C6003196F5CF8091C00085FFE0
:104C5000FCCF8AE08093C60084E896E00E948071D1
:104C6000EBE8F6E08491882341F09091C00095FF35
:104C7000FCCF8093C6003196F5CF8091C00085FFB0
:104C8000FCCF8AE08093C6000C94F93384E896E068
:104C90000E94D7710C94F93384E896E00E949E72CA
:104CA0000C94F93300918B0410918C040C5F1F4F0E
:104CB0006AE270E0C8010E9495BF009719F0FC01FC
:104CC0003197108221E041E0B80184E896E00E942B
:104CD00000730C94F93384E896E00E94A9720C9456
:104CE000F93380918706882311F40C94F93383E516
:104CF0000E94E41781110C9418340C94F93384E861
:104D000096E00E9452770C94F93380918B04909135
:104D10008C046AE270E004960E9495BF8C01892B96
:104D2000E1F0209195043091960440E6429FC00145
:104D3000439F900D11246EE470E085569B4F0E94B6
:104D400095BF60E270E00E9495BF019690938C043D
:104D500080938B04F8013197108260918B047091DD
:104D60008C046C5F7F4F21E040E084E896E00E9475
:104D700000730C94F93380918706882311F40C9406
:104D8000F93360E084E896E00E940B7980918B040F
:104D900090918C046AE270E004960E9495BF8C01A9
:104DA000892BE1F0209195043091960440E6429FD2
:104DB000C001439F900D11246EE470E085569B4F17
:104DC0000E9495BF60E270E00E9495BF01969093AB
:104DD0008C0480938B04F8013197108260918B04CE
:104DE00070918C046C5F7F4F84E896E00E94187687
:104DF0000C94F9338091860681110E94B66200916D
:104E00008B0410918C040C5F1F4F6AE270E0C801A4
:104E10000E9495BF7C0161E270E0C8010E9495BFCD
:104E2000009719F08C010F5F1F4FE114F10419F086
:104E3000F7013197108280E50E94E417F82E8091E7
:104E40008B0490918C040817190708F4F12C8091B9
:104E50008706882311F40C94F93321E02F2541E0D3
:104E6000B80184E896E00E94007383E50E94E4178D
:104E70008823B9F080918B0490918C04801791075E
:104E800080F40E94D917AB01BC01409307095093ED
:104E900008096093090970930A0982E598E00E9465
:104EA000993E84E896E00E94A272F1100C94F933C6
:104EB0000E94960F60937F04709380048093810416
:104EC000909382040C94F93380918B0490918C041C
:104ED0006AE270E005960E9495BF8C01892BE1F093
:104EE000209195043091960440E6429FC001439F73
:104EF000900D11246EE470E085569B4F0E9495BF83
:104F000060E270E00E9495BF019690938C048093BC
:104F10008B04F8013197108260918B0470918C049E
:104F20006B5F7F4F84E896E00E9412760C94F93311
:104F30000E94960F60937B0470937C0480937D04A1
:104F400090937E0400917F0410918004209181044D
:104F500030918204601B710B820B930B28EE33E0BF
:104F600040E050E00E940FBCCA01B9012CE330E0E0
:104F700040E050E00E940FBC7F936F933F932F93CC
:104F80008CE796E09F938F938E010F5F1F4F1F93C7
:104F90000F930E94C4BFEAE7F9E094910FB6F8942A
:104FA000DEBF0FBECDBF992349F08091C00085FFC1
:104FB000FCCF9093C60031969491F5CFF801819182
:104FC000882339F09091C00095FFFCCF8093C600F4
:104FD000F6CF8091C00085FFFCCF8AE08093C600A9
:104FE000C8010E948B950C94F93383E50E94E41765
:104FF000882311F40C94F9330E94D0176B017C01C3
:1050000080E50E94E417882311F40C94F933C7015A
:10501000B6010E9470B86F3F710509F010F40C944E
:1050200029340C94F93388E690E00E94FF1F811127
:105030000C94F93383E50E94E417882371F0009102
:105040007A040E94D01710E0000F111F0C561E4E5C
:105050000E9470B8F801718360830E94BE680C944E
:10506000F93383E50E94E417882311F40C94F93393
:105070000E94D0170E9470B87093931160939211A0
:105080000C94F93389E690E00E94FF1F81110C9483
:10509000F933E6E7F6E08491882341F09091C0006F
:1050A00095FFFCCF8093C6003196F5CFE0917A044E
:1050B00024E0E29FF0011124E457FE4E408151812B
:1050C0006281738121E030E081E199E00E94AE3895
:1050D000E3E7F6E08491882341F09091C00095FFCA
:1050E000FCCF8093C6003196F5CFE0917A04F0E0D2
:1050F000EE0FFF1FEC56FE4E60817181072E000CF3
:10510000880B990B0E94A8B8AB01BC0121E030E0EC
:1051100081E199E00E94AE38EFE6F6E084918823C1
:1051200041F09091C00095FFFCCF8093C60031966E
:10513000F5CF40918611509187116091881170913F
:10514000891121E030E081E199E00E94AE38ECE67F
:10515000F6E08491882341F09091C00095FFFCCF48
:105160008093C6003196F5CF6091921170919311A2
:10517000072E000C880B990B0E94A8B8AB01BC014C
:1051800021E030E081E199E00E94AE38E9E6F6E006
:105190008491882341F09091C00095FFFCCF8093CB
:1051A000C6003196F5CF4AE050E060E070E081E162
:1051B00099E00E94CE37E7E6F6E08491882341F03B
:1051C0009091C00095FFFCCF8093C6003196F5CF3B
:1051D00040918C1150918D1160918E1170918F11B1
:1051E00021E030E081E199E00E94AE38E4E6F6E0AB
:1051F0008491882341F09091C00095FFFCCF80936B
:10520000C6003196F5CF6091941170919511072EDB
:10521000000C880B990B0E94A8B8AB01BC0121E0DF
:1052200030E081E199E00E94AE38E0E6F6E084915A
:10523000882341F09091C00095FFFCCF8093C60079
:105240003196F5CF80917A0490E00E94C5654AE0DE
:1052500050E0BC0181E199E00E94CE37EBE5F6E039
:105260008491882341F09091C00095FFFCCF8093FA
:10527000C6003196F5CF8FEF9FEF0E94C5654AE0DB
:1052800050E0BC0181E199E00E94CE378091C000DE
:1052900085FFFCCF8AE08093C6000C9498358DE69C
:1052A00090E00E94FF1F81110C94F93380E596E095
:1052B0000E949A9583E50E94E417882391F000915B
:1052C0007A040E94D01710E0000F111F0C561E4EDA
:1052D0000E9470B8F8017183608381E080930002BE
:1052E00015C082E50E94E417882381F000917A04BA
:1052F0000E94D01710E0000F111F0C561E4E0E9486
:1053000070B8F80171836083109200020E94BE6839
:105310000E94960F2B013C0100917A0410E0F801E5
:10532000EE0FFF1FEC56FE4E60817181072E000CC0
:10533000880B990B0E94A8B8000F111F000F111FB6
:10534000F801E457FE4E11E0208131814281538102
:105350000E9416BA18160CF010E0109378048824F6
:105360008A94982C540178EEC72E73E0D72EE12C46
:10537000F12CEAE03E2E0C948C348AE296E00E94F6
:105380009A9583E50E94E417882361F00E94D01764
:105390000E9470B8709393116093921181E0809392
:1053A00000020FC082E50E94E417882351F00E949A
:1053B000D0170E9470B8709393116093921110925D
:1053C00000020E94960F4B015C0160919211709156
:1053D0009311072E000C880B990B0E94A8B811E0BE
:1053E0002091861130918711409188115091891137
:1053F0000E9416BA18160CF010E01093780407E219
:1054000016E073E2E72E76E0F72EEFE1CE2EE6E02F
:10541000DE2EFAE07F2E80917804609192117091D7
:105420009311882309F488C0072E000C880B990B70
:105430000E94A8B82091861130918711409188115F
:10544000509189110E9416BA18160CF08CC00E9457
:10545000960FDC01CB0188199909AA09BB09893E7D
:105460009340A105B10508F460C0E0914E0634E018
:10547000E39FF0011124E457FE4E40815181628187
:105480007381F8018491E7E2F6E0882349F0909176
:10549000C00095FFFCCF8093C60031968491F5CF74
:1054A00022E030E081E199E00E94AE38F70184917A
:1054B000E3E2F6E0882349F09091C00095FFFCCF2D
:1054C0008093C60031968491F5CF60914E0670E0CE
:1054D0004AE050E081E199E00E94CE37F6018491E4
:1054E000EFE1F6E0882349F09091C00095FFFCCFF2
:1054F0008093C60031968491F5CF409186115091EA
:105500008711609188117091891121E030E081E16B
:1055100099E00E94AE388091C00085FFFCCF709268
:10552000C6000E94960F4B015C010E94D0650E944C
:10553000121F0E942E966FCF072E000C880B990B1E
:105540000E94A8B82091861130918711409188114E
:10555000509189110E94F4B787FF05C08091000225
:10556000882309F474CF85E196E00E949A950E9401
:10557000960F6093870470938804809389049093B6
:105580008A040C94F93383E50E94E417882319F107
:105590000E94D01720E030E0A9010E94F4B787FDF7
:1055A0000FC00E94D01720E030E04FE753E40E9484
:1055B00016BA181644F00E94D0170E9470B805C0A1
:1055C00060E070E002C06FEF70E070934D06609392
:1055D0004C060C94F9338FEF90E090934D06809336
:1055E0004C060C94F93310924D0610924C060C9414
:1055F000F933109283060C94F93381E0809383068B
:105600000C94F93383E50E94E4178823A1F00E94EB
:10561000D01720E030E04AE754E40E94FDBA0E942F
:1056200077B8609301027093020280930302909313
:1056300004020C94F93388E50E94E41781110C945C
:10564000763589E50E94E41781110C9476358AE558
:105650000E94E41781110C94763585E40E94E417CA
:1056600081110C9476350E94B662409A0E941563AF
:105670000C94F93355ED852E53E0952E05ED10E190
:1056800065EEA62E60E1B62E29E930E138AB2FA7F2
:10569000312CF40181914F010E94E417882309F411
:1056A0005DC0F3E03F1253C00E94D0172B013C01B4
:1056B00020E030E040EA51E40E94F4B787FF41C0A7
:1056C000A3019201F80160817181828193810E941E
:1056D000FEB76B017C019B01AC016091AD10709134
:1056E000AE108091AF109091B0100E94FDBA6093FF
:1056F000AD107093AE108093AF109093B010A701CF
:105700009601F50160817181828193810E94FDBAC9
:10571000F5016083718382839383EFA5F8A960818B
:105720007181828193810E94A6B8A70196010E948F
:10573000FDBA0E9477B8EFA5F8A9608371838283D0
:105740009383F801408251826282738207C00E9473
:10575000D017F801608371838283938333940C5F45
:105760001F4FF4E0AF0EB11C2FA538A92C5F3F4F9F
:1057700038AB2FA734E033128CCF0C94F933ECE321
:10578000F5E08491882311F40C94F9339091C000D2
:1057900095FFFCCF8093C6003196F3CF00918B0428
:1057A00010918C040B5F1F4F6AE270E0C8010E94E9
:1057B00095BF009719F0FC0131971082C8010E9433
:1057C0008B950C94F933E9E3F5E08491882341F05B
:1057D0009091C00095FFFCCF8093C6003196F5CF25
:1057E00040916E0650916F0660917006709171063F
:1057F00022E030E081E199E00E94AE38E5E3F5E097
:105800008491882341F09091C00095FFFCCF809354
:10581000C6003196F5CF40917206509173066091A3
:1058200074067091750622E030E081E199E00E94F3
:10583000AE38E1E3F5E08491882341F09091C00017
:1058400095FFFCCF8093C6003196F5CF4091760648
:1058500050917706609178067091790622E030E0E9
:1058600081E199E00E94AE38EDE2F5E08491882371
:1058700041F09091C00095FFFCCF8093C600319617
:10588000F5CF40917A0650917B0660917C0670912D
:105890007D0622E030E081E199E00E94AE38E2E24C
:1058A000F5E08491882341F09091C00095FFFCCFF2
:1058B0008093C6003196F5CF0E9407630E94A8B876
:1058C0002091D5103091D6104091D7105091D8101A
:1058D0000E94FEB7AB01BC0122E030E081E199E01B
:1058E0000E94AE38EEE1F5E08491882341F090917A
:1058F000C00095FFFCCF8093C6003196F5CF81E0C4
:105900000E9407630E94A8B82091D9103091DA1044
:105910004091DB105091DC100E94FEB7AB01BC013E
:1059200022E030E081E199E00E94AE38EAE1F5E062
:105930008491882341F09091C00095FFFCCF809323
:10594000C6003196F5CF82E00E9407630E94A8B896
:105950002091DD103091DE104091DF105091E01069
:105960000E94FEB7AB01BC0122E030E081E199E08A
:105970000E94AE388091C00085FFFCCF8AE0809302
:10598000C60037C780E00E941C5C33C781E00E94DC
:105990001C5C2FC79091C00095FFFCCF8093C60080
:1059A00081918111F7CF8091C00085FFFCCF8AE003
:1059B0008093C600E2E1F5E08491882341F0909164
:1059C000C00095FFFCCF8093C6003196F5CF009BB9
:1059D00003C0E6E6F3E009C0ECE5F3E006C0909111
:1059E000C00095FFFCCF8093C60081918111F7CF55
:1059F0008091C00085FFFCCF8AE08093C600EAE07A
:105A0000F5E08491882341F09091C00095FFFCCF90
:105A10008093C6003196F5CF049B03C0E6E6F3E021
:105A200009C0ECE5F3E006C09091C00095FFFCCF03
:105A30008093C60081918111F7CF8091C00085FFCE
:105A4000FCCF8AE08093C600E2E0F5E084918823F1
:105A500041F09091C00095FFFCCF8093C600319635
:105A6000F5CF079B03C0E6E6F3E009C0ECE5F3E001
:105A700006C09091C00095FFFCCF8093C600819135
:105A80008111F7CF8091C00085FFFCCF8AE0809321
:105A9000C600AFC684E40E94E417882309F4A9C6AF
:105AA0000E94D01720E030E040E05FE30E94FDBAA2
:105AB0006B017C0120E030E0A9010E94F4B788234B
:105AC00079F0A7019601C701B6010E94FDBA2BED3E
:105AD0003FE049E450E40E94FDBA9B01AC0104C0E0
