:100000000C94650F0C9422120C9453120C948412CD
:100010000C94B5120C94E6120C9417130C9448131C
:100020000C9479130C94960F0C94960F0C94960FD5
:100030000C94960F0C94A4890C94960F0C94960F24
:100040000C94960F0C94835E0C94960F0C94960F60
:100050000C94960F0C94960F0C9442720C94980F7B
:100060000C94960F0C94BB380C94960F0C94960F2E
:100070000C94960F0C94960F0C94960F0C94960F6C
:100080000C94960F0C94960F0C94960F0C94960F5C
:100090000C94960F0C94960F0C94960F0C94960F4C
:1000A0000C94960F0C94960F0C94960F0C94960F3C
:1000B0000C94960F0C94960F0C94960F0C94960F2C
:1000C0000C94960F0C94960F0C94960F0C94960F1C
:1000D0000C94960F0C94960F0C94960F0C94960F0C
:1000E0000C94960FCE10D310D810E2105B11EC10C8
:1000F000F410FC10061110111A11291133115B11A3
:100100003D11471151117B117E1171117511B511FE
:10011000821186118C11901194119A119E11A211C5
:10012000B511A811AC11B011392039204420442058
:1001300044204F204F204F2064205A205A205A201C
:100140009D72AC72C872D772F17200731A731E730B
:100150002673084AD73B3BCE016E84BCBFFDC12F3E
:100160003D6C74319ABD56833DDA3D00C77F11BEA8
:10017000D9E4BB4C3E916BAAAABE000000803F05AB
:10018000A84CCDB2D44EB93836A9020C50B99186DC
:1001900088083CA6AAAA2ABE000000803F000C9452
:1001A00037930C9488380C94EC100C9419A50C948B
:1001B0000EB80C947B110C9486110C9447110C947E
:1001C00006110C94FD8E0C9408AA0C94F1720C94F8
:1001D0000B8F0C94D18B0C94C8720C946EBC0C9445
:1001E000F4100C9434B60C949BBC0C94B5110C9484
:1001F000C18F0C94ACB00C94E2B60C940AB50C947C
:1002000075110C948F900C941A730C949A110C9491
:1002100000730C9429110C947E110C948EB80C94DC
:100220006BBA0C9433110C94BDB40C94B0110C94B3
:10023000AC110C945B110C94D3100C941A110C9407
:1002400090110C94EF8E0C946DA10C94849C0C94E2
:10025000AC720C942BC10C94FC100C9451110C94A6
:1002600084380C945A200C94905D0C94378D0C9427
:1002700044200C9464200C94D58F0C941E730C9421
:1002800026730C94A8110C94E2100C946B460C94F9
:1002900039200C9425B90C949D720C9482110C9405
:1002A00086B50C94D8100C94CE100C940EBB0C9404
:1002B00094110C9443A30C9490B70C94D6980C947E
:1002C000AF9A0C94C8B90C94D7720C94B6BB0C942A
:1002D000AA130C9410110C94F6950C94A2110C9482
:1002E0003D110C9471110C949E110C944F200C94A0
:1002F0008C110000090A02080B0C0D07060304010B
:1003000000000000000000000000000000000000ED
:1003100000000000000000000000000000001110BC
:100320000F000000000000000000000000000000BE
:10033000000000000000000001021020200808104A
:100340002040102040800201020108040201010245
:10035000040810204080804020100804020180041E
:100360000201804020100804020108040201010279
:100370000408102040800102040810204080050578
:100380000505070508080808020202020A0A08080B
:100390000404040401010101010101010303030339
:1003A00003030303040707070C0C0C0C0C0C0C0CC8
:1003B0000202020206060606060606060B0B0B0BD9
:1003C0000B0B0B0B00002200250028002B002E0039
:1003D0003100340002010000050108010B0100009A
:1003E0002100240027002A002D00300033000101E5
:1003F0000000040107010A0153544F505045442E98
:1004000020005072696E7465722073746F7070652D
:10041000642064756520746F206572726F72732E2C
:100420002046697820746865206572726F72206159
:100430006E6420757365204D39393920746F2072D0
:100440006573746172742E202854656D70657261D5
:10045000747572652069732072657365742E2053FC
:1004600065742069742061667465722072657374A6
:10047000617274696E6729004B494C4C45442E20CB
:10048000005072696E7465722068616C7465642EC8
:10049000206B696C6C28292063616C6C6564210099
:1004A0006F6B00526573656E643A20002200556ED2
:1004B0006B6E6F776E20636F6D6D616E643A202294
:1004C000004368616E67652066696C616D656E7476
:1004D000005A204F6666736574203A20007A5F6D7B
:1004E00061783A20007A5F6D696E3A20005A204F99
:1004F0006666736574005A204F6666736574206F74
:100500006B00486F74656E64206F66667365747304
:100510003A007A5F6D61783A20007A5F6D696E3AD1
:100520002000795F6D61783A2000795F6D696E3ADD
:100530002000785F6D61783A2000785F6D696E3ACF
:100540002000205A3A0020593A0020436F756E74FB
:1005500020583A200020453A00205A3A0020593AC3
:1005600000583A004649524D574152455F4E414D61
:10057000453A4D61726C696E2056313B2053707262
:10058000696E7465722F6772626C206D6173687535
:100590007020666F722067656E36204649524D574F
:1005A0004152455F55524C3A687474703A2F2F6629
:1005B00069726D776172652E756C74696D616B65BA
:1005C000722E636F6D2050524F544F434F4C5F5605
:1005D000455253494F4E3A312E30204D4143484900
:1005E0004E455F545950453A556C74696D616B6561
:1005F000722045585452554445525F434F554E540E
:100600003A3220555549443A30303030303030306D
:100610002D303030302D303030302D303030302DE6
:100620003030303030303030303030300A00556CBF
:1006300074696D616B6572204F66662E0042656459
:1006400020646F6E652E0020423A0020453A005427
:100650003A004265642048656174696E672E0048FF
:10066000656174696E6720646F6E652E0020573A6D
:100670000020453A00543A0048656174696E672E5F
:100680002E2E002042403A0020403A00202F003A0F
:1006900000205400202F0020423A00202F006F6BD2
:1006A00020543A002569206D696E2C20256920733D
:1006B000656300456E642066696C65206C697374BF
:1006C00000426567696E2066696C65206C697374A9
:1006D000004E6F206D6F76652E00526573756D69E3
:1006E0006E67207072696E74005761697420666F5E
:1006F0007220757365722E2E2E00536C6565702EF8
:100700002E2E00256920686F757273202569206D73
:10071000696E7574657300446F6E65207072696EE2
:1007200074696E672066696C650053544F5050457C
:10073000442E20005072696E7465722073746F705D
:100740007065642064756520746F206572726F72C5
:10075000732E2046697820746865206572726F7206
:1007600020616E6420757365204D39393920746FAE
:1007700020726573746172742E202854656D7065E3
:100780007261747572652069732072657365742E69
:1007900020536574206974206166746572207265E7
:1007A0007374617274696E6729006F6B004E6F20FD
:1007B0004C696E65204E756D62657220776974684C
:1007C00020636865636B73756D2C204C61737420B6
:1007D0004C696E653A20004E6F20436865636B7309
:1007E000756D2077697468206C696E65206E756D13
:1007F0006265722C204C617374204C696E653A20DE
:1008000000636865636B73756D206D69736D6174EA
:1008100063682C204C617374204C696E653A20002B
:100820004C696E65204E756D626572206973206E2D
:100830006F74204C617374204C696E65204E756D29
:100840006265722B312C204C617374204C696E658B
:100850003A20004D31313000446F6E65207361766F
:10086000696E672066696C652E006F6B004D3239CA
:10087000002020506C616E6E65724275666665720E
:1008800042797465733A20002046726565204D6593
:100890006D6F72793A20004D617920323920323003
:1008A000313700436F6D70696C65643A20002844ED
:1008B0006176696420427261616D2900207C20416B
:1008C0007574686F723A20004D6179203239203298
:1008D0003031372031383A33303A303300204C61F0
:1008E000737420557064617465643A2000312E3051
:1008F0002E30004D61726C696E0020536F66747704
:100900006172652052657365740020576174636875
:10091000646F67205265736574002042726F776E52
:10092000206F757420526573657400204578746576
:10093000726E616C20526573657400506F776572DA
:100940005570007374617274002200656E71756574
:10095000696E672022002200656E717565696E6799
:10096000202200FFFFFF0000A0400000A040000088
:100970000040000052430000524300005243000078
:1009800000000000000000000000000052430000D2
:10099000524300005243000000000000000000002D
:1009A00000006563686F3A004572726F723A007CAE
:1009B0003C3E5E2B3D3F2F5B5D3B2C2A225C0020A2
:1009C000746F6F206C6F6E672065787472757369D1
:1009D0006F6E2070726576656E7465640020636F5B
:1009E0006C6420657874727573696F6E20707265BF
:1009F00076656E746564006563686F3A00656E6461
:100A000073746F7073206869743A205A00205A3AE0
:100A100000656E6473746F7073206869743A20594E
:100A20000020593A00656E6473746F7073206869B2
:100A3000743A20580020583A00656E6473746F70E1
:100A400073206869743A200024F4D43050C38E2097
:100A5000C2A24017828B7011127A910D816CD90A53
:100A6000A861E108C7586607615143061E4B5D0542
:100A7000C145A7041A411104093D98037139310396
:100A80004036DB0265339102D4305402802E1D02C1
:100A9000632CEE01752AC501B028A0011027810141
:100AA0008F2564012B244B01E0223401AC211F016E
:100AB0008D200D01801FFC00841EED00971DDF00BE
:100AC000B81CD200E61BC600201BBC00641AB20092
:100AD000B219A8000A19A0006A189900D11791004C
:100AE00040178B00B516840031167E00B3157900CF
:100AF0003A157300C7146F0058146A00EE136600AD
:100B00008813630025135E00C7125B006C12570048
:100B100015125400C111510070114F0021114B00EA
:100B2000D61049008D1047004610440002104200C4
:100B3000C00F4000800F3E00420F3C00060F3B00FC
:100B4000CB0E3800930E37005C0E3500270E3400B4
:100B5000F30D3200C10D3100900D3000600D2E00FC
:100B6000320D2D00050D2C00D90C2B00AE0C2900E8
:100B7000850C29005C0C2700350C27000E0C260084
:100B8000E80B2400C40B2400A00B23007D0B2300E2
:100B90005A0B2100390B2100180B2000F80A1F0006
:100BA000D90A1E00BB0A1E009D0A1D00800A1D00F6
:100BB000630A1C00470A1B002C0A1B00110A1A00BA
:100BC000F7091A00DD091900C4091900AB09190059
:100BD000920917007B091800630917004C091600D9
:100BE00036091600200916000A091500F508150037
:100BF000E0081400CC081400B8081400A40814007D
:100C0000900813007D0812006B08130058081200AA
:100C100046081200340811002308110012081100C0
:100C200001081100F0071000E0071000D0071000C5
:100C3000C0071000B0070F00A107100091070E00B9
:100C400083070F0074070F0065070E0057070E009B
:100C500049070E003B070D002E070E0020070D0070
:100C600013070D0006070D00F9060C00ED060D0038
:100C7000E0060C00D4060C00C8060C00BC060C00F4
:100C8000B0060C00A4060B0099060C008D060B00A4
:100C900082060B0077060B006C060B0061060A004B
:100CA00057060B004C060A0042060A0038060A00E6
:100CB0002E060A0024060A001A060A001006090079
:100CC00007060A00FD050900F4050900EB05090007
:100CD000E2050900D9050900D0050900C70509008A
:100CE000BE050900B5050800AD050800A505090009
:100CF0009C050800940508008C0508008405080080
:100D00007C050800740508006C05070065050800EF
:100D10005D050700560508004E050700470507005A
:100D20004005080038050700310507002A050700BF
:100D3000230507001C050600160507000F05070020
:100D40000805060002050700FB040600F50407007D
:100D5000EE040600E8040600E2040700DB040600D7
:100D6000D5040600CF040600C9040600C30406002B
:100D7000BD040600B7040600B1040500AC0406007B
:100D8000A6040600A00405009B04060095040500C7
:100D9000900406008A04050085040500800406000E
:100DA0007A04050075040500700405006B04050055
:100DB00066040500610405005C0405005704050095
:100DC000520405004D0405004804050043040500D5
:100DD0003E0404003A040500350405003004040014
:100DE0002C04050027040400230405001E0404004D
:100DF0001A04040016040500110404000D04040084
:100E0000090405000404040000040400FC030400B9
:100E1000F8030400F4030400F0030400EC030400EE
:100E2000E8030400E4030400E0030400DC0304001E
:100E3000D8030400D4030400D0030400CC0304004E
:100E4000C8030300C503030024F404D9201BC40C09
:100E50005C0E9804C4095F0265077101F405F9008E
:100E6000FB04B30048048700C10369005803550020
:100E700003034500BE023A008402310053022A00F7
:100E80002902250004022000E4011C00C801190009
:100E9000AF011700980114008401130071011000C4
:100EA0006101100051010E0043010D0036010B00DD
:100EB0002B010B0020010B00150109000C0109009A
:100EC00003010800FB000800F3000800EB00070026
:100ED000E4000600DE000600D8000600D20006008E
:100EE000CC000500C7000500C2000500BD000400DD
:100EF000B9000400B5000400B1000400AD00040016
:100F0000A9000400A5000300A20003009F00040044
:100F10009B0003009800030095000200930003006B
:100F2000900003008D0002008B0003008800020087
:100F30008600020084000300810002007F0002009E
:100F40007D0002007B0002007900020077000100B2
:100F500076000200740002007200010071000200BD
:100F60006F0002006D0001006C0002006A000100C9
:100F700069000200670001006600010065000100D1
:100F800064000200620001006100010060000100D5
:100F90005F0002005D0001005C0001005B000100D9
:100FA0005A000100590001005800010057000100DB
:100FB00056000100550001005400010053000000DC
:100FC00053000100520001005100010050000100D7
:100FD0004F0001004E0000004E0001004D000100D6
:100FE0004C0001004B0000004B0001004A000100D2
:100FF00049000100480000004800010047000100CE
:1010000046000000460001004500000045000100C8
:1010100044000100430000004300010042000000C2
:1010200042000100410000004100010040000100B9
:101030003F0000003F0001003E0000003E000100B4
:101040003D0000003D0001003C0000003C000000AD
:101050003C0001003B0000003B0001003A000000A2
:101060003A0001003900000039000100380000009A
:101070003800000038000100370000003700010090
:101080003600000036000000360001003500000088
:10109000350000003500010034000000340000007D
:1010A0003400010033000000330000003300010071
:1010B0003200000032000000320001003100000068
:1010C000310000003100010030000000300000005D
:1010D000300001002F0000002F0000002F00000052
:1010E0002F0001002E0000002E0000002E00010045
:1010F0002D0000002D0000002D0000002D0001003B
:101100002C0000002C0000002C0000002C0001002E
:101110002B0000002B0000002B0000002B00010022
:101120002A0000002A0000002A0000002A00010016
:10113000290000002900000029000000290000000B
:1011400029000100280000002800000028000000FD
:1011500028000000280001002700000027000000F0
:1011600027000000270000002700010026000000E3
:1011700026000000260000002600000026000100D6
:1011800025000000250000002500000025000000CB
:1011900025000000250001002400000024000000BC
:1011A00024000000240000002400010023000000AF
:1011B00023000000230000002300000023000000A3
:1011C0002300000023000100220000002200000094
:1011D0002200000022000000220000002200010086
:1011E000210000002100000021000000210000007B
:1011F000210000002100000021000100200000006B
:10120000200000002000000020000000200000005E
:101210002000000020000000200001001F0000004E
:101220001F0000001F0000001F0000001F00000042
:101230001F0000001F0001001E0000001E00000033
:101240001E0000001E0000006563686F3A004572D2
:10125000723A204D415854454D5020424544005467
:10126000656D70657261747572652068656174651D
:101270006420626564207377697463686564206FB5
:1012800066662E204D415854454D50207472696752
:101290006765726564202121004572723A204D49CC
:1012A0004E54454D50003A2045787472756465720D
:1012B000207377697463686564206F66662E204DBD
:1012C000494E54454D502074726967676572656474
:1012D0002021004572723A204D415854454D50002E
:1012E0003A20457874727564657220737769746307
:1012F000686564206F66662E204D415854454D50F8
:1013000020747269676765726564202100486561B1
:1013100074696E67206661696C656400202D2049E0
:101320006E76616C6964206578747275646572208C
:101330006E756D62657220210050494420417574BC
:101340006F74756E652066696E69736865642120C7
:1013500050757420746865206C617374204B702C18
:10136000204B6920616E64204B6420636F6E737440
:10137000616E74732066726F6D2061626F76652096
:10138000696E746F20436F6E666967757261746908
:101390006F6E2E6800504944204175746F74756EED
:1013A00065206661696C6564212074696D656F757F
:1013B000740020403A006F6B20543A006F6B20425B
:1013C0003A00504944204175746F74756E6520660B
:1013D00061696C6564212054656D70657261747516
:1013E000726520746F6F206869676800204B643AEB
:1013F0002000204B693A2000204B703A2000204307
:101400006C61737369632050494420002054753A1D
:101410002000204B753A2000206D61783A20002092
:101420006D696E3A200020643A2000206269617381
:101430003A20006563686F3A004572726F723A0035
:1014400000000000300E0100C00E0A00500F140012
:10145000D00F1E0060102800E010320070113C0018
:10146000F01146007012500000135A0080136400FF
:1014700000146E00901478001015820090158C00F6
:10148000101696009016A0001017AA009017B4002E
:101490001018BE009018C8001019D2009019DC0076
:1014A000101AE600801AF000001BFA00801B0401ED
:1014B000F01B0E01701C1801F01C2201601D2C0194
:1014C000E01D3601501E4001D01E4A01401F54014C
:1014D000B01F5E0130206801A020720110217C0144
:1014E00090218601002290016026F401902A580282
:1014F000802EBC0250322003E03584035039E803CB
:10150000803C4C044D383420582059205A20450046
:1015100043616E6E6F7420656E74657220737562C0
:101520006469723A20004D3234004D323320257305
:10153000006175746F25692E67006572726F722085
:1015400077726974696E6720746F2066696C6500D4
:101550004E6F74205344207072696E74696E670018
:101560002F005344207072696E74696E672062792F
:10157000746520002E0044656C6574696F6E20668A
:1015800061696C65642C2046696C653A2000466987
:101590006C652064656C657465643A002E006F703C
:1015A000656E206661696C65642C2046696C653ADD
:1015B000200057726974696E6720746F2066696CC9
:1015C000653A20002E006F70656E206661696C655B
:1015D000642C2046696C653A20002E006F70656EA1
:1015E000206661696C65642C2046696C653A200050
:1015F00046696C652073656C65637465640020538F
:10160000697A653A200046696C65206F70656E6581
:10161000643A20002E006F70656E206661696C650B
:10162000642C2046696C653A20004E6F7720667204
:101630006573682066696C653A20004E6F77206498
:101640006F696E672066696C653A20002220706FB2
:1016500073002220706172656E743A220053554205
:10166000524F5554494E452043414C4C20746172B1
:101670006765743A2200747279696E6720746F200E
:1016800063616C6C207375622D67636F646520669F
:10169000696C6573207769746820746F6F206D6161
:1016A0006E79206C6576656C732E204D4158206CE8
:1016B0006576656C2069733A0053442063617264F7
:1016C000206F6B006F70656E526F6F74206661697A
:1016D0006C656400766F6C756D652E696E6974203B
:1016E0006661696C656400534420696E69742066A4
:1016F00061696C006563686F3A004572726F723A97
:101700000048617264636F64656420446566617556
:101710006C742053657474696E6773204C6F6164D8
:1017200065640053746F7265642073657474696EC8
:101730006773207265747269657665640020440081
:101740002049002020204D333031205000504944A2
:101750002073657474696E67733A00205A002059CB
:101760000020204D323036205800486F6D65206FC4
:10177000666673657420286D6D293A002045002047
:101780005A0020580020420020540020204D3230C2
:1017900035205300416476616E6365642076617222
:1017A0006961626C65733A20533D4D696E206665D0
:1017B00065647261746520286D6D2F73292C205427
:1017C0003D4D696E2074726176656C206665656456
:1017D0007261746520286D6D2F73292C20423D6D38
:1017E000696E696D756D207365676D656E742074C3
:1017F000696D6520286D73292C20583D6D617869CD
:101800006D756D205859206A65726B20286D6D2F9B
:1018100073292C20205A3D6D6178696D756D205AB1
:10182000206A65726B20286D6D2F73292C2020454E
:101830003D6D6178696D756D2045206A65726B201C
:10184000286D6D2F73290020540020204D32303434
:10185000205300416363656C65726174696F6E3A11
:1018600020533D616363656C65726174696F6E2CB2
:1018700020543D7265747261637420616363656CAA
:1018800065726174696F6E00204500205A0020590E
:101890000020204D3230312058004D6178696D753F
:1018A0006D20416363656C65726174696F6E202899
:1018B0006D6D2F7332293A00204500205A002059BF
:1018C0000020204D3230332058004D6178696D750D
:1018D0006D2066656564726174657320286D6D2F77
:1018E00073293A00204500205A0020590020204D3D
:1018F00039322058005374657073207065722075FA
:101900006E69743A0053657474696E67732053741A
:101910006F726564006563686F3A000243617264C8
:101920002072656D6F766564004361726420696E34
:10193000736572746564002D2D3A2D2D002D2D2DAB
:10194000005344000120000120000120004D3630EA
:1019500030004368616E67652066696C616D656E15
:101960007400466C6F77203100466C6F7720310031
:10197000466C6F77203000466C6F772030004661F0
:101980006E2073706565640046616E2073706565D6
:10199000640042656400426564004E6F7A7A6C654B
:1019A00032004E6F7A7A6C6532004E6F7A7A6C65CF
:1019B000004E6F7A7A6C65005370656564005370F1
:1019C000656564004D61696E004D383420583020E3
:1019D000593000473238005A0050726568656174AA
:1019E00020504C4120426564005072656865617406
:1019F00020504C4120416C6C0050726568656174E8
:101A000020504C412032005072656865617420504E
:101A10004C412031005072657061726500507265F2
:101A200068656174204142532042656400507265CC
:101A3000686561742041425320416C6C00507265AE
:101A400068656174204142532032005072656865B8
:101A5000617420414253203100507265706172659B
:101A600000580059005A0045787472756465720018
:101A70004578747275646572004D6F7665205A0002
:101A80004D6F76652059004D6F76652058004D6F7B
:101A900076652061786973004D6F766520302E3150
:101AA0006D6D004D6F766520316D6D004D6F766503
:101AB0002031306D6D0050726570617265004D6F40
:101AC0007665206178697300436F6F6C646F776E21
:101AD0000050726568656174204142530050726520
:101AE0006865617420504C41004D6F7665205A0046
:101AF0004175746F20686F6D65004D38340044691E
:101B00007361626C65207374657070657273004DEB
:101B100061696E0053746F7265206D656D6F7279C7
:101B20000042656400426564004E6F7A7A6C65001D
:101B30004E6F7A7A6C650046616E207370656564DD
:101B40000046616E2073706565640054656D706554
:101B50007261747572650053746F7265206D656D86
:101B60006F72790042656400426564004E6F7A7A54
:101B70006C65004E6F7A7A6C650046616E207370FA
:101B80006565640046616E20737065656400546528
:101B90006D7065726174757265005072656865611B
:101BA000742041425320636F6E6600507265686511
:101BB000617420504C4120636F6E66005049442D83
:101BC00043005049442D43005049442D440050499E
:101BD000442D44005049442D49005049442D4900AA
:101BE0005049442D50005049442D500046616E200C
:101BF00073706565640046616E207370656564008E
:101C000042656400426564004E6F7A7A6C6532000A
:101C10004E6F7A7A6C6532004E6F7A7A6C65004E40
:101C20006F7A7A6C6500436F6E74726F6C004573E7
:101C3000746570732F6D6D004573746570732F6DCF
:101C40006D005A73746570732F6D6D005A737465EF
:101C500070732F6D6D005973746570732F6D6D0007
:101C60005973746570732F6D6D005873746570735C
:101C70002F6D6D005873746570732F6D6D00412D5D
:101C80007265747261637400412D72657472616370
:101C90007400416D6178206500416D6178206500B8
:101CA000416D6178207A00416D6178207A00416D44
:101CB0006178207900416D6178207900416D61780B
:101CC000207800416D61782078005654726176204A
:101CD0006D696E005654726176206D696E00566DA6
:101CE000696E00566D696E00566D6178206500560C
:101CF0006D6178206500566D6178207A00566D61BF
:101D000078207A00566D6178207900566D617820D0
:101D10007900566D6178207800566D6178207800E2
:101D200056652D6A65726B0056652D6A65726B008B
:101D3000567A2D6A65726B00567A2D6A65726B0051
:101D40005678792D6A65726B005678792D6A6572BE
:101D50006B00416363656C00416363656C00436FB6
:101D60006E74726F6C004D617920323920323031DF
:101D7000372031383A33303A303400323530303071
:101D8000305F6475616C5F484200556C74696D61C9
:101D90006B65723A5F31352E30352E30322E4D6FF5
:101DA0006562797573004669726D77617265207638
:101DB000657273696F6E004669726D776172652036
:101DC00076657273696F6E00526573746F72652009
:101DD0006661696C73616665004C6F6164206D6556
:101DE0006D6F72790053746F7265206D656D6F72DF
:101DF00079004D6F74696F6E0054656D7065726126
:101E000074757265004D61696E004D38342058203C
:101E100059205A2045004D3234004D32332025736D
:101E200000052E2E004D61696E004E6F2053442038
:101E300063617264005072696E742066726F6D2007
:101E400053440053746F70207072696E7400526551
:101E500073756D65207072696E740050617573657D
:101E6000207072696E7400436F6E74726F6C0050F4
:101E70007265706172650054756E6500496E666FBB
:101E80002073637265656E004E414E494E49545948
:101E9000494E46CDCCCC3D0AD7233C17B7D1387735
:101EA000CC2B329595E6241FB14F0A00002041004B
:101EB00000C84200401C4620BCBE4CCA1B0E5AAE95
:101EC000C59D74008438BDB4883811241FBECFEF7F
:101ED000D1E2DEBFCDBF00E00CBF14E0A0E0B2E075
:101EE000EEEFF9E901E00BBF02C007900D92AA36B0
:101EF000B107D9F722E1AAE6B4E001C01D92A837E4
:101F0000B207E1F71FE0C4E6DFE000E006C021977A
:101F10000109802FFE010E9490C6C236D10780E0E1
:101F20000807A9F70E9431C10C94EDCC0C94000075
:101F30001F920F920FB60F9211242F933F938F93FE
:101F40009F93AF93BF9380916B0490916C04A09189
:101F50006D04B0916E0430916A0423E0230F2D3795
:101F600020F40196A11DB11D05C026E8230F02969D
:101F7000A11DB11D20936A0480936B0490936C049F
:101F8000A0936D04B0936E0480916F0490917004DF
:101F9000A0917104B09172040196A11DB11D8093AE
:101FA0006F0490937004A0937104B0937204BF9176
:101FB000AF919F918F913F912F910F900FBE0F90F6
:101FC0001F9018952FB7F89460916B0470916C0472
:101FD00080916D0490916E042FBF08953FB7F894DF
:101FE00080916F0490917004A0917104B09172047B
:101FF00026B5A89B05C02F3F19F00196A11DB11D64
:102000003FBFBA2FA92F982F8827820F911DA11D9E
:10201000B11DBC01CD0142E0660F771F881F991FDB
:102020004A95D1F70895CF92DF92EF92FF92CF9326
:10203000DF936B017C010E94EE0FEB01C114D10410
:10204000E104F10479F00E94EE0F6C1B7D0B683EF9
:102050007340A0F381E0C81AD108E108F108C85123
:10206000DC4FECCFDF91CF91FF90EF90DF90CF90DE
:102070000895019739F0880F991F880F991F0297CB
:102080000197F1F70895789484B5826084BD84B592
:10209000816084BD85B5826085BD85B5816085BD63
:1020A000EEE6F0E0808181608083E1E8F0E010827C
:1020B000808182608083808181608083E0E8F0E0BD
:1020C000808181608083E1EBF0E0808184608083A7
:1020D000E0EBF0E0808181608083E1E9F0E08081E5
:1020E00082608083808181608083E0E9F0E080818C
:1020F00081608083E1EAF0E080818260808380817A
:1021000081608083E0EAF0E0808181608083E1E2A9
:10211000F1E0808182608083808181608083E0E261
:10212000F1E0808181608083EAE7F0E08081846073
:1021300080838081826080838081816080838081D0
:10214000806880831092C10008951F93CF93DF931E
:10215000182FEB0161E00E94B611209711F460E0A6
:1021600004C0CF3FD10539F461E0812FDF91CF91D9
:102170001F910C94F211E12FF0E0EE50FD4FE4912D
:102180004E2F50E0FA013197E131F10508F093C08C
:102190008827EE58FF4F8F4F0C9490C684B5806807
:1021A00084BDC7BD8DC084B5806284BDC8BD88C0F4
:1021B00080918000806880938000D0938900C093D4
:1021C00088007EC080918000806280938000D093E0
:1021D0008B00C0938A0074C08091B00080688093A7
:1021E000B000C093B3006CC08091B0008062809357
:1021F000B000C093B40064C0809190008068809368
:102200009000D0939900C09398005AC0809190009C
:10221000806280939000D0939B00C0939A0050C03E
:1022200080919000886080939000D0939D00C0932F
:102230009C0046C08091A00080688093A00080919F
:10224000A0008F7B8093A000D093A900C093A8002A
:1022500037C08091A00080628093A000D093AB0033
:10226000C093AA002DC08091A00088608093A00038
:10227000D093AD00C093AC0023C080912001806852
:1022800080932001D0932901C093280119C0809127
:102290002001806280932001D0932B01C0932A01FA
:1022A0000FC080912001886080932001D0932D0180
:1022B000C0932C0105C0C038D1050CF055CF4FCFCD
:1022C000DF91CF911F91089590E0FC013197E131AA
:1022D000F10508F04AC08827ED57FF4F8F4F0C9447
:1022E00090C6809180008F7703C0809180008F7DA1
:1022F00080938000089584B58F7702C084B58F7D68
:1023000084BD08958091B0008F7703C08091B000A4
:102310008F7D8093B0000895809190008F7707C0E3
:10232000809190008F7D03C080919000877F809383
:10233000900008958091A0008F7707C08091A00041
:102340008F7D03C08091A000877F8093A0000895B7
:10235000809120018F7707C0809120018F7D03C07D
:1023600080912001877F809320010895CF93DF9390
:1023700090E0FC01E85CFC4F2491FC01E258FC4F2A
:102380008491882361F190E0880F991FFC01E2524B
:10239000FC4FC591D491FC01EC53FC4FA591B49135
:1023A000611109C09FB7F8948881209582238883A2
:1023B000EC912E230BC0623061F49FB7F894388102
:1023C000822F809583238883EC912E2B2C939FBFA3
:1023D00006C08FB7F894E8812E2B28838FBFDF913A
:1023E000CF9108951F93CF93DF93282F30E0F90109
:1023F000EE50FD4F8491F901E85CFC4FD491F90156
:10240000E258FC4FC491CC23C9F0162F81110E94D1
:102410006411EC2FF0E0EE0FFF1FEC53FC4FA59181
:10242000B4918FB7F894111105C09C91ED2FE095F0
:10243000E92302C0EC91ED2BEC938FBFDF91CF919C
:102440001F9108951F920F920FB60F9211240BB691
:102450000F922F933F934F935F936F937F938F933D
:102460009F93AF93BF93EF93FF93809177049091E5
:102470007804892B29F0E0917704F091780419957C
:10248000FF91EF91BF91AF919F918F917F916F914C
:102490005F914F913F912F910F900BBE0F900FBE08
:1024A0000F901F9018951F920F920FB60F92112444
:1024B0000BB60F922F933F934F935F936F937F933E
:1024C0008F939F93AF93BF93EF93FF938091790482
:1024D00090917A04892B29F0E0917904F0917A04A3
:1024E0001995FF91EF91BF91AF919F918F917F913E
:1024F0006F915F914F913F912F910F900BBE0F9075
:102500000FBE0F901F9018951F920F920FB60F924B
:1025100011240BB60F922F933F934F935F936F93BA
:102520007F938F939F93AF93BF93EF93FF9380918C
:102530007B0490917C04892B29F0E0917B04F0913D
:102540007C041995FF91EF91BF91AF919F918F916D
:102550007F916F915F914F913F912F910F900BBEA3
:102560000F900FBE0F901F9018951F920F920FB6ED
:102570000F9211240BB60F922F933F934F935F93BB
:102580006F937F938F939F93AF93BF93EF93FF933B
:1025900080917D0490917E04892B29F0E0917D0447
:1025A000F0917E041995FF91EF91BF91AF919F91AA
:1025B0008F917F916F915F914F913F912F910F90EC
:1025C0000BBE0F900FBE0F901F9018951F920F9289
:1025D0000FB60F9211240BB60F922F933F934F9388
:1025E0005F936F937F938F939F93AF93BF93EF937B
:1025F000FF938091730490917404892B29F0E091EA
:102600007304F09174041995FF91EF91BF91AF910C
:102610009F918F917F916F915F914F913F912F91FA
:102620000F900BBE0F900FBE0F901F9018951F922A
:102630000F920FB60F9211240BB60F922F933F9368
:102640004F935F936F937F938F939F93AF93BF93BA
:10265000EF93FF938091750490917604892B29F074
:10266000E0917504F09176041995FF91EF91BF9177
:10267000AF919F918F917F916F915F914F913F911A
:102680002F910F900BBE0F900FBE0F901F901895BB
:102690001F920F920FB60F9211240BB60F922F9329
:1026A0003F934F935F936F937F938F939F93AF93DA
:1026B000BF93EF93FF9380917F0490918004892BC7
:1026C00029F0E0917F04F09180041995FF91EF913A
:1026D000BF91AF919F918F917F916F915F914F913A
:1026E0003F912F910F900BBE0F900FBE0F901F9038
:1026F00018951F920F920FB60F9211240BB60F92DE
:102700002F933F934F935F936F937F938F939F93F9
:10271000AF93BF93EF93FF938091810490918204D4
:10272000892B29F0E0918104F09182041995FF91A1
:10273000EF91BF91AF919F918F917F916F915F9139
:102740004F913F912F910F900BBE0F900FBE0F90A6
:102750001F901895CF92DF92EF92FF920F931F93E5
:10276000CF93DF936C01EB017B01E40EF51E00E0DB
:1027700010E0CE15DF0561F06991D601ED91FC9175
:102780000190F081E02DC6011995080F191FF1CFB6
:10279000C801DF91CF911F910F91FF90EF90DF90D3
:1027A000CF9008956115710579F0FB01019000202B
:1027B000E9F73197AF01461B570BDC01ED91FC9116
:1027C0000280F381E02D199480E090E008950C944C
:1027D000D213DC01ED91FC910190F081E02D199470
:1027E000FC0165917591859194910895EF92FF9206
:1027F0000F931F93CF93DF93EC01CC0FDD1FCC0F12
:10280000DD1FCE018258964F0E94F0139E0126577D
:10281000394F79018E010258194FF8012081318119
:10282000428153810E943FC1F7016083718382839B
:102830009383CE018A56964F0E94F0139E012E5824
:10284000394F7901F80120813181428153810E9401
:102850003FC1F7016083718382839383CE018657E2
:10286000964F0E94F013C55FDD4FF8012081318142
:10287000428153810E943FC1688379838A839B830D
:10288000DF91CF911F910F91FF90EF9008952F92BC
:102890003F924F925F926F927F928F929F92AF92F0
:1028A000BF92CF92DF92EF92FF920F931F93CF933D
:1028B000DF9300D01F92CDB7DEB79C838B83FC01E2
:1028C000ED59F64F94905C01AA0CBB1CAA0CBB1CE2
:1028D000C5018657994F1C01FC011082118212829A
:1028E000138226E936E042E956E06EE876E08AE8AF
:1028F00096E00E94DC5CC5018E58964F0E94F01352
:102900006B017C01692D990C770B880B990B0E9448
:10291000E8C22B013C01C501885B994F4C0120E0C6
:1029200030E040EC5FE3C701B6010E943DC5A30162
:1029300092010E943DC5F401608371838283938379
:10294000C501895D9D4F9A838983FC0160817181F6
:10295000828193816093050270930602809307023F
:102960009093080220E030E040E752E40E943EC22B
:102970002AE5C22E26E0D22E7B018C0124E536E02A
:1029800040E556E06CE476E088E496E00E9434523C
:102990000E947666F101108211821282138226E96A
:1029A00036E042E956E06EE876E08AE896E00E947A
:1029B000DC5CC5018A59964F5C010E94F013905867
:1029C000A30192010E943DC5F4016083718382835B
:1029D000938320E030E040E752E46091050270917B
:1029E000060280910702909108020E943EC27B017C
:1029F0008C0124E536E040E556E06CE476E088E4BE
:102A000096E00E9434520E947666C5010E94F0133F
:102A10009B01AC010E943FC1A30192010E943DC5F0
:102A2000F401608371838283938320E030E040E08F
:102A30005FE3E981FA8160817181828193810E94E3
:102A40003DC5609305027093060280930702909340
:102A5000080220E030E040E752E40E943EC27B01E1
:102A60008C0124E536E040E556E06CE476E088E44D
:102A700096E00E9434520E9476668B819C810E946F
:102A8000F613F10180819181A281B381F4018083E9
:102A90009183A283B38310920502109206021092D2
:102AA0000702109208020E94735EEB81FC81E159DB
:102AB000F94F81E080830F900F900F900F90DF917E
:102AC000CF911F910F91FF90EF90DF90CF90BF902B
:102AD000AF909F908F907F906F905F904F903F90BE
:102AE0002F900895FC012491222341F03091C000E1
:102AF00035FFFCCF2093C6000196F4CF22E030E0F2
:102B00008DE299E00C94F23AFC012491222341F0E9
:102B10003091C00035FFFCCF2093C6000196F4CF62
:102B20002AE030E08DE299E00C94403ACF93DF93B5
:102B30001F921F92CDB7DEB720917212309173129F
:102B4000CE0101962115310519F48857924102C032
:102B5000821B930B9A83898389819A810F900F90AE
:102B6000DF91CF91089520919D0430919E042430EF
:102B700031050CF069C0BC0120919F043091A00484
:102B800040E6429FC001439F900D112489559B4F01
:102B90000E94D9C9E2EAF9E08491882341F090913A
:102BA000C00095FFFCCF8093C6003196F5CFE8E5D5
:102BB000F9E08491882341F09091C00095FFFCCF0B
:102BC0008093C6003196F5CF80919F049091A00428
:102BD00020E6289FF001299FF00D1124E955FB4FB5
:102BE0008191882339F09091C00095FFFCCF8093AC
:102BF000C600F6CFE6E5F9E08491882341F0909194
:102C0000C00095FFFCCF8093C6003196F5CF809130
:102C1000C00085FFFCCF8AE08093C60080919F04AE
:102C20009091A004019664E070E00E943BC69093EE
:102C3000A00480939F0480919D0490919E0401962E
:102C400090939E0480939D04089520919D0430915B
:102C50009E04243031050CF069C0BC0120919F0412
:102C60003091A00440E6429FC001439F900D112483
:102C700089559B4F0E9465C9E2EAF9E08491882357
:102C800041F09091C00095FFFCCF8093C600319633
:102C9000F5CFEBE4F9E08491882341F09091C000F6
:102CA00095FFFCCF8093C6003196F5CF80919F04AD
:102CB0009091A00420E6289FF001299FF00D112497
:102CC000E955FB4F8191882339F09091C00095FF21
:102CD000FCCF8093C600F6CFE9E4F9E08491882325
:102CE00041F09091C00095FFFCCF8093C6003196D3
:102CF000F5CF8091C00085FFFCCF8AE08093C600AD
:102D000080919F049091A004019664E070E00E947D
:102D10003BC69093A00480939F0480919D04909162
:102D20009E04019690939E0480939D040895809A3A
:102D3000889A0895809A889808950E94971640E985
:102D400050ED63E070E08DE299E00E94F438E3E436
:102D5000F9E08491882341F09091C00095FFFCCF69
:102D60008093C6003196F5CF8091C00085FFFCCFDF
:102D70008AE08093C60082EA99E0FC012491222334
:102D800041F03091C00035FFFCCF2093C600319652
:102D9000F5CF24B720FF14C0EBE3F9E034913323DF
:102DA00041F04091C00045FFFCCF3093C600319602
:102DB000F5CF3091C00035FFFCCF3AE03093C6002C
:102DC00021FF14C0EBE2F9E03491332341F040914C
:102DD000C00045FFFCCF3093C6003196F5CF30914F
:102DE000C00035FFFCCF3AE03093C60022FF14C08C
:102DF000EAE1F9E03491332341F04091C00045FF0E
:102E0000FCCF3093C6003196F5CF3091C00035FF2E
:102E1000FCCF3AE03093C60023FF14C0EAE0F9E0AB
:102E20003491332341F04091C00045FFFCCF3093F3
:102E3000C6003196F5CF3091C00035FFFCCF3AE0A7
:102E40003093C60025FF14C0EAEFF8E02491222356
:102E500041F03091C00035FFFCCF2093C600319681
:102E6000F5CF2091C00025FFFCCF2AE02093C600BB
:102E700014BEE3EFF8E02491222341F03091C0002A
:102E800035FFFCCF2093C6003196F5CFEDEEF8E08C
:102E90002491222341F03091C00035FFFCCF2093D4
:102EA000C6003196F5CF2091C00025FFFCCF2AE067
:102EB0002093C600FC012491E2EAF9E0222349F0C4
:102EC0003091C00035FFFCCF2093C600319624918D
:102ED000F5CFEDEDF8E02491222341F03091C000D0
:102EE00035FFFCCF2093C6003196F5CFE8ECF8E033
:102EF0002491222341F03091C00035FFFCCF209374
:102F0000C6003196F5CFECEBF8E02491222341F096
:102F10003091C00035FFFCCF2093C6003196F5CF2D
:102F2000EEEAF8E02491222341F03091C00035FF11
:102F3000FCCF2093C6003196F5CF2091C00025FF2D
:102F4000FCCF2AE02093C600E3EAF8E02491222394
:102F500041F03091C00035FFFCCF2093C600319680
:102F6000F5CFE7E9F8E02491222341F03091C00049
:102F700035FFFCCF2093C6003196F5CF2091C000DD
:102F800025FFFCCF2AE02093C600FC018491E2EAF1
:102F9000F9E0882349F09091C00095FFFCCF809321
:102FA000C60031968491F5CFE8E8F8E08491882353
:102FB00041F09091C00095FFFCCF8093C600319600
:102FC000F5CF0E9496154AE050E0BC018DE299E0F1
:102FD0000E94123AE1E7F8E08491882341F0909151
:102FE000C00095FFFCCF8093C6003196F5CF4AE034
:102FF00050E060ED74E08DE299E00E94123A809119
:10300000C00085FFFCCF8AE08093C6001092A30425
:103010001092A4041092A5041092A6040E94F284B7
:103020000E94D86B0E94F2510E94F1850E94F365C4
:103030000E94559FFFEF23ED80E3F1502040804038
:10304000E1F700C0000008958091970490919804E2
:1030500060E070E001960C94BAC68091970490915C
:1030600098044AE050E060E070E001960C9429C8B2
:10307000682F70E02091A1043091A20440E6429FA5
:10308000C001439F900D112489559B4F0E94CEC9CA
:103090009C01909398048093970481E0232B09F47A
:1030A00080E008950E94E20F60939304709394046B
:1030B000809395049093960408950E94E20F609384
:1030C0009304709394048093950490939604E091F4
:1030D000A104F091A204ED55FB4F8081811114C031
:1030E000E0EAF4E08491882341F09091C00095FFDC
:1030F000FCCF8093C6003196F5CF8091C00085FF4C
:10310000FCCF8AE08093C60008958DE299E00E948A
:103110004639E3EAF4E08491882341F09091C000BD
:1031200095FFFCCF8093C6003196F5CF40912C06D9
:1031300050912D0660912E0670912F064F5F5F4FC4
:103140006F4F7F4F2AE030E08DE299E00E94EB392B
:103150008091C00085FFFCCF8AE08093C6000C946C
:103160005D182F923F924F925F926F927F928F9253
:103170009F92AF92BF92CF92DF92EF92FF920F9306
:103180001F93CF93DF93CDB7DEB76E970FB6F8944A
:10319000DEBF0FBECDBF30E6F32E44E0A42EB12C2F
:1031A00054E3852E57E0952E6AE0E62E7AEA672EE4
:1031B00077E0772EDD24D3948091AE099091AF090A
:1031C0002091B0093091B109821B930B8F77992719
:1031D000892B09F428C280919D0490919E04049744
:1031E0000CF021C28DE299E00E942A3980939C0460
:1031F00020919A0430919B048A3061F08D3051F017
:103200008A3321F490919904992321F02F353105C7
:103210000CF42BC12115310519F4109299046AC3DD
:10322000E0919F04F091A004FE9E8001FF9E100D8E
:103230001124200F311FD901A955BB4F1C92809139
:10324000990481110DC110929904ED55FB4F108224
:10325000980129553B4F29016EE470E0C9010E9495
:10326000CEC90097E9F1909398048093970484194C
:103270009509800F911F4AE050E060E070E08855AA
:103280009B4F0E9429C8609330067093310680934B
:1032900032069093330600912C0610912D06209152
:1032A0002E0630912F060F5F1F4F2F4F3F4F40903C
:1032B0009F045090A004601771078207930709F4D8
:1032C000F3C0F49CC001F59C900D112463E578E0F7
:1032D00089559B4F0E9493C9892B09F0E5C076C19F
:1032E0006AE270E0C2010E94CEC9892B09F444C091
:1032F000E8EAF9E08491882341F09091C00095FFBD
:10330000FCCF8093C6003196F5CFEDEAF7E08491CB
:10331000882341F09091C00095FFFCCF8093C600B8
:103320003196F5CF40912C0650912D0660912E06D6
:1033300070912F062AE030E08DE299E00E94EB398F
:103340008091C00085FFFCCF8AE08093C600109278
:103350009B0410929A04CEC280913006909131065F
:10336000A0913206B091330680932C0690932D06DF
:10337000A0932E06B0932F0680919F049091A004F5
:10338000F89E8001F99E100D1124C80189559B4FAC
:103390002C0167E470E00E94CEC9009709F44BC08D
:1033A000909398048093970484199509800F911F36
:1033B00060E070E088559B4F0E94BAC60E94B0C280
:1033C0006430710508F037C08091850481111AC0FE
:1033D0008091A00681112FC0F3018491EAEAF7E001
:1033E000882349F09091C00095FFFCCF8093C600E0
:1033F00031968491F5CF8091C00085FFFCCFE0929B
:10340000C60019C0F4018491E4E3F7E0882349F091
:103410009091C00095FFFCCF8093C60031968491B7
:10342000F5CF8091C00085FFFCCFE092C6008AE214
:1034300097E00E94E29E80919F049091A0040196E3
:10344000B5010E943BC69093A00480939F04809195
:103450009D0490919E04019690939E0480939D04F8
:1034600010929B0410929A04A7CE8B3311F4D09241
:1034700099049091990491119FCE40919F0450918D
:10348000A004B9016F5F7F4F70939B0460939A040F
:10349000F49EF001F59EF00D11242E0F3F1FF9014F
:1034A000E955FB4F808388CEF49C8001F59C100D7C
:1034B0001124C80189559B4F2C016AE270E00E94DB
:1034C000CEC9009709F450C020E0312CF801E20F7A
:1034D000F11DE955FB4F30813A3219F02F5F332649
:1034E000F5CF909398048093970484199509800FE1
:1034F000911F60E070E088559B4F0E94BAC60E9401
:10350000B0C2232D30E02617370709F425CFE8EAAB
:10351000F9E08491882341F09091C00095FFFCCFA1
:103520008093C6003196F5CFE1E0F8E084918823DE
:1035300041F09091C00095FFFCCF8093C60031967A
:10354000F5CF40912C0650912D0660912E0670917A
:103550002F062AE030E08DE299E00E94EB3980915D
:10356000C00085FFFCCF2CC0E8EAF9E084918823F5
:1035700041F09091C00095FFFCCF8093C60031963A
:10358000F5CFE7EDF7E08491882341F09091C000FA
:1035900095FFFCCF8093C6003196F5CF40912C0665
:1035A00050912D0660912E0670912F062AE030E092
:1035B0008DE299E00E94EB398091C00085FFFCCF3D
:1035C0008AE08093C6000E948518C1CEE8EAF9E03F
:1035D0008491882341F09091C00095FFFCCF8093A7
:1035E000C6003196F5CFE0E2F8E08491882341F0FF
:1035F0009091C00095FFFCCF8093C6003196F5CF27
:1036000040912C0650912D0660912E0670912F0648
:103610002AE030E08DE299E00E94EB398091C00011
:1036200085FFFCCFCDCF8091A206882309F462C12B
:1036300080919A0490919B04892B09F05BC1809141
:103640009D0490919E04892B11F41092830400E64E
:1036500011E084E0C82ED12C9CE3892E912CA12C62
:10366000B12C23E0222E27E0322E9E012F5F3F4F08
:1036700079014091230950912409609125097091A5
:10368000260980911B0990911C09A0911D09B091F8
:103690001E09481759076A077B0708F02BC180915C
:1036A0009D0490919E0404970CF024C180918304A2
:1036B000811120C18091760890917708A0917808B7
:1036C000B09179088093230990932409A093250948
:1036D000B09326098EE698E00E941240AC01982F24
:1036E00040939C048A30B9F09D30A9F0933229F4BC
:1036F00080919904882379F002C09A33C9F320910C
:103700009A0430919B042F3531052CF44F3F8FEFF5
:10371000580709F0D1C040912309509124096091C4
:1037200025097091260980911B0990911C09A0918F
:103730001D09B0911E09481759076A077B0708F44D
:1037400081C0E7E1F7E08491882341F09091C000C7
:1037500095FFFCCF8093C6003196F5CF8091C000D5
:1037600085FFFCCFFAE0F093C6000E94E20F609361
:103770008704709388048093890490938A0440900E
:103780008B0450908C0460908D0470908E046419AA
:1037900075098609970928EE33E040E050E00E9461
:1037A0004FC629013A01CA01B901A50194010E943D
:1037B0004FC6CA01B901A50194010E944FC67F936B
:1037C0006F93C301B20120E13EE040E050E00E946F
:1037D0004FC63F932F933F922F92FF92EF920E94FA
:1037E000FDC9E2EAF9E084910FB6F894DEBF0FBE9E
:1037F000CDBF882349F09091C00095FFFCCF809306
:10380000C60031968491F5CFF7018191882339F074
:103810009091C00095FFFCCF8093C600F6CF8091B9
:10382000C00085FFFCCF3AE03093C600C7010E947C
:10383000D39E80EA96E00E94297F61E080EA96E0CC
:103840000E94937C80919C04833211F41093830432
:1038500020919A0430919B042115310509F4DDCCA7
:1038600080919F049091A004089FF001099FF00DA2
:1038700011242E0F3F1FF901E955FB4F1082FC0167
:10388000ED55FB4F108320919D0430919E042F5FD6
:103890003F4F30939E0420939D040196B6010E94F1
:1038A0003BC69093A00480939F04109299041092B9
:1038B0009B0410929A04DDCE9B3311F4109399046B
:1038C000809199048111D5CE80919F049091A0049C
:1038D000B9016F5F7F4F70939B0460939A04089FB8
:1038E000F001099FF00D1124E20FF31FE955FB4F82
:1038F0004083BFCE6E960FB6F894DEBF0FBECDBF2D
:10390000DF91CF911F910F91FF90EF90DF90CF90BB
:10391000BF90AF909F908F907F906F905F904F90EF
:103920003F902F9008957F928F929F92AF92BF9277
:10393000CF92DF92EF92FF920F931F93CF93DF937B
:103940008AE8E82E86E0F82E08E416E09CE9C92E05
:1039500096E0D92ECBEDD3E07C2E84E0780E8991D1
:103960000E943818882311F10E9424184B015C0131
:10397000F6016081611102C06091270670E080E06D
:1039800090E00E94E8C2F701208131814281538199
:103990000E943DC59B01AC01C501B4010E943FC11D
:1039A000F80160837183828393830AC0F701808169
:1039B0009181A281B381F80180839183A283B38333
:1039C000F4E0EF0EF11C0C5F1F4F8FEFC81AD80AFE
:1039D0007C12C5CF86E40E9438188823D9F00E9453
:1039E00024186B017C01609338067093390680932C
:1039F0003A0690933B0620E030E0A9010E9456C4AD
:103A0000181644F4C0920502D0920602E092070212
:103A1000F0920802DF91CF911F910F91FF90EF90EC
:103A2000DF90CF90BF90AF909F908F907F90089540
:103A30000E94931C89E40E943818882359F00E9440
:103A4000241860933C0670933D0680933E06909345
:103A50003F0608C010923C0610923D0610923E06AA
:103A600010923F068AE40E943818882359F00E9479
:103A70002418609340067093410680934206909309
:103A80004306089510924006109241061092420695
:103A9000109243060895CF92DF92EF92FF92CF9358
:103AA000DF93EC01C0907206D0907306E09074062C
:103AB000F0907506A7019601688179818A819B81C2
:103AC0000E9434C287FF04C0C882D982EA82FB8286
:103AD000C0907606D0907706E0907806F090790650
:103AE000A70196016C817D818E819F810E9434C2E5
:103AF00087FF04C0CC82DD82EE82FF82C0907A060E
:103B0000D0907B06E0907C06F0907D06A7019601A0
:103B1000688579858A859B850E9434C287FF04C0A9
:103B2000C886D986EA86FB86C0900B02D0900C022C
:103B3000E0900D02F0900E02A70196016881798154
:103B40008A819B810E9456C4181624F4C882D982A7
:103B5000EA82FB82C0900F02D0901002E090110226
:103B6000F0901202A70196016C817D818E819F8168
:103B70000E9456C4181624F4CC82DD82EE82FF82A5
:103B8000C0901302D0901402E0901502F09016023B
:103B9000A7019601688579858A859B850E9456C410
:103BA000181624F4C886D986EA86FB86DF91CF9161
:103BB000FF90EF90DF90CF900895CF92DF92EF9239
:103BC000FF920F931F9388E496E00E944B1D0E9482
:103BD000E20F609393047093940480939504909300
:103BE0009604209148063091490640914A0650912A
:103BF0004B0660918A0670918B0680918C0690919D
:103C00008D060E9434C2811121C020914C06309152
:103C10004D0640914E0650914F0660918E06709170
:103C20008F0680919006909191060E9434C2811176
:103C30000DC020E030E040E752E460910502709151
:103C4000060280910702909108021EC06091250231
:103C500070912602072E000C880B990B0E94E8C277
:103C6000209105023091060240910702509108020E
:103C70000E943DC520E030E040E752E40E943EC291
:103C800020E030E048EC52E40E943EC22AE5C22E19
:103C900026E0D22E7B018C0124E536E040E556E09B
:103CA0006CE476E088E496E00E9434528091480605
:103CB00090914906A0914A06B0914B0680938A06DE
:103CC00090938B06A0938C06B0938D0680914C0642
:103CD00090914D06A0914E06B0914F0680938E06AE
:103CE00090938F06A0939006B09391068091500612
:103CF00090915106A0915206B0915306809392067E
:103D000090939306A0939406B093950680915406E1
:103D100090915506A0915606B0915706809396064D
:103D200090939706A0939806B09399061F910F91D0
:103D3000FF90EF90DF90CF900895AF92BF92CF9217
:103D4000DF92EF92FF920F931F93CF93DF93F82EA2
:103D5000ECE3F6E0248135814681578160817181F1
:103D6000828193810E9469C4EB01182F092F609111
:103D7000250270912602072E000C880B990B0E94D9
:103D8000E8C220910502309106024091070250914D
:103D900008020E943DC520E030E040E752E40E9466
:103DA0003EC220E030E048EC52E40E943EC25B019B
:103DB0006C0180915A068F93FF920F931F93DF93AC
:103DC000CF9382E0E82E01E020E04CE356E068E487
:103DD00076E08AE896E00E94204BEAE8F6E0A8E464
:103DE000B6E04D915D916D917C9113974083518325
:103DF0006283738314964D915D916D917C911797B9
:103E0000448355836683778318964D915D916D91B8
:103E10007C911B9740875187628773871C968D9191
:103E20009D910D90BC91A02D84879587A687B7871B
:103E30000E94E20F6093930470939404809395041E
:103E4000909396040F900F900F900F900F900F90FB
:103E5000DF91CF911F910F91FF90EF90DF90CF9066
:103E6000BF90AF900895F8940E94416D159A1092FA
:103E70006F06179A10927006429A10927106A09AD5
:103E80009FB7F89480910B01826080930B019FBFD4
:103E9000E8EAF9E08491882341F09091C00095FF11
:103EA000FCCF8093C6003196F5CFE1E8F4E0849131
:103EB000882341F09091C00095FFFCCF8093C6000D
:103EC0003196F5CF8091C00085FFFCCF8AE08093CA
:103ED000C60088E794E00E94F19E0E949A16FFCFE8
:103EE000CF92DF92EF92FF920F931F930E94E20F07
:103EF00000918F04109190042091910430919204CC
:103F0000C0909304D0909404E0909504F0909604AF
:103F1000DC01CB018C199D09AE09BF0908171907EF
:103F20002A073B0730F4012B022B032B11F00E94D0
:103F3000331F8091010290910202A0910302B0917F
:103F40000402892B8A2B8B2B19F10E94E20F00911E
:103F50009304109194042091950430919604DC010F
:103F6000CB01801B910BA20BB30B009101021091AE
:103F700002022091030230910402081719072A0750
:103F80003B0730F49091C00B8091BF0B981741F024
:103F90001F910F91FF90EF90DF90CF900C941852EB
:103FA000159A10926F06179A10927006429A109204
:103FB0007106A09A9FB7F89480910B01826080935C
:103FC0000B019FBFE5CF0E94416D80918504811157
:103FD00038C081E08093850480912C0690912D0655
:103FE000A0912E06B0912F06809328069093290663
:103FF000A0932A06B0932B06E8EAF9E0849188237F
:1040000041F09091C00095FFFCCF8093C60031969F
:10401000F5CFE2E0F4E08491882341F09091C00074
:1040200095FFFCCF8093C6003196F5CF8091C000FC
:1040300085FFFCCF8AE08093C60088EF93E00C9464
:10404000E29E089580918504089567707727E82F90
:10405000F0E0EE50FD4FE4918E2F90E0FC0136979A
:10406000EC30F10588F58827EC56FF4F8F4F0C9404
:1040700090C68091B100887F8093B1008091B1009B
:10408000682B6093B100089580919100887F8093A0
:10409000910080919100682B609391000895809128
:1040A000A100887F8093A1008091A100682B60937C
:1040B000A100089580912101887F80932101809142
:1040C0002101682B6093210108951F93CF93DF9303
:1040D000EC0180915A068093860484E50E9438188A
:1040E000182F811102C010E074C00E9424180E9491
:1040F000B7C2609386046230B0F3E2EAF9E09491CB
:10410000992341F08091C00085FFFCCF9093C600B9
:104110003196F5CFCD36D105B9F054F4C836D10576
:10412000B1F0C936D10509F045C0E2E3F3E021C0A2
:10413000CA3DD10531F0CD3DD105E1F5EDEEF2E01E
:1041400036C0E4E0F3E029C0EBE1F3E01CC0E9E4B1
:10415000F3E08191882371F19091C00095FFFCCF2D
:104160008093C600F6CF9091C00095FFFCCF80935E
:10417000C60081918111F7CF1DC09091C00095FFBD
:10418000FCCF8093C60081918111F7CF13C090912D
:10419000C00095FFFCCF8093C60081918111F7CFBD
:1041A00009C09091C00095FFFCCF8093C60081911B
:1041B0008111F7CF40E050E0609186048DE299E0F4
:1041C0000E944C3A8091C00085FFFCCF8AE080932A
:1041D000C600812FDF91CF911F9108953F924F929A
:1041E0005F926F927F928F929F92AF92BF92CF9287
:1041F000DF92EF92FF920F931F93CF93DF93CDB790
:10420000DEB7E4970FB6F894DEBF0FBECDBF87E4EC
:104210000E943818882309F496C30E9424180E942B
:10422000B0C264307105D9F144F46230710521F1F6
:104230005CF577FF17C00C9434366A35710509F4C4
:104240002DC334F46C31710509F46FC00C9434360D
:104250006B35710509F426C36C35710509F427C364
:104260000C94343680918504811106C00E94931C01
:104270000E94DD1D0C94DC3780918504811104C0FF
:104280000E94181D81E007C080918504811107C03C
:104290000E94181D80E00E949D1E0C94DC378AEF5E
:1042A00096E00E94E29E80E50E943818882339F04B
:1042B0000E9424180E94B7C26B017C0103C0C12C6C
:1042C000D12C760183E50E943818882361F00E9482
:1042D000241820E030E04AE754E40E943DC50E94E3
:1042E000B7C26B017C010E9476660E94E20FC60E87
:1042F000D71EE81EF91E0E94E20F6093930470938C
:10430000940480939504909396040E94E20F6C1598
:104310007D058E059F0510F00C9434360E942C69A3
:104320000E94701F0E947E9FF0CF809105029091A5
:104330000602A0910702B091080280933406909380
:104340003506A0933606B0933706809125029091EA
:10435000260290939B0680939A0684E690E09093C1
:104360002602809325020E94E20F609393047093CB
:104370009404809395049093960481E00E947A5E61
:1043800080918A0690918B06A0918C06B0918D0643
:104390008093480690934906A0934A06B0934B0633
:1043A00080918E0690918F06A0919006B091910613
:1043B00080934C0690934D06A0934E06B0934F0603
:1043C0008091920690919306A0919406B0919506E3
:1043D0008093500690935106A0935206B0935306D3
:1043E0008091960690919706A0919806B0919906B3
:1043F0008093540690935506A0935606B0935706A3
:104400001092050210920602109207021092080202
:1044100088E50E943818882311F080E00AC089E5F9
:104420000E9438188111F9CF8AE50E94381891E06E
:1044300089278093090281110CC088E50E943818F1
:10444000882309F47AC189E50E943818882309F481
:1044500074C110928A0610928B0610928C061092EC
:104460008D0610928E0610928F0610929006109272
:104470009106E3E6F9E0149126E936E042E956E0D8
:104480006EE876E08AE896E00E94DC5C82E799E0DC
:104490000E94F01320E030E040EC5FE30E943DC555
:1044A0006B017C01612F110F770B880B990B0E9418
:1044B000E8C29B01AC01C701B6010E943DC56093F3
:1044C00048067093490680934A0690934B0686E708
:1044D00099E00E94F013E4E6F9E0149120E030E066
:1044E00040EC5FE30E943DC56B017C01612F110F21
:1044F000770B880B990B0E94E8C29B01AC01C701A6
:10450000B6010E943DC560934C0670934D068093A2
:104510004E0690934F062091270230912802409139
:10452000290250912A0220930502309306024093FB
:10453000070250930802C0902B02D0902C02E0900A
:104540002D02F0902E02C701B6010E9434C287FFEF
:1045500008C0C0920502D0920602E0920702F092D3
:10456000080282E799E00E94F0136B017C0186E764
:1045700099E00E94F0139B01AC01C701B6010E94B3
:1045800056C4181614F00C94373686E799E00E944A
:10459000F0136B017C0182E799E00E94F0139B010C
:1045A000AC01C701B6010E943EC29B01AC010E9452
:1045B0003DC520E030E040E85FE30E943FC10E943B
:1045C000B8C59B01AC016091050270910602809113
:1045D0000702909108020E943DC560930502709306
:1045E0000602809307029093080220E030E040E743
:1045F00052E4609105027091060280910702909149
:1046000008020E943EC22AE5C22E26E0D22E7B017D
:104610008C0124E536E040E556E06CE476E088E481
:1046200096E00E9434520E94766680E090E00E94FC
:10463000F61381E090E00E94F61326E936E042E9A5
:1046400056E06EE876E08AE896E00E94DC5C8091B5
:104650008A0690918B06A0918C06B0918D0680936E
:10466000480690934906A0934A06B0934B06809162
:104670008E0690918F06A0919006B091910680933E
:104680004C0690934D06A0934E06B0934F0620E043
:1046900030E040E752E4609105027091060280919B
:1046A0000702909108020E943EC27B018C0124E522
:1046B00036E040E556E06CE476E088E496E00E945F
:1046C00034521092050210920602109207021092C4
:1046D00008020E9476660E94735E8091480690915F
:1046E0004906A0914A06B0914B0680938A069093A2
:1046F0008B06A0938C06B0938D0680914C0690910A
:104700004D06A0914E06B0914F0680938E06909371
:104710008F06A0939006B0939106809150069091D9
:104720005106A0915206B091530680939206909341
:104730009306A0939406B093950680910902811187
:104740000C94413688E50E94381881110C9441364A
:104750008091090281110C94473689E50E9438182E
:1047600081110C94473688E50E9438188823D1F0CF
:104770000E942D18672B682B692BA1F00E9424182A
:1047800020917E0630917F064091800650918106EF
:104790000E943FC160938A0670938B0680938C06BB
:1047A00090938D0689E50E9438188823D1F00E94E5
:1047B0002D18672B682B692BA1F00E9424182091DB
:1047C00082063091830640918406509185060E94AE
:1047D0003FC160938E0670938F06809390069093EE
:1047E00091068091090281110C944D368AE50E9450
:1047F000381881110C944D368AE50E9438188823A8
:10480000D1F00E942D18672B682B692BA1F00E9414
:104810002418209186063091870640918806509191
:1048200089060E943FC1609392067093930680931D
:1048300094069093950626E936E042E956E06EE844
:1048400076E08AE896E00E94DC5C80E00E947A5E76
:104850008091340690913506A0913606B0913706C6
:104860008093050290930602A0930702B09308027A
:1048700080919A0690919B06909326028093250240
:104880000E94E20F609393047093940480939504C4
:10489000909396040E94735E0C943436109227060F
:1048A0000C94343681E0809327060C94343685E4EA
:1048B0000E943818811102C00E9476661BEDA12E5D
:1048C00013E0B12E0EE7C02E06E0D02E8AE8E82EC7
:1048D00086E0F82E10E0F50181915F010E94381802
:1048E000882331F1133061F40E942418F7016083AA
:1048F00071838283938386E996E00E94635D18C08A
:104900000E942418F60120813181428153810E9446
:104910003FC1F701608371838283938326E936E088
:1049200042E956E06EE876E08AE896E00E94DC5CB8
:104930001F5FF4E0CF0ED11C24E0E20EF11C143016
:1049400051F60C9434368DE40E943818882311F403
:104950000C94E3340E9424180E94B0C2633771059E
:1049600011F40C94732C0CF08AC06F31710509F4AA
:1049700047C3A4F56631710509F4E6C1BCF46131A1
:10498000710509F49BC134F46230710508F438C133
:104990000C9434366431710509F4A2C10CF0CEC117
:1049A0006231710509F4D2C60C9434366A3171054E
:1049B00009F4FFC13CF46831710509F4E4C10CF459
:1049C000C9C1F1C16C31710509F407C20CF4FFC112
:1049D0006E31710509F437C20C94343665357105B2
:1049E00009F4F4C6CCF46135710509F483C654F4B6
:1049F0006032710509F466C26A32710509F45DC35B
:104A00000C9434366335710509F49BC60CF09EC6D0
:104A100010929F060C9434366A36710509F43AC632
:104A2000DCF46836710509F466C30CF093C36C3589
:104A3000710511F00C943436BBED8B2EB3E09B2E38
:104A400001EF10E181E0A82E81E1B82E25EB30E1E5
:104A500038AB2FA7312C37C76D36710509F4A6C4C2
:104A60006237710509F463C76B36710511F00C9458
:104A7000343610925906109258060C9434366D3D17
:104A8000710511F40C9455300CF063C0683C71054D
:104A900011F40C946B2E2CF56837710511F40C94FD
:104AA000772D6CF46537710509F42CC767377105EC
:104AB00011F00C943436EFE6F3E00C94822D6C3850
:104AC000710509F436C36E3B710509F4DDC469371D
:104AD000710511F00C94343681E00E947A5E0C94DA
:104AE00034366D3C710511F40C94382FC4F46B3CD2
:104AF000710511F40C94FB2E14F00C94182F693CE2
:104B0000710511F00C943436F1EEEF2EF0E1FF2E2A
:104B10000BED13E0A4E0DA2ED00E0C94E32E6A3DE8
:104B2000710511F40C94AB2F6C3D710511F40C94CC
:104B300046306E3C710511F00C9434365EE7E52E7C
:104B400056E0F52E0BED13E063E0D62ED00E0C945C
:104B50009C2F643F31E0730711F40C94CC312CF599
:104B60006D3291E0790711F40C94C03064F4623E28
:104B7000710511F40C947B306C32714011F40C947B
:104B80008C300C9434366F3221E0720711F40C949F
:104B9000943114F40C9486316039714011F00C9406
:104BA00034360E9476660C943436683592E0790784
:104BB00011F40C94AA3294F4663FF1E07F0711F4EB
:104BC0000C94D23114F40C94CF31673F714011F042
:104BD0000C9434360E94C2800C943436603A83E0E0
:104BE000780709F4D9C1673E93E0790711F40C9472
:104BF000CC346335734011F00C9434360C94D531B9
:104C000089EE96E00E94E29E80E50E943818882393
:104C100039F00E9424180E94B7C26B017C0103C0C6
:104C2000C12CD12C760183E50E943818882361F0CD
:104C30000E94241820E030E04AE754E40E943DC579
:104C40000E94B7C26B017C010E9476660E94E20F4F
:104C500060939304709394048093950490939604C6
:104C6000C114D104E104F104C1F00E94E20FC60EA8
:104C7000D71EE81EF91E0E94E20F6C157D058E05F9
:104C80009F05B0F40E9448A0811112C00E942C69B7
:104C90000E94701F0E947E9FEECF0E9448A081114B
:104CA00007C00E942C690E94701F0E947E9FF5CF52
:104CB0008AED96E00E94E29E0C94343681ED96E0F7
:104CC0000E94E29E159817984298A0989FB7F89472
:104CD00080910B018D7F80930B019FBF0C94343624
:104CE000E1ECF6E08491882341F09091C00095FFBB
:104CF000FCCF8093C6003196F5CF8091C00085FF30
:104D0000FCCF8AE08093C60080EA96E00E94FB75A3
:104D1000E3EBF6E08491882341F09091C00095FF89
:104D2000FCCF8093C6003196F5CF8091C00085FFFF
:104D3000FCCF8AE08093C6000C94343680EA96E07B
:104D40000E9452760C94343680EA96E00E941977DD
:104D50000C94343600919704109198040C5F1F4F07
:104D60006AE270E0C8010E94CEC9009719F0FC0108
:104D70003197108221E041E0B80180EA96E00E947C
:104D80007B770C94343680EA96E00E941D770E946F
:104D9000E20F60938B0470938C0480938D04909346
:104DA0008E040C94343680EA96E00E9424770C94AA
:104DB00034368091A306882311F40C94343683E5AD
:104DC0000E94381881110C9453360C94343680EAC2
:104DD00096E00E94CD7B0C9434368091970490919C
:104DE00098046AE270E004960E94CEC98C01892B77
:104DF000E1F02091A1043091A20440E6429FC0015D
:104E0000439F900D11246EE470E089559B4F0E94E2
:104E1000CEC960E270E00E94CEC9019690939804DA
:104E200080939704F80131971082609197047091F4
:104E300098046C5F7F4F21E040E080EA96E00E949A
:104E40007B770C9434368091A306882311F40C945C
:104E5000343660E080EA96E00E94867D8091970477
:104E6000909198046AE270E004960E94CEC98C0189
:104E7000892BE1F02091A1043091A20440E6429FE9
:104E8000C001439F900D11246EE470E089559B4F43
:104E90000E94CEC960E270E00E94CEC90196909354
:104EA000980480939704F8013197108260919704D9
:104EB000709198046C5F7F4F80EA96E00E94937A2D
:104EC0000C9434368091A20681110E94766600917E
:104ED0009704109198040C5F1F4F6AE270E0C801BC
:104EE0000E94CEC97C0161E270E0C8010E94CEC977
:104EF000009719F08C010F5F1F4FE114F10419F0B6
:104F0000F7013197108280E50E943818F82E8091C1
:104F10009704909198040817190708F4F12C8091D0
:104F2000A306882311F40C94343621E02F2541E0A8
:104F3000B80180EA96E00E947B7783E50E943818EA
:104F40008823B9F080919704909198048017910775
:104F500080F40E942D18AB01BC01409323095093AB
:104F6000240960932509709326098EE698E00E9433
:104F7000DD4080EA96E00E941D77F1100C943436F3
:104F80000E94E20F60938B0470938C0480938D04D5
:104F900090938E040C9434368091970490919804E9
:104FA0006AE270E005960E94CEC98C01892BE1F07F
:104FB0002091A1043091A20440E6429FC001439F8A
:104FC000900D11246EE470E089559B4F0E94CEC96C
:104FD00060E270E00E94CEC901969093980480939D
:104FE0009704F801319710826091970470919804AA
:104FF0006B5F7F4F80EA96E00E948D7A0C94343686
:105000000E94E20F60938704709388048093890460
:1050100090938A0400918B0410918C0420918D044C
:1050200030918E04601B710B820B930B28EE33E0E2
:1050300040E050E00E944FC6CA01B9012CE330E0C5
:1050400040E050E00E944FC67F936F933F932F93B1
:1050500084EA96E09F938F938E010F5F1F4F1F93FB
:105060000F930E94FDC9E2EAF9E094910FB6F8941B
:10507000DEBF0FBECDBF992349F08091C00085FFF0
:10508000FCCF9093C60031969491F5CFF8018191B1
:10509000882339F09091C00095FFFCCF8093C60023
:1050A000F6CF8091C00085FFFCCF8AE08093C600D8
:1050B000C8010E94D39E0C94343683E50E943818B0
:1050C000882311F40C9434360E9424186B017C015F
:1050D00080E50E943818882311F40C943436C701F7
:1050E000B6010E94B0C26F3F710509F010F40C9434
:1050F00064360C94343688E690E00E946520811175
:105100000C94343683E50E943818882371F000919E
:1051100086040E94241810E0000F111F0A511E4E31
:105120000E94B0C2F801718360830E94D46C0C9419
:10513000343683E50E943818882311F40C943436F1
:105140000E9424180E94B0C27093E5116093E4118C
:105150000C94343689E690E00E94652081110C940D
:105160003436EEE9F6E08491882341F09091C00056
:1051700095FFFCCF8093C6003196F5CFE091860471
:1051800024E0E29FF0011124E852FE4E408151815B
:105190006281738121E030E08DE299E00E94F23A71
:1051A000EBE9F6E08491882341F09091C00095FFEF
:1051B000FCCF8093C6003196F5CFE0918604F0E0F5
:1051C000EE0FFF1FEA51FE4E60817181072E000C29
:1051D000880B990B0E94E8C2AB01BC0121E030E0D2
:1051E0008DE299E00E94F23AE7E9F6E084918823A3
:1051F00041F09091C00095FFFCCF8093C60031969E
:10520000F5CF4091D2115091D3116091D41170918A
:10521000D51121E030E08DE299E00E94F23AE4E914
:10522000F6E08491882341F09091C00095FFFCCF77
:105230008093C6003196F5CF6091E4117091E5112D
:10524000072E000C880B990B0E94E8C2AB01BC0131
:1052500021E030E08DE299E00E94F23A56EEC52E50
:1052600051E1D52E68EDA62E61E1B62E00E010E0EA
:1052700071E9472E76E0572EEFE88E2EE6E09E2E5F
:10528000FCE86F2EF6E07F2EF2018491E1E9F6E072
:10529000882349F09091C00095FFFCCF8093C60011
:1052A00031968491F5CF4AE050E0B8018DE299E063
:1052B0000E94123AF4018491EFE8F6E0882349F065
:1052C0009091C00095FFFCCF8093C60031968491E9
:1052D000F5CFF50141915191619171915F0121E00B
:1052E00030E08DE299E00E94F23AF3018491ECE81B
:1052F000F6E0882349F09091C00095FFFCCF8093A1
:10530000C60031968491F5CFF601619171916F01DC
:10531000072E000C880B990B0E94E8C2AB01BC0160
:1053200021E030E08DE299E00E94F23A013011056F
:1053300019F001E010E0A8CFE8E8F6E084918823B6
:1053400041F09091C00095FFFCCF8093C60031964C
:10535000F5CF8091860490E00E9421694AE050E0F8
:10536000BC018DE299E00E94123AE3E8F6E08491F4
:10537000882341F09091C00095FFFCCF8093C60038
:105380003196F5CF8FEF9FEF0E9421694AE050E000
:10539000BC018DE299E00E94123A8091C00085FF25
:1053A000FCCF8AE08093C6000C94DC378DE690E059
:1053B0000E94652081110C94343688E796E00E94A3
:1053C000E29E83E50E943818882391F000918604BC
:1053D0000E94241810E0000F111F0A511E4E0E9457
:1053E000B0C2F8017183608381E08093000215C030
:1053F00082E50E943818882381F0009186040E947B
:10540000241810E0000F111F0A511E4E0E94B0C256
:10541000F80171836083109200020E94D46C0E9494
:10542000E20F2B013C010091860410E0F801EE0F21
:10543000FF1FEA51FE4E60817181072E000C880B20
:10544000990B0E94E8C2000F111F000F111FF801F5
:10545000E852FE4E11E020813181428153810E9449
:1054600056C418160CF010E01093840488248A9413
:10547000982C5401B8EECB2EB3E0DB2EE12CF12CAE
:105480001AE0312E0C94C73682E596E00E94E29E27
:1054900083E50E943818882361F00E9424180E9436
:1054A000B0C27093E5116093E41181E08093000233
:1054B0000FC082E50E943818882351F00E942418FA
:1054C0000E94B0C27093E5116093E4111092000243
:1054D0000E94E20F4B015C016091E4117091E511B3
:1054E000072E000C880B990B0E94E8C211E0209156
:1054F000D2113091D3114091D4115091D5110E9405
:1055000056C418160CF010E0109384040FE416E053
:105510009BE4E92E96E0F92E27E4C22E26E0D22E57
:105520003AE0732E809184046091E4117091E5114A
:10553000882309F488C0072E000C880B990B0E9461
:10554000E8C22091D2113091D3114091D4115091E1
:10555000D5110E9456C418160CF08CC00E94E20FA0
:10556000DC01CB0188199909AA09BB09893E93403E
:10557000A105B10508F460C0E0915A0634E0E39F4C
:10558000F0011124E852FE4E408151816281738105
:10559000F8018491EFE4F6E0882349F09091C0008F
:1055A00095FFFCCF8093C60031968491F5CF22E021
:1055B00030E08DE299E00E94F23AF7018491EBE449
:1055C000F6E0882349F09091C00095FFFCCF8093CE
:1055D000C60031968491F5CF60915A0670E04AE09A
:1055E00050E08DE299E00E94123AF6018491E7E4DE
:1055F000F6E0882349F09091C00095FFFCCF80939E
:10560000C60031968491F5CF4091D2115091D311BB
:105610006091D4117091D51121E030E08DE299E0D4
:105620000E94F23A8091C00085FFFCCF7092C600C4
:105630000E94E20F4B015C010E942C690E94701FC6
:105640000E947E9F6FCF072E000C880B990B0E9443
:10565000E8C22091D2113091D3114091D4115091D0
:10566000D5110E9434C287FF05C0809100028823B3
:1056700009F474CF8DE396E00E94E29E0E94E20F4F
:10568000609393047093940480939504909396048C
:105690000C94343683E50E943818882319F10E944F
:1056A000241820E030E0A9010E9434C287FD0FC019
:1056B0000E94241820E030E04FE753E40E9456C4D3
:1056C000181644F00E9424180E94B0C205C060E081
:1056D00070E002C06FEF70E0709359066093580657
:1056E0000C9434368FEF90E09093590680935806CF
:1056F0000C9434360E94416D0E947666A09A9FB742
:10570000F89480910B01826080930B019FBF0E94EF
:10571000D566109259061092580668EE73E080E044
:1057200090E00E9413100E9476660E949A161092D2
:105730000A028EE296E00E94E29E0E947E9F0C94F6
:10574000343681E080939F060C94343683E50E94C2
:1057500038188823A1F00E94241820E030E04AE79E
:1057600054E40E943DC50E94B7C260930102709349
:10577000020280930302909304020C94343688E56D
:105780000E94381881110C94B23789E50E943818AC
:1057900081110C94B2378AE50E94381881110C945B
:1057A000B23785E40E94381881110C94B2370E94F8
:1057B0007666A09A9FB7F89480910B0182608093DF
:1057C0000B019FBF0E94D5660C94343683E50E947E
:1057D00038180E94241820E030E04AE754E40E9480
:1057E0003DC50E94B7C260938F047093900480936C
:1057F0009104909392040C943436F3E03F126BC002
:105800000E9424182B013C0120E030E040EA51E4E2
:105810000E9434C287FF41C0A3019201F801608158
:105820007181828193810E943EC26B017C019B0148
:10583000AC016091C9107091CA108091CB10909109
:10584000CC100E943DC56093C9107093CA1080931C
:10585000CB109093CC10A7019601F5016081718166
:10586000828193810E943DC5F501608371838283AB
:105870009383EFA5F8A960817181828193810E9451
:10588000E6C2A70196010E943DC50E94B7C2EFA5DE
:10589000F8A96083718382839383F80140825182E7
:1058A0006282738233940C5F1F4FF4E0AF0EB11C21
:1058B0002FA538A92C5F3F4F38AB2FA734E0331604
:1058C00011F40C943436F40181914F010E94381880
:1058D000882341F392CF0E942418F80160837183DA
:1058E00082839383DFCFE4E6F5E08491882311F48B
:1058F0000C9434369091C00095FFFCCF8093C60085
:105900003196F3CF00919704109198040B5F1F4FCD
:105910006AE270E0C8010E94CEC9009719F0FC014C
:1059200031971082C8010E94D39E0C943436E1E670
:10593000F5E08491882341F09091C00095FFFCCF61
:105940008093C6003196F5CF40918A0650918B0620
:1059500060918C0670918D0622E030E08DE299E036
:105960000E94F23AEDE5F5E08491882341F09091B0
:10597000C00095FFFCCF8093C6003196F5CF4091D3
:105980008E0650918F06609190067091910622E0EC
:1059900030E08DE299E00E94F23AE9E5F5E0849189
:1059A000882341F09091C00095FFFCCF8093C60002
:1059B0003196F5CF409192065091930660919406EE
:1059C0007091950622E030E08DE299E00E94F23A73
:1059D000E5E5F5E08491882341F09091C00095FFC2
:1059E000FCCF8093C6003196F5CF4091960650913A
:1059F0009706609198067091990622E030E08DE25A
:105A000099E00E94F23AEAE4F5E08491882341F0BB
:105A10009091C00095FFFCCF8093C6003196F5CFE2
:105A20000E94C7660E94E8C22091F1103091F210E6
:105A30004091F3105091F4100E943EC2AB01BC01A2
:105A400022E030E08DE299E00E94F23AE6E4F5E0EF
:105A50008491882341F09091C00095FFFCCF809302
:105A6000C6003196F5CF81E00E94C7660E94E8C269
:105A70002091F5103091F6104091F7105091F810E8
:105A80000E943EC2AB01BC0122E030E08DE299E011
:105A90000E94F23AE2E4F5E08491882341F090918B
:105AA000C00095FFFCCF8093C6003196F5CF82E011
:105AB0000E94C7660E94E8C22091F9103091FA1046
:105AC0004091FB105091FC100E943EC2AB01BC0102
:105AD00022E030E08DE299E00E94F23A8091C0002D
