:100000000C947E1C0C943B1F0C946C1F0C949D1F35
:100010000C94CE1F0C94FF1F0C9430200C94612084
:100020000C9492200C94AF1C0C94AF1C0C94AF1C3D
:100030000C94AF1C0C9435EA0C94AF1C0C94AF1CC0
:100040000C94AF1C0C94FAC10C94AF1C0C94AF1C14
:100050000C94AF1C0C94AF1C0C945BD50C94B11C8D
:100060000C94AF1C0C947D9B0C94AF1C0C94AF1C97
:100070000C94AF1C0C94AF1C0C94AF1C0C94AF1CD4
:100080000C94AF1C0C94AF1C0C94AF1C0C94AF1CC4
:100090000C94AF1C0C94AF1C0C94AF1C0C943F2A16
:1000A0000C94AF1C0C94AF1C0C94AF1C0C94AF1CA4
:1000B0000C94AF1C0C94AF1C0C94AF1C0C94AF1C94
:1000C0000C94AF1C0C94AF1C0C94AF1C0C94AF1C84
:1000D0000C94AF1C0C94AF1C0C94AF1C0C94AF1C74
:1000E0000C94AF1CE71DEC1DF11DFB1D741E051EBD
:1000F0000D1E151E1F1E291E331E421E4C1E741E71
:10010000561E601E6A1E941E971E8A1E8E1ECE1ECE
:100110009B1E9F1EA51EA91EAD1EB31EB71EBB1E95
:10012000CE1EC11EC51EC91E2824282436244424E0
:1001300060246E247C248A249B24522495E898E829
:1001400095E997E999E99BE94BE99DE99FE9A2E9DE
:100150004BE9A5E9A9E968E9ABE9ADE9AFE94BE904
:1001600075E98BE986E94BE990E9ADE8AFE8BDE8D0
:10017000BFE8C1E8C3E8C9E8CBE8CDE8CFE8D9E8F3
:10018000DBE8DFE8E1E8E7E8E9E84BE94BE94BE9E0
:100190004BE94BE94BE94BE94BE94BE94BE94BE9BF
:1001A0004BE94BE94BE94BE94BE94BE94BE94BE9AF
:1001B0004BE94BE94BE94BE94BE94BE94BE94BE99F
:1001C0004BE94BE94BE94BE94BE94BE94BE94BE98F
:1001D0004BE94BE94BE94BE94BE94BE94BE94BE97F
:1001E0004BE94BE94BE94BE94BE94BE94BE94BE96F
:1001F0004BE94BE94BE94BE94BE94BE94BE94BE95F
:100200004BE94BE9F0E810E9084AD73B3BCE016ED9
:1002100084BCBFFDC12F3D6C74319ABD56833DDA5D
:100220003D00C77F11BED9E4BB4C3E916BAAAABE6C
:10023000000000803F05A84CCDB2D44EB93836A995
:10024000020C50B9918688083CA6AAAA2ABE0000D2
:1002500000803F000C94CDE80C948B350C947625EF
:100260000C94153C0C94FF5B0C941E360C944F457B
:100270000C942D4A0C94BFE80C9495E90C944A4CCC
:100280000C94253C0C94051E0C94DB420C9410E954
:100290000C94B44B0C94245C0C94D84F0C94A9E9A6
:1002A0000C94F74D0C94AFE90C94B85D0C94043E9B
:1002B0000C948E3F0C949BE90C94CA6B0C94941E86
:1002C0000C949F1E0C947C240C94601E0C944A9BEE
:1002D0000C946B5D0C94AC3F0C94124A0C941F1E52
:1002E0000C949B240C94FF4A0C94485C0C94D85EAC
:1002F0000C94CE280C9444240C948E650C940B62C0
:100300000C94B74E0C9469380C94994B0C940D1EB8
:100310000C94ADE80C94704A0C94AFE80C94ADE9E1
:100320000C944C4A0C9459640C949FE90C94445CD2
:100330000C94D9E80C94CE1E0C944BE90C9405490E
:100340000C94D7210C948E430C9475E90C945B614A
:100350000C94DBE80C94A6380C94C23F0C94CE426B
:100360000C94785A0C94399B0C94C3200C948E1ED8
:100370000C943D5D0C94DFE80C94B31E0C94F0E8F3
:100380000C94044F0C94C3E80C9428240C94A940BA
:100390000C94421E0C94971E0C9467510C94E9E83F
:1003A0000C944C1E0C9467450C94D43B0C94CFE8F1
:1003B0000C94AC5F0C94463B0C946B480C9468E92D
:1003C0000C9427370C94CA350C94A5E90C94B93DCC
:1003D0000C94C91E0C942C660C94C51E0C94824A75
:1003E0000C9467550C94134A0C94F2520C94741E9E
:1003F0000C94B5390C94ABE90C94B63C0C94EC1D00
:100400000C94CBE80C94331E0C94A91E0C949F3DC5
:100410000C948BE90C94E5640C946E240C94A85114
:100420000C94151E0C94CA3E0C94AA530C940D35D2
:100430000C9460240C9475680C946A1E0C9498E8D3
:100440000C94DE3B0C94C4690C94AA4E0C94366652
:100450000C948C4B0C9401550C9411690C94683FCE
:100460000C9442690C943E360C9410510C94205715
:100470000C94373F0C943C510C948A240C943624F1
:100480000C94C11E0C9419450C9471650C94F435B0
:100490000C94FB1D0C949D500C94C9E80C9499E9A4
:1004A0000C941A500C94BDE80C949E470C949DE952
:1004B0000C946B3A0C94093F0C94E7E80C947C493B
:1004C0000C94BE360C94FF380C9422380C9495A9E9
:1004D0000C94DE3A0C949B1E0C94DF400C94A941C2
:1004E0000C94F11D0C94E71D0C9442420C947B5823
:1004F0000C94AD1E0C9490370C9490E90C94DB375F
:100500000C9497E90C94C5450C946C4F0C94363DB3
:100510000C94CB650C94E4700C942D490C94855C80
:100520000C947B360C9452240C9484210C947C679C
:100530000C9486E90C9495E80C94291E0C94E1E83F
:100540000C94945D0C94C1E80C94A2E90C940735CA
:100550000C94BB1E0C94561E0C948A1E0C94B71E51
:100560000C94D85A0C94583E0C94A51E0C944C35FF
:100570000000090A02080B0C0D0706030401000025
:10058000000000000000000000000000000000006B
:1005900000000000000000000000000011100F002B
:1005A000000000000000000000000000000000004B
:1005B0000000000000000102102020080810204068
:1005C0001020408002010201080402010102040817
:1005D00010204080804020100804020180040201A5
:1005E00080402010080402010804020101020408EE
:1005F00010204080010204081020408005050505F8
:10060000070508080808020202020A0A080804048A
:1006100004040101010101010101030303030303B8
:100620000303040707070C0C0C0C0C0C0C0C020247
:10063000020206060606060606060B0B0B0B0B0B44
:100640000B0B00002200250028002B002E0031009B
:10065000340002010000050108010B010000210027
:10066000240027002A002D00300033000101000083
:10067000040107010A015052494E54004D415445AE
:100680005249414C004D41494E54454E414E43451F
:10069000005072696E74696E6720776974682055BE
:1006A00053422E2E2E00756C74696D616B65722E2F
:1006B000636F6D2F4552303700476F20746F3A00DB
:1006C00058206F722059207377697463682073749F
:1006D00075636B00756C74696D616B65722E636F09
:1006E0006D2F4552303700476F20746F3A00582005
:1006F0006F722059207377697463682062726F6B20
:10070000656E00756C74696D616B65722E636F6DDB
:100710002F4552303600476F20746F3A005A2073CD
:10072000776974636820737475636B00756C7469A2
:100730006D616B65722E636F6D2F455230350047CA
:100740006F20746F3A005A2073776974636820626F
:10075000726F6B656E00756C74696D616B65722E7E
:10076000636F6D2F4552303400476F20746F3A002D
:100770005361666574792063697263756974007585
:100780006C74696D616B65722E636F6D2F455230AD
:100790003300476F20746F3A0048656174657220BA
:1007A0006572726F7200756C74696D616B65722E23
:1007B000636F6D2F4552303200476F20746F3A00DF
:1007C00054656D702073656E736F722042454400EE
:1007D000756C74696D616B65722E636F6D2F455218
:1007E000303100476F20746F3A0054656D7020738C
:1007F000656E736F72004552524F52202D20535434
:100800004F5050454400801506060606FEFEFEFECB
:10081000FC00000000000000FCFEFEFEFC000000EA
:100820000EFEFEFEFE0000E0FCFEFEFCE0E000002E
:1008300000CECECE000000C0C0C0C0C0C08000004E
:100840000000000080C0C080000000000000808028
:10085000C0C0C0C0C0C0C080800000000006FEFE56
:10086000FEFE0000000080C0C0C0000000000000CC
:100870008080C0C0C080808000000000C0C0C0C0B8
:100880000080C0C0C0C08000000000007FFFFFFFEC
:10089000FF80000000000080FFFFFFFFFF0000005E
:1008A00000FFFFFFFF000000FFFFFFFF0000000050
:1008B00000FFFFFF00000081F1FFFF3F0F3FFFFC43
:1008C000F0F0FCFF3F0F3FFFFEF880000000C1E1A9
:1008D000F1F17131010183FFFFFFFC000000FFFF18
:1008E000FFFF000C3EFFFFF7C301000000FCFEFF0E
:1008F0008703113131333F3F3F1E000001FFFFFFEF
:10090000FF070301010101000000000000010307CF
:10091000070F0F0F0F0F0F0F0707070F0F0600002E
:1009200000070F0F07000000070F0F07000000006F
:10093000000F0F0F0000060F0F0701000000010756
:100940000F0F070100000001070F0F06000003074B
:100950000F0F0E0E060703070F0F07000000070F0B
:100960000F0700000000030F0F0F06000000030731
:10097000070F0E0E0E0E0E0E06000000000F0F0FDA
:100980000F00000000000000507265763A2000431E
:10099000414E43454C002073656300206D696E0035
:1009A00020686F75720020686F7572730000000018
:1009B000000000005F00000007000700147F147FA4
:1009C00014242A7F2A1223130864623649552250C0
:1009D0000005030000001C2241000041221C000809
:1009E0002A1C2A0808083E080800503000000808A1
:1009F000080808006060000020100804023E514909
:100A0000453E00427F400042615149462141454BED
:100A1000311814127F1027454545393C4A49493061
:100A200001710905033649494936064949291E001D
:100A30003636000000563600000008142241141417
:100A40001414144122140800020151090632497994
:100A5000413E7E1111117E7F494949363E41414157
:100A6000227F4141221C7F494949417F09090101F7
:100A70003E414151327F0808087F00417F410020FC
:100A800040413F017F081422417F404040407F02A7
:100A900004027F7F0408107F3E4141413E7F0909E7
:100AA00009063E4151215E7F0919294646494949B7
:100AB0003101017F01013F4040403F1F2040201F86
:100AC0007F2018207F6314081463030478040361F3
:100AD0005149454300007F41410204081020414133
:100AE0007F00000402010204404040404000010237
:100AF000040020545454787F4844443838444444D3
:100B000020384444487F3854545418087E09010260
:100B1000081454543C7F0804047800447D400020AD
:100B200040443D00007F10284400417F40007C0489
:100B30001804787C0804047838444444387C14143D
:100B40001408081414187C7C0804040848545454ED
:100B500020043F4440203C4040207C1C2040201C7E
:100B60003C4030403C44281028440C5050503C44F9
:100B700064544C44000836410000007F00000041EE
:100B800036080008082A1C08081C2A0808473120D3
:100B9000462569205A25692058256920592569006C
:100BA000473238205A302058302059300062756959
:100BB0006C64706C6174652E006F662061646A7588
:100BC0007374696E6720796F7572007468726F75DF
:100BD0006768207468652070726F6365737300497D
:100BE0002077696C6C20677569646520796F750082
:100BF000434F4E54494E55450043414E43454C00EA
:100C0000473238205A3000746F207072696E742039
:100C100069742100616E642070726573732074685A
:100C20006520627574746F6E006F6E207468652045
:100C300053442D636172640053656C656374206175
:100C4000207072696E742066696C650032312F32D3
:100C500031004C45542753205052494E54005265A0
:100C60006164696E6720636172642E2E2E003231DA
:100C70002F323100796F757220556C74696D616B1C
:100C80006572322E2E2E00746861742063616D656A
:100C9000207769746800506C6561736520696E73B4
:100CA0006572742053442D636172640032312F32B7
:100CB00031006D616B652061203344205072696E94
:100CC00074210049276D207265616479206C657418
:100CD00027730032302F32310041524520594F5591
:100CE0002052454144593F0066726F6D206E6F7A05
:100CF0007A6C652E2E2E006D6174657269616C20B0
:100D00006578697473005075736820627574746FC8
:100D10006E207768656E0031392F323100434F4EB7
:100D200054494E5545004C6F6164696E67206D6192
:100D300074657269616C2E2E2E0031382F323100AD
:100D400061626F766520746865206172726F772EBC
:100D500000796F757220556C74696D616B657232C4
:100D60002C0066726F6D2074686520726561722058
:100D70006F6600496E73657274206E6577206D61D1
:100D800074657269616C0031372F323100434F4E08
:100D900054494E5545006D6174657269616C206CF3
:100DA0006F6164696E67007072696E746865616412
:100DB0002068656174696E6720666F7200506C65AB
:100DC00061736520776169742C0031362F323100F0
:100DD00053656C65637420746865206D6174657219
:100DE00069616C006974206973207573696E672E80
:100DF000006F66206D6174657269616C006B6E6F67
:100E000077732077686174206B696E64004E6F772A
:100E100020796F757220556C74696D616B657232E3
:100E20000031352F323100434F4E54494E55450065
:100E3000697320746869732072696768743F005928
:100E40006F7520686176652063686F73656E003129
:100E5000342F323100594553004E4F00206173202A
:100E60006D6174657269616C2C0031332F32310011
:100E70004D4154455249414C00556C74696D616B4C
:100E80006572322E00696E7365727420696E20740B
:100E9000686973006D6174657269616C20796F7542
:100EA0002077696C6C004E6578742C2073656C65D6
:100EB0006374207468650031322F3231005245412D
:100EC0004459004D383400473120463132303030FB
:100ED00020583131302059313000746F20696E73E1
:100EE000657274206D6174657269616C2E0074683E
:100EF00065206E6578742073746570206973007462
:100F00006865206275696C64706C617465004E6F11
:100F1000772074686174207765206C6576656C65F0
:100F2000640031312F323100434F4E54494E554504
:100F30000074686520726967687420636F726E65FB
:100F4000722E2E2E0052657065617420746869736C
:100F500020666F720031302F323100434F4E5449BA
:100F60004E554500444F4E4500746865206C6566DB
:100F70007420636F726E65722E2E2E00526570653E
:100F80006174207468697320666F7200392F323182
:100F900000434F4E54494E554500626974207265B6
:100FA00073697374616E63652E00756E74696C206D
:100FB000796F75206665656C2061006275696C6487
:100FC000706C61746520616E64206E6F7A7A6C65F6
:100FD00000536C69646520612070617065722062E5
:100FE00065747765656E00382F323100434F4E547B
:100FF000494E554500434F4E54494E5545004731E3
:1010000020462569205A300047312046256920585E
:1010100025692059256900473120462569205A3520
:1010200000746865206275696C64706C6174652019
:101030006C6576656C2E00706170657220746F202F
:1010400066696E652D74756E65006E6F77207573B9
:10105000652061207368656574206F660052657055
:10106000656174207468697320737465702C2062E4
:10107000757400372F323100434F4E54494E554559
:101080000066726F6D20746865206275696C6470AB
:101090006C6174652E0069732061206D696C6C69E8
:1010A0006D6574657220617761790073637265772D
:1010B0002074696C6C20746865206E6F7A7A6C6538
:1010C000005475726E207269676874206275696C6D
:1010D00064706C61746500362F323100434F4E549A
:1010E000494E554500473120462569205A30004772
:1010F0003120462569205825692059256900473146
:1011000020462569205A350066726F6D2074686527
:10111000206275696C64706C6174652E006973205F
:1011200061206D696C6C696D6574657220617761B1
:10113000790073637265772074696C6C20746865DC
:10114000206E6F7A7A6C65005475726E206C6566DD
:1011500074206275696C64706C61746500352F323F
:101160003100434F4E54494E5545004731204625E6
:1011700069205A30004731204625692058256920CA
:1011800059256900473120462569205A3500667285
:101190006F6D20746865206275696C64706C617431
:1011A000652E0061206D696C6C696D6574657220D7
:1011B0006177617900756E74696C20746865206E62
:1011C0006F7A7A6C6520697300526F746174652060
:1011D00074686520627574746F6E00342F3231004C
:1011E000434F4E54494E554500434F4E54494E557A
:1011F0004500473120462569205A25692058256930
:10120000205925690047323820583020593000676E
:101210006F696E6720746F20646F2074686174203A
:101220006E6F772E0061646A7573746D656E74738A
:101230002C20776520617265007765206E65656496
:1012400020746F20646F20736F6D65004166746554
:1012500072207472616E73706F72746174696F6EF4
:1012600000332F323100434F4E54494E554500470D
:101270003120462569205A256900473238205A30E6
:1012800000612066697273742072756E2077697AC6
:101290006172642E0077616C6B20796F75207468C1
:1012A000726F756768006669727374207374617217
:1012B00074757020492077696C6C004265636175B4
:1012C00073652074686973206973207468650032DF
:1012D0002F323100434F4E54494E554500627574CC
:1012E000746F6E20746F20636F6E74696E75650025
:1012F000556C74696D616B657221205072657373F2
:10130000207468650073746172747570206F662054
:10131000796F75720057656C636F6D6520746F200F
:1013200074686520666972737400312F323100432E
:101330004F4E54494E5545004300432F00436C69BE
:10134000636B20746F2072657475726E00427569EC
:101350006C64706C6174652074656D702E3A003F2A
:101360003F3F00466163746F7279207265736574E4
:101370000052756E74696D652073746174730056E4
:10138000657273696F6E004D6F74696F6E2073655F
:101390007474696E67730052657472616374696F07
:1013A0006E2073657474696E67730053657420668C
:1013B000616E207370656564004D6F7665206D61A8
:1013C00074657269616C20283229004D6F76652042
:1013D0006D6174657269616C2028312900496E73F2
:1013E000657274206D6174657269616C0052616927
:1013F0007365206275696C64706C617465004C6F14
:10140000776572206275696C64706C617465004800
:101410006F6D652068656164004865617475702052
:101420006275696C64706C6174650048656174759F
:1014300070207365636F6E64206E6F7A7A6C6500DE
:10144000486561747570206669727374206E6F7A76
:101450007A6C65004C45442073657474696E6773DB
:10146000003C2052455455524E00566572733A5F07
:1014700031352E30352E30322E4D6F6562797573D1
:1014800065780025004300432F004300432F0043AD
:1014900000432F0025003F3F3F0020476C6F77201F
:1014A0007768656E20646F6E6500204F6E207768E8
:1014B000696C65207072696E74696E670020416C9A
:1014C00077617973204F66660020416C776179738C
:1014D000204F6E004272696768746E657373003CDA
:1014E0002052455455524E0025002500427269672E
:1014F00068746E657373004C4544004300432F00CD
:10150000436C69636B20746F2072657475726E0032
:101510004E6F7A7A6C652074656D70657261747552
:1015200072653A0047323820583020593000430065
:10153000432F00436C69636B20746F207265747570
:10154000726E00526F7461746520746F20657874D8
:1015500072756465004E6F7A7A6C652074656D7083
:10156000657261747572653A003F3F3F0052657461
:101570007261637420737065656400526574726192
:101580006374206C656E677468003C205245545546
:10159000524E006D6D2F736563006D6D006D6D2F84
:1015A000736563005265747261637420737065655E
:1015B00064006D6D0052657472616374206C656EB9
:1015C0006774680052455452414354494F4E003F9E
:1015D0003F3F0043757272656E742045004375721B
:1015E00072656E74205A0043757272656E7420586D
:1015F0002F59004D6178207370656564205A004D45
:1016000061782073706565642059004D617820739E
:1016100070656564205800582F59204A65726B0028
:10162000416363656C65726174696F6E003C205242
:10163000455455524E006D41006D41006D41006DA5
:101640006D2F736563006D6D2F736563006D6D2F76
:10165000736563006D6D2F736563006D6D2F73652A
:10166000635E32006D410043757272656E74204591
:10167000006D410043757272656E74205A006D41B1
:101680000043757272656E7420582F59006D6D2F6E
:10169000736563004D6178207370656564205A003E
:1016A0006D6D2F736563004D61782073706565649F
:1016B0002059006D6D2F736563004D617820737044
:1016C0006565642058006D6D2F73656300582F5950
:1016D000204A65726B0030306D6D2F7365635E322A
:1016E00000416363656C65726174696F6E004D4F94
:1016F00054494F4E00566572733A5F31352E30357E
:101700002E30322E4D6F65627975736578004D61AC
:101710007920323920323031372031383A33303A7B
:1017200034320052657475726E006D00204D617424
:101730003A003A005072696E74696E673A003A0076
:101740004D616368696E65206F6E20666F723A0046
:1017500052657475726E00746F2064656661756C95
:10176000743F00526573657420657665727974689C
:10177000696E6700594553004E4F00250046616E63
:10178000207370656564004731204625692058251F
:1017900069205925690047323820582059004731BF
:1017A00020462569205A343000473238205A004DEF
:1017B000383400473238205A004D38340047323828
:1017C0002058205900473238205A00414456414E93
:1017D000434544004255494C442D7C504C415445AE
:1017E00000414456414E4345440052455455524EE3
:1017F0000043504500435045004350450055504577
:1018000054004350450041425300504C41002500D4
:1018100046616E3A2000430043002500466C6F7716
:101820003A006D6D00636F6D6573206F7574207481
:101830006865206E6F7A7A6C6500576169742074F0
:10184000696C6C206D6174657269616C0052454110
:1018500044590043414E43454C00466F72776172D4
:1018600064696E67206D6174657269616C006162A4
:101870006F766520746865206172726F772E0079CB
:101880006F7572206D616368696E652C0066726F9A
:101890006D20746865206261636B73696465206F95
:1018A0006600496E73657274206E6577206D617491
:1018B000657269616C0052454144590043414E4391
:1018C000454C006D6174657269616C20696E736569
:1018D0007274696F6E00436F6F6C696E672070720F
:1018E000696E746865616420666F72004865617432
:1018F000696E67207072696E746865616420666FD6
:1019000072004D4154455249414C0052656D6F760D
:1019100065206D6174657269616C0052454144597E
:101920000043414E43454C00526576657273696EC3
:1019300067206D6174657269616C00666F72206DFD
:101940006174657269616C2072656D6F76616C009F
:1019500048656174696E67207072696E746865614C
:10196000640047323820583020593000496D706F7C
:1019700072742066726F6D205344004578706F72E8
:101980007420746F20534400437573746F6D697ACB
:1019900065003C2052455455524E004C6F616473B3
:1019A00020616C6C206D6174657269616C730053A9
:1019B0006176657320616C6C206D6174657269611C
:1019C0006C73004D6F646966792074686520736577
:1019D0007474696E677300250046616E3A20004397
:1019E0000043002500466C6F773A006D6D003F3F65
:1019F0003F0053746F726520617320707265736568
:101A00007400466C6F7720250046616E0044696162
:101A10006D657465720048656174656420627569FE
:101A20006C64706C6174650054656D70657261748E
:101A3000757265003C2052455455524E00250025D4
:101A4000006D6D00430043004E6577207072657332
:101A50006574003C2052455455524E005052455337
:101A60004554530025004D6174657269616C2066B0
:101A70006C6F7700250046616E20737065656400A9
:101A80006D6D004D6174657269616C204469616DB2
:101A9000657465720043004275696C64706C6174B2
:101AA000652054656D702E00430054656D7065723D
:101AB0006174757265004D4154455249414C00694D
:101AC0006E204D4154455249414C2E545854007497
:101AD0006F20746865205344206361726400536111
:101AE000766564206D6174657269616C73004F6B1B
:101AF000000A0A006469616D657465723D000A0040
:101B0000666C6F773D000A0066616E5F7370656595
:101B1000643D000A006265645F74656D70657261A2
:101B2000747572653D000A0074656D70657261744C
:101B30007572653D000A006E616D653D005B6D610B
:101B400074657269616C5D0A0052656164696E67F3
:101B500020636172642E2E2E00506C6561736520C7
:101B6000696E736572742063617264004E6F2053F6
:101B7000442D43415244210066726F6D20746865A4
:101B80002053442063617264004C6F61646564207B
:101B90006D6174657269616C73004F6B006469619B
:101BA0006D6574657200666C6F770066616E5F7359
:101BB00070656564006265645F74656D706572610F
:101BC000747572650074656D7065726174757265A7
:101BD000006E616D65005B6D6174657269616C5D5D
:101BE00000466F756E64206F6E20636172642E0014
:101BF0004E6F206578706F72742066696C65005254
:101C0000656164696E6720636172642E2E2E0050D8
:101C10006C6561736520696E7365727420636172AF
:101C200064004E6F2053442D434152442100666F9F
:101C300072207365636F6E64617279206E6F7A7A59
:101C40006C6500666F72207072696D617279206ECA
:101C50006F7A7A6C650053656C6563746564206D9A
:101C60006174657269616C3A004F4B004D41544597
:101C70005249414C004731204625692058256920AA
:101C800059256900473238205830205930004348E0
:101C9000414E47450053455454494E475300524521
:101CA0005455524E005052494D4152597C4E4F5A54
:101CB0005A4C45005345434F4E444152597C4E4F78
:101CC0005A5A4C450052455455524E004300432F3A
:101CD00000436C69636B20746F2072657475726E5B
:101CE000004E6F7A7A6C65322074656D7065726132
:101CF000747572653A004300432F00436C69636B4F
:101D000020746F2072657475726E004E6F7A7A6CF3
:101D1000652074656D70657261747572653A005006
:101D20007265706172696E6720746F207072696E7F
:101D3000743A0048656174696E672075702E2E2EA6
:101D40000054554E450041424F5254004C454420EA
:101D50004272696768746E6573730052657472616C
:101D60006374696F6E004D6174657269616C2066A1
:101D70006C6F772032004D6174657269616C20660A
:101D80006C6F770046616E20737065656400427504
:101D9000696C64706C6174652074656D702E00549C
:101DA000656D706572617475726520320054656D81
:101DB0007065726174757265005370656564004189
:101DC000626F7274003C2052455455524E002500FB
:101DD0002500250025004300430043004300430045
:101DE0004300250041626F72742074686520707230
:101DF000696E743F00594553004E4F003F3F3F000E
:101E00004578747275646572206368616E676520D9
:101E10006C656E00526574726163742073706565E1
:101E2000640052657472616374206C656E677468D7
:101E3000003C2052455455524E006D6D006D6D2F83
:101E4000736563006D6D006D6D0045787472756427
:101E50006572206368616E6765006D6D2F736563E1
:101E60000052657472616374207370656564006DFF
:101E70006D0052657472616374206C656E6774687E
:101E80000052455452414354494F4E00250042727E
:101E9000696768746E6573730025004D61746572BF
:101EA00069616C20666C6F7720320025004D61748B
:101EB000657269616C20666C6F7700250046616E03
:101EC0002073706565640025005072696E7420731C
:101ED000706565640054554E450054696D65206C0D
:101EE0006566740054696D65206C65667420756E56
:101EF0006B6E6F776E004300430048656174696ED6
:101F000067206275696C64706C617465004300439E
:101F10000048656174696E67005072696E74696E1D
:101F2000673A0054554E45005041555345005245BF
:101F300053554D457C5052494E54004348414E47FD
:101F4000457C4D4154455249414C0054554E450045
:101F50004D38340047323800473238205A30004775
:101F6000323820583020593000473120462569202A
:101F700045300047393220452569004D3430310065
:101F80004D363031205835205935205A2569204C9E
:101F9000256900746865207072696E742E00596F2F
:101FA000752063616E2072656D6F76650050726991
:101FB0006E742066696E6973686564004241434BC4
:101FC00020544F204D454E55004300432000507291
:101FD000696E74657220636F6F6C696E6720646FE1
:101FE000776E004241434B20544F204D454E5500E3
:101FF0006F66207072696E74696E672061726561C8
:10200000005472696564207072696E74696E67202D
:102010006F7574004552524F523A00524554555212
:102020004E20544F204D41494E00756C74696D61CE
:102030006B65722E636F6D2F4552303800476F20ED
:10204000746F3A0072656164696E672053442D6352
:1020500061726421004572726F72207768696C65E5
:102060000052455455524E20544F204D41494E0088
:1020700066726F6D2074686520736C696365722E7B
:102080000073657474696E6720776974682073657E
:102090007474696E67006F76657272696465206D2D
:1020A000616368696E6500546869732066696C6570
:1020B0002077696C6C00434F4E54494E55450043A0
:1020C000414E43454C003C204241434B003C205292
:1020D000455455524E005344204341524400473129
:1020E00020463132303030205835205931300047C9
:1020F0003238003B464C41564F523A556C74694752
:10210000436F6465003B464C41564F523A556C74E0
:102110006947436F6465004E6F2066696C65732084
:10212000666F756E6421004F4B004F4B0052656126
:1021300064696E6720636172642E2E2E00506C6598
:1021400061736520696E73657274206361726400E7
:102150004E6F2053442D4341524421004E6F20695D
:102160006E666F20617661696C61626C65006D00FE
:102170006D006D006D004D6174657269616C3A208F
:102180000054696D653A20003B4D41544552494128
:102190004C323A003B4D4154455249414C3A003B88
:1021A00054494D453A00466F6C646572004D3231BA
:1021B0003820496E76616C69642065787472756444
:1021C000657220004D31303920496E76616C69644A
:1021D00020657874727564657220004D3130352049
:1021E000496E76616C696420657874727564657295
:1021F00020004D31303420496E76616C6964206571
:102200007874727564657220005072696E746572BC
:102210002073746F707065642064756520746F201E
:102220006572726F72732E2046697820746865201B
:102230006572726F7220616E6420757365204D390E
:10224000393920746F20726573746172742E20287E
:1022500054656D7065726174757265206973207262
:10226000657365742E2053657420697420616674EB
:1022700065722072657374617274696E67290050AB
:1022800072696E7465722068616C7465642E206B6F
:10229000696C6C28292063616C6C656421006F6B2C
:1022A00000526573656E643A2000456E6473746F06
:1022B00070207374696C6C20707265737365642030
:1022C0006166746572206261636B696E67206F6618
:1022D000662E20456E6473746F7020737475636B23
:1022E0003F00456E6473746F70206E6F742070725F
:1022F000657373656420616674657220686F6D69CB
:102300006E6720646F776E2E20456E6473746F70F5
:102310002062726F6B656E3F00456E6473746F7000
:10232000206E6F74207072657373656420616674CB
:10233000657220686F6D696E6720646F776E2E20FE
:10234000456E6473746F702062726F6B656E3F00D0
:102350002200556E6B6E6F776E20636F6D6D616ED0
:10236000643A202200456C656374726F6E69637312
:102370005F74657374004163746976652045787491
:1023800072756465723A2000496E76616C696420EA
:10239000657874727564657200540020423A3000AA
:1023A00020423A31006F6B20523A0020633A0020FD
:1023B000643A0020693A0020703A006F6B002C00EC
:1023C0002000486F74656E64206F66667365747371
:1023D0003A002200556E6B6E6F776E20636F6D6DE5
:1023E000616E643A2022006F70656E005452494756
:1023F0004745524544007A5F6D61783A20006F701E
:10240000656E0054524947474552454400795F6D17
:1024100061783A20006F70656E0054524947474515
:1024200052454400785F6D696E3A20005265706FC6
:102430007274696E6720656E6473746F7020737454
:1024400061747573005A3A00593A0020436F756EF3
:102450007420583A2000453A005A3A00593A005838
:102460003A004649524D574152455F4E414D453A1B
:102470004D61726C696E20556C74696D616B65722B
:10248000323B20537072696E7465722F6772626C92
:10249000206D617368757020666F722067656E3697
:1024A000204649524D574152455F55524C3A687447
:1024B00074703A2F2F6769746875622E636F6D2F81
:1024C000556C74696D616B65722050524F544F4367
:1024D0004F4C5F56455253494F4E3A312E30204DA6
:1024E000414348494E455F545950453A556C7469CB
:1024F0006D616B65722045585452554445525F4397
:102500004F554E543A320A0020423A0020453A00D4
:10251000543A003F0020573A0020453A00543A0010
:102520002042403A0020403A00202F0020423A004A
:10253000202F006F6B20543A002569206D696E2CA6
:102540002025692073656300456E642066696C65AB
:10255000206C69737400426567696E2066696C65FA
:10256000206C69737400256920686F75727320256B
:1025700069206D696E7574657300446F6E652070B7
:1025800072696E74696E672066696C650050726965
:102590006E7465722073746F707065642064756505
:1025A00020746F206572726F72732E2046697820D6
:1025B000746865206572726F7220616E6420757335
:1025C00065204D39393920746F20726573746172DA
:1025D000742E202854656D70657261747572652063
:1025E00069732072657365742E2053657420697455
:1025F0002061667465722072657374617274696EAD
:102600006729006F6B004E6F204C696E65204E7518
:102610006D626572207769746820636865636B73A7
:10262000756D2C204C617374204C696E653A2000E6
:102630004E6F20436865636B73756D2077697468AE
:10264000206C696E65206E756D6265722C204C6120
:102650007374204C696E653A2000636865636B7320
:10266000756D206D69736D617463682C204C6173A6
:1026700074204C696E653A20004C696E65204E7579
:102680006D626572206973206E6F74204C61737483
:10269000204C696E65204E756D6265722B312C2061
:1026A0004C617374204C696E653A20004D313130B5
:1026B00000446F6E6520736176696E672066696C91
:1026C000652E006F6B004D3239002020506C616E1A
:1026D0006E657242756666657242797465733A20FA
:1026E000002046726565204D656D6F72793A200055
:1026F0004D6179203239203230313700436F6D70AF
:10270000696C65643A2000566572733A5F31352E04
:1027100030352E30322E4D6F6562797573657800D5
:10272000207C20417574686F723A20004D617920D9
:10273000323920323031372031383A33303A34337D
:1027400000204C61737420557064617465643A2094
:1027500000312E302E30004D61726C696E200020E9
:10276000536F6674776172652052657365740020DB
:102770005761746368646F672052657365740020E5
:1027800042726F776E206F757420526573657400A6
:102790002045787465726E616C20526573657400B3
:1027A000506F776572557000737461727400220007
:1027B000656E717565696E672022002200656E7115
:1027C0007565696E67202200FF01010000E040008E
:1027D00000E0400000E040000066430080604300ED
:1027E00000A54300000000008060430000A54300F6
:1027F000006643008060430000A543000000000025
:10280000000000000000006563686F3A00457272C6
:102810006F723A0000002110422063308440A550BE
:10282000C660E770088129914AA16BB18CC1ADD116
:10283000CEE1EFF13112100273325222B5529442BE
:10284000F772D662399318837BB35AA3BDD39CC366
:10285000FFF3DEE36224433420040114E664C7740A
:10286000A44485546AA54BB528850995EEE5CFF5B6
:10287000ACC58DD55336722611163006D776F6665E
:102880009556B4465BB77AA719973887DFF7FEE706
:102890009DD7BCC7C448E5588668A778400861182A
:1028A00002282338CCC9EDD98EE9AFF94889699956
:1028B0000AA92BB9F55AD44AB77A966A711A500AFE
:1028C000333A122AFDDBDCCBBFFB9EEB799B588BA6
:1028D0003BBB1AABA66C877CE44CC55C222C033C4A
:1028E000600C411CAEED8FFDECCDCDDD2AAD0BBDF6
:1028F000688D499D977EB66ED55EF44E133E322E9E
:10290000511E700E9FFFBEEFDDDFFCCF1BBF3AAF45
:10291000599F788F8891A981CAB1EBA10CD12DC1A3
:102920004EF16FE18010A100C230E3200450254039
:1029300046706760B9839893FBA3DAB33DC31CD399
:102940007FE35EF3B1029012F322D2323542145289
:1029500077625672EAB5CBA5A89589856EF54FE5E5
:102960002CD50DC5E234C324A014810466744764D9
:1029700024540544DBA7FAB79987B8975FE77EF739
:102980001DC73CD7D326F2369106B0165766767629
:10299000154634564CD96DC90EF92FE9C899E98905
:1029A0008AB9ABA94458654806782768C018E10879
:1029B0008238A3287DCB5CDB3FEB1EFBF98BD89BD9
:1029C000BBAB9ABB754A545A376A167AF10AD01AC9
:1029D000B32A923A2EFD0FED6CDD4DCDAABD8BAD25
:1029E000E89DC98D267C076C645C454CA23C832C19
:1029F000E01CC10C1FEF3EFF5DCF7CDF9BAFBABF79
:102A0000D98FF89F176E367E554E745E932EB23E68
:102A1000D10EF01E7C3C3E5E2B3D3F2F5B5D3B2C80
:102A20002A225C0020746F6F206C6F6E67206578BF
:102A300074727573696F6E2070726576656E7465F9
:102A4000640020636F6C6420657874727573696FBD
:102A50006E2070726576656E746564006563686F7C
:102A60003A00205A3A0020593A0020583A00656E40
:102A70006473746F7073206869743A200024F4D40E
:102A80003050C38E20C2A24017828B7011127A91EF
:102A90000D816CD90AA861E108C7586607615143E6
:102AA000061E4B5D05C145A7041A411104093D9856
:102AB00003713931034036DB0265339102D430545F
:102AC00002802E1D02632CEE01752AC501B028A0DC
:102AD00001102781018F2564012B244B01E0223452
:102AE00001AC211F018D200D01801FFC00841EED13
:102AF00000971DDF00B81CD200E61BC600201BBCDF
:102B000000641AB200B219A8000A19A0006A189944
:102B100000D117910040178B00B516840031167E46
:102B200000B31579003A157300C7146F0058146A82
:102B300000EE1366008813630025135E00C7125B66
:102B4000006C12570015125400C111510070114F42
:102B50000021114B00D61049008D1047004610444B
:102B60000002104200C00F4000800F3E00420F3CA8
:102B700000060F3B00CB0E3800930E37005C0E357D
:102B800000270E3400F30D3200C10D3100900D30DE
:102B900000600D2E00320D2D00050D2C00D90C2BE0
:102BA00000AE0C2900850C29005C0C2700350C2791
:102BB000000E0C2600E80B2400C40B2400A00B23FD
:102BC000007D0B23005A0B2100390B2100180B202C
:102BD00000F80A1F00D90A1E00BB0A1E009D0A1D2C
:102BE00000800A1D00630A1C00470A1B002C0A1BF8
:102BF00000110A1A00F7091A00DD091900C40919A1
:102C000000AB091900920917007B09180063091726
:102C1000004C09160036091600200916000A09158D
:102C200000F5081500E0081400CC081400B80814DA
:102C300000A4081400900813007D0812006B08130C
:102C40000058081200460812003408110023081129
:102C5000001208110001081100F0071000E0071031
:102C600000D0071000C0071000B0070F00A1071028
:102C70000091070E0083070F0074070F0065070E11
:102C80000057070E0049070E003B070D002E070EE8
:102C90000020070D0013070D0006070D00F9060CB4
:102CA00000ED060D00E0060C00D4060C00C8060C72
:102CB00000BC060C00B0060C00A4060B0099060C24
:102CC000008D060B0082060B0077060B006C060BCE
:102CD0000061060A0057060B004C060A0042060A6D
:102CE0000038060A002E060A0024060A001A060A00
:102CF000001006090007060A00FD050900F4050991
:102D000000EB050900E2050900D9050900D0050915
:102D100000C7050900BE050900B5050800AD050896
:102D200000A50509009C050800940508008C05080D
:102D300000840508007C050800740508006C050780
:102D400000650508005D050700560508004E0507EB
:102D50000047050700400508003805070031050752
:102D6000002A050700230507001C050600160507B5
:102D7000000F0507000805060002050700FB040612
:102D800000F5040700EE040600E8040600E204076C
:102D900000DB040600D5040600CF040600C90406C3
:102DA00000C3040600BD040600B7040600B1040514
:102DB00000AC040600A6040600A00405009B04065F
:102DC0000095040500900406008A040500850405AA
:102DD00000800406007A04050075040500700405EF
:102DE000006B04050066040500610405005C040531
:102DF0000057040500520405004D04050048040571
:102E000000430405003E0404003A040500350405AF
:102E100000300404002C04050027040400230405EA
:102E2000001E0404001A0404001604050011040422
:102E3000000D040400090405000404040000040457
:102E400000FC030400F8030400F4030400F003048E
:102E500000EC030400E8030400E4030400E00304BE
:102E600000DC030400D8030400D4030400D00304EE
:102E700000CC030400C8030300C503030024F404CA
:102E8000D9201BC40C5C0E9804C4095F026507714D
:102E900001F405F900FB04B30048048700C103698D
:102EA000005803550003034500BE023A0084023176
:102EB0000053022A002902250004022000E4011C1C
:102EC00000C8011900AF0117009801140084011314
:102ED00000710110006101100051010E0043010D4D
:102EE0000036010B002B010B0020010B001501091E
:102EF000000C01090003010800FB000800F30008B2
:102F000000EB000700E4000600DE000600D8000623
:102F100000D2000600CC000500C7000500C2000575
:102F200000BD000400B9000400B5000400B10004B5
:102F300000AD000400A9000400A5000300A20003E6
:102F4000009F0004009B000300980003009500020E
:102F50000093000300900003008D0002008B00032B
:102F60000088000200860002008400030081000245
:102F7000007F0002007D0002007B00020079000259
:102F80000077000100760002007400020072000168
:102F900000710002006F0002006D0001006C000271
:102FA000006A00010069000200670001006600017C
:102FB0000065000100640002006200010061000180
:102FC00000600001005F0002005D0001005C000184
:102FD000005B0001005A0001005900010058000187
:102FE0000057000100560001005500010054000187
:102FF0000053000000530001005200010051000185
:1030000000500001004F0001004E0000004E000182
:10301000004D0001004C0001004B0000004B00017E
:10302000004A00010049000100480000004800017A
:103030000047000100460000004600010045000076
:10304000004500010044000100430000004300016E
:103050000042000000420001004100000041000168
:1030600000400001003F0000003F0001003E000062
:10307000003E0001003D0000003D0001003C00005A
:10308000003C0000003C0001003B0000003B000150
:10309000003A0000003A0001003900000039000148
:1030A0000038000000380000003800010037000040
:1030B0000037000100360000003600000036000135
:1030C000003500000035000000350001003400002C
:1030D0000034000000340001003300000033000021
:1030E0000033000100320000003200000032000115
:1030F000003100000031000000310001003000000C
:103100000030000000300001002F0000002F000000
:10311000002F0000002F0001002E0000002E0000F4
:10312000002E0001002D0000002D0000002D0000E9
:10313000002D0001002C0000002C0000002C0000DD
:10314000002C0001002B0000002B0000002B0000D1
:10315000002B0001002A0000002A0000002A0000C5
:10316000002A0001002900000029000000290000B9
:1031700000290000002900010028000000280000AC
:10318000002800000028000000280001002700009F
:103190000027000000270000002700000027000192
:1031A0000026000000260000002600000026000087
:1031B0000026000100250000002500000025000079
:1031C000002500000025000000250001002400006B
:1031D000002400000024000000240000002400015E
:1031E0000023000000230000002300000023000053
:1031F0000023000000230000002300010022000043
:103200000022000000220000002200000022000036
:103210000022000100210000002100000021000028
:103220000021000000210000002100000021000119
:10323000002000000020000000200000002000000E
:1032400000200000002000000020000000200001FD
:10325000001F0000001F0000001F0000001F0000F2
:10326000001F0000001F0000001F0001001E0000E2
:10327000001E0000001E0000001E000000656368C4
:103280006F3A003A204578747275646572207377DE
:10329000697463686564206F66662E204D494E54DC
:1032A000454D50207472696767657265642021001E
:1032B0003A20457874727564657220737769746317
:1032C000686564206F66662E204D415854454D5008
:1032D0002074726967676572656420210054656DAA
:1032E00070657261747572652068656174656420CB
:1032F000626564207377697463686564206F6666CD
:103300002E204D415854454D5020747269676765B1
:1033100072656420212100202D20496E76616C6940
:1033200064206578747275646572206E756D62656F
:1033300072202100504944204175746F74756E6588
:103340002066696E69736865642120507574207405
:103350006865204B702C204B6920616E64204B64A3
:1033600020636F6E7374616E747320696E746F2066
:10337000436F6E66696775726174696F6E2E68005F
:10338000504944204175746F74756E65206661699B
:103390006C6564212074696D656F75740020403A16
:1033A000006F6B20543A006F6B20423A0050494442
:1033B000204175746F74756E65206661696C656413
:1033C000212054656D706572617475726520746F2B
:1033D0006F206869676800204B643A2000204B69C1
:1033E0003A2000204B703A200020436C61736963DF
:1033F0002050494420002054753A2000204B753A53
:103400002000206D61783A2000206D696E3A20001E
:1034100020643A200020626961733A2000504944D8
:10342000204175746F74756E6520737461727400D9
:10343000504944204175746F74756E6520666169EA
:103440006C65642E204261642065787472756465D1
:1034500072206E756D6265722E004572726F723ADF
:10346000000000000018070100A807140030082819
:1034700000B8083C0038095000C0096400480A78C8
:1034800000C80A8C00480BA000C80BB400480CC848
:1034900000C80CDC00400DF000C00D0401380E180F
:1034A00001B00E2C01280F4001A00F540118106824
:1034B0000188107C01001190013013F40148155867
:1034C000024017BC0228192003F01A8403A81CE844
:1034D00003401E4C044D383420582059205A2045B2
:1034E0000043616E6E6F7420656E74657220737533
:1034F000626469723A20004D3234004D3233202527
:1035000073006175746F25692E67006572726F7242
:103510002077726974696E6720746F2066696C65C4
:103520000043617264206572726F723A004E6F746C
:10353000205344207072696E74696E67002F0053C7
:1035400044207072696E74696E67206279746520B8
:10355000002E0044656C6574696F6E206661696C4D
:1035600065642C2046696C653A200046696C6520CC
:1035700064656C657465643A002E006F70656E203A
:103580006661696C65642C2046696C653A20005759
:10359000726974696E6720746F2066696C653A2081
:1035A000002E006F70656E206661696C65642C206A
:1035B00046696C653A20002E006F70656E2066616A
:1035C000696C65642C2046696C653A200046696C1C
:1035D000652073656C6563746564002053697A6562
:1035E0003A200046696C65206F70656E65643A200C
:1035F000002E006F70656E206661696C65642C201A
:1036000046696C653A200053442063617264206F00
:103610006B006F70656E526F6F74206661696C65C8
:103620006400766F6C756D652E696E6974206661D5
:10363000696C656400534420696E69742066616931
:103640006C0043616E6E6F74206F70656E207375D1
:1036500062646972006563686F3A004572726F72E6
:103660003A0048617264636F646564204465666112
:10367000756C742053657474696E6773204C6F6148
:1036800064656400563031300053746F7265642095
:1036900073657474696E6773207265747269657698
:1036A0006564002044002049002020204D33303143
:1036B0002050005049442073657474696E67733AF2
:1036C00000205A0020590020204D3230362058006A
:1036D000486F6D65206F666673657420286D6D296F
:1036E0003A00204500205A00205800204200205473
:1036F0000020204D323035205300416476616E63E6
:103700006564207661726961626C65733A20533D2D
:103710004D696E20666565647261746520286D6D03
:103720002F73292C20543D4D696E2074726176658B
:103730006C20666565647261746520286D6D2F73F9
:10374000292C20423D6D696E696D756D207365672A
:103750006D656E742074696D6520286D73292C2049
:10376000583D6D6178696D756D205859206A657294
:103770006B20286D6D2F73292C20205A3D6D6178A8
:10378000696D756D205A206A65726B20286D6D2FEA
:1037900073292C2020453D6D6178696D756D20453C
:1037A000206A65726B20286D6D2F732900205400EC
:1037B00020204D323034205300416363656C6572C4
:1037C0006174696F6E3A20533D616363656C657225
:1037D0006174696F6E2C20543D72657472616374FC
:1037E00020616363656C65726174696F6E0020456A
:1037F00000205A0020590020204D3230312058003E
:103800004D6178696D756D20416363656C657261AA
:1038100074696F6E20286D6D2F7332293A00204530
:1038200000205A0020590020204D3230332058000B
:103830004D6178696D756D2066656564726174654A
:103840007320286D6D2F73293A00204500205A00FF
:1038500020590020204D3932205800537465707370
:103860002070657220756E69743A005365747469CE
:103870006E67732053746F726564006563686F3A96
:1038800000544553540D0A000D0A00556E6B6E6FBF
:10389000776E20636F6D6D616E643A20000D0A00D3
:1038A0003F00566572733A5F31352E30352E303217
:1038B0002E4D6F6562797573657800024E414E49F1
:1038C0004E495459494E46CDCCCC3D0AD7233C17DE
:1038D000B7D13877CC2B329595E6241FB14F0A002B
:1038E0000020410000C84200401C4620BCBE4CCA1B
:1038F0001B0E5AAEC59D7400399B4A9B11241FBEF6
:10390000CFEFD1E2DEBFCDBF00E00CBF13E0A0E0FF
:10391000B2E0E2EAFEEE01E00BBF02C007900D92BA
:10392000AA32B107D9F729E1AAE2B3E001C01D929A
:10393000AA3DB207E1F71CE1CDE7DCE100E006C0FB
:1039400021970109802FFE010E94F1EFCC37D107AA
:1039500080E00807A9F70E9495EA0C943FF70C94C1
:1039600000001F920F920FB60F9211242F933F93D6
:103970008F939F93AF93BF9380912B0390912C03D0
:10398000A0912D03B0912E0330912A0323E0230F41
:103990002D3720F40196A11DB11D05C026E8230F87
:1039A0000296A11DB11D20932A0380932B039093AF
:1039B0002C03A0932D03B0932E0380912F0390919D
:1039C0003003A0913103B09132030196A11DB11DC6
:1039D00080932F0390933003A0933103B09332036D
:1039E000BF91AF919F918F913F912F910F900FBEFB
:1039F0000F901F9018952FB7F89460912B0370913A
:103A00002C0380912D0390912E032FBF08953FB773
:103A1000F89480912F0390913003A0913103B091DD
:103A2000320326B5A89B05C02F3F19F00196A11DB2
:103A3000B11D3FBFBA2FA92F982F8827820F911D44
:103A4000A11DB11DBC01CD0142E0660F771F881F8B
:103A5000991F4A95D1F70895CF92DF92EF92FF9286
:103A6000CF93DF936B017C010E94071DEB01C11412
:103A7000D104E104F10479F00E94071D6C1B7D0B59
:103A8000683E7340A0F381E0C81AD108E108F1084C
:103A9000C851DC4FECCFDF91CF91FF90EF90DF90DA
:103AA000CF900895019739F0880F991F880F991FBB
:103AB00002970197F1F70895789484B5826084BDE8
:103AC00084B5816084BD85B5826085BD85B5816022
:103AD00085BDEEE6F0E0808181608083E1E8F0E082
:103AE0001082808182608083808181608083E0E8B1
:103AF000F0E0808181608083E1EBF0E08081846090
:103B00008083E0EBF0E0808181608083E1E9F0E098
:103B1000808182608083808181608083E0E9F0E041
:103B2000808181608083E1EAF0E08081826080832F
:103B3000808181608083E0EAF0E080818160808321
:103B4000E1E2F1E080818260808380818160808316
:103B5000E0E2F1E0808181608083EAE7F0E080814B
:103B600084608083808182608083808181608083A3
:103B70008081806880831092C10008951F93CF9345
:103B8000DF93182FEB0161E00E94CF1E209711F404
:103B900060E004C0CF3FD10539F461E0812FDF91AF
:103BA000CF911F910C940B1FE12FF0E0E059FA4FD9
:103BB000E4914E2F50E0FA013197E131F10508F020
:103BC00093C08827EE58FF4F8F4F0C94F1EF84B5C8
:103BD000806884BDC7BD8DC084B5806284BDC8BD0A
:103BE00088C080918000806880938000D093890095
:103BF000C09388007EC080918000806280938000A6
:103C0000D0938B00C0938A0074C08091B00080680C
:103C10008093B000C093B3006CC08091B00080620C
:103C20008093B000C093B40064C08091900080681D
:103C300080939000D0939900C09398005AC08091CF
:103C40009000806280939000D0939B00C0939A0074
:103C500050C080919000886080939000D0939D0028
:103C6000C0939C0046C08091A00080688093A00013
:103C70008091A0008F7B8093A000D093A900C09377
:103C8000A80037C08091A00080628093A000D093EC
:103C9000AB00C093AA002DC08091A00088608093E3
:103CA000A000D093AD00C093AC0023C08091200150
:103CB000806880932001D0932901C093280119C006
:103CC00080912001806280932001D0932B01C093CA
:103CD0002A010FC080912001886080932001D09339
:103CE0002D01C0932C0105C0C038D1050CF055CF73
:103CF0004FCFDF91CF911F91089590E0FC01319754
:103D0000E131F10508F04AC08827ED57FF4F8F4F8A
:103D10000C94F1EF809180008F7703C08091800038
:103D20008F7D80938000089584B58F7702C084B51D
:103D30008F7D84BD08958091B0008F7703C08091FE
:103D4000B0008F7D8093B0000895809190008F77B0
:103D500007C0809190008F7D03C080919000877F85
:103D60008093900008958091A0008F7707C0809184
:103D7000A0008F7D03C08091A000877F8093A0006A
:103D80000895809120018F7707C0809120018F7D59
:103D900003C080912001877F809320010895CF93F5
:103DA000DF9390E0FC01EA54FA4F2491FC01E450C7
:103DB000FA4F8491882361F190E0880F991FFC01EC
:103DC000E45AF94FC591D491FC01EE5BF94FA591EE
:103DD000B491611109C09FB7F8948881209582231E
:103DE0008883EC912E230BC0623061F49FB7F89466
:103DF0003881822F809583238883EC912E2B2C93FE
:103E00009FBF06C08FB7F894E8812E2B28838FBF01
:103E1000DF91CF9108951F93CF93DF93282F30E048
:103E2000F901E059FA4F8491F901EA54FA4FD4911B
:103E3000F901E450FA4FC491CC23C9F0162F811137
:103E40000E947D1EEC2FF0E0EE0FFF1FEE5BF94F9E
:103E5000A591B4918FB7F894111105C09C91ED2FE5
:103E6000E095E92302C0EC91ED2BEC938FBFDF913D
:103E7000CF911F9108951F920F920FB60F921124A8
:103E80000BB60F922F933F934F935F936F937F9354
:103E90008F939F93AF93BF93EF93FF9380913703DB
:103EA00090913803892B29F0E0913703F091380382
:103EB0001995FF91EF91BF91AF919F918F917F9154
:103EC0006F915F914F913F912F910F900BBE0F908B
:103ED0000FBE0F901F9018951F920F920FB60F9262
:103EE00011240BB60F922F933F934F935F936F93D1
:103EF0007F938F939F93AF93BF93EF93FF938091A3
:103F0000390390913A03892B29F0E0913903F0911C
:103F10003A031995FF91EF91BF91AF919F918F91C6
:103F20007F916F915F914F913F912F910F900BBEB9
:103F30000F900FBE0F901F9018951F920F920FB603
:103F40000F9211240BB60F922F933F934F935F93D1
:103F50006F937F938F939F93AF93BF93EF93FF9351
:103F600080913B0390913C03892B29F0E0913B0326
:103F7000F0913C031995FF91EF91BF91AF919F9103
:103F80008F917F916F915F914F913F912F910F9002
:103F90000BBE0F900FBE0F901F9018951F920F929F
:103FA0000FB60F9211240BB60F922F933F934F939E
:103FB0005F936F937F938F939F93AF93BF93EF9391
:103FC000FF9380913D0390913E03892B29F0E0916E
:103FD0003D03F0913E031995FF91EF91BF91AF9191
:103FE0009F918F917F916F915F914F913F912F9111
:103FF0000F900BBE0F900FBE0F901F9018951F9241
:104000000F920FB60F9211240BB60F922F933F937E
:104010004F935F936F937F938F939F93AF93BF93D0
:10402000EF93FF938091330390913403892B29F010
:10403000E0913303F09134031995FF91EF91BF9113
:10404000AF919F918F917F916F915F914F913F9130
:104050002F910F900BBE0F900FBE0F901F901895D1
:104060001F920F920FB60F9211240BB60F922F933F
:104070003F934F935F936F937F938F939F93AF93F0
:10408000BF93EF93FF938091350390913603892B73
:1040900029F0E0913503F09136031995FF91EF91E6
:1040A000BF91AF919F918F917F916F915F914F9150
:1040B0003F912F910F900BBE0F900FBE0F901F904E
:1040C00018951F920F920FB60F9211240BB60F92F4
:1040D0002F933F934F935F936F937F938F939F9310
:1040E000AF93BF93EF93FF9380913F039091400371
:1040F000892B29F0E0913F03F09140031995FF913E
:10410000EF91BF91AF919F918F917F916F915F914F
:104110004F913F912F910F900BBE0F900FBE0F90BC
:104120001F9018951F920F920FB60F9211240BB685
:104130000F922F933F934F935F936F937F938F9340
:104140009F93AF93BF93EF93FF938091410390911F
:104150004203892B29F0E0914103F0914203199524
:10416000FF91EF91BF91AF919F918F917F916F914F
:104170005F914F913F912F910F900BBE0F900FBE0B
:104180000F901F901895FF920F931F93CF93DF937B
:1041900088EA9FEF909367038093660340915A03E8
:1041A00088E0840F405E682F0E94C12A0E949330ED
:1041B00080915A038435D8F546E058E066E180E006
:1041C0000E949E31D7E1C6E100E010E0F02E409160
:1041D0005A03842F90E0880F991F98012D5E3F4F5E
:1041E0002817390744F4440F4451401B2D2F6C2FDE
:1041F00080E00E949E3080915A03282F30E0220FE9
:10420000331F2017310734F0880F2D2F4FE76C2F05
:104210008F1904C02D2F4FE76C2F80E00E949E3035
:104220000F5F1F4FCE5FDE5FCA3281F609C081503B
:1042300080935A0346E058E066E180E00E949E3198
:104240000E94842A80914303811113C020915A0354
:1042500030E0220F331F40910C02429FC001439F68
:10426000900D112464E670E00E949CEF88E00E94AB
:10427000BE1D80915903811104C08091650388237C
:10428000E9F18091430381110DC080910C022FEF61
:10429000829FC001112464E670E00E949CEF88E0D8
:1042A0000E94BE1D1092590310925A034CE360E322
:1042B00080E30E94C12A8091650381110E94093226
:1042C00080E094E00E9406F7853579F420E030E044
:1042D000A9016091EC0E7091ED0E8091EE0E90911F
:1042E000EF0E0E9498EB811103C08AEC9EE302C09E
:1042F00084E891E29093620380936103DF91CF9110
:104300001F910F91FF90089545E856E06CE776E025
:1043100086E796E00E94B52580916503882349F1E0
:1043200080916603909167039C01295F3F4F2F3076
:10433000310558F40E94BC6B86E09FE00E9439DA98
:1043400062E070E08AEC9BE612C09C0128503109C3
:104350002830310528F468EA7FEF81E095E507C051
:104360004097089730F468EA7FEF87E39FE30E9465
:104370008525809164038823A1F080916603909144
:104380006703883A9F4F69F41092590380915A034A
:10439000893C58F068EA7FEF87ED91E20E9485251D
:1043A00004C01092590310925A030C94842A9F92CD
:1043B000AF92BF92CF92DF92EF92FF920F931F9333
:1043C000CF93DF938091660390916703883A9F4F64
:1043D00059F58AE190E0909367038093660326E99C
:1043E00037E043E053E080E090E0F901E80FF91F87
:1043F0005083019685309105C1F741502B5F3F4FA7
:104400004111F1CF1092A6071092A50780E099E321
:104410009093A8078093A7071092AA071092A90764
:104420001092AC071092AB078091660390916703DE
:1044300097FF04C010926703109266038091660391
:1044400090916703880F991F8B36910534F085E3AF
:1044500090E090936703809366038091A907909101
:10446000AA074091A5075091A607480F591F5093DE
:10447000A6074093A5076091AB077091AC07209108
:10448000A7073091A807260F371F3093A80720935E
:10449000A7074F3F510509F01CF497FF0DC009C055
:1044A0004130ECE75E0764F097FF03C0919581957A
:1044B00091099195819591099093AA078093A907F5
:1044C0002F3F310509F05CF4CB0177FF03C09195D4
:1044D000819591099093AC078093AB0705C0211596
:1044E000FEE13F070CF051C0952F990F990B852FD6
:1044F00069E170E00E949CEF262F932F990F990B92
:10450000832F6AE070E00E949CEF85E0689FF001D5
:104510001124E20FF11DEA56F84F80818823A9F19A
:10452000815080838091AB079091AC0797FF03C0C7
:104530009195819591099093AC078093AB0746E9DB
:1045400057E0BA0123E080E090E0FB01E80FF91F9B
:10455000308131111AC0019685309105B1F7215093
:104560006B5F7F4F2111EFCF23E033E080E090E0DD
:10457000FA01E80FF91F3083019685309105C1F7E4
:1045800021504B5F5F4F2111F1CF8091A707909190
:10459000A80781309A430CF448C02091A5073091B8
:1045A000A60780916603909167030197880F991F72
:1045B000582F44272417350734F04796982F88271B
:1045C0008217930734F468EA7FEF84E891E20E944F
:1045D000852520916603309167038BEF9FEF821B47
:1045E000930B982F8827990F2091A5073091A60744
:1045F000820F931F97FDCF9656E0959587955A9514
:10460000E1F72091A9073091AA07820F931F909399
:10461000AA078093A90797FF03C0919581959109F7
:1046200092509093AC078093AB078091AB07909129
:10463000AC07892B59F580E099E39093A807809304
:10464000A70780916603909167039C012B5F3F4F02
:10465000220F331F1092A5072093A6072091650310
:104660002223A1F0809733E0880F991F3A95E1F754
:104670009093AA078093A90797FF03C0919581950E
:10468000910992509093AC078093AB070E949330AE
:1046900026E9E22E27E0F22ED3E087E0982E9D0E49
:1046A000CC24CA94CD0E96E0D92EDD0E8701C4E04D
:1046B0005801F8018081882341F0292D43E14C0FF6
:1046C0006C2D8FEF8C0F0E94F02FF80180818230CB
:1046D00039F42D2D42E14C0F6D2F8C2F0E94243088
:1046E0000F5F1F4FF5018081833039F42D2D42E19A
:1046F0004C0F6D2F8C2F0E942031C75EC138C1F640
:10470000D65FF5E0EF0EF11CD13239F66091A807C3
:104710008091A60722E0260F42E0480F0E94F02F6A
:1047200080916603880F45E1480F2FE36CE30E94F8
:10473000F02FDF91CF911F910F91FF90EF90DF90BD
:10474000CF90BF90AF909F900C94842A0E948032AB
:104750000E94FE5A81110AC00E94EB5560E080E081
:104760000E94E45961E080E00E94E4590E9496575B
:1047700083EC90E2909362038093610360E070E0C9
:1047800088E00E94BE1D0E94FB1CDC01CB01885802
:104790009341A109B1098093450390934603A093E7
:1047A0004703B09348030895CF92DF92EF92FF92B0
:1047B0000E94BC2A882309F494C10E945F3282B30C
:1047C00082FB992790F981E0892790910A0F981729
:1047D00059F09091AE10992321F091509093AE1022
:1047E00006C080930A0F03C088E28093AE109091B8
:1047F000590380915A03992341F0825080935A03C0
:1048000081110BC01092590308C08E5F80935A0328
:104810008E3719F481E0809359030E94807F8823AA
:1048200009F491C00E94933066EF77E08AE00E941D
:104830008C2E0E94877F90E0FC013197EA30F105D1
:1048400008F079C08827EC56FF4F8F4F0C94F1EF9A
:104850006AEE77E084E10E948C2E43EE57E068E236
:1048600081E00E94B82C40ED57E061C060EC77E039
:1048700084E10E948C2E49EB57E068E281E00E94BF
:10488000B82C46EA57E053C069E977E084E10E941A
:104890008C2E42E957E068E281E00E94B82C4FE795
:1048A00057E045C060E777E084E10E948C2E49E63E
:1048B00057E068E281E00E94B82C46E557E037C037
:1048C00066E477E084E10E948C2E4FE357E068E2D3
:1048D00081E00E94B82C4CE257E029C06DE177E0FE
:1048E00084E10E948C2E46E157E068E281E00E945C
:1048F000B82C43E057E01BC06EEE76E084E10E94E6
:104900008C2E47EE56E068E281E00E94B82C44ED20
:1049100056E00DC060EC76E084E10E948C2E49EBFD
:1049200056E068E281E00E94B82C46EA56E062E375
:1049300081E00E94B82C80915A0360E8681B482FE0
:104940000E94C12A32C00E94FB1CC0904503D09037
:104950004603E0904703F0904803DC01CB018C193B
:104960009D09AE09BF0988389341A105B10518F525
:104970008091440381110AC00E94933061E976E07E
:1049800084E10E948C2E81E0809344038091DA0BB5
:104990008350833050F40E94FB1C60934503709356
:1049A00046038093470390934803FF90EF90DF9076
:1049B000CF900C94842A109244032DEC3CEC4CE4F0
:1049C0005DE36091BB197091BC198091BD19909104
:1049D000BE190E94A1EE6B017C0123E333E343E7A0
:1049E0005FE360910402709105028091060290914C
:1049F00007020E94A1EE9B01AC01C701B6010E9413
:104A0000A3EA6093040270930502809306029093D8
:104A100007022DEC3CEC4CE45DE36091BF19709112
:104A2000C0198091C1199091C2190E94A1EE6B0129
:104A30007C0123E333E343E75FE360910802709175
:104A4000090280910A0290910B020E94A1EE9B0143
:104A5000AC01C701B6010E94A3EA609308027093FB
:104A6000090280930A0290930B022DEC3CEC4CE47B
:104A70005DE36091B5197091B6198091B719909165
:104A8000B8190E94A1EE6B017C0123E333E343E7F5
:104A90005FE36091000270910102809102029091A7
:104AA00003020E94A1EE9B01AC01C701B6010E9466
:104AB000A3EA609300027093010280930202909334
:104AC0000302E0916103F09162031995E0915D03A7
:104AD000F0915E03309729F0FF90EF90DF90CF9038
:104AE0001994FF90EF90DF90CF900895E9ECF9E1F1
:104AF00011821082138212821092C8191092C71963
:104B00001092C60E08950C942C320F931F93CF93DE
:104B1000DF938C01EB01109258031092590310920D
:104B20005A034CE360E380E30E94C12A0E940932E9
:104B300080916103909162039093600380935F037F
:104B4000809166039091670390935C0380935B036D
:104B50001093620300936103D0936703C0936603CD
:104B6000DF91CF911F910F910895EF92FF920F93D4
:104B70001F93CF93DF937C018B01EA0120916603A1
:104B800030916703283A8FEF3807A9F037FF06C046
:104B9000285E3F4F3093670320936603209166039E
:104BA000309167032831310534F0285131093093B1
:104BB0006703209366030E9493304DE265E080E432
:104BC0000E949F2F40E36CE783E00E94822F809138
:104BD00066039091670307960F9790F42BE24BE3DF
:104BE00067E085E00E94F02F2AE24AE368E086E071
:104BF0000E942031A70166E181E20E941B2F05C0BF
:104C0000A70166E181E20E94B42E80916603909133
:104C100067030897089790F42BE24BE767E085E479
:104C20000E94F02F2AE24AE768E086E40E942031E1
:104C3000A80166E181E60E941B2F05C0A80166E17C
:104C400081E60E94B42E209739F1809166039091FD
:104C5000670340970897B0F42DE34BE763E385E0E3
:104C60000E94F02F2CE34AE764E386E00E942031A3
:104C7000BE0185E3DF91CF911F910F91FF90EF90DF
:104C80000C94A02EBE0185E3DF91CF911F910F916F
:104C9000FF90EF900C948C2EDF91CF911F910F918C
:104CA000FF90EF9008950E94933040E36CE783E01B
:104CB0000C94822F0F931F93CF93DF931F921F9219
:104CC000CDB7DEB78A012091660330916703283A99
:104CD0004FEF3407A9F037FF06C0205F3F4F3093F6
:104CE00067032093660320916603309167032031A8
:104CF000310534F020513109309367032093660366
:104D0000209165032223C1F020916603309167034F
:104D1000295F3F4F2F30310578F46115710531F06F
:104D200089839A83FB0119959A818981009721F0E3
:104D300068EA7FEF0E9485250E9453260115110520
:104D400011F40FE819E080916603909167030796CC
:104D50000F97F8F42DE34BE763E385E00E94F02F13
:104D60002CE34AE764E386E00E942031C8010E94F8
:104D70004CF3982F990F890FA80165E391E4981BD4
:104D8000892F0F900F90DF91CF911F910F910C946D
:104D90009B2DC8010E944CF3982F990F890FA801F1
:104DA00065E391E4981B892F0F900F90DF91CF91CD
:104DB0001F910F910C94B82CAF92BF92CF92DF92BB
:104DC000EF92FF920F931F93CF93DF936C01EA0151
:104DD0005901A0916603B0916703A83A8FEFB80715
:104DE00099F0B7FF05C05096B0936703A093660390
:104DF0008091660390916703803191052CF0409774
:104E0000909367038093660380916503882331F153
:104E100080916603909167039C01295F3F4F2F307B
:104E2000310560F46115710511F0FB011995C1148C
:104E3000D104A1F068EA7FEFC6010EC00897089779
:104E400068F40115110511F0F8011995A114B104C8
:104E500029F068EA7FEFC5010E9485250E9453264C
:104E6000809166039091670307960F97D0F42DE326
:104E70004EE363E385E00E94F02F2CE34DE364E30F
:104E800086E00E942031CE010E944CF3982F990FAA
:104E9000890FAE0165E393E2981B892F0E949B2D39
:104EA0000CC0CE010E944CF3982F880F980FAE01D2
:104EB00065E383E2891B0E94B82C80916603909180
:104EC00067030897089718F52DE34AE763E382E440
:104ED0000E94F02F2CE349E764E383E40E94203131
:104EE000C7010E944CF3982F990F890FA70165E322
:104EF0009FE5981B892FDF91CF911F910F91FF9014
:104F0000EF90DF90CF90BF90AF900C949B2DC70196
:104F10000E944CF3982F880F980FA70165E38FE547
:104F2000891BDF91CF911F910F91FF90EF90DF9040
:104F3000CF90BF90AF900C94B82CEF92FF921F933C
:104F4000CF93DF93C82F2EE24CE766E283E00E9406
:104F5000F02FD0E0219714E08CE0E82EF12CCF3F29
:104F60008FEFD807C1F01D37B1F0CE01B7010E9415
:104F70009CEFAC01453051051CF4485D68E205C06A
:104F80008A3030F463E2640F4CE2812F0E949F2F3D
:104F90001F5F2197E4CFDF91CF911F91FF90EF909A
:104FA00008954F925F926F927F928F929F92AF92ED
:104FB000BF92CF92DF92EF92FF920F931F93CF9306
:104FC000DF93709165037111D8C0E0916603F09191
:104FD0006703E83AFF4F21F41092670310926603CB
:104FE000A0916603B0916703862E062E000C9908E7
:104FF000B7FF0BC0F401EE0FFF1FEE0FFF1FEA0F0C
:10500000FB1FF0936703E0936603E0916603F09162
:105010006703D401AA0FBB1FAA0FBB1FEA17FB0728
:105020004CF074E06702E019F1091124F093670372
:10503000E0936603009166031091670317FF02C0B7
:105040000D5F1F4F79015A016C0115950795159554
:105050000795702E0E949330A0914903B0914A03A6
:10506000C801992763E0880F991F6A95E1F70F97A8
:105070008A1B9B0BEC0197FD2396D595C795D5957B
:10508000C795AC0FBD1F1816190614F4119608C069
:10509000892B29F4B0934A03A093490309C01197BF
:1050A000B0934A03A09349031092590310925A03F4
:1050B0008091490390914A03282F277033E09695F9
:1050C00087953A95E1F79AE3692E621ADAE0D21BE6
:1050D000C82F8C2F90E088159905DCF48C2FF501F2
:1050E00019952C01FC01148AC7110EC027E02D0F61
:1050F0004CE76FEF6D0F83E00E942031A2016D2F0E
:1051000084E00E94AA2B05C0AC016D2F84E00E94B0
:10511000C82ACF5FD85FD611DCCF28E04CE760E02B
:1051200083E00E9420312FE34CE76FE283E00E948E
:105130009E3029E04CE769E083E00E949E3040E326
:105140006CE783E00E94822FB60181E00E94A02ECE
:10515000802FF7011995DF91CF911F910F91FF904B
:10516000EF90DF90CF90BF90AF909F908F907F9007
:105170006F905F904F900C94842ADF91CF911F9194
:105180000F91FF90EF90DF90CF90BF90AF909F90E6
:105190008F907F906F905F904F9008950F931F9323
:1051A000CF93DF93CDB7DEB766970FB6F894DEBF27
:1051B0000FBECDBF80914F039091500320916603A5
:1051C000309167032817390724F49093670380937D
:1051D000660380914D0390914E03209166033091B8
:1051E00067038217930724F4909367038093660301
:1051F00080915103813041F4E0915203F0915303C7
:105200008091660380838EC0823059F4E09152030E
:10521000F09153038091660390916703918380839B
:1052200081C08330A9F4009152031091530360911F
:10523000660370916703072E000C880B990B0E9480
:105240004CEC20E030E048EC52E40E94A2EB65C058
:10525000843089F4E0915203F09153038091660306
:1052600090916703092E000CAA0BBB0B80839183DE
:10527000A283B38357C08530A1F4E0915203F0912B
:10528000530320916603309167034FEF429FC001A3
:10529000439F900D112464E670E00E949CEF6083B0
:1052A00041C0863099F400915203109153036091EC
:1052B000660370916703072E000C880B990B0E9400
:1052C0004CEC20E030E040E752E414C08730A9F411
:1052D000009152031091530360916603709167032C
:1052E000072E000C880B990B0E944CEC20E030E05C
:1052F00048EC52E40E94A1EE10C0883099F400916D
:105300005203109153036091660370916703072E57
:10531000000C880B990B0E944CECF80160837183A0
:10532000828393830E9453266091560370915703A2
:1053300084E10E948C2E209151038091660390910C
:1053400067030091540310915503233099F4BC0175
:10535000990F880B990B0E944CEC20E030E048EC50
:1053600052E40E94A2EB9801AE014F5F5F4F0E9492
:105370005F3406C0A801BE016F5F7F4F0E944533B6
:10538000BE016F5F7F4F8EE10E94982C68E879E044
:10539000CE0101960E9445F32091510300915403E0
:1053A0001091550380914B0390914C03233099F455
:1053B000BC01990F880B990B0E944CEC20E030E067
:1053C00048EC52E40E94A2EB9801AE01495F5F4FA6
:1053D0000E945F3406C0A801BE01695F7F4F0E9432
:1053E0004533BE016F5F7F4F85E30E94982C0E947A
:1053F000842A80916503882351F060915B0370914A
:105400005C0380915F03909160030E9485256696FE
:105410000FB6F894DEBF0FBECDBFDF91CF911F91C5
:105420000F9108959091BC0097FFFCCF8093BB0033
:1054300084E88093BC0008958091BC0087FFFCCF76
:1054400084E98093BC0008951F93CF93DF931F924C
:10545000CDB7DEB7182F84EA8093BC0080EC698357
:105460000E94122A812F0E94122A6981862F0E948F
:10547000122A0F90DF91CF911F910C941C2A1F923A
:105480000F920FB60F9211240BB60F922F933F93EA
:105490004F935F936F937F938F939F93AF93BF933C
:1054A000EF93FF938091690390916A03811524E043
:1054B000920719F40E941C2A14C0FC01E259FC4F07
:1054C00080810E94122A8091BC0081608093BC0080
:1054D0008091690390916A03019690936A03809387
:1054E0006903FF91EF91BF91AF919F918F917F9150
:1054F0006F915F914F913F912F910F900BBE0F9045
:105500000FBE0F901F90189560916D0382E00E946E
:10551000242A60916C0383E00E94242A60916B032B
:1055200084E00E94242A84EA8093BC0088E70E94D9
:10553000122A80E00E94122A80E00E94122A80E152
:105540000E94122A80EB0E94122A8091BC0087FFE1
:10555000FCCF84EA8093BC0088E70E94122A80E492
:105560000E94122A10926A03109269038091BC0073
:1055700081608093BC0008958091BC00809581700B
:10558000089580936D0360936C0340936B030895BB
:10559000DF92EF92FF920F931F93CF93DF93962F9B
:1055A000969596959695A82FB0E080E8989FA00DC7
:1055B000B11D11249D0122593C4FA251BC4F67706F
:1055C00078E0761BE901249615E0FA01E080EE20F0
:1055D00009F4B8C0F12CE0E2EE1AF1081E9DC001FA
:1055E0001F9D900D11248355964FFC01F490062EBB
:1055F00001C0FF0C0A94EAF7F901E080FE28F0826E
:105600007E01F3E0EF1AF108FC013196E4910E2FD0
:10561000062E01C0000F0A94EAF7F701D0800D2989
:1056200000837E01F2E0EF1AF108FC013296E4916A
:105630000E2F062E01C0000F0A94EAF7F701D08062
:105640000D290083FC013396E4910E2F062E01C034
:10565000000F0A94EAF7FE01D2900D290083FC01A5
:105660003496E491062E01C0EE0F0A94EAF7888181
:10567000E82BE8832A5F3F4F662309F45FC0FA01F5
:10568000E080F12CF0E2EF1AF1081E9DC0011F9D91
:10569000900D11248355964FFC010491E02FF0E00A
:1056A000072E02C0F595E7950A94E2F7FC91EF2BDF
:1056B000EC93FC013196E491F0E0072E02C0F595E1
:1056C000E7950A94E2F71196FC911197EF2B11964A
:1056D000EC931197FC013296E491F0E0072E02C0A2
:1056E000F595E7950A94E2F71296FC911297EF2B45
:1056F0001296EC931297FC013396E491F0E0072E9A
:1057000002C0F595E7950A94E2F71396FC9113977A
:10571000EF2B1396EC931397FC013496E491F0E091
:10572000072E02C0F595E7950A94E2F714968C913E
:105730001497E82B1496EC93149716964F5F5F4FCF
:10574000269643CFDF91CF911F910F91FF90EF905D
:10575000DF900895DF92EF92FF920F931F93CF9304
:10576000DF93962F969596959695A82FB0E080E8B2
:10577000989FA00DB11D11249D0122593C4FA251AB
:10578000BC4F677078E0761BE901249615E0FA01BA
:10579000E080EE2009F4C4C0F12CE0E2EE1AF1083A
:1057A0001E9DC0011F9D900D11248355964FFC0135
:1057B000F490EF2D062E01C0EE0F0A94EAF7FE2EAC
:1057C000F094F901E080FE20F0827E01F3E0EF1A10
:1057D000F108FC013196E491062E01C0EE0F0A9407
:1057E000EAF70E2F0095F701D0800D2100837E018E
:1057F000F2E0EF1AF108FC013296E491062E01C0A6
:10580000EE0F0A94EAF70E2F0095F701D0800D21D4
:105810000083FC013396E491062E01C0EE0F0A943A
:10582000EAF70E2F0095FE01D2900D210083FC01B6
:105830003496E491062E01C0EE0F0A94EAF7E09543
:105840008881E823E8832A5F3F4F662309F464C018
:10585000FA01E080F12CF0E2EF1AF1081E9DC00180
:105860001F9D900D11248355964FFC010491E02F4C
:10587000F0E0072E02C0F595E7950A94E2F7E0956F
:10588000FC91EF23EC93FC013196E491F0E0072EBC
:1058900002C0F595E7950A94E2F7E0951196FC9120
:1058A0001197EF231196EC931197FC013296E49136
:1058B000F0E0072E02C0F595E7950A94E2F7E0952F
:1058C0001296FC911297EF231296EC931297FC011B
:1058D0003396E491F0E0072E02C0F595E7950A941F
:1058E000E2F7E0951396FC911397EF231396EC9350
:1058F0001397FC013496E491F0E0072E02C0F59571
:10590000E7950A94E2F7E09514968C911497E823B2
:105910001496EC93149716964F5F5F4F269637CFE9
:10592000DF91CF911F910F91FF90EF90DF9008953D
:10593000AB01FB0101900020E9F73197E61BF70B63
:105940009E2F990FE90F682F80E48E1B0C94C82AB4
:10595000AB01FB0101900020E9F73197E61BF70B43
:105960009E2F990FE90F682F80E48E1B0C94AA2BB1
:105970007F928F929F92AF92BF92CF92DF92EF92DF
:10598000FF920F931F93CF93DF93962F9695969543
:105990009695A82FB0E020E8929FA00DB11D11248C
:1059A000CD0182599C4F5C01A251BC4F677078E0D9
:1059B000761BFA0124916C01F4E0CF0ED11C85E036
:1059C000982E222309F4A9C030E020523109929E7A
:1059D000C001939E900D11248355964FFC01249194
:1059E000062E01C0220F0A94EAF7F5013081232B1D
:1059F0002083E60123977C01FFEFEF1AFF0AF701EE
:105A00002491062E01C0220F0A94EAF73881232B35
:105A1000288321968C010E5F1F4FF8012491062EDA
:105A200001C0220F0A94EAF73881232B2883EC0166
:105A30002396FE018490062E01C0880C0A94EAF792
:105A4000F6017290872880829C012C5F3F4FF901FC
:105A50008490062E01C0880C0A94EAF7F601708043
:105A600087288082F6E0AF0EB11C662309F44DC092
:105A7000FC01849190E0072E02C0959587950A94C9
:105A8000E2F79C91892B8C93F701E490F12C072E7F
:105A900002C0F594E7940A94E2F711968C9111975D
:105AA000E82A1196EC921197F801049110E0072E64
:105AB00002C0159507950A94E2F712968C911297F9
:105AC000082B12960C931297FE01C491D0E0072E7A
:105AD00002C0D595C7950A94E2F713968C91139757
