:100000000C94F30E0C94B0110C94E1110C94121298
:100010000C9443120C9474120C94A5120C94D612E6
:100020000C9407130C94240F0C94240F0C94240F9D
:100030000C94240F0C9444880C94240F0C94240FDB
:100040000C94240F0C94535E0C94240F0C94240FE6
:100050000C94240F0C94240F0C94F3700C94260F22
:100060000C94240F0C94CC370C94240F0C94240F74
:100070000C94240F0C94240F0C94240F0C94240F34
:100080000C94240F0C94240F0C94240F0C94240F24
:100090000C94240F0C94240F0C94240F0C94240F14
:1000A0000C94240F0C94240F0C94240F0C94240F04
:1000B0000C94240F0C94240F0C94240F0C94240FF4
:1000C0000C94240F0C94240F0C94240F0C94240FE4
:1000D0000C94240F0C94240F0C94240F0C94240FD4
:1000E0000C94240F5C10611066107010E9107A10E7
:1000F00082108A1094109E10A810B710C110E91039
:10010000CB10D510DF1009110C11FF100311431192
:10011000101114111A111E11221128112C11301155
:10012000431136113A113E11381F381F431F431F28
:10013000431F4E1F4E1F4E1F631F591F591F591F2C
:100140004E715D7179718871A271B171CB71CF718E
:10015000D771084AD73B3BCE016E84BCBFFDC12F8F
:100160003D6C74319ABD56833DDA3D00C77F11BEA8
:10017000D9E4BB4C3E916BAAAABE000000803F05AB
:10018000A84CCDB2D44EB93836A9020C50B99186DC
:1001900088083CA6AAAA2ABE000000803F000C9452
:1001A000D7910C94605D0C9499370C947A100C9450
:1001B0006DBD0C94D0A20C9409110C9414110C94E4
:1001C000E4B80C94D5100C9494100C9444970C94AF
:1001D0009D8D0C94BFA70C944E710C94AB8D0C9418
:1001E0003EB60C94718A0C9411B90C9482100C9444
:1001F00080B30C9443110C94CF710C94CB710C947C
:10020000618E0C9463AE0C9402B40C9482B20C9484
:1002100003110C942F8F0C943B460C9428110C94D2
:10022000B7100C940C110C9484B70C94C1100C945E
:1002300035B20C949BB50C943E110C943A110C946D
:10024000E9100C9461100C94A8100C941E110C94DD
:100250008F8D0C94A29F0C94809A0C948A100C940D
:10026000DF100C942CB80C94D7710C9495370C9427
:10027000591F0C94D78B0C94431F0C94631F0C9440
:10028000758E0C94A2710C9436110C9470100C9411
:1002900004B50C94381F0C9410110C94FEB20C94FD
:1002A00066100C945C100C9422110C94B1710C9497
:1002B00039A10C9479710C9484B40C94E9980C9441
:1002C0005D710C94E1B60C9438130C949E100C9450
:1002D00096940C9430110C94CB100C94FF100C9449
:1002E0002C110C944E1F0C941A110C948871000060
:1002F000090A02080B0C0D070603040100000000A8
:1003000000000000000000000000000000000000ED
:100310000000000000000000000011100F000000AD
:1003200000000000000000000000000000000000CD
:1003300000000000010210202008081020401020BA
:100340004080020102010804020101020408102099
:100350004080804020100804020180040201804097
:100360002010080402010804020101020408102000
:10037000408001020408102040800505050507059E
:1003800008080808020202020A0A08080404040411
:10039000010101010101010103030303030303033D
:1003A000040707070C0C0C0C0C0C0C0C02020202CC
:1003B00006060606060606060B0B0B0B0B0B0B0BB5
:1003C00000002200250028002B002E003100340000
:1003D00002010000050108010B01000021002400BA
:1003E00027002A002D003000330001010000040125
:1003F00007010A0153544F505045442E20005072BB
:10040000696E7465722073746F70706564206475B2
:100410006520746F206572726F72732E2046697842
:1004200020746865206572726F7220616E64207539
:100430007365204D39393920746F2072657374618A
:1004400072742E202854656D7065726174757265C2
:100450002069732072657365742E2053657420695A
:100460007420616674657220726573746172746958
:100470006E6729004B494C4C45442E200050726950
:100480006E7465722068616C7465642E206B696C93
:100490006C28292063616C6C656421006F6B0052CD
:1004A0006573656E643A20002200556E6B6E6F773F
:1004B0006E20636F6D6D616E643A20220043686147
:1004C0006E67652066696C616D656E74005A204FB9
:1004D0006666736574203A20007A5F6D61783A2011
:1004E000007A5F6D696E3A20005A204F6666736528
:1004F00074005A204F6666736574206F6B00486FF6
:1005000074656E64206F6666736574733A007A5F13
:100510006D61783A20007A5F6D696E3A2000795FEC
:100520006D61783A2000795F6D696E3A2000785FDE
:100530006D61783A2000785F6D696E3A2000205A2C
:100540003A0020593A0020436F756E7420583A20C3
:100550000020453A00205A3A0020593A00583A0003
:100560004649524D574152455F4E414D453A4D61C6
:10057000726C696E2056313B20537072696E7465DF
:10058000722F6772626C206D617368757020666F80
:10059000722067656E36204649524D574152455F7D
:1005A00055524C3A687474703A2F2F6669726D77A1
:1005B0006172652E756C74696D616B65722E636F07
:1005C0006D2050524F544F434F4C5F564552534944
:1005D0004F4E3A312E30204D414348494E455F54ED
:1005E0005950453A556C74696D616B657220455878
:1005F0005452554445525F434F554E543A3220555C
:100600005549443A30303030303030302D30303091
:10061000302D303030302D303030302D30303030E3
:1006200030303030303030300A00556C74696D61D4
:100630006B6572204F66662E00556C74696D616B38
:1006400065722072656164792E0042656420646F72
:100650006E652E0020423A0020453A00543A00428E
:1006600065642048656174696E672E004865617431
:10067000696E6720646F6E652E0020573A00204532
:100680003A00543A0048656174696E672E2E2E0058
:100690002042403A0020403A00202F003A002054E7
:1006A00000202F0020423A00202F006F6B20543A88
:1006B000002569206D696E2C202569207365630013
:1006C000456E642066696C65206C697374004265D0
:1006D00067696E2066696C65206C697374004E6F83
:1006E000206D6F76652E00526573756D696E67209B
:1006F0007072696E74005761697420666F7220753C
:100700007365722E2E2E00536C6565702E2E2E0092
:10071000256920686F757273202569206D696E7573
:1007200074657300446F6E65207072696E74696ED3
:10073000672066696C650053544F505045442E2025
:10074000005072696E7465722073746F70706564A6
:100750002064756520746F206572726F72732E202D
:1007600046697820746865206572726F7220616EC8
:100770006420757365204D39393920746F20726596
:1007800073746172742E202854656D706572617483
:100790007572652069732072657365742E205365C8
:1007A0007420697420616674657220726573746167
:1007B0007274696E6729006F6B004E6F204C696E12
:1007C00065204E756D626572207769746820636874
:1007D00065636B73756D2C204C617374204C696E6E
:1007E000653A20004E6F20436865636B73756D201A
:1007F00077697468206C696E65206E756D626572CC
:100800002C204C617374204C696E653A200063683B
:1008100065636B73756D206D69736D617463682CAE
:10082000204C617374204C696E653A20004C696EEF
:1008300065204E756D626572206973206E6F74203D
:100840004C617374204C696E65204E756D626572E3
:100850002B312C204C617374204C696E653A20005A
:100860004D31313000446F6E6520736176696E677B
:100870002066696C652E006F6B004D3239002020B8
:10088000506C616E6E65724275666665724279740F
:1008900065733A20002046726565204D656D6F7264
:1008A000793A20004D6179203239203230313700D9
:1008B000436F6D70696C65643A2000284461766905
:1008C0006420427261616D2900207C20417574684A
:1008D0006F723A20004D6179203239203230313741
:1008E0002031383A32393A343900204C617374205F
:1008F000557064617465643A2000312E302E3000EA
:100900004D61726C696E0020536F66747761726519
:1009100020526573657400205761746368646F6763
:10092000205265736574002042726F776E206F7578
:1009300074205265736574002045787465726E6129
:100940006C20526573657400506F77657255700046
:100950007374617274002200656E717565696E67EB
:100960002022002200656E717565696E6720220085
:10097000FFFFFF0000A0400000A04000000040007A
:10098000004D4300004D43000048430000000000BC
:100990000000000000000000004D4300004D430037
:1009A0000048430000000000000000000000006557
:1009B00063686F3A004572726F723A00414141417B
:1009C000E1414143454545454949494944EE4F4F79
:1009D0004F4FEF784F555555F55954E261616161BC
:1009E000E1616163656565656969696964EE6F6F99
:1009F0006F6FEFFD6F757575F5797479007C3C3E0E
:100A00005E2B3D3F2F5B5D3B2C2A225C0020746FE8
:100A10006F206C6F6E6720657874727573696F6E86
:100A20002070726576656E7465640020636F6C6417
:100A300020657874727573696F6E20707265766563
:100A40006E746564006563686F3A00656E64737404
:100A50006F7073206869743A205A00205A3A006512
:100A60006E6473746F7073206869743A2059002043
:100A7000593A00656E6473746F7073206869743AD4
:100A800020580020583A00656E6473746F707320AC
:100A90006869743A200024F4D43050C38E20C2A276
:100AA0004017828B7011127A910D816CD90AA8615E
:100AB000E108C7586607615143061E4B5D05C145F5
:100AC000A7041A411104093D9803713931034036D6
:100AD000DB0265339102D4305402802E1D02632C58
:100AE000EE01752AC501B028A001102781018F25CC
:100AF00064012B244B01E0223401AC211F018D2025
:100B00000D01801FFC00841EED00971DDF00B81C46
:100B1000D200E61BC600201BBC00641AB200B2194A
:100B2000A8000A19A0006A189900D117910040176F
:100B30008B00B516840031167E00B31579003A1586
:100B40007300C7146F0058146A00EE136600881310
:100B5000630025135E00C7125B006C12570015126C
:100B60005400C111510070114F0021114B00D610DB
:100B700049008D1047004610440002104200C00F8B
:100B80004000800F3E00420F3C00060F3B00CB0EA2
:100B90003800930E37005C0E3500270E3400F30D3D
:100BA0003200C10D3100900D3000600D2E00320D6D
:100BB0002D00050D2C00D90C2B00AE0C2900850C46
:100BC00029005C0C2700350C27000E0C2600E80BD2
:100BD0002400C40B2400A00B23007D0B23005A0B20
:100BE0002100390B2100180B2000F80A1F00D90A38
:100BF0001E00BB0A1E009D0A1D00800A1D00630A1C
:100C00001C00470A1B002C0A1B00110A1A00F709D6
:100C10001A00DD091900C4091900AB09190092096D
:100C200017007B091800630917004C0916003609E4
:100C30001600200916000A091500F5081500E0083D
:100C40001400CC081400B8081400A408140090087C
:100C500013007D0812006B081300580812004608A4
:100C600012003408110023081100120811000108B5
:100C70001100F0071000E0071000D0071000C007B7
:100C80001000B0070F00A107100091070E008307A6
:100C90000F0074070F0065070E0057070E00490785
:100CA0000E003B070D002E070E0020070D00130756
:100CB0000D0006070D00F9060C00ED060D00E0061C
:100CC0000C00D4060C00C8060C00BC060C00B006D4
:100CD0000C00A4060B0099060C008D060B00820682
:100CE0000B0077060B006C060B0061060A00570626
:100CF0000B004C060A0042060A0038060A002E06BF
:100D00000A0024060A001A060A001006090007064F
:100D10000A00FD050900F4050900EB050900E205DC
:100D20000900D9050900D0050900C7050900BE055D
:100D30000900B5050800AD050800A50509009C05DA
:100D40000800940508008C050800840508007C054F
:100D50000800740508006C050700650508005D05BE
:100D60000700560508004E05070047050700400527
:100D7000080038050700310507002A05070023058C
:100D800007001C050600160507000F0507000805EB
:100D9000060002050700FB040600F5040700EE0448
:100DA0000600E8040600E2040700DB040600D504A0
:100DB0000600CF040600C9040600C3040600BD04F3
:100DC0000600B7040600B1040500AC040600A60442
:100DD0000600A00405009B0406009504050090048D
:100DE00006008A04050085040500800406007A04D4
:100DF000050075040500700405006B040500660419
:100E00000500610405005C04050057040500520458
:100E100005004D04050048040500430405003E0498
:100E200004003A04050035040500300404002C04D5
:100E3000050027040400230405001E0404001A040E
:100E4000040016040500110404000D040400090444
:100E500005000404040000040400FC030400F8037B
:100E60000400F4030400F0030400EC030400E803AE
:100E70000400E4030400E0030400DC030400D803DE
:100E80000400D4030400D0030400CC030400C8030E
:100E90000300C503030024F404D9201BC40C5C0E1A
:100EA0009804C4095F0265077101F405F900FB04A9
:100EB000B30048048700C1036900580355000303C9
:100EC0004500BE023A008402310053022A00290282
:100ED000250004022000E4011C00C8011900AF0134
:100EE00017009801140084011300710110006101C2
:100EF000100051010E0043010D0036010B002B01C3
:100F00000B0020010B00150109000C010900030171
:100F10000800FB000800F3000800EB000700E400F5
:100F20000600DE000600D8000600D2000600CC0055
:100F30000500C7000500C2000500BD000400B9009F
:100F40000400B5000400B1000400AD000400A900D5
:100F50000400A5000300A20003009F0004009B0002
:100F60000300980003009500020093000300900026
:100F700003008D0002008B00030088000200860041
:100F8000020084000300810002007F0002007D0057
:100F900002007B0002007900020077000100760069
:100FA00002007400020072000100710002006F0074
:100FB00002006D0001006C0002006A00010069007F
:100FC0000200670001006600010065000100640086
:100FD00002006200010061000100600001005F008A
:100FE00002005D0001005C0001005B0001005A008E
:100FF000010059000100580001005700010056008F
:10100000010055000100540001005300000053008E
:1010100001005200010051000100500001004F008A
:1010200001004E0000004E0001004D0001004C0088
:1010300001004B0000004B0001004A000100490084
:101040000100480000004800010047000100460080
:10105000000046000100450000004500010044007A
:101060000100430000004300010042000000420074
:1010700001004100000041000100400001003F006C
:1010800000003F0001003E0000003E0001003D0066
:1010900000003D0001003C0000003C0000003C005E
:1010A00001003B0000003B0001003A0000003A0054
:1010B000010039000000390001003800000038004C
:1010C0000000380001003700000037000100360042
:1010D0000000360000003600010035000000350039
:1010E000000035000100340000003400000034002E
:1010F0000100330000003300000033000100320023
:101100000000320000003200010031000000310018
:10111000000031000100300000003000000030000D
:1011200001002F0000002F0000002F0000002F0002
:1011300001002E0000002E0000002E0001002D00F6
:1011400000002D0000002D0000002D0001002C00EB
:1011500000002C0000002C0000002C0001002B00DF
:1011600000002B0000002B0000002B0001002A00D3
:1011700000002A0000002A0000002A0001002900C7
:1011800000002900000029000000290000002900BB
:1011900001002800000028000000280000002800AE
:1011A00000002800010027000000270000002700A1
:1011B0000000270000002700010026000000260094
:1011C0000000260000002600000026000100250087
:1011D000000025000000250000002500000025007B
:1011E000000025000100240000002400000024006D
:1011F0000000240000002400010023000000230060
:101200000000230000002300000023000000230052
:101210000000230001002200000022000000220044
:101220000000220000002200000022000100210036
:10123000000021000000210000002100000021002A
:10124000000021000000210001002000000020001B
:10125000000020000000200000002000000020000E
:10126000000020000000200001001F0000001F00FF
:1012700000001F0000001F0000001F0000001F00F2
:1012800000001F0001001E0000001E0000001E00E4
:1012900000001E0000006563686F3A004572723AF4
:1012A000204D494E54454D50003A20457874727592
:1012B000646572207377697463686564206F66661D
:1012C0002E204D494E54454D502074726967676514
:1012D0007265642021004572723A204D4158544590
:1012E0004D50003A204578747275646572207377AA
:1012F000697463686564206F66662E204D4158549A
:10130000454D5020747269676765726564202100DD
:1013100048656174696E67206661696C6564002068
:101320002D20496E76616C696420657874727564ED
:101330006572206E756D62657220210050494420EF
:101340004175746F74756E652066696E6973686542
:1013500064212050757420746865206C617374205A
:101360004B702C204B6920616E64204B6420636FAE
:101370006E7374616E74732066726F6D2061626F3C
:10138000766520696E746F20436F6E66696775724B
:101390006174696F6E2E6800504944204175746F06
:1013A00074756E65206661696C6564212074696D71
:1013B000656F75740020403A006F6B20543A006FDF
:1013C0006B20423A00504944204175746F74756E29
:1013D00065206661696C6564212054656D70657275
:1013E000617475726520746F6F206869676800208A
:1013F0004B643A2000204B693A2000204B703A2081
:101400000020436C617373696320504944200020BD
:1014100054753A2000204B753A2000206D61783ACF
:101420002000206D696E3A200020643A200020627E
:101430006961733A20006563686F3A004572726FA4
:10144000723A004D383420582059205A2045004324
:10145000616E6E6F7420656E746572207375626460
:1014600069723A20004D3234004D3233202573002A
:101470006175746F25692E67006572726F722077CF
:10148000726974696E6720746F2066696C65004EBE
:101490006F74205344207072696E74696E67002FF8
:1014A000005344207072696E74696E6720627974AB
:1014B0006520002E0044656C6574696F6E2066615E
:1014C000696C65642C2046696C653A200046696C3D
:1014D000652064656C657465643A002E006F706504
:1014E0006E206661696C65642C2046696C653A20E3
:1014F0000057726974696E6720746F2066696C6545
:101500003A20002E006F70656E206661696C65641C
:101510002C2046696C653A20002E006F70656E20A5
:101520006661696C65642C2046696C653A200046EA
:10153000696C652073656C6563746564002053692C
:101540007A653A200046696C65206F70656E656447
:101550003A20002E006F70656E206661696C6564CC
:101560002C2046696C653A20004E6F7720667265C4
:1015700073682066696C653A20004E6F7720646F4F
:10158000696E672066696C653A20002220706F736F
:10159000002220706172656E743A220053554252E7
:1015A0004F5554494E452043414C4C20746172675D
:1015B00065743A2200747279696E6720746F2063D3
:1015C000616C6C207375622D67636F64652066695A
:1015D0006C6573207769746820746F6F206D616E1D
:1015E00079206C6576656C732E204D4158206C65B2
:1015F00076656C2069733A005344206361726420FD
:101600006F6B006F70656E526F6F74206661696CEE
:10161000656400766F6C756D652E696E6974206601
:1016200061696C656400534420696E697420666169
:10163000696C006563686F3A004572726F723A00B8
:1016400048617264636F6465642044656661756CAB
:10165000742053657474696E6773204C6F616465A0
:10166000640053746F7265642073657474696E6787
:101670007320726574726965766564002044002089
:1016800049002020204D3330312050005049442063
:1016900073657474696E67733A00205A00205900AC
:1016A00020204D323036205800486F6D65206F661F
:1016B0006673657420286D6D293A00204500205A14
:1016C0000020580020420020540020204D323035A8
:1016D000205300416476616E6365642076617269AF
:1016E00061626C65733A20533D4D696E2066656595
:1016F000647261746520286D6D2F73292C20543D10
:101700004D696E2074726176656C206665656472E1
:1017100061746520286D6D2F73292C20423D6D6901
:101720006E696D756D207365676D656E7420746983
:101730006D6520286D73292C20583D6D6178696D89
:10174000756D205859206A65726B20286D6D2F7356
:10175000292C20205A3D6D6178696D756D205A20C5
:101760006A65726B20286D6D2F73292C2020453DF2
:101770006D6178696D756D2045206A65726B2028F2
:101780006D6D2F73290020540020204D32303420FD
:101790005300416363656C65726174696F6E3A20D2
:1017A000533D616363656C65726174696F6E2C2073
:1017B000543D7265747261637420616363656C6526
:1017C000726174696F6E00204500205A0020590034
:1017D00020204D3230312058004D6178696D756D93
:1017E00020416363656C65726174696F6E20286D5A
:1017F0006D2F7332293A00204500205A00205900ED
:1018000020204D3230332058004D6178696D756D60
:101810002066656564726174657320286D6D2F7331
:10182000293A00204500205A0020590020204D3937
:101830003220580053746570732070657220756E85
:1018400069743A0053657474696E67732053746FDA
:10185000726564006563686F3A00024361726420D8
:1018600072656D6F766564004361726420696E73A2
:101870006572746564002D2D3A2D2D002D2D2D00DF
:101880005344002059000120000120004D36303023
:10189000004368616E67652066696C616D656E7492
:1018A00000466C6F77203100466C6F772031004620
:1018B0006C6F77203000466C6F77203000466C6F7D
:1018C0007700466C6F770046616E207370656564C3
:1018D0000046616E207370656564004E6F7A7A6CA5
:1018E0006532004E6F7A7A6C6532004E6F7A7A6C90
:1018F00065004E6F7A7A6C650053706565640053BD
:1019000070656564004D61696E005072656865615F
:101910007420504C4120416C6C00507265686561C8
:101920007420504C4120320050726568656174200B
:10193000504C4120310050726570617265005072E8
:1019400065686561742041425320416C6C0050729F
:1019500065686561742041425320320050726568A9
:10196000656174204142532031005072657061728C
:101970006500580059005A004578747275646572A4
:10198000004578747275646572004D6F7665205AF3
:10199000004D6F76652059004D6F76652058004DDB
:1019A0006F76652061786973004D6F766520302E03
:1019B000316D6D004D6F766520316D6D004D6F7628
:1019C000652031306D6D0050726570617265004D3B
:1019D0006F76652061786973004D38300053776900
:1019E00074636820706F776572206F6E004D3831B8
:1019F0000053776974636820706F776572206F6633
:101A00006600436F6F6C646F776E00507265686537
:101A100061742041425300507265686561742050C2
:101A20004C4100473238004175746F20686F6D6516
:101A3000004D38340044697361626C6520737465CD
:101A40007070657273004D61696E0053746F7265DA
:101A5000206D656D6F7279004E6F7A7A6C65004EFD
:101A60006F7A7A6C650046616E20737065656400FC
:101A700046616E2073706565640054656D706572B3
:101A800061747572650053746F7265206D656D6F5A
:101A90007279004E6F7A7A6C65004E6F7A7A6C6557
:101AA0000046616E2073706565640046616E207348
:101AB000706565640054656D7065726174757265FA
:101AC00000507265686561742041425320636F6EF7
:101AD00066005072656865617420504C4120636FE8
:101AE0006E66005049442D43005049442D43005038
:101AF00049442D44005049442D44005049442D4947
:101B0000005049442D49005049442D50005049444B
:101B10002D500046616E2073706565640046616EED
:101B2000207370656564004E6F7A7A6C6532004E82
:101B30006F7A7A6C6532004E6F7A7A6C65004E6F00
:101B40007A7A6C6500436F6E74726F6C00457374C3
:101B50006570732F6D6D004573746570732F6D6DB7
:101B6000005A73746570732F6D6D005A73746570CD
:101B7000732F6D6D005973746570732F6D6D0059FF
:101B800073746570732F6D6D005873746570732F67
:101B90006D6D005873746570732F6D6D00412D72FB
:101BA00065747261637400412D726574726163744F
:101BB00000416D6178206500416D617820650041CC
:101BC0006D6178207A00416D6178207A00416D6105
:101BD00078207900416D6178207900416D6178202D
:101BE0007800416D61782078005654726176206DDE
:101BF000696E005654726176206D696E00566D698B
:101C00006E00566D696E00566D6178206500566DE8
:101C10006178206500566D6178207A00566D617894
:101C2000207A00566D6178207900566D61782079B0
:101C300000566D6178207800566D617820780056E6
:101C4000652D6A65726B0056652D6A65726B00566C
:101C50007A2D6A65726B00567A2D6A65726B005632
:101C600078792D6A65726B005678792D6A65726B8A
:101C700000416363656C00416363656C00436F6E94
:101C800074726F6C004D61792032392032303137F7
:101C90002031383A32393A3531003235303030304F
:101CA0005F6475616C00556C74696D616B65723A47
:101CB0005F31352E30352E30322E4D6F656279759D
:101CC00073004669726D776172652076657273691B
:101CD0006F6E004669726D7761726520766572730A
:101CE000696F6E00526573746F7265206661696C0E
:101CF00073616665004C6F6164206D656D6F72790C
:101D00000053746F7265206D656D6F7279004D6F51
:101D100074696F6E0054656D70657261747572657B
:101D2000004D61696E004D383420582059205A20EA
:101D300045004D3234004D323320257300052E2EE0
:101D4000004D61696E004E6F2053442063617264E0
:101D5000005072696E742066726F6D205344005398
:101D6000746F70207072696E7400526573756D6562
:101D7000207072696E7400506175736520707269AD
:101D80006E7400436F6E74726F6C00507265706198
:101D900072650054756E6500496E666F20736372DC
:101DA00065656E004E414E494E495459494E46CDE7
:101DB000CCCC3D0AD7233C17B7D13877CC2B329502
:101DC00095E6241FB14F0A000020410000C84200E0
:101DD000401C4620BCBE4CCA1B0E5AAEC59D7400AA
:101DE000953735B2993711241FBECFEFD1E2DEBF50
:101DF000CDBF00E00CBF14E0A0E0B2E0E2E8F2E901
:101E000001E00BBF02C007900D92A836B107D9F7C9
:101E100022E1A8E6B4E001C01D92A637B207E1F7BF
:101E20001EE0C2EFDEE000E006C021970109802F2E
:101E3000FE010E94D2C2C03FD10780E00807A9F787
:101E40000E9473BD0C942FC90C9400001F920F9236
:101E50000FB60F9211242F933F938F939F93AF93BD
:101E6000BF938091690490916A04A0916B04B09132
:101E70006C043091680423E0230F2D3720F4019681
:101E8000A11DB11D05C026E8230F0296A11DB11D9D
:101E9000209368048093690490936A04A0936B0470
:101EA000B0936C0480916D0490916E04A0916F04C6
:101EB000B09170040196A11DB11D80936D049093A3
:101EC0006E04A0936F04B0937004BF91AF919F9183
:101ED0008F913F912F910F900FBE0F901F901895EB
:101EE0002FB7F8946091690470916A0480916B0433
:101EF00090916C042FBF08953FB7F89480916D04C2
:101F000090916E04A0916F04B091700426B5A89BC7
:101F100005C02F3F19F00196A11DB11D3FBFBA2F7B
:101F2000A92F982F8827820F911DA11DB11DBC01DB
:101F3000CD0142E0660F771F881F991F4A95D1F7A0
:101F40000895CF92DF92EF92FF92CF93DF936B01D0
:101F50007C010E947C0FEB01C114D104E104F10467
:101F600079F00E947C0F6C1B7D0B683E7340A0F3E0
:101F700081E0C81AD108E108F108C851DC4FECCF64
:101F8000DF91CF91FF90EF90DF90CF900895019770
:101F900039F0880F991F880F991F02970197F1F761
:101FA0000895789484B5826084BD84B5816084BDD1
:101FB00085B5826085BD85B5816085BDEEE6F0E0C2
:101FC000808181608083E1E8F0E01082808182601E
:101FD0008083808181608083E0E8F0E0808181609F
:101FE0008083E1EBF0E0808184608083E0EBF0E0CF
:101FF000808181608083E1E9F0E08081826080837C
:10200000808181608083E0E9F0E08081816080836D
:10201000E1EAF0E08081826080838081816080835A
:10202000E0EAF0E0808181608083E1E2F1E080819C
:1020300082608083808181608083E0E2F1E0808142
:1020400081608083EAE7F0E0808184608083808122
:1020500082608083808181608083808180688083CA
:102060001092C10008951F93CF93DF93182FEB01B7
:1020700061E00E944411209711F460E004C0CF3F5A
:10208000D10539F461E0812FDF91CF911F910C943C
:102090008011E12FF0E0E251FD4FE4914E2F50E02E
:1020A000FA013197E131F10508F093C08827EE5825
:1020B000FF4F8F4F0C94D2C284B5806884BDC7BDDA
:1020C0008DC084B5806284BDC8BD88C08091800009
:1020D000806880938000D0938900C09388007EC080
:1020E00080918000806280938000D0938B00C093A9
:1020F0008A0074C08091B00080688093B000C09363
:10210000B3006CC08091B00080628093B000C09337
:10211000B40064C080919000806880939000D09358
:102120009900C09398005AC080919000806280937B
:102130009000D0939B00C0939A0050C08091900073
:10214000886080939000D0939D00C0939C0046C00F
:102150008091A00080688093A0008091A0008F7B78
:102160008093A000D093A900C093A80037C08091AD
:10217000A00080628093A000D093AB00C093AA001F
:102180002DC08091A00088608093A000D093AD0006
:10219000C093AC0023C0809120018068809320010F
:1021A000D0932901C093280119C080912001806239
:1021B00080932001D0932B01C0932A010FC08091FE
:1021C0002001886080932001D0932D01C0932C01C1
:1021D00005C0C038D1050CF055CF4FCFDF91CF915E
:1021E0001F91089590E0FC013197E131F10508F06D
:1021F0004AC08827ED57FF4F8F4F0C94D2C2809171
:1022000080008F7703C0809180008F7D8093800055
:10221000089584B58F7702C084B58F7D84BD0895FD
:102220008091B0008F7703C08091B0008F7D809344
:10223000B0000895809190008F7707C08091900042
:102240008F7D03C080919000877F809390000895D8
:102250008091A0008F7707C08091A0008F7D03C080
:102260008091A000877F8093A00008958091200135
:102270008F7707C0809120018F7D03C0809120015E
:10228000877F809320010895CF93DF9390E0FC0136
:10229000EC5CFC4F2491FC01E658FC4F84918823B0
:1022A00061F190E0880F991FFC01E652FC4FC59147
:1022B000D491FC01E054FC4FA591B491611109C087
:1022C0009FB7F8948881209582238883EC912E23F0
:1022D0000BC0623061F49FB7F8943881822F8095EB
:1022E00083238883EC912E2B2C939FBF06C08FB73E
:1022F000F894E8812E2B28838FBFDF91CF9108952A
:102300001F93CF93DF93282F30E0F901E251FD4F67
:102310008491F901EC5CFC4FD491F901E658FC4F33
:10232000C491CC23C9F0162F81110E94F210EC2F1A
:10233000F0E0EE0FFF1FE054FC4FA591B4918FB772
:10234000F894111105C09C91ED2FE095E92302C08E
:10235000EC91ED2BEC938FBFDF91CF911F910895FE
:102360001F920F920FB60F9211240BB60F922F935C
:102370003F934F935F936F937F938F939F93AF930D
:10238000BF93EF93FF938091750490917604892B0E
:1023900029F0E0917504F09176041995FF91EF9181
:1023A000BF91AF919F918F917F916F915F914F916D
:1023B0003F912F910F900BBE0F900FBE0F901F906B
:1023C00018951F920F920FB60F9211240BB60F9211
:1023D0002F933F934F935F936F937F938F939F932D
:1023E000AF93BF93EF93FF9380917704909178041C
:1023F000892B29F0E0917704F09178041995FF91E9
:10240000EF91BF91AF919F918F917F916F915F916C
:102410004F913F912F910F900BBE0F900FBE0F90D9
:102420001F9018951F920F920FB60F9211240BB6A2
:102430000F922F933F934F935F936F937F938F935D
:102440009F93AF93BF93EF93FF9380917904909103
:102450007A04892B29F0E0917904F0917A04199596
:10246000FF91EF91BF91AF919F918F917F916F916C
:102470005F914F913F912F910F900BBE0F900FBE28
:102480000F901F9018951F920F920FB60F92112464
:102490000BB60F922F933F934F935F936F937F935E
:1024A0008F939F93AF93BF93EF93FF9380917B04A0
:1024B00090917C04892B29F0E0917B04F0917C04BD
:1024C0001995FF91EF91BF91AF919F918F917F915E
:1024D0006F915F914F913F912F910F900BBE0F9095
:1024E0000FBE0F901F9018951F920F920FB60F926C
:1024F00011240BB60F922F933F934F935F936F93DB
:102500007F938F939F93AF93BF93EF93FF938091AC
:10251000710490917204892B29F0E0917104F0917B
:1025200072041995FF91EF91BF91AF919F918F9197
:102530007F916F915F914F913F912F910F900BBEC3
:102540000F900FBE0F901F9018951F920F920FB60D
:102550000F9211240BB60F922F933F934F935F93DB
:102560006F937F938F939F93AF93BF93EF93FF935B
:102570008091730490917404892B29F0E091730485
:10258000F09174041995FF91EF91BF91AF919F91D4
:102590008F917F916F915F914F913F912F910F900C
:1025A0000BBE0F900FBE0F901F9018951F920F92A9
:1025B0000FB60F9211240BB60F922F933F934F93A8
:1025C0005F936F937F938F939F93AF93BF93EF939B
:1025D000FF9380917D0490917E04892B29F0E091F6
:1025E0007D04F0917E041995FF91EF91BF91AF9119
:1025F0009F918F917F916F915F914F913F912F911B
:102600000F900BBE0F900FBE0F901F9018951F924A
:102610000F920FB60F9211240BB60F922F933F9388
:102620004F935F936F937F938F939F93AF93BF93DA
:10263000EF93FF9380917F0490918004892B29F080
:10264000E0917F04F09180041995FF91EF91BF9183
:10265000AF919F918F917F916F915F914F913F913A
:102660002F910F900BBE0F900FBE0F901F901895DB
:10267000CF92DF92EF92FF920F931F93CF93DF934E
:102680006C01EB017B01E40EF51E00E010E0CE15BD
:10269000DF0561F06991D601ED91FC910190F08127
:1026A000E02DC6011995080F191FF1CFC801DF9160
:1026B000CF911F910F91FF90EF90DF90CF900895F1
:1026C0006115710579F0FB0101900020E9F7319760
:1026D000AF01461B570BDC01ED91FC910280F381A9
:1026E000E02D199480E090E008950C946013DC01D3
:1026F000ED91FC910190F081E02D1994FC01659120
:102700007591859194910895EF92FF920F931F9385
:10271000CF93DF93EC01CC0FDD1FCC0FDD1FCE017B
:102720008557964F0E947E139E012857394F790195
:102730008E010458194FF801208131814281538163
:102740000E9481BDF7016083718382839383CE01F0
:102750008D55964F0E947E139E012059394F790165
:10276000F80120813181428153810E9481BDF701AE
:102770006083718382839383CE018956964F0E9432
:102780007E13C55FDD4FF801208131814281538185
:102790000E9481BD688379838A839B83DF91CF9177
:1027A0001F910F91FF90EF9008952F923F924F92BB
:1027B0005F926F927F928F929F92AF92BF92CF92D1
:1027C000DF92EF92FF920F931F93CF93DF9300D08E
:1027D0001F92CDB7DEB79C838B83FC01E059F64F87
:1027E00094905C01AA0CBB1CAA0CBB1CC5018857A9
:1027F000994F1C01FC01108211821282138224E97C
:1028000036E040E956E06CE876E088E896E00E9421
:10281000AC5CC5018158964F0E947E136B017C0110
:10282000692D990C770B880B990B0E942ABF2B01FD
:102830003C01C5018A5B994F4C0120E030E040EC3F
:102840005FE3C701B6010E947FC1A30192010E940C
:102850007FC1F4016083718382839383C501895DA5
:102860009D4F9A838983FC0160817181828193816C
:10287000609305027093060280930702909308020A
:1028800020E030E040E752E40E9480BE28E5C22EFE
:1028900026E0D22E7B018C0122E536E04EE456E0A4
:1028A0006AE476E086E496E00E9404520E9446665E
:1028B000F101108211821282138224E936E040E98C
:1028C00056E06CE876E088E896E00E94AC5CC501D2
:1028D0008D58964F5C010E947E139058A30192017F
:1028E0000E947FC1F401608371838283938320E01F
:1028F00030E040E752E46091050270910602809159
:102900000702909108020E9480BE7B018C0122E5A3
:1029100036E04EE456E06AE476E086E496E00E9413
:1029200004520E944666C5010E947E139B01AC01C1
:102930000E9481BDA30192010E947FC1F4016083C6
:1029400071838283938320E030E040E05FE3E9819C
:10295000FA8160817181828193810E947FC160933D
:10296000050270930602809307029093080220E00C
:1029700030E040E752E40E9480BE7B018C0122E5FA
:1029800036E04EE456E06AE476E086E496E00E94A3
:1029900004520E9446668B819C810E948413F1013F
:1029A00080819181A281B381F40180839183A2838C
:1029B000B383109205021092060210920702109241
:1029C00008020E94435EEB81FC81E359F94F81E0EC
:1029D00080830F900F900F900F90DF91CF911F91F8
:1029E0000F91FF90EF90DF90CF90BF90AF909F90AE
:1029F0008F907F906F905F904F903F902F900895B1
:102A0000FC012491222341F03091C00035FFFCCF1E
:102A10002093C6000196F4CF22E030E08BE299E0EB
:102A20000C94033AFC012491222341F03091C00020
:102A300035FFFCCF2093C6000196F4CF2AE030E0AA
:102A40008BE299E00C945139CF93DF931F921F9240
:102A5000CDB7DEB72091701230917112CE01019680
:102A60002115310519F48657924102C0821B930B40
:102A70009A83898389819A810F900F90DF91CF91FA
:102A8000089520919B0430919C04243031050CF072
:102A900069C0BC0120919D0430919E0440E6429F94
:102AA000C001439F900D11248B559B4F0E941BC664
:102AB000EFEAF9E08491882341F09091C00095FFFE
:102AC000FCCF8093C6003196F5CFE5E6F9E084911E
:102AD000882341F09091C00095FFFCCF8093C60001
:102AE0003196F5CF80919D0490919E0420E6289F19
:102AF000F001299FF00D1124EB55FB4F81918823A4
:102B000039F09091C00095FFFCCF8093C600F6CFBE
:102B1000E3E6F9E08491882341F09091C00095FFAD
:102B2000FCCF8093C6003196F5CF8091C00085FF21
:102B3000FCCF8AE08093C60080919D0490919E0412
:102B4000019664E070E00E947DC290939E048093A1
:102B50009D0480919B0490919C04019690939C0409
:102B600080939B04089520919B0430919C04243011
:102B700031050CF069C0BC0120919D0430919E0488
:102B800040E6429FC001439F900D11248B559B4FFF
:102B90000E94A7C5EFEAF9E08491882341F0909163
:102BA000C00095FFFCCF8093C6003196F5CFE8E5D5
:102BB000F9E08491882341F09091C00095FFFCCF0B
:102BC0008093C6003196F5CF80919D0490919E042C
:102BD00020E6289FF001299FF00D1124EB55FB4FB3
:102BE0008191882339F09091C00095FFFCCF8093AC
:102BF000C600F6CFE6E5F9E08491882341F0909194
:102C0000C00095FFFCCF8093C6003196F5CF809130
:102C1000C00085FFFCCF8AE08093C60080919D04B0
:102C200090919E04019664E070E00E947DC29093B2
:102C30009E0480939D0480919B0490919C04019636
:102C400090939C0480939B040895809A889A269A76
:102C50002E980895809A889808950E94251640E934
:102C600050ED63E070E08BE299E00E940538E0E50A
:102C7000F9E08491882341F09091C00095FFFCCF4A
:102C80008093C6003196F5CF8091C00085FFFCCFC0
:102C90008AE08093C6008FEA99E0FC012491222308
:102CA00041F03091C00035FFFCCF2093C600319633
:102CB000F5CF24B720FF14C0E8E4F9E034913323C2
:102CC00041F04091C00045FFFCCF3093C6003196E3
:102CD000F5CF3091C00035FFFCCF3AE03093C6000D
:102CE00021FF14C0E8E3F9E03491332341F040912F
:102CF000C00045FFFCCF3093C6003196F5CF309130
:102D0000C00035FFFCCF3AE03093C60022FF14C06C
:102D1000E7E2F9E03491332341F04091C00045FFF0
:102D2000FCCF3093C6003196F5CF3091C00035FF0F
:102D3000FCCF3AE03093C60023FF14C0E7E1F9E08E
:102D40003491332341F04091C00045FFFCCF3093D4
:102D5000C6003196F5CF3091C00035FFFCCF3AE088
:102D60003093C60025FF14C0E7E0F9E02491222348
:102D700041F03091C00035FFFCCF2093C600319662
:102D8000F5CF2091C00025FFFCCF2AE02093C6009C
:102D900014BEE0E0F9E02491222341F03091C0001C
:102DA00035FFFCCF2093C6003196F5CFEAEFF8E06F
:102DB0002491222341F03091C00035FFFCCF2093B5
:102DC000C6003196F5CF2091C00025FFFCCF2AE048
:102DD0002093C600FC012491EFEAF9E0222349F098
:102DE0003091C00035FFFCCF2093C600319624916E
:102DF000F5CFEAEEF8E02491222341F03091C000B3
:102E000035FFFCCF2093C6003196F5CFE5EDF8E015
:102E10002491222341F03091C00035FFFCCF209354
:102E2000C6003196F5CFE9ECF8E02491222341F079
:102E30003091C00035FFFCCF2093C6003196F5CF0E
:102E4000EBEBF8E02491222341F03091C00035FFF4
:102E5000FCCF2093C6003196F5CF2091C00025FF0E
:102E6000FCCF2AE02093C600E0EBF8E02491222377
:102E700041F03091C00035FFFCCF2093C600319661
:102E8000F5CFE4EAF8E02491222341F03091C0002C
:102E900035FFFCCF2093C6003196F5CF2091C000BE
:102EA00025FFFCCF2AE02093C600FC018491EFEAC5
:102EB000F9E0882349F09091C00095FFFCCF809302
:102EC000C60031968491F5CFE5E9F8E08491882336
:102ED00041F09091C00095FFFCCF8093C6003196E1
:102EE000F5CF0E9424154AE050E0BC018BE299E046
:102EF0000E942339EEE7F8E08491882341F0909115
:102F0000C00095FFFCCF8093C6003196F5CF4AE014
:102F100050E060ED74E08BE299E00E9423398091EB
:102F2000C00085FFFCCF8AE08093C6001092A10408
:102F30001092A2041092A3041092A4040E949283FF
:102F40000E94CA6A0E94C2510E9491840E94C36575
:102F50000E948A9DFFEF23ED80E3F15020408040E6
:102F6000E1F700C0000008958091950490919604C7
:102F700060E070E001960C94FCC280919504909101
:102F800096044AE050E060E070E001960C946BC457
:102F9000682F70E020919F043091A00440E6429F8A
:102FA000C001439F900D11248B559B4F0E9410C66A
:102FB0009C01909396048093950481E0232B09F45F
:102FC00080E008950E94700F6093910470939204C2
:102FD000809393049093940408950E94700F6093DB
:102FE0009104709392048093930490939404E091DD
:102FF0009F04F091A004EF55FB4F8081811114C014
:10300000ECE9F4E08491882341F09091C00095FFB1
:10301000FCCF8093C6003196F5CF8091C00085FF2C
:10302000FCCF8AE08093C60008958BE299E00E946D
:103030005738EFE9F4E08491882341F09091C00083
:1030400095FFFCCF8093C6003196F5CF40912A06BC
:1030500050912B0660912C0670912D064F5F5F4FAB
:103060006F4F7F4F2AE030E08BE299E00E94FC38FE
:103070008091C00085FFFCCF8AE08093C6000C944D
:10308000ED172F923F924F925F926F927F928F92A5
:103090009F92AF92BF92CF92DF92EF92FF920F93E7
:1030A0001F93CF93DF93CDB7DEB76E970FB6F8942B
:1030B000DEBF0FBECDBF30E6F32E44E0A42EB12C10
:1030C00051E4852E57E0952E6AE0E62E77EB672EC9
:1030D00077E0772EDD24D3948091AC099091AD09EF
:1030E0002091AE093091AF09821B930B8F779927FE
:1030F000892B09F428C280919B0490919C04049729
:103100000CF021C28BE299E00E943B3880939A0434
:1031100020919804309199048A3061F08D3051F0FB
:103120008A3321F490919704992321F02F353105AA
:103130000CF42BC12115310519F4109297046AC3C0
:10314000E0919D04F0919E04FE9E8001FF9E100D73
:103150001124200F311FD901AB55BB4F1C92809118
:10316000970481110DC110929704EF55FB4F108207
:1031700098012B553B4F29016EE470E0C9010E9474
:1031800010C60097E9F190939604809395048419F2
:103190009509800F911F4AE050E060E070E08A5589
:1031A0009B4F0E946BC460932E0670932F068093F2
:1031B00030069093310600912A0610912B0620913B
:1031C0002C0630912D060F5F1F4F2F4F3F4F409021
:1031D0009D0450909E04601771078207930709F4BD
:1031E000F3C0F49CC001F59C900D112460E678E0DA
:1031F0008B559B4F0E94D5C5892B09F0E5C076C140
:103200006AE270E0C2010E9410C6892B09F444C032
:10321000E5EBF9E08491882341F09091C00095FF9F
:10322000FCCF8093C6003196F5CFEAEBF7E08491AE
:10323000882341F09091C00095FFFCCF8093C60099
:103240003196F5CF40912A0650912B0660912C06BD
:1032500070912D062AE030E08BE299E00E94FC3864
:103260008091C00085FFFCCF8AE08093C600109259
:10327000990410929804CEC280912E0690912F0648
:10328000A0913006B091310680932A0690932B06C8
:10329000A0932C06B0932D0680919D0490919E04DE
:1032A000F89E8001F99E100D1124C8018B559B4F8B
:1032B0002C0167E470E00E9410C6009709F44BC02F
:1032C000909396048093950484199509800F911F1B
:1032D00060E070E08A559B4F0E94FCC20E94F2BEE3
:1032E0006430710508F037C08091830481111AC0E1
:1032F00080919E0681112FC0F3018491E7EBF7E0E6
:10330000882349F09091C00095FFFCCF8093C600C0
:1033100031968491F5CF8091C00085FFFCCFE0927B
:10332000C60019C0F4018491E1E4F7E0882349F074
:103330009091C00095FFFCCF8093C6003196849198
:10334000F5CF8091C00085FFFCCFE092C60087E3F7
:1033500097E00E94179D80919D0490919E04019694
:10336000B5010E947DC290939E0480939D0480913C
:103370009B0490919C04019690939C0480939B04E1
:103380001092990410929804A7CE8B3311F4D09226
:1033900097049091970491119FCE40919D04509174
:1033A0009E04B9016F5F7F4F7093990460939804F6
:1033B000F49EF001F59EF00D11242E0F3F1FF90130
:1033C000EB55FB4F808388CEF49C8001F59C100D5B
:1033D0001124C8018B559B4F2C016AE270E00E94BA
:1033E00010C6009709F450C020E0312CF801E20F1C
:1033F000F11DEB55FB4F30813A3219F02F5F332628
:10340000F5CF909396048093950484199509800FC5
:10341000911F60E070E08A559B4F0E94FCC20E94A1
:10342000F2BE232D30E02617370709F425CFE5EB50
:10343000F9E08491882341F09091C00095FFFCCF82
:103440008093C6003196F5CFEEE0F8E084918823B2
:1034500041F09091C00095FFFCCF8093C60031965B
:10346000F5CF40912A0650912B0660912C06709161
:103470002D062AE030E08BE299E00E94FC38809132
:10348000C00085FFFCCF2CC0E5EBF9E084918823D8
:1034900041F09091C00095FFFCCF8093C60031961B
:1034A000F5CFE4EEF7E08491882341F09091C000DD
:1034B00095FFFCCF8093C6003196F5CF40912A0648
:1034C00050912B0660912C0670912D062AE030E079
:1034D0008BE299E00E94FC388091C00085FFFCCF10
:1034E0008AE08093C6000E941518C1CEE5EBF9E092
:1034F0008491882341F09091C00095FFFCCF809388
:10350000C6003196F5CFEDE2F8E08491882341F0D2
:103510009091C00095FFFCCF8093C6003196F5CF07
:1035200040912A0650912B0660912C0670912D0631
:103530002AE030E08BE299E00E94FC388091C000E4
:1035400085FFFCCFCDCF8091A006882309F462C10E
:103550008091980490919904892B09F05BC1809126
:103560009B0490919C04892B11F41092810400E635
:1035700011E084E0C82ED12C9CE3892E912CA12C43
:10358000B12C20E1222E27E0322E9E012F5F3F4FEB
:10359000790140912109509122096091230970918C
:1035A00024098091190990911A09A0911B09B091E1
:1035B0001C09481759076A077B0708F02BC180913F
:1035C0009B0490919C0404970CF024C18091810489
:1035D000811120C18091740890917508A09176089E
:1035E000B09177088093210990932209A093230931
:1035F000B09324098CE698E00E94233FAC01982FF9
:1036000040939A048A30B9F09D30A9F0933229F49E
:1036100080919704882379F002C09A33C9F32091EE
:103620009804309199042F3531052CF44F3F8FEFDA
:10363000580709F0D1C040912109509122096091A9
:103640002309709124098091190990911A09A09178
:103650001B09B0911C09481759076A077B0708F432
:1036600081C0E4E2F7E08491882341F09091C000AA
:1036700095FFFCCF8093C6003196F5CF8091C000B6
:1036800085FFFCCFFAE0F093C6000E94700F6093B4
:1036900085047093860480938704909388044090F7
:1036A000890450908A0460908B0470908C04641993
:1036B00075098609970928EE33E040E050E00E9442
:1036C00091C229013A01CA01B901A50194010E94E0
:1036D00091C2CA01B901A50194010E9491C27F93D0
:1036E0006F93C301B20120E13EE040E050E00E9450
:1036F00091C23F932F933F922F92FF92EF920E949D
:103700003FC6EFEAF9E084910FB6F894DEBF0FBE32
:10371000CDBF882349F09091C00095FFFCCF8093E6
:10372000C60031968491F5CFF7018191882339F055
:103730009091C00095FFFCCF8093C600F6CF80919A
:10374000C00085FFFCCF3AE03093C600C7010E945D
:10375000089D8EE996E00E94C97D61E08EE996E0C1
:103760000E94337B80919A04833211F41093810478
:1037700020919804309199042115310509F4DDCC8C
:1037800080919D0490919E04089FF001099FF00D87
:1037900011242E0F3F1FF901EB55FB4F1082FC0146
:1037A000EF55FB4F108320919B0430919C042F5FB9
:1037B0003F4F30939C0420939B040196B6010E94D6
:1037C0007DC290939E0480939D0410929704109262
:1037D000990410929804DDCE9B3311F41093970452
:1037E000809197048111D5CE80919D0490919E0483
:1037F000B9016F5F7F4F7093990460939804089F9D
:10380000F001099FF00D1124E20FF31FEB55FB4F60
:103810004083BFCE6E960FB6F894DEBF0FBECDBF0D
:10382000DF91CF911F910F91FF90EF90DF90CF909C
:10383000BF90AF909F908F907F906F905F904F90D0
:103840003F902F9008957F928F929F92AF92BF9258
:10385000CF92DF92EF92FF920F931F93CF93DF935C
:1038600088E8E82E86E0F82E06E416E09AE9C92EEC
:1038700096E0D92EC9EDD3E07C2E84E0780E8991B4
:103880000E94C817882311F10E94B4174B015C01F4
:10389000F6016081611102C06091250670E080E050
:1038A00090E00E942ABFF70120813181428153813B
:1038B0000E947FC19B01AC01C501B4010E9481BD82
:1038C000F80160837183828393830AC0F70180814A
:1038D0009181A281B381F80180839183A283B38314
:1038E000F4E0EF0EF11C0C5F1F4F8FEFC81AD80ADF
:1038F0007C12C5CF86E40E94C8178823D9F00E94A5
:10390000B4176B017C016093360670933706809381
:1039100038069093390620E030E0A9010E9498C053
:10392000181644F4C0920502D0920602E0920702F3
:10393000F0920802DF91CF911F910F91FF90EF90CD
:10394000DF90CF90BF90AF909F908F907F90089521
:103950000E94231C89E40E94C817882359F00E9402
:10396000B41760933A0670933B0680933C0690939D
:103970003D0608C010923A0610923B0610923C0693
:1039800010923D068AE40E94C817882359F00E94CD
:10399000B41760933E0670933F0680934006909361
:1039A0004106089510923E0610923F06109240067E
:1039B0001092410608950895CF92DF92EF92FF9200
:1039C0000F931F930E94700F609391047093920461
:1039D0008093930490939404209146063091470677
:1039E0004091480650914906609188067091890679
:1039F00080918A0690918B060E9476BE811121C02B
:103A000020914A0630914B0640914C0650914D064C
:103A100060918C0670918D0680918E0690918F0634
:103A20000E9476BE81110DC020E030E040E752E4F4
:103A30006091050270910602809107029091080240
:103A40001EC06091250270912602072E000C880B83
:103A5000990B0E942ABF20910502309106024091E5
:103A60000702509108020E947FC120E030E040E749
:103A700052E40E9480BE20E030E048EC52E40E9414
:103A800080BE28E5C22E26E0D22E7B018C0122E5E5
:103A900036E04EE456E06AE476E086E496E00E9482
:103AA00004528091460690914706A0914806B09135
:103AB00049068093880690938906A0938A06B0935E
:103AC0008B0680914A0690914B06A0914C06B091CE
:103AD0004D0680938C0690938D06A0938E06B0932E
:103AE0008F0680914E0690914F06A0915006B0919E
:103AF00051068093900690939106A0939206B093FE
:103B000093068091520690915306A0915406B0916D
:103B100055068093940690939506A0939606B093CD
:103B200097061F910F91FF90EF90DF90CF9008952F
:103B3000AF92BF92CF92DF92EF92FF920F931F93BB
:103B4000CF93DF93F82EEAE3F6E0248135814681B6
:103B5000578160817181828193810E94ABC0EB01AA
:103B6000182F092F6091250270912602072E000C54
:103B7000880B990B0E942ABF209105023091060202
:103B800040910702509108020E947FC120E030E07E
:103B900040E752E40E9480BE20E030E048EC52E46E
:103BA0000E9480BE5B016C01809158068F93FF924A
:103BB0000F931F93DF93CF9382E0E82E01E020E084
:103BC0004AE356E066E476E088E896E00E94F04A30
:103BD000E8E8F6E0A6E4B6E04D915D916D917C9148
:103BE0001397408351836283738314964D915D9143
:103BF0006D917C91179744835583668377831896DC
:103C00004D915D916D917C911B97408751876287A3
:103C100073871C968D919D910D90BC91A02D8487EA
:103C20009587A687B7870E94700F60939104709361
:103C3000920480939304909394040F900F900F90AC
:103C40000F900F900F90DF91CF911F910F91FF90E8
:103C5000EF90DF90CF90BF90AF900895F8940E94BE
:103C60001E6C159A10926D06179A10926E06429A63
:103C700010926F06A09A9FB7F89480910B01826012
:103C800080930B019FBF60E08CE00E944411E5EB44
:103C9000F9E08491882341F09091C00095FFFCCF1A
:103CA0008093C6003196F5CFEDE7F4E08491882348
:103CB00041F09091C00095FFFCCF8093C6003196F3
:103CC000F5CF8091C00085FFFCCF8AE08093C600CD
:103CD00084E794E00E94269D0E942A16FFCFCF928F
:103CE000DF92EF92FF920F931F930E94700F00914B
:103CF0008D0410918E0420918F0430919004C09017
:103D00009104D0909204E0909304F0909404DC012C
:103D1000CB018C199D09AE09BF09081719072A079D
:103D20003B0730F4012B022B032B11F00E942E1EB7
:103D30008091010290910202A0910302B0910402CD
:103D4000892B8A2B8B2B19F10E94700F0091910403
:103D5000109192042091930430919404DC01CB01E2
:103D6000801B910BA20BB30B009101021091020278
:103D70002091030230910402081719072A073B0714
:103D800030F49091BE0B8091BD0B981741F01F91BC
:103D90000F91FF90EF90DF90CF900C94E851159A1F
:103DA00010926D06179A10926E06429A10926F0644
:103DB000A09A9FB7F89480910B01826080930B01C9
:103DC0009FBFE5CF0E941E6C80918304811138C093
:103DD00081E08093830480912A0690912B06A09124
:103DE0002C06B0912D068093260690932706A0936B
:103DF0002806B0932906E5EBF9E08491882341F089
:103E00009091C00095FFFCCF8093C6003196F5CF0E
:103E1000EEEFF3E08491882341F09091C00095FF8C
:103E2000FCCF8093C6003196F5CF8091C00085FF0E
:103E3000FCCF8AE08093C60084EF93E00C94179D3A
:103E4000089580918304089567707727E82FF0E044
:103E5000E251FD4FE4918E2F90E0FC013697EC305B
:103E6000F10588F58827EC56FF4F8F4F0C94D2C28E
:103E70008091B100887F8093B1008091B100682B60
:103E80006093B100089580919100887F80939100A4
:103E900080919100682B6093910008958091A1001A
:103EA000887F8093A1008091A100682B6093A1007E
:103EB000089580912101887F8093210180912101C3
:103EC000682B6093210108951F93CF93DF93EC013A
:103ED000809158068093840484E50E94C817182FA7
:103EE000811102C010E074C00E94B4170E94F9BE94
:103EF000609384046230B0F3EFEAF9E0949199237F
:103F000041F08091C00085FFFCCF9093C6003196B0
:103F1000F5CFCD36D105B9F054F4C836D105B1F09E
:103F2000C936D10509F045C0E0E3F3E021C0CA3D40
:103F3000D10531F0CD3DD105E1F5EBEEF2E036C033
:103F4000E2E0F3E029C0E9E1F3E01CC0E7E4F3E0DC
:103F50008191882371F19091C00095FFFCCF8093EF
:103F6000C600F6CF9091C00095FFFCCF8093C600AD
:103F700081918111F7CF1DC09091C00095FFFCCFBA
:103F80008093C60081918111F7CF13C09091C0003A
:103F900095FFFCCF8093C60081918111F7CF09C0B6
:103FA0009091C00095FFFCCF8093C6008191811154
:103FB000F7CF40E050E0609184048BE299E00E94EA
:103FC0005D398091C00085FFFCCF8AE08093C600F8
:103FD000812FDF91CF911F9108953F924F925F9271
:103FE0006F927F928F929F92AF92BF92CF92DF9209
:103FF000EF92FF920F931F93CF93DF93CDB7DEB76E
:10400000E4970FB6F894DEBF0FBECDBF87E40E94E1
:10401000C817882309F493C30E94B4170E94F2BE04
:1040200064307105D9F144F46230710521F15CF519
:1040300077FF17C00C9445356A35710509F42AC31A
:1040400034F46C31710509F46FC00C9445356B354F
:10405000710509F423C36C35710509F424C30C946C
:10406000453580918304811106C00E94231C0E9463
:10407000DC1C0C94ED3680918304811104C00E94F5
:10408000A81C81E007C080918304811107C00E94B1
:10409000A81C80E00E94981D0C94ED3687E097E004
:1040A0000E94179D80E50E94C817882339F00E945E
:1040B000B4170E94F9BE6B017C0103C0C12CD12C46
:1040C000760183E50E94C817882361F00E94B41727
:1040D00020E030E04AE754E40E947FC10E94F9BE2C
:1040E0006B017C010E9446660E94700FC60ED71EAF
:1040F000E81EF91E0E94700F609391047093920461
:1041000080939304909394040E94700F6C157D0526
:104110008E059F0510F00C9445350E9457680E944B
:104120006F1E0E94B39DF0CF809105029091060210
:10413000A0910702B0910802809332069093330653
:10414000A0933406B0933506809125029091260203
:10415000909399068093980684E690E090932602C7
:10416000809325020E94700F6093910470939204D3
:10417000809393049093940481E00E944A5E80911E
:10418000880690918906A0918A06B0918B0680934B
:10419000460690934706A0934806B093490680913F
:1041A0008C0690918D06A0918E06B0918F0680931B
:1041B0004A0690934B06A0934C06B0934D0680910F
:1041C000900690919106A0919206B09193068093EB
:1041D0004E0690934F06A0935006B09351068091DF
:1041E000940690919506A0919606B09197068093BB
:1041F000520690935306A0935406B093550610921E
:10420000050210920602109207021092080288E539
:104210000E94C817882311F080E00AC089E50E9437
:10422000C8178111F9CF8AE50E94C81791E0892744
:104230008093090281110CC088E50E94C817882369
:1042400009F47AC189E50E94C817882309F474C16A
:10425000109288061092890610928A0610928B0698
:1042600010928C0610928D0610928E0610928F0678
:10427000E0E7F9E0149124E936E040E956E06CE823
:1042800076E088E896E00E94AC5C8FE799E00E94B7
:104290007E1320E030E040EC5FE30E947FC16B01C1
:1042A0007C01612F110F770B880B990B0E942ABF9D
:1042B0009B01AC01C701B6010E947FC16093460615
:1042C00070934706809348069093490683E899E0E7
:1042D0000E947E13E1E7F9E0149120E030E040EC29
:1042E0005FE30E947FC16B017C01612F110F770B8F
:1042F000880B990B0E942ABF9B01AC01C701B60134
:104300000E947FC160934A0670934B0680934C06CF
:1043100090934D0620912702309128024091290266
:1043200050912A022093050230930602409307021F
:1043300050930802C0902B02D0902C02E0902D02E6
:10434000F0902E02C701B6010E9476BE87FF08C01A
:10435000C0920502D0920602E0920702F092080293
:104360008FE799E00E947E136B017C0183E899E05E
:104370000E947E139B01AC01C701B6010E9498C048
:10438000181614F00C94483583E899E00E947E13C7
:104390006B017C018FE799E00E947E139B01AC01C9
:1043A000C701B6010E9480BE9B01AC010E947FC183
:1043B00020E030E040E85FE30E9481BD0E94FAC146
:1043C0009B01AC0160910502709106028091070289
:1043D000909108020E947FC16093050270930602CB
:1043E000809307029093080220E030E040E752E417
:1043F0006091050270910602809107029091080277
:104400000E9480BE28E5C22E26E0D22E7B018C01C0
:1044100022E536E04EE456E06AE476E086E496E093
:104420000E9404520E94466680E090E00E9484133D
:1044300081E090E00E94841324E936E040E956E0F0
:104440006CE876E088E896E00E94AC5C8091880693
:1044500090918906A0918A06B0918B0680934606BA
:1044600090934706A0934806B093490680918C0626
:1044700090918D06A0918E06B0918F0680934A068A
:1044800090934B06A0934C06B0934D0620E030E08D
:1044900040E752E4609105027091060280910702A4
:1044A000909108020E9480BE7B018C0122E536E0DB
:1044B0004EE456E06AE476E086E496E00E94045218
:1044C0001092050210920602109207021092080242
:1044D0000E9446660E94435E809146069091470680
:1044E000A0914806B091490680938806909389066A
:1044F000A0938A06B0938B0680914A0690914B0652
:10450000A0914C06B0914D0680938C0690938D0639
:10451000A0938E06B0938F0680914E0690914F0621
:10452000A0915006B0915106809390069093910609
:10453000A0939206B09393068091090281110C9486
:10454000523588E50E94C81781110C94523580912C
:10455000090281110C94583589E50E94C817811110
:104560000C94583588E50E94C8178823D1F00E9422
:10457000BD17672B682B692BA1F00E94B4172091FF
:104580007C0630917D0640917E0650917F060E9408
:1045900081BD609388067093890680938A06909304
:1045A0008B0689E50E94C8178823D1F00E94BD17A9
:1045B000672B682B692BA1F00E94B417209180060D
:1045C0003091810640918206509183060E9481BD00
:1045D00060938C0670938D0680938E0690938F0661
:1045E0008091090281110C945E358AE50E94C817FA
:1045F00081110C945E358AE50E94C8178823D1F09A
:104600000E94BD17672B682B692BA1F00E94B4177D
:104610002091840630918506409186065091870648
:104620000E9481BD609390067093910680939206DC
:104630009093930624E936E040E956E06CE876E092
:1046400088E896E00E94AC5C809132069091330637
:10465000A0913406B091350680930502909306022E
:10466000A0930702B0930802809198069091990652
:1046700090932602809325020E94700F609391040C
:104680007093920480939304909394040E94435EE9
:104690000C944535109225060C94453581E08093A5
:1046A00025060C94453585E40E94C817811102C087
:1046B0000E94466619EDA12E13E0B12E0CE7C02E24
:1046C00006E0D02E88E8E82E86E0F82E10E0F5010E
:1046D00081915F010E94C817882331F1133061F482
:1046E0000E94B417F701608371838283938384E906
:1046F00096E00E94335D18C00E94B417F601208135
:104700003181428153810E9481BDF70160837183B1
:104710008283938324E936E040E956E06CE876E052
:1047200088E896E00E94AC5C1F5FF4E0CF0ED11CDD
:1047300024E0E20EF11C143051F60C9445358DE462
:104740000E94C817882311F40C94F4330E94B41704
:104750000E94F2BE6237710511F40C94902B0CF09C
:10476000AFC06F31710509F45AC3A4F56631710504
:1047700009F4F9C1BCF46131710509F4AEC134F436
:104780006230710508F44BC10C94453564317105F4
:1047900009F4B5C10CF0E1C16231710509F4D7C665
:1047A0000C9445356A31710509F412C23CF4683144
:1047B000710509F4F7C10CF4DCC104C26C31710558
:1047C00009F41AC20CF412C26E31710509F44AC21E
:1047D0000C9445356435710509F4B9C6E4F56035C6
:1047E000710509F49CC654F46032710509F479C26C
:1047F0006A32710509F470C30C9445356235710550
:1048000009F49CC60CF09EC60E941E6C0E9446666F
:10481000A09A9FB7F89480910B01826080930B015E
:104820009FBF0E94A566109257061092560668EE2A
:1048300073E080E090E00E94A10F0E9446660E9413
:104840002A1610920A028AE296E00E94179D0E94A0
:10485000B39D0C9445356936710509F48AC324F576
:104860006C35710509F4B3C66836710509F452C395
:104870006535710511F00C94453583E50E94C81724
:104880000E94B41720E030E04AE754E40E947FC160
:104890000E94F9BE60938D0470938E0480938F0400
:1048A000909390040C9445356B36710509F431C62C
:1048B0000CF4FFC56D36710509F487C40C944535B9
:1048C0006C3D710511F40C94572F0CF048C06E3BF1
:1048D000710509F4E8C4ECF46737710509F49CC06C
:1048E00054F46337710509F4F7C66537710509F4A7
:1048F00002C70C9445356937710511F40C94752C79
:1049000014F40C94702C6C38710509F421C30C94C8
:1049100045356C3C710511F40C94212E8CF4693CE6
:10492000710511F40C94E32D6B3C710511F40C949A
:10493000042E683C710511F00C9445350C946A2DD9
:104940006E3C710511F40C949F2E14F40C94412EBE
:104950006A3D710511F40C94BC2E0C944535643FEE
:1049600031E0730711F40C94DD305CF56D3291E0A9
:10497000790711F40C94D12F94F4623E710511F46F
:104980000C948C2F6C32F1E07F0711F40C949D2F66
:104990006D3D710511F00C9445350C94662F6F3206
:1049A00021E0720711F40C94A53014F40C949730A4
:1049B0006039714011F00C9445350E9446660C94A4
:1049C0004535683592E0790711F40C94BB3194F4C5
:1049D000663FF1E07F0711F40C94E33014F40C947B
:1049E000E030673F714011F00C9445350E94627FC2
:1049F0000C944535603A83E0780709F4DCC1673EE2
:104A000093E0790711F40C94DD336335734011F0B2
:104A10000C9445350C94E630EDE6F3E071C786EF73
:104A200096E00E94179D80E50E94C817882339F000
:104A30000E94B4170E94F9BE6B017C0103C0C12C17
:104A4000D12C760183E50E94C817882361F00E946B
:104A5000B41720E030E04AE754E40E947FC10E948E
:104A6000F9BE6B017C010E9446660E94700F609344
:104A70009104709392048093930490939404C114CE
:104A8000D104E104F104C1F00E94700FC60ED71EDC
:104A9000E81EF91E0E94700F6C157D058E059F059E
:104AA000B0F40E947D9E811112C00E9457680E943E
:104AB0006F1E0E94B39DEECF0E947D9E811107C0A4
:104AC0000E9457680E946F1E0E94B39DF5CF87EE2B
:104AD00096E00E94179D0C9445358EED96E00E945D
:104AE000179D159817984298A0989FB7F8948091B1
:104AF0000B018D7F80930B019FBF0C944535EEEC2D
:104B0000F6E08491882341F09091C00095FFFCCF9E
:104B10008093C6003196F5CF8091C00085FFFCCF11
:104B20008AE08093C6008EE996E00E949B74E0ECD8
:104B3000F6E08491882341F09091C00095FFFCCF6E
:104B40008093C6003196F5CF8091C00085FFFCCFE1
:104B50008AE08093C6000C9445358EE996E00E9469
:104B6000F2740C9445358EE996E00E94B9750C9468
:104B7000453500919504109196040C5F1F4F6AE231
:104B800070E0C8010E9410C6009719F0FC0131972F
:104B9000108221E041E0B8018EE996E00E941B7688
:104BA0000C9445358EE996E00E94BD750E94700F09
:104BB0006093890470938A0480938B0490938C048F
:104BC0000C9445358EE996E00E94C4750C944535E9
:104BD0008091A106882311F40C94453583E50E9449
:104BE000C81781110C9464350C9445358EE996E014
:104BF0000E946D7A0C9445358091950490919604AD
:104C00006AE270E004960E9410C68C01892BE1F0E4
:104C100020919F043091A00440E6429FC001439F31
:104C2000900D11246EE470E08B559B4F0E9410C6CE
:104C300060E270E00E9410C6019690939604809303
:104C40009504F80131971082609195047091960453
:104C50006C5F7F4F21E040E08EE996E00E941B767A
:104C60000C9445358091A106882311F40C944535A8
:104C700060E08EE996E00E94267C809195049091F8
:104C800096046AE270E004960E9410C68C01892B9B
:104C9000E1F020919F043091A00440E6429FC001C2
:104CA000439F900D11246EE470E08B559B4F0E9442
:104CB00010C660E270E00E9410C6019690939604C0
:104CC00080939504F801319710826091950470915A
:104CD00096046C5F7F4F8EE996E00E9433790C94C6
:104CE00045358091A00681110E9446660091950489
:104CF000109196040C5F1F4F6AE270E0C8010E9499
:104D000010C67C0161E270E0C8010E9410C60097E5
:104D100019F08C010F5F1F4FE114F10419F0F70136
:104D20003197108280E50E94C817F82E8091950473
:104D3000909196040817190708F4F12C8091A106A8
:104D4000882311F40C94453521E02F2541E0B8016A
:104D50008EE996E00E941B7683E50E94C81788239F
:104D6000B9F080919504909196048017910780F492
:104D70000E94BD17AB01BC01409321095093220949
:104D800060932309709324098CE698E00E94AD405B
:104D90008EE996E00E94BD75F1100C9445350E9495
:104DA000700F6093890470938A0480938B049093AE
:104DB0008C040C94453580919504909196046AE298
:104DC00070E005960E9410C68C01892BE1F02091BD
:104DD0009F043091A00440E6429FC001439F900D84
:104DE00011246EE470E08B559B4F0E9410C660E268
:104DF00070E00E9410C601969093960480939504EB
:104E0000F8013197108260919504709196046B5F60
:104E10007F4F8EE996E00E942D790C9445350E94D3
:104E2000700F609385047093860480938704909339
:104E300088040091890410918A0420918B04309198
:104E40008C04601B710B820B930B28EE33E040E067
:104E500050E00E9491C2CA01B9012CE330E040E069
:104E600050E00E9491C27F936F933F932F9381EB09
:104E700096E09F938F938E010F5F1F4F1F930F93A9
:104E80000E943FC6EFEAF9E094910FB6F894DEBFB6
:104E90000FBECDBF992349F08091C00085FFFCCFA4
:104EA0009093C60031969491F5CFF80181918823B3
:104EB00039F09091C00095FFFCCF8093C600F6CFEB
:104EC0008091C00085FFFCCF8AE08093C600C801B6
:104ED0000E94089D0C94453583E50E94C8178823DD
:104EE00011F40C9445350E94B4176B017C0180E5E8
:104EF0000E94C817882311F40C944535C701B601E8
:104F00000E94F2BE6F3F710509F010F40C947535E4
:104F10000C94453588E690E00E94641F81110C9442
:104F2000453583E50E94C817882371F000918404F9
:104F30000E94B41710E0000F111F0C511E4E0E946A
:104F4000F2BEF801718360830E94B16B0C94453509
:104F500083E50E94C817882311F40C9445350E94FC
:104F6000B4170E94F2BE7093E3116093E2110C94A7
:104F7000453589E690E00E94641F81110C94453507
:104F8000EBEAF6E08491882341F09091C00095FF10
:104F9000FCCF8093C6003196F5CFE091840424E0E5
:104FA000E29FF0011124EA52FE4E4081518162815C
:104FB000738121E030E08BE299E00E94033AE8EA55
:104FC000F6E08491882341F09091C00095FFFCCFDA
:104FD0008093C6003196F5CFE0918404F0E0EE0FA7
:104FE000FF1FEC51FE4E60817181072E000C880B73
:104FF000990B0E942ABFAB01BC0121E030E08BE29B
:1050000099E00E94033AE4EAF6E08491882341F0B3
:105010009091C00095FFFCCF8093C6003196F5CFEC
:105020004091D0115091D1116091D2117091D31152
:1050300021E030E08BE299E00E94033AE1EAF6E0F9
:105040008491882341F09091C00095FFFCCF80931C
:10505000C6003196F5CF6091E2117091E311072EF1
:10506000000C880B990B0E942ABFAB01BC0121E008
:1050700030E08BE299E00E94033A54EEC52E51E1F4
:10508000D52E66EDA62E61E1B62E00E010E07EE999
:10509000472E76E0572EECE98E2EE6E09E2EF9E9BB
:1050A0006F2EF6E07F2EF2018491EEE9F6E0882380
:1050B00049F09091C00095FFFCCF8093C6003196D7
:1050C0008491F5CF4AE050E0B8018BE299E00E946C
:1050D0002339F4018491ECE9F6E0882349F09091BA
:1050E000C00095FFFCCF8093C60031968491F5CF28
:1050F000F50141915191619171915F0121E030E0A1
:105100008BE299E00E94033AF3018491E9E9F6E029
:10511000882349F09091C00095FFFCCF8093C60092
:1051200031968491F5CFF601619171916F01072E4F
:10513000000C880B990B0E942ABFAB01BC0121E037
:1051400030E08BE299E00E94033A0130110519F03A
:1051500001E010E0A8CFE5E9F6E08491882341F072
:105160009091C00095FFFCCF8093C6003196F5CF9B
:105170008091840490E00E944C684AE050E0BC01B9
:105180008BE299E00E942339E0E9F6E084918823DC
:1051900041F09091C00095FFFCCF8093C6003196FE
:1051A000F5CF8FEF9FEF0E944C684AE050E0BC01C2
:1051B0008BE299E00E9423398091C00085FFFCCFEB
:1051C0008AE08093C6000C94ED368DE690E00E9454
:1051D000641F81110C94453585E896E00E94179D67
:1051E00083E50E94C817882391F0009184040E94EF
:1051F000B41710E0000F111F0C511E4E0E94F2BE9A
:10520000F8017183608381E08093000215C082E51C
:105210000E94C817882381F0009184040E94B4176B
:1052200010E0000F111F0C511E4E0E94F2BEF8013B
:1052300071836083109200020E94B16B0E94700F14
:105240002B013C010091840410E0F801EE0FFF1FD8
:10525000EC51FE4E60817181072E000C880B990B7A
:105260000E942ABF000F111F000F111FF801EA5200
:10527000FE4E11E020813181428153810E9498C00D
:1052800018160CF010E01093820488248A94982C4D
:105290005401B8EECB2EB3E0DB2EE12CF12C1AE05A
:1052A000312E0C94D8358FE596E00E94179D83E54A
:1052B0000E94C817882361F00E94B4170E94F2BEB2
:1052C0007093E3116093E21181E0809300020FC0BC
:1052D00082E50E94C817882351F00E94B4170E94EB
:1052E000F2BE7093E3116093E211109200020E94EB
:1052F000700F4B015C016091E2117091E311072E78
:10530000000C880B990B0E942ABF11E02091D0114C
:105310003091D1114091D2115091D3110E9498C077
:1053200018160CF010E0109382040CE516E098E5D6
:10533000E92E96E0F92E24E5C22E26E0D22E3AE0A0
:10534000732E809182046091E2117091E3118823A1
:1053500009F488C0072E000C880B990B0E942ABF05
:105360002091D0113091D1114091D2115091D3118F
:105370000E9498C018160CF08CC00E94700FDC01BF
:10538000CB0188199909AA09BB09893E9340A10557
:10539000B10508F460C0E091580634E0E39FF001E5
:1053A0001124EA52FE4E4081518162817381F801DD
:1053B0008491ECE5F6E0882349F09091C00095FFD8
:1053C000FCCF8093C60031968491F5CF22E030E087
:1053D0008BE299E00E94033AF7018491E8E5F6E058
:1053E000882349F09091C00095FFFCCF8093C600C0
:1053F00031968491F5CF6091580670E04AE050E014
:105400008BE299E00E942339F6018491E4E5F6E00D
:10541000882349F09091C00095FFFCCF8093C6008F
:1054200031968491F5CF4091D0115091D111609176
:10543000D2117091D31121E030E08BE299E00E940B
:10544000033A8091C00085FFFCCF7092C6000E9495
:10545000700F4B015C010E9457680E946F1E0E94F2
:10546000B39D6FCF072E000C880B990B0E942ABFAB
:105470002091D0113091D1114091D2115091D3117E
:105480000E9476BE87FF05C080910002882309F440
:1054900074CF8AE496E00E94179D0E94700F60937B
:1054A00091047093920480939304909394040C94C9
:1054B000453583E50E94C817882319F10E94B41767
:1054C00020E030E0A9010E9476BE87FD0FC00E9457
:1054D000B41720E030E04FE753E40E9498C018165C
:1054E00044F00E94B4170E94F2BE05C060E070E074
:1054F00002C06FEF70E070935706609356060C94ED
:1055000045358FEF90E090935706809356060C94A4
:10551000453510925706109256060C944535269A3A
:105520002E98809A889A81E080930A0289E396E017
:105530000E94179D0E94B39D0C94453510929D06C4
:105540000C94453581E080939D060C94453583E5A8
:105550000E94C8178823A1F00E94B41720E030E011
:105560004AE754E40E947FC10E94F9BE60930102A1
:105570007093020280930302909304020C944535C9
:1055800088E50E94C81781110C94C33689E50E94F2
:10559000C81781110C94C3368AE50E94C81781117F
:1055A0000C94C33685E40E94C81781110C94C3364D
:1055B0000E944666A09A9FB7F89480910B01826082
:1055C00080930B019FBF0E94A5660C944535B9EDF1
:1055D0008B2EB3E09B2E0FEE10E18FEFA82E80E113
:1055E000B82E23EB30E138AB2FA7312CF401819199
:1055F0004F010E94C817882309F45DC0F3E03F12F1
:1056000053C00E94B4172B013C0120E030E040EA77
:1056100051E40E9476BE87FF41C0A3019201F801C8
:1056200060817181828193810E9480BE6B017C01C7
:105630009B01AC016091C7107091C8108091C91096
:105640009091CA100E947FC16093C7107093C810D8
:105650008093C9109093CA10A7019601F50160814B
:105660007181828193810E947FC1F5016083718382
:1056700082839383EFA5F8A96081718182819381F0
:105680000E9428BFA70196010E947FC10E94F9BE17
:10569000EFA5F8A96083718382839383F801408228
:1056A00051826282738207C00E94B417F80160833E
:1056B00071838283938333940C5F1F4FF4E0AF0EAA
:1056C000B11C2FA538A92C5F3F4F38AB2FA734E072
:1056D00033128CCF0C944535E0E6F5E084918823B5
:1056E00011F40C9445359091C00095FFFCCF809348
:1056F000C6003196F3CF00919504109196040B5F8C
:105700001F4F6AE270E0C8010E9410C6009719F0AE
:10571000FC0131971082C8010E94089D0C94453508
:10572000EDE5F5E08491882341F09091C00095FF6C
:10573000FCCF8093C6003196F5CF409188065091FA
:10574000890660918A0670918B0622E030E08BE238
:1057500099E00E94033AE9E5F5E08491882341F05D
:105760009091C00095FFFCCF8093C6003196F5CF95
:1057700040918C0650918D0660918E0670918F0637
:1057800022E030E08BE299E00E94033AE5E5F5E0A3
:105790008491882341F09091C00095FFFCCF8093C5
:1057A000C6003196F5CF40919006509191066091D8
:1057B00092067091930622E030E08BE299E00E941D
:1057C000033AE1E5F5E08491882341F09091C0002F
:1057D00095FFFCCF8093C6003196F5CF409194069B
:1057E00050919506609196067091970622E030E000
:1057F0008BE299E00E94033AE6E4F5E08491882385
:1058000041F09091C00095FFFCCF8093C600319687
:10581000F5CF0E9497660E942ABF2091EF10309129
:10582000F0104091F1105091F2100E9480BEAB0137
:10583000BC0122E030E08BE299E00E94033AE2E40E
:10584000F5E08491882341F09091C00095FFFCCF52
:105850008093C6003196F5CF81E00E9497660E9442
:105860002ABF2091F3103091F4104091F51050911F
:10587000F6100E9480BEAB01BC0122E030E08BE25A
:1058800099E00E94033AEEE3F5E08491882341F029
:105890009091C00095FFFCCF8093C6003196F5CF64
:1058A00082E00E9497660E942ABF2091F7103091F3
:1058B000F8104091F9105091FA100E9480BEAB018F
:1058C000BC0122E030E08BE299E00E94033A809133
:1058D000C00085FFFCCF8AE08093C6000C9445355C
:1058E00080E00E944A5E0C94453581E00E944A5E49
:1058F0000C9445359091C00095FFFCCF8093C60075
:1059000081918111F7CF8091C00085FFFCCF8AE0A3
:105910008093C600E6E3F5E08491882341F09091FE
:10592000C00095FFFCCF8093C6003196F5CF009B59
:1059300003C0E8E6F3E009C0EEE5F3E006C09091AD
:10594000C00095FFFCCF8093C60081918111F7CFF5
:105950008091C00085FFFCCF8AE08093C600EEE214
:10596000F5E08491882341F09091C00095FFFCCF31
:105970008093C6003196F5CF029B03C0E8E6F3E0C2
:1059800009C0EEE5F3E006C09091C00095FFFCCFA2
:105990008093C60081918111F7CF8091C00085FF6F
:1059A000FCCF8AE08093C600E6E2F5E0849188238C
:1059B00041F09091C00095FFFCCF8093C6003196D6
:1059C000F5CF049B03C0E8E6F3E009C0EEE5F3E0A1
:1059D00006C09091C00095FFFCCF8093C6008191D6
:1059E0008111F7CF8091C00085FFFCCF8AE08093C2
:1059F000C600EEE1F5E08491882341F09091C0006B
:105A000095FFFCCF8093C6003196F5CF069B03C06F
:105A1000E8E6F3E009C0EEE5F3E006C09091C000CF
:105A200095FFFCCF8093C60081918111F7CF8091C3
:105A3000C00085FFFCCF8AE08093C600E6E1F5E078
:105A40008491882341F09091C00095FFFCCF809312
:105A5000C6003196F5CF379B03C0E8E6F3E009C0F6
:105A6000EEE5F3E006C09091C00095FFFCCF809377
:105A7000C60081918111F7CF8091C00085FFFCCFD6
:105A80008AE08093C600EEE0F5E08491882341F03F
:105A90009091C00095FFFCCF8093C6003196F5CF62
:105AA000359B03C0E8E6F3E009C0EEE5F3E006C08D
:105AB0009091C00095FFFCCF8093C6008191811129
:105AC000F7CF8091C00085FFFCCF8AE08093C600AD
:105AD0000C94453584E40E94C817882311F40C9473
