:100000000C949B0E0C9458110C9489110C94BA11F9
:100010000C94EB110C941C120C944D120C947E1247
:100020000C94AF120C94CC0E0C94CC0E0C94CC0E01
:100030000C94CC0E0C940B840C94CC0E0C94CC0E23
:100040000C94CC0E0C94625C0C94CC0E0C94CC0EE4
:100050000C94CC0E0C94CC0E0C94EE6C0C94CE0E36
:100060000C94CC0E0C94F5350C94CC0E0C94CC0E58
:100070000C94CC0E0C94CC0E0C94CC0E0C94CC0E98
:100080000C94CC0E0C94CC0E0C94CC0E0C94CC0E88
:100090000C94CC0E0C94CC0E0C94CC0E0C94CC0E78
:1000A0000C94CC0E0C94CC0E0C94CC0E0C94CC0E68
:1000B0000C94CC0E0C94CC0E0C94CC0E0C94CC0E58
:1000C0000C94CC0E0C94CC0E0C94CC0E0C94CC0E48
:1000D0000C94CC0E0C94CC0E0C94CC0E0C94CC0E38
:1000E0000C94CC0E041009100E1018109110221050
:1000F0002A1032103C10461050105F1069109110F9
:1001000073107D108710B110B410A710AB10EB1056
:10011000B810BC10C210C610CA10D010D410D8101D
:10012000EB10DE10E210E610D01ED01EDB1EDB1E30
:10013000DB1EE61EE61EE61EFB1EF11EF11EF11E74
:10014000396D486D646D736D8D6D9C6DB66DBA6D56
:10015000C26D084AD73B3BCE016E84BCBFFDC12FA8
:100160003D6C74319ABD56833DDA3D00C77F11BEA8
:10017000D9E4BB4C3E916BAAAABE000000803F05AB
:10018000A84CCDB2D44EB93836A9020C50B99186DC
:1001900088083CA6AAAA2ABE000000803F000C9452
:1001A000B4B40C94C2350C9422100C9456890C945F
:1001B000299B0C94B1100C94BC100C947D100C94E1
:1001C0003C100C943C8A0C9437AD0C942A100C947F
:1001D00072890C9480B00C94ADB00C94EB100C941C
:1001E000646D0C949E8D0C947DAE0C94A0AC0C941C
:1001F0008D6D0C94AB100C94D0100C94486D0C9435
:100200005F100C94B4100C9469100C9492990C9497
:100210001CAB0C94B66D0C943EA60C94E6100C949A
:10022000E2100C9491100C9464890C9409100C94B5
:1002300050100C94C6100C94288A0C94D1A90C94DC
:1002400032100C9487100C941EAA0C94BE350C949A
:10025000F11E0C94DB1E0C94FB1E0C945D900C9410
:10026000C26D0C94396D0C9420AC0C94DE100C947F
:1002700018100C94C8AF0C94D01E0C949A9F0C9438
:10028000BA6D0C9464440C94B8100C94DAAD0C94D0
:100290000E100C9404100C94CA100C94736D0C94F2
:1002A00020AF0C9438860C949C6D0C94F68A0C94B8
:1002B0009EAB0C94E0120C9446100C949AAA0C94E9
:1002C000D8100C9473100C94FB970C94A7100C94FA
:1002D000D4100C94C3920C94E61E0C946F5B0C9497
:1002E000C2100C949E870000090A02080B0C0D072F
:1002F00006030401000000000000000000000000F0
:1003000000000000000000000000000000000000ED
:10031000000011100F0000000000000000000000AD
:10032000000000000000000000000000010210209A
:10033000200808102040102040800201020108041B
:1003400002010102040810204080804020100804AF
:100350000201800402018040201008040201080408
:10036000020101020408102040800102040810204C
:100370004080050505050705080808080202020275
:100380000A0A080804040404010101010101010131
:100390000303030303030303040707070C0C0C0CFC
:1003A0000C0C0C0C020202020606060606060606E5
:1003B0000B0B0B0B0B0B0B0B000022002500280076
:1003C0002B002E003100340002010000050108015D
:1003D0000B0100002100240027002A002D0030001E
:1003E000330001010000040107010A0153544F507A
:1003F0005045442E20005072696E746572207374EB
:100400006F707065642064756520746F206572720A
:100410006F72732E20466978207468652065727249
:100420006F7220616E6420757365204D39393920F3
:10043000746F20726573746172742E202854656D18
:100440007065726174757265206973207265736579
:10045000742E20536574206974206166746572205F
:1004600072657374617274696E6729004B494C4CF4
:1004700045442E20005072696E7465722068616C6C
:100480007465642E206B696C6C28292063616C6C28
:10049000656421006F6B00526573656E643A2000DD
:1004A0002200556E6B6E6F776E20636F6D6D616E9F
:1004B000643A2022004368616E67652066696C615A
:1004C0006D656E74005A204F6666736574203A201D
:1004D000007A5F6D61783A20007A5F6D696E3A202C
:1004E000005A204F6666736574005A204F66667323
:1004F0006574206F6B007A5F6D61783A20007A5FD7
:100500006D696E3A2000795F6D61783A2000795FFD
:100510006D696E3A2000785F6D61783A2000785FEF
:100520006D696E3A2000205A3A0020593A00204363
:100530006F756E7420583A200020453A00205A3AD0
:100540000020593A00583A004649524D5741524509
:100550005F4E414D453A4D61726C696E2056313B9C
:1005600020537072696E7465722F6772626C206DB1
:10057000617368757020666F722067656E362046FD
:1005800049524D574152455F55524C3A6874747008
:100590003A2F2F6669726D776172652E756C74697A
:1005A0006D616B65722E636F6D2050524F544F43D7
:1005B0004F4C5F56455253494F4E3A312E30204DE5
:1005C000414348494E455F545950453A556C74690A
:1005D0006D616B65722045585452554445525F43D6
:1005E0004F554E543A3120555549443A3030303009
:1005F000303030302D303030302D303030302D3004
:100600003030302D303030303030303030303030ED
:100610000A00556C74696D616B6572204F66662EB9
:1006200000556C74696D616B6572207265616479E7
:100630002E0042656420646F6E652E0020423A00F1
:1006400020453A00543A0042656420486561746967
:100650006E672E0048656174696E6720646F6E6511
:100660002E0020573A0020453A00543A0048656170
:1006700074696E672E2E2E002042403A0020403AC8
:1006800000202F003A00205400202F0020423A0082
:10069000202F006F6B20543A002569206D696E2C65
:1006A0002025692073656300456E642066696C656A
:1006B000206C69737400426567696E2066696C65B9
:1006C000206C697374004E6F206D6F76652E00523A
:1006D0006573756D696E67207072696E740057611D
:1006E000697420666F7220757365722E2E2E00530A
:1006F0006C6565702E2E2E00256920686F757273EB
:10070000202569206D696E7574657300446F6E6590
:10071000207072696E74696E672066696C6500533B
:10072000544F505045442E20005072696E746572CB
:100730002073746F707065642064756520746F2019
:100740006572726F72732E20466978207468652016
:100750006572726F7220616E6420757365204D3909
:10076000393920746F20726573746172742E202879
:1007700054656D706572617475726520697320725D
:10078000657365742E2053657420697420616674E6
:1007900065722072657374617274696E6729006F87
:1007A0006B004E6F204C696E65204E756D626572F0
:1007B000207769746820636865636B73756D2C209E
:1007C0004C617374204C696E653A20004E6F204373
:1007D0006865636B73756D2077697468206C696EEA
:1007E00065206E756D6265722C204C617374204CAF
:1007F000696E653A2000636865636B73756D206D83
:1008000069736D617463682C204C617374204C694A
:100810006E653A20004C696E65204E756D6265729A
:10082000206973206E6F74204C617374204C696E64
:1008300065204E756D6265722B312C204C6173748E
:10084000204C696E653A20004D31313000446F6EA6
:100850006520736176696E672066696C652E006F2E
:100860006B004D3239002020506C616E6E65724213
:10087000756666657242797465733A200020467227
:100880006565204D656D6F72793A20004D61792064
:100890003135203230313700436F6D70696C6564DB
:1008A0003A200028446176696420427261616D29B2
:1008B00000207C20417574686F723A20004D617988
:1008C00020313520323031372032303A33393A3323
:1008D0003200204C61737420557064617465643A11
:1008E0002000312E302E30004D61726C696E002078
:1008F000536F66747761726520526573657400206A
:100900005761746368646F67205265736574002073
:1009100042726F776E206F75742052657365740034
:100920002045787465726E616C2052657365740041
:10093000506F776572557000737461727400220095
:10094000656E717565696E672022002200656E71A3
:100950007565696E67202200FFFFFF0000A0400060
:1009600000A0400000004000004D4300004D430047
:1009700000484300000000000000000000000000EC
:10098000004D4300004D43000048430000000000BC
:10099000000000000000006563686F3A0045727255
:1009A0006F723A0041414141E1414143454545456E
:1009B0004949494944EE4F4F4F4FEF784F555555F0
:1009C000F55954E261616161E16161636565656585
:1009D0006969696964EE6F6F6F6FEFFD6F757575AB
:1009E000F5797479007C3C3E5E2B3D3F2F5B5D3B8F
:1009F0002C2A225C0020746F6F206C6F6E6720655C
:100A00007874727573696F6E2070726576656E7436
:100A100065640020636F6C64206578747275736917
:100A20006F6E2070726576656E74656400656368CC
:100A30006F3A00656E6473746F7073206869743AFE
:100A4000205A00205A3A00656E6473746F707320E8
:100A50006869743A20590020593A00656E647374CD
:100A60006F7073206869743A20580020583A006506
:100A70006E6473746F7073206869743A200024F494
:100A8000D43050C38E20C2A24017828B7011127ACC
:100A9000910D816CD90AA861E108C75866076151B8
:100AA00043061E4B5D05C145A7041A411104093DCB
:100AB0009803713931034036DB0265339102D4303B
:100AC0005402802E1D02632CEE01752AC501B02848
:100AD000A001102781018F2564012B244B01E02206
:100AE0003401AC211F018D200D01801FFC00841EEC
:100AF000ED00971DDF00B81CD200E61BC600201BCE
:100B0000BC00641AB200B219A8000A19A0006A1841
:100B10009900D117910040178B00B516840031164B
:100B20007E00B31579003A157300C7146F0058148E
:100B30006A00EE1366008813630025135E00C71277
:100B40005B006C12570015125400C1115100701156
:100B50004F0021114B00D61049008D104700461060
:100B6000440002104200C00F4000800F3E00420FC0
:100B70003C00060F3B00CB0E3800930E37005C0E96
:100B80003500270E3400F30D3200C10D3100900DF9
:100B90003000600D2E00320D2D00050D2C00D90CFB
:100BA0002B00AE0C2900850C29005C0C2700350CAD
:100BB00027000E0C2600E80B2400C40B2400A00B19
:100BC00023007D0B23005A0B2100390B2100180B49
:100BD0002000F80A1F00D90A1E00BB0A1E009D0A49
:100BE0001D00800A1D00630A1C00470A1B002C0A16
:100BF0001B00110A1A00F7091A00DD091900C409BF
:100C00001900AB091900920917007B091800630944
:100C100017004C09160036091600200916000A09AB
:100C20001500F5081500E0081400CC081400B808F9
:100C30001400A4081400900813007D0812006B082B
:100C40001300580812004608120034081100230847
:100C500011001208110001081100F0071000E00750
:100C60001000D0071000C0071000B0070F00A10748
:100C7000100091070E0083070F0074070F0065072F
:100C80000E0057070E0049070E003B070D002E0708
:100C90000E0020070D0013070D0006070D00F906D2
:100CA0000C00ED060D00E0060C00D4060C00C80692
:100CB0000C00BC060C00B0060C00A4060B00990644
:100CC0000C008D060B0082060B0077060B006C06ED
:100CD0000B0061060A0057060B004C060A0042068C
:100CE0000A0038060A002E060A0024060A001A0620
:100CF0000A001006090007060A00FD050900F405B0
:100D00000900EB050900E2050900D9050900D00535
:100D10000900C7050900BE050900B5050800AD05B5
:100D20000800A50509009C050800940508008C052D
:100D30000800840508007C050800740508006C059F
:100D40000700650508005D050700560508004E050B
:100D50000700470507004005080038050700310572
:100D600007002A050700230507001C0506001605D5
:100D700007000F0507000805060002050700FB0431
:100D80000600F5040700EE040600E8040600E2048D
:100D90000700DB040600D5040600CF040600C904E2
:100DA0000600C3040600BD040600B7040600B10433
:100DB0000500AC040600A6040600A00405009B0480
:100DC000060095040500900406008A0405008504C9
:100DD0000500800406007A0405007504050070040F
:100DE00005006B04050066040500610405005C0451
:100DF000050057040500520405004D040500480491
:100E00000500430405003E0404003A0405003504CF
:100E10000500300404002C0405002704040023040A
:100E200005001E0404001A04040016040500110441
:100E300004000D0404000904050004040400000477
:100E40000400FC030400F8030400F4030400F003AE
:100E50000400EC030400E8030400E4030400E003DE
:100E60000400DC030400D8030400D4030400D0030E
:100E70000400CC030400C8030300C503030024F4EA
:100E800004D9201BC40C5C0E9804C4095F026507DA
:100E90007101F405F900FB04B30048048700C103A5
:100EA00069005803550003034500BE023A0084025E
:100EB000310053022A002902250004022000E40127
:100EC0001C00C8011900AF0117009801140084012B
:100ED0001300710110006101100051010E00430167
:100EE0000D0036010B002B010B0020010B0015013A
:100EF00009000C01090003010800FB000800F300D1
:100F00000800EB000700E4000600DE000600D80041
:100F10000600D2000600CC000500C7000500C20094
:100F20000500BD000400B9000400B5000400B100D4
:100F30000400AD000400A9000400A5000300A20005
:100F400003009F0004009B0003009800030095002D
:100F5000020093000300900003008D0002008B004C
:100F60000300880002008600020084000300810064
:100F700002007F0002007D0002007B000200790079
:100F80000200770001007600020074000200720087
:100F90000100710002006F0002006D0001006C0092
:100FA00002006A000100690002006700010066009B
:100FB00001006500010064000200620001006100A0
:100FC0000100600001005F0002005D0001005C00A4
:100FD00001005B0001005A000100590001005800A7
:100FE00001005700010056000100550001005400A7
:100FF00001005300000053000100520001005100A5
:101000000100500001004F0001004E0000004E00A2
:1010100001004D0001004C0001004B0000004B009E
:1010200001004A000100490001004800000048009A
:101030000100470001004600000046000100450095
:10104000000045000100440001004300000043008F
:101050000100420000004200010041000000410088
:101060000100400001003F0000003F0001003E0081
:1010700000003E0001003D0000003D0001003C007A
:1010800000003C0000003C0001003B0000003B0071
:1010900001003A0000003A00010039000000390068
:1010A000010038000000380000003800010037005F
:1010B0000000370001003600000036000000360056
:1010C000010035000000350000003500010034004B
:1010D0000000340000003400010033000000330041
:1010E0000000330001003200000032000000320036
:1010F000010031000000310000003100010030002B
:10110000000030000000300001002F0000002F0020
:1011100000002F0000002F0001002E0000002E0014
:1011200000002E0001002D0000002D0000002D0009
:1011300000002D0001002C0000002C0000002C00FD
:1011400000002C0001002B0000002B0000002B00F1
:1011500000002B0001002A0000002A0000002A00E5
:1011600000002A00010029000000290000002900D9
:1011700000002900000029000100280000002800CC
:1011800000002800000028000000280001002700BF
:1011900000002700000027000000270000002700B3
:1011A00001002600000026000000260000002600A6
:1011B0000000260001002500000025000000250099
:1011C000000025000000250000002500010024008B
:1011D000000024000000240000002400000024007F
:1011E0000100230000002300000023000000230072
:1011F0000000230000002300000023000100220063
:101200000000220000002200000022000000220056
:101210000000220001002100000021000000210048
:10122000000021000000210000002100000021003A
:10123000010020000000200000002000000020002D
:10124000000020000000200000002000000020001E
:1012500001001F0000001F0000001F0000001F0011
:1012600000001F0000001F0000001F0001001E0002
:1012700000001E0000001E0000001E00000065634C
:10128000686F3A004572723A204D494E54454D50B0
:10129000003A2045787472756465722073776974BA
:1012A00063686564206F66662E204D494E54454D37
:1012B0005020747269676765726564202100457209
:1012C000723A204D415854454D50003A20457874AB
:1012D0007275646572207377697463686564206FE2
:1012E00066662E204D415854454D502074726967F2
:1012F000676572656420210048656174696E6720C6
:101300006661696C656400202D20496E76616C69A8
:1013100064206578747275646572206E756D62659F
:1013200072202100504944204175746F74756E65B8
:101330002066696E69736865642120507574207435
:101340006865206C617374204B702C204B692061A0
:101350006E64204B6420636F6E7374616E747320CF
:1013600066726F6D2061626F766520696E746F20A2
:10137000436F6E66696775726174696F6E2E68007F
:10138000504944204175746F74756E6520666169BB
:101390006C6564212074696D656F75740020403A36
:1013A000006F6B20543A006F6B20423A0050494462
:1013B000204175746F74756E65206661696C656433
:1013C000212054656D706572617475726520746F4B
:1013D0006F206869676800204B643A2000204B69E1
:1013E0003A2000204B703A200020436C61737369EF
:1013F000632050494420002054753A2000204B754A
:101400003A2000206D61783A2000206D696E3A2004
:101410000020643A200020626961733A200065630D
:10142000686F3A004572726F723A004D3834205836
:101430002059205A20450043616E6E6F7420656EFE
:10144000746572207375626469723A20004D32349B
:10145000004D3233202573006175746F25692E6746
:10146000006572726F722077726974696E6720749A
:101470006F2066696C65004E6F7420534420707253
:10148000696E74696E67002F005344207072696E34
:1014900074696E67206279746520002E0044656C63
:1014A0006574696F6E206661696C65642C2046699D
:1014B0006C653A200046696C652064656C657465EE
:1014C000643A002E006F70656E206661696C656419
:1014D0002C2046696C653A200057726974696E6702
:1014E00020746F2066696C653A20002E006F70656D
:1014F0006E206661696C65642C2046696C653A20D3
:10150000002E006F70656E206661696C65642C202A
:1015100046696C653A200046696C652073656C65A8
:1015200063746564002053697A653A200046696CEB
:1015300065206F70656E65643A20002E006F7065DF
:101540006E206661696C65642C2046696C653A2082
:10155000004E6F772066726573682066696C653A25
:1015600020004E6F7720646F696E672066696C6536
:101570003A20002220706F73002220706172656E25
:10158000743A2200535542524F5554494E45204318
:10159000414C4C207461726765743A220074727910
:1015A000696E6720746F2063616C6C207375622DA7
:1015B00067636F64652066696C657320776974681A
:1015C00020746F6F206D616E79206C6576656C7329
:1015D0002E204D4158206C6576656C2069733A0069
:1015E00053442063617264206F6B006F70656E52AC
:1015F0006F6F74206661696C656400766F6C756DE1
:10160000652E696E6974206661696C656400534477
:1016100020696E6974206661696C006563686F3A61
:10162000004572726F723A0048617264636F64655C
:10163000642044656661756C742053657474696ECA
:101640006773204C6F616465640053746F726564E6
:101650002073657474696E6773207265747269654E
:10166000766564002044002049002020204D33305E
:10167000312050005049442073657474696E67735B
:101680003A00205A0020590020204D323036205890
:1016900000486F6D65206F666673657420286D6DF8
:1016A000293A00204500205A0020580020420020FE
:1016B000540020204D323035205300416476616E55
:1016C000636564207661726961626C65733A205368
:1016D0003D4D696E20666565647261746520286D94
:1016E0006D2F73292C20543D4D696E2074726176E4
:1016F000656C20666565647261746520286D6D2F68
:1017000073292C20423D6D696E696D756D2073657E
:10171000676D656E742074696D6520286D73292C62
:1017200020583D6D6178696D756D205859206A6546
:10173000726B20286D6D2F73292C20205A3D6D610E
:1017400078696D756D205A206A65726B20286D6D01
:101750002F73292C2020453D6D6178696D756D20B2
:1017600045206A65726B20286D6D2F732900205407
:101770000020204D323034205300416363656C6596
:10178000726174696F6E3A20533D616363656C6585
:10179000726174696F6E2C20543D7265747261635E
:1017A0007420616363656C65726174696F6E00209B
:1017B0004500205A0020590020204D323031205859
:1017C000004D6178696D756D20416363656C65726C
:1017D0006174696F6E20286D6D2F7332293A002075
:1017E0004500205A0020590020204D323033205827
:1017F000004D6178696D756D206665656472617410
:10180000657320286D6D2F73293A00204500205AFA
:101810000020590020204D39322058005374657043
:10182000732070657220756E69743A005365747424
:10183000696E67732053746F726564006563686FC7
:101840003A0002436172642072656D6F76656400D0
:101850004361726420696E736572746564002D2D36
:101860003A2D2D002D2D2D0053440020590001202C
:10187000004D363030004368616E67652066696CE4
:10188000616D656E7400466C6F77203000466C6F3A
:1018900077203000466C6F7700466C6F77004661AA
:1018A0006E2073706565640046616E2073706565B7
:1018B00064004E6F7A7A6C65004E6F7A7A6C6500C0
:1018C0005370656564005370656564004D61696EB1
:1018D00000580059005A00457874727564657200AA
:1018E0004578747275646572004D6F7665205A0094
:1018F0004D6F76652059004D6F76652058004D6F0D
:1019000076652061786973004D6F766520302E31E1
:101910006D6D004D6F766520316D6D004D6F766594
:101920002031306D6D0050726570617265004D6FD1
:1019300076652061786973004D383000537769749B
:10194000636820706F776572206F6E004D383100CC
:1019500053776974636820706F776572206F66666D
:1019600000436F6F6C646F776E00507265686561DD
:101970007420414253005072656865617420504C78
:101980004100473238004175746F20686F6D650003
:101990004D38340044697361626C652073746570FE
:1019A00070657273004D61696E0053746F726520CB
:1019B0006D656D6F7279004E6F7A7A6C65004E6F4F
:1019C0007A7A6C650046616E2073706565640046C6
:1019D000616E2073706565640054656D7065726139
:1019E000747572650053746F7265206D656D6F72EA
:1019F00079004E6F7A7A6C65004E6F7A7A6C65006A
:101A000046616E2073706565640046616E20737078
:101A10006565640054656D7065726174757265000A
:101A2000507265686561742041425320636F6E6631
:101A3000005072656865617420504C4120636F6E80
:101A400066005049442D43005049442D43005049FD
:101A5000442D44005049442D44005049442D490030
:101A60005049442D49005049442D50005049442DBF
:101A7000500046616E2073706565640046616E209B
:101A80007370656564004E6F7A7A6C65004E6F7A8C
:101A90007A6C6500436F6E74726F6C004573746589
:101AA00070732F6D6D004573746570732F6D6D00CD
:101AB0005A73746570732F6D6D005A73746570730B
:101AC0002F6D6D005973746570732F6D6D005973B0
:101AD000746570732F6D6D005873746570732F6D1E
:101AE0006D005873746570732F6D6D00412D7265B4
:101AF000747261637400412D726574726163740065
:101B0000416D6178206500416D6178206500416D0F
:101B10006178207A00416D6178207A00416D6178AA
:101B2000207900416D6178207900416D61782078DD
:101B300000416D61782078005654726176206D699D
:101B40006E005654726176206D696E00566D696E36
:101B500000566D696E00566D6178206500566D61A6
:101B600078206500566D6178207A00566D61782086
:101B70007A00566D6178207900566D617820790081
:101B8000566D6178207800566D6178207800566532
:101B90002D6A65726B0056652D6A65726B00567A08
:101BA0002D6A65726B00567A2D6A65726B005678E5
:101BB000792D6A65726B005678792D6A65726B00B3
:101BC000416363656C00416363656C00436F6E74D1
:101BD000726F6C004D617920313520323031372001
:101BE00032303A33393A3334003131353230305FC4
:101BF00073696E676C6500556C74696D616B6572B5
:101C00003A5F31352E30352E30312E4D6F65627989
:101C10007573004669726D776172652076657273BF
:101C2000696F6E004669726D7761726520766572C4
:101C300073696F6E00526573746F726520666169B7
:101C40006C73616665004C6F6164206D656D6F72C9
:101C5000790053746F7265206D656D6F7279004DF8
:101C60006F74696F6E0054656D7065726174757222
:101C700065004D61696E004D383420582059205A56
:101C80002045004D3234004D323320257300052E9F
:101C90002E004D61696E004E6F20534420636172C7
:101CA00064005072696E742066726F6D2053440038
:101CB00053746F70207072696E7400526573756D25
:101CC00065207072696E7400506175736520707262
:101CD000696E7400436F6E74726F6C005072657041
:101CE0006172650054756E6500496E666F2073639E
:101CF0007265656E004E414E494E495459494E46F3
:101D0000CDCCCC3D0AD7233C17B7D13877CC2B327A
:101D10009595E6241FB14F0A000020410000C842FB
:101D200000401C4620BCBE4CCA1B0E5AAEC59D745A
:101D3000BE35D1A9C23511241FBECFEFD1E2DEBF1F
:101D4000CDBF00E00CBF14E0A0E0B2E0E0E1F1E8BC
:101D500001E00BBF02C007900D92A635B107D9F77D
:101D600022E1A6E5B4E001C01D92AF31B207E1F770
:101D70001EE0CAE9DEE000E006C021970109802FDD
:101D8000FE010E9419BAC839D10780E00807A9F7F7
:101D90000E94BAB40C9476C00C9400001F920F926B
:101DA0000FB60F9211242F933F938F939F93AF936E
:101DB000BF938091570490915804A0915904B09119
:101DC0005A043091560423E0230F2D3720F4019656
:101DD000A11DB11D05C026E8230F0296A11DB11D4E
:101DE000209356048093570490935804A093590469
:101DF000B0935A0480915B0490915C04A0915D04BF
:101E0000B0915E040196A11DB11D80935B04909377
:101E10005C04A0935D04B0935E04BF91AF919F9169
:101E20008F913F912F910F900FBE0F901F9018959B
:101E30002FB7F89460915704709158048091590419
:101E400090915A042FBF08953FB7F89480915B0496
:101E500090915C04A0915D04B0915E0426B5A89BAE
:101E600005C02F3F19F00196A11DB11D3FBFBA2F2C
:101E7000A92F982F8827820F911DA11DB11DBC018C
:101E8000CD0142E0660F771F881F991F4A95D1F751
:101E90000895CF92DF92EF92FF92CF93DF936B0181
:101EA0007C010E94240FEB01C114D104E104F10470
:101EB00079F00E94240F6C1B7D0B683E7340A0F3E9
:101EC00081E0C81AD108E108F108C851DC4FECCF15
:101ED000DF91CF91FF90EF90DF90CF900895019721
:101EE00039F0880F991F880F991F02970197F1F712
:101EF0000895789484B5826084BD84B5816084BD82
:101F000085B5826085BD85B5816085BDEEE6F0E072
:101F1000808181608083E1E8F0E0108280818260CE
:101F20008083808181608083E0E8F0E0808181604F
:101F30008083E1EBF0E0808184608083E0EBF0E07F
:101F4000808181608083E1E9F0E08081826080832C
:101F5000808181608083E0E9F0E08081816080831E
:101F6000E1EAF0E08081826080838081816080830B
:101F7000E0EAF0E0808181608083E1E2F1E080814D
:101F800082608083808181608083E0E2F1E08081F3
:101F900081608083EAE7F0E08081846080838081D3
:101FA000826080838081816080838081806880837B
:101FB0001092C10008951F93CF93DF93182FEB0168
:101FC00061E00E94EC10209711F460E004C0CF3F64
:101FD000D10539F461E0812FDF91CF911F910C94ED
:101FE0002811E12FF0E0EA51FD4FE4914E2F50E02F
:101FF000FA013197E131F10508F093C08827EE58D6
:10200000FF4F8F4F0C9419BA84B5806884BDC7BD4B
:102010008DC084B5806284BDC8BD88C080918000B9
:10202000806880938000D0938900C09388007EC030
:1020300080918000806280938000D0938B00C09359
:102040008A0074C08091B00080688093B000C09313
:10205000B3006CC08091B00080628093B000C093E8
:10206000B40064C080919000806880939000D09309
:102070009900C09398005AC080919000806280932C
:102080009000D0939B00C0939A0050C08091900024
:10209000886080939000D0939D00C0939C0046C0C0
:1020A0008091A00080688093A0008091A0008F7B29
:1020B0008093A000D093A900C093A80037C080915E
:1020C000A00080628093A000D093AB00C093AA00D0
:1020D0002DC08091A00088608093A000D093AD00B7
:1020E000C093AC0023C080912001806880932001C0
:1020F000D0932901C093280119C0809120018062EA
:1021000080932001D0932B01C0932A010FC08091AE
:102110002001886080932001D0932D01C0932C0171
:1021200005C0C038D1050CF055CF4FCFDF91CF910E
:102130001F91089590E0FC013197E131F10508F01D
:102140004AC08827ED57FF4F8F4F0C9419BA8091E2
:1021500080008F7703C0809180008F7D8093800006
:10216000089584B58F7702C084B58F7D84BD0895AE
:102170008091B0008F7703C08091B0008F7D8093F5
:10218000B0000895809190008F7707C080919000F3
:102190008F7D03C080919000877F80939000089589
:1021A0008091A0008F7707C08091A0008F7D03C031
:1021B0008091A000877F8093A000089580912001E6
:1021C0008F7707C0809120018F7D03C0809120010F
:1021D000877F809320010895CF93DF9390E0FC01E7
:1021E000E45DFC4F2491FC01EE58FC4F8491882360
:1021F00061F190E0880F991FFC01EE52FC4FC591F0
:10220000D491FC01E854FC4FA591B491611109C02F
:102210009FB7F8948881209582238883EC912E23A0
:102220000BC0623061F49FB7F8943881822F80959B
:1022300083238883EC912E2B2C939FBF06C08FB7EE
:10224000F894E8812E2B28838FBFDF91CF910895DA
:102250001F93CF93DF93282F30E0F901EA51FD4F10
:102260008491F901E45DFC4FD491F901EE58FC4FE3
:10227000C491CC23C9F0162F81110E949A10EC2F23
:10228000F0E0EE0FFF1FE854FC4FA591B4918FB71B
:10229000F894111105C09C91ED2FE095E92302C03F
:1022A000EC91ED2BEC938FBFDF91CF911F910895AF
:1022B0001F920F920FB60F9211240BB60F922F930D
:1022C0003F934F935F936F937F938F939F93AF93BE
:1022D000BF93EF93FF938091630490916404892BE3
:1022E00029F0E0916304F09164041995FF91EF9156
:1022F000BF91AF919F918F917F916F915F914F911E
:102300003F912F910F900BBE0F900FBE0F901F901B
:1023100018951F920F920FB60F9211240BB60F92C1
:102320002F933F934F935F936F937F938F939F93DD
:10233000AF93BF93EF93FF938091650490916604F0
:10234000892B29F0E0916504F09166041995FF91BD
:10235000EF91BF91AF919F918F917F916F915F911D
:102360004F913F912F910F900BBE0F900FBE0F908A
:102370001F9018951F920F920FB60F9211240BB653
:102380000F922F933F934F935F936F937F938F930E
:102390009F93AF93BF93EF93FF93809167049091C6
:1023A0006804892B29F0E0916704F091680419957D
:1023B000FF91EF91BF91AF919F918F917F916F911D
:1023C0005F914F913F912F910F900BBE0F900FBED9
:1023D0000F901F9018951F920F920FB60F92112415
:1023E0000BB60F922F933F934F935F936F937F930F
:1023F0008F939F93AF93BF93EF93FF938091690463
:1024000090916A04892B29F0E0916904F0916A04A3
:102410001995FF91EF91BF91AF919F918F917F910E
:102420006F915F914F913F912F910F900BBE0F9045
:102430000FBE0F901F9018951F920F920FB60F921C
:1024400011240BB60F922F933F934F935F936F938B
:102450007F938F939F93AF93BF93EF93FF9380915D
:102460005F0490916004892B29F0E0915F04F09162
:1024700060041995FF91EF91BF91AF919F918F915A
:102480007F916F915F914F913F912F910F900BBE74
:102490000F900FBE0F901F9018951F920F920FB6BE
:1024A0000F9211240BB60F922F933F934F935F938C
:1024B0006F937F938F939F93AF93BF93EF93FF930C
:1024C0008091610490916204892B29F0E09161046C
:1024D000F09162041995FF91EF91BF91AF919F9197
:1024E0008F917F916F915F914F913F912F910F90BD
:1024F0000BBE0F900FBE0F901F9018951F920F925A
:102500000FB60F9211240BB60F922F933F934F9358
:102510005F936F937F938F939F93AF93BF93EF934B
:10252000FF9380916B0490916C04892B29F0E091CA
:102530006B04F0916C041995FF91EF91BF91AF91ED
:102540009F918F917F916F915F914F913F912F91CB
:102550000F900BBE0F900FBE0F901F9018951F92FB
:102560000F920FB60F9211240BB60F922F933F9339
:102570004F935F936F937F938F939F93AF93BF938B
:10258000EF93FF9380916D0490916E04892B29F055
:10259000E0916D04F0916E041995FF91EF91BF9158
:1025A000AF919F918F917F916F915F914F913F91EB
:1025B0002F910F900BBE0F900FBE0F901F9018958C
:1025C000CF92DF92EF92FF920F931F93CF93DF93FF
:1025D0006C01EB017B01E40EF51E00E010E0CE156E
:1025E000DF0561F06991D601ED91FC910190F081D8
:1025F000E02DC6011995080F191FF1CFC801DF9111
:10260000CF911F910F91FF90EF90DF90CF900895A1
:102610006115710579F0FB0101900020E9F7319710
:10262000AF01461B570BDC01ED91FC910280F38159
:10263000E02D199480E090E008950C940813DC01DB
:10264000ED91FC910190F081E02D1994FC016591D0
:102650007591859194910895EF92FF920F931F9336
:10266000CF93DF93EC01CC0FDD1FCC0FDD1FCE012C
:102670008D58964F0E9426139E012A59394F790191
:102680008E01065A194FF801208131814281538110
:102690000E94C8B4F7016083718382839383CE0163
:1026A0008557964F0E9426139E01225B394F790170
:1026B000F80120813181428153810E94C8B4F70121
:1026C0006083718382839383CE018158964F0E94E9
:1026D0002613C55FDD4FF80120813181428153818E
:1026E0000E94C8B4688379838A839B83DF91CF91EA
:1026F0001F910F91FF90EF9008952F923F924F926C
:102700005F926F927F928F929F92AF92BF92CF9281
:10271000DF92EF92FF920F931F93CF93DF9300D03E
:102720001F92CDB7DEB79C838B83FC01E85AF64F2E
:1027300094905C01AA0CBB1CAA0CBB1CC5018A5955
:10274000994F1C01FC01108211821282138222E730
:1027500036E04EE656E06AE676E086E696E00E94CF
:10276000BB5AC5018959964F0E9426136B017C0103
:10277000692D990C770B880B990B0E9471B62B0170
:102780003C01C5018C5C994F4C0120E030E040ECED
:102790005FE3C701B6010E94C6B8A30192010E947F
:1027A000C6B8F4016083718382839383C5018F5D12
:1027B0009D4F9A838983FC0160817181828193811D
:1027C00060930502709306028093070290930802BB
:1027D00020E030E040E752E40E94C7B526E4C22E74
:1027E00026E0D22E7B018C0120E436E04CE356E05B
:1027F00068E376E084E396E00E942D500E942A640C
:10280000F101108211821282138222E736E04EE635
:1028100056E06AE676E086E696E00E94BB5AC5017D
:10282000855A964F5C010E9426139058A30192018D
:102830000E94C6B8F401608371838283938320E091
:1028400030E040E752E46091050270910602809109
:102850000702909108020E94C7B57B018C0120E419
:1028600036E04CE356E068E376E084E396E00E94CD
:102870002D500E942A64C5010E9426139B01AC01C1
:102880000E94C8B4A30192010E94C6B8F4016083FB
:1028900071838283938320E030E040E05FE3E9814D
:1028A000FA8160817181828193810E94C6B86093B0
:1028B000050270930602809307029093080220E0BD
:1028C00030E040E752E40E94C7B57B018C0120E470
:1028D00036E04CE356E068E376E084E396E00E945D
:1028E0002D500E942A648B819C810E942C13F1013F
:1028F00080819181A281B381F40180839183A2833D
:10290000B3831092050210920602109207021092F1
:1029100008020E94525CEB81FC81E55BF94F81E08B
:1029200080830F900F900F900F90DF91CF911F91A8
:102930000F91FF90EF90DF90CF90BF90AF909F905E
:102940008F907F906F905F904F903F902F90089561
:10295000FC012491222341F03091C00035FFFCCFCF
:102960002093C6000196F4CF22E030E089E099E0A0
:102970000C942C38FC012491222341F03091C000AA
:1029800035FFFCCF2093C6000196F4CF2AE030E05B
:1029900089E099E00C947A37CF93DF931F921F92CE
:1029A000CDB7DEB72091191230911A12CE010196DF
:1029B0002115310519F48F51924102C0821B930BEE
:1029C0009A83898389819A810F900F90DF91CF91AB
:1029D00008952091890430918A04243031050CF047
:1029E00069C0BC0120918B0430918C0440E6429F69
:1029F000C001439F900D11248D569B4F0E9462BDD4
:102A0000E7E9F9E08491882341F09091C00095FFB7
:102A1000FCCF8093C6003196F5CFEDE4F9E08491C8
:102A2000882341F09091C00095FFFCCF8093C600B1
:102A30003196F5CF80918B0490918C0420E6289FED
:102A4000F001299FF00D1124ED56FB4F8191882351
:102A500039F09091C00095FFFCCF8093C600F6CF6F
:102A6000EBE4F9E08491882341F09091C00095FF58
:102A7000FCCF8093C6003196F5CF8091C00085FFD2
:102A8000FCCF8AE08093C60080918B0490918C04E7
:102A9000019664E070E00E94C4B990938C04809326
:102AA0008B048091890490918A04019690938A0402
:102AB0008093890408952091890430918A042430F8
:102AC00031050CF069C0BC0120918B0430918C045D
:102AD00040E6429FC001439F900D11248D569B4FAD
:102AE0000E94EEBCE7E9F9E08491882341F09091DF
:102AF000C00095FFFCCF8093C6003196F5CFE0E48F
:102B0000F9E08491882341F09091C00095FFFCCFBB
:102B10008093C6003196F5CF80918B0490918C0400
:102B200020E6289FF001299FF00D1124ED56FB4F60
:102B30008191882339F09091C00095FFFCCF80935C
:102B4000C600F6CFEEE3F9E08491882341F090913E
:102B5000C00095FFFCCF8093C6003196F5CF8091E1
:102B6000C00085FFFCCF8AE08093C60080918B0473
:102B700090918C04019664E070E00E94C4B9909337
:102B80008C0480938B048091890490918A0401962F
:102B900090938A04809389040895809A889A269A4B
:102BA0002E980895809A889808950E94CD1540E047
:102BB00052EC61E070E089E099E00E942E36E8E393
:102BC000F9E08491882341F09091C00095FFFCCFFB
:102BD0008093C6003196F5CF8091C00085FFFCCF71
:102BE0008AE08093C60087E999E0FC0124912223C2
:102BF00041F03091C00035FFFCCF2093C6003196E4
:102C0000F5CF24B720FF14C0E0E3F9E0349133237B
:102C100041F04091C00045FFFCCF3093C600319693
:102C2000F5CF3091C00035FFFCCF3AE03093C600BD
:102C300021FF14C0E0E2F9E03491332341F04091E8
:102C4000C00045FFFCCF3093C6003196F5CF3091E0
:102C5000C00035FFFCCF3AE03093C60022FF14C01D
:102C6000EFE0F9E03491332341F04091C00045FF9B
:102C7000FCCF3093C6003196F5CF3091C00035FFC0
:102C8000FCCF3AE03093C60023FF14C0EFEFF8E02A
:102C90003491332341F04091C00045FFFCCF309385
:102CA000C6003196F5CF3091C00035FFFCCF3AE039
:102CB0003093C60025FF14C0EFEEF8E024912223E4
:102CC00041F03091C00035FFFCCF2093C600319613
:102CD000F5CF2091C00025FFFCCF2AE02093C6004D
:102CE00014BEE8EEF8E02491222341F03091C000B8
:102CF00035FFFCCF2093C6003196F5CFE2EEF8E029
:102D00002491222341F03091C00035FFFCCF209365
:102D1000C6003196F5CF2091C00025FFFCCF2AE0F8
:102D20002093C600FC012491E7E9F9E0222349F051
:102D30003091C00035FFFCCF2093C600319624911E
:102D4000F5CFE2EDF8E02491222341F03091C0006C
:102D500035FFFCCF2093C6003196F5CFEDEBF8E0C0
:102D60002491222341F03091C00035FFFCCF209305
:102D7000C6003196F5CFE1EBF8E02491222341F033
:102D80003091C00035FFFCCF2093C6003196F5CFBF
:102D9000E3EAF8E02491222341F03091C00035FFAE
:102DA000FCCF2093C6003196F5CF2091C00025FFBF
:102DB000FCCF2AE02093C600E8E9F8E02491222322
:102DC00041F03091C00035FFFCCF2093C600319612
:102DD000F5CFECE8F8E02491222341F03091C000D7
:102DE00035FFFCCF2093C6003196F5CF2091C0006F
:102DF00025FFFCCF2AE02093C600FC018491E7E97F
:102E0000F9E0882349F09091C00095FFFCCF8093B2
:102E1000C60031968491F5CFEDE7F8E084918823E0
:102E200041F09091C00095FFFCCF8093C600319691
:102E3000F5CF0E94CC144AE050E0BC0189E099E053
:102E40000E944C37E6E6F8E08491882341F09091A7
:102E5000C00095FFFCCF8093C6003196F5CF4AE0C5
:102E600050E060ED74E089E099E00E944C37809179
:102E7000C00085FFFCCF8AE08093C60010928F04CB
:102E80001092900410929104109292040E94597F23
:102E90000E9450670E94EB4F0E9458800E94AD63D1
:102EA0000E94E395FFEF23ED80E3F1502040804046
:102EB000E1F700C00000089580918304909184049C
:102EC00060E070E001960C9443BA80918304909185
:102ED00084044AE050E060E070E001960C94B2BBDC
:102EE000682F70E020918D0430918E0440E6429F5F
:102EF000C001439F900D11248D569B4F0E9457BDDA
:102F00009C01909384048093830481E0232B09F433
:102F100080E008950E94180F60937F0470938004EE
:102F2000809381049093820408950E94180F609307
:102F30007F04709380048093810490938204E091D5
:102F40008D04F0918E04E157FB4F8081811114C0F4
:102F5000E4E9F4E08491882341F09091C00095FF6A
:102F6000FCCF8093C6003196F5CF8091C00085FFDD
:102F7000FCCF8AE08093C600089589E099E00E9422
:102F80008036E7E9F4E08491882341F09091C00015
:102F900095FFFCCF8093C6003196F5CF409118067F
:102FA0005091190660911A0670911B064F5F5F4F92
:102FB0006F4F7F4F2AE030E089E099E00E9425378B
:102FC0008091C00085FFFCCF8AE08093C6000C94FE
:102FD00095172F923F924F925F926F927F928F92AE
:102FE0009F92AF92BF92CF92DF92EF92FF920F9398
:102FF0001F93CF93DF93CDB7DEB76E970FB6F894DC
:10300000DEBF0FBECDBF30E6F32E44E0A42EB12CC0
:1030100059E2852E57E0952E6AE0E62E7FE9672E6D
:1030200077E0772EDD24D39480918A0990918B09E3
:1030300020918C0930918D09821B930B8F779927F2
:10304000892B09F428C28091890490918A040497FD
:103050000CF021C289E099E00E94643680938804D4
:1030600020918604309187048A3061F08D3051F0D0
:103070008A3321F490918504992321F02F3531056D
:103080000CF42BC12115310519F4109285046AC383
:10309000E0918B04F0918C04FE9E8001FF9E100D48
:1030A0001124200F311FD901AD56BB4F1C928091C6
:1030B000850481110DC110928504E157FB4F1082E8
:1030C00098012D563B4F29016EE470E0C9010E9422
:1030D00057BD0097E9F19093840480938304841989
:1030E0009509800F911F4AE050E060E070E08C5637
:1030F0009B4F0E94B2BB60931C0670931D06809389
:103100001E0690931F060091180610911906209133
:103110001A0630911B060F5F1F4F2F4F3F4F4090F5
:103120008B0450908C04601771078207930709F491
:10313000F3C0F49CC001F59C900D112468E478E084
:103140008D569B4F0E941CBD892B09F0E5C076C1AE
:103150006AE270E0C2010E9457BD892B09F444C0A5
:10316000EDE9F9E08491882341F09091C00095FF4A
:10317000FCCF8093C6003196F5CFE2EAF7E0849168
:10318000882341F09091C00095FFFCCF8093C6004A
:103190003196F5CF409118065091190660911A06A4
:1031A00070911B062AE030E089E099E00E94253703
:1031B0008091C00085FFFCCF8AE08093C60010920A
:1031C000870410928604CEC280911C0690911D0641
:1031D000A0911E06B0911F068093180690931906C1
:1031E000A0931A06B0931B0680918B0490918C04D7
:1031F000F89E8001F99E100D1124C8018D569B4F39
:103200002C0167E470E00E9457BD009709F44BC0A1
:10321000909384048093830484199509800F911FEF
:1032200060E070E08C569B4F0E9443BA0E9439B612
:103230006430710508F037C08091710481111AC0A3
:1032400080917C0681112FC0F3018491EFE9F7E0B2
:10325000882349F09091C00095FFFCCF8093C60071
:1032600031968491F5CF8091C00085FFFCCFE0922C
:10327000C60019C0F4018491E9E2F7E0882349F01F
:103280009091C00095FFFCCF8093C6003196849149
:10329000F5CF8091C00085FFFCCFE092C6008FE1A2
:1032A00097E00E94709580918B0490918C04019618
:1032B000B5010E94C4B990938C0480938B048091D3
:1032C000890490918A04019690938A0480938904DA
:1032D0001092870410928604A7CE8B3311F4D092FB
:1032E00085049091850491119FCE40918B0450915B
:1032F0008C04B9016F5F7F4F7093870460938604DD
:10330000F49EF001F59EF00D11242E0F3F1FF901E0
:10331000ED56FB4F808388CEF49C8001F59C100D08
:103320001124C8018D569B4F2C016AE270E00E9467
:1033300057BD009709F450C020E0312CF801E20F8E
:10334000F11DED56FB4F30813A3219F02F5F3326D5
:10335000F5CF909384048093830484199509800F9A
:10336000911F60E070E08C569B4F0E9443BA0E9410
:1033700039B6232D30E02617370709F425CFEDE9BC
:10338000F9E08491882341F09091C00095FFFCCF33
:103390008093C6003196F5CFE6EFF7E0849188235D
:1033A00041F09091C00095FFFCCF8093C60031960C
:1033B000F5CF409118065091190660911A06709148
:1033C0001B062AE030E089E099E00E9425378091D1
:1033D000C00085FFFCCF2CC0EDE9F9E08491882383
:1033E00041F09091C00095FFFCCF8093C6003196CC
:1033F000F5CFECECF7E08491882341F09091C00088
:1034000095FFFCCF8093C6003196F5CF409118060A
:103410005091190660911A0670911B062AE030E05F
:1034200089E099E00E9425378091C00085FFFCCF9C
:103430008AE08093C6000E94BD17C1CEEDE9F9E095
:103440008491882341F09091C00095FFFCCF809338
:10345000C6003196F5CFE5E1F8E08491882341F08C
:103460009091C00095FFFCCF8093C6003196F5CFB8
:10347000409118065091190660911A0670911B062A
:103480002AE030E089E099E00E9425378091C00071
:1034900085FFFCCFCDCF80917E06882309F462C1E1
:1034A0008091860490918704892B09F05BC18091FB
:1034B000890490918A04892B11F410926F0400E61C
:1034C00011E084E0C82ED12C9CE3892E912CA12CF4
:1034D000B12C28EF222E26E0322E9E012F5F3F4F87
:1034E00079014091FF0850910009609101097091A4
:1034F00002098091F7089091F808A091F908B0911D
:10350000FA08481759076A077B0708F02BC1809112
:10351000890490918A0404970CF024C180916F046F
:10352000811120C18091520890915308A0915408B4
:10353000B09155088093FF0890930009A09301096A
:10354000B09302098AE498E00E944C3DAC01982FA8
:10355000409388048A30B9F09D30A9F0933229F461
:1035600080918504882379F002C09A33C9F32091B1
:103570008604309187042F3531052CF44F3F8FEFAF
:10358000580709F0D1C04091FF085091000960919F
:103590000109709102098091F7089091F808A091B3
:1035A000F908B091FA08481759076A077B0708F429
:1035B00081C0ECE0F7E08491882341F09091C00055
:1035C00095FFFCCF8093C6003196F5CF8091C00067
:1035D00085FFFCCFFAE0F093C6000E94180F6093BD
:1035E00073047093740480937504909376044090F0
:1035F0007704509078046090790470907A0464198C
:1036000075098609970928EE33E040E050E00E94F2
:10361000D8B929013A01CA01B901A50194010E9452
:10362000D8B9CA01B901A50194010E94D8B97F9304
:103630006F93C301B20120E13EE040E050E00E9400
:10364000D8B93F932F933F922F92FF92EF920E940F
:1036500086BDE7E9F9E084910FB6F894DEBF0FBEAE
:10366000CDBF882349F09091C00095FFFCCF809397
:10367000C60031968491F5CFF7018191882339F006
:103680009091C00095FFFCCF8093C600F6CF80914B
:10369000C00085FFFCCF3AE03093C600C7010E940E
:1036A00061958CE796E00E94907961E08CE796E066
:1036B0000E94FA7680918804833211F410936F048B
:1036C00020918604309187042115310509F4DDCC61
:1036D00080918B0490918C04089FF001099FF00D5C
:1036E00011242E0F3F1FF901ED56FB4F1082FC01F4
:1036F000E157FB4F10832091890430918A042F5F9A
:103700003F4F30938A04209389040196B6010E94AA
:10371000C4B990938C0480938B041092850410920A
:10372000870410928604DDCE9B3311F41093850438
:10373000809185048111D5CE80918B0490918C0469
:10374000B9016F5F7F4F7093870460938604089F71
:10375000F001099FF00D1124E20FF31FED56FB4F0E
:103760004083BFCE6E960FB6F894DEBF0FBECDBFBE
:10377000DF91CF911F910F91FF90EF90DF90CF904D
:10378000BF90AF909F908F907F906F905F904F9081
:103790003F902F9008957F928F929F92AF92BF9209
:1037A000CF92DF92EF92FF920F931F93CF93DF930D
:1037B00086E6E82E86E0F82E04E316E098E7C92EA8
:1037C00096E0D92ECDECD3E07C2E84E0780E899162
:1037D0000E947017882311F10E945C174B015C0155
:1037E000F6016081611102C06091130670E080E013
:1037F00090E00E9471B6F7012081318142815381AE
:103800000E94C6B89B01AC01C501B4010E94C8B4B6
:10381000F80160837183828393830AC0F7018081FA
:103820009181A281B381F80180839183A283B383C4
:10383000F4E0EF0EF11C0C5F1F4F8FEFC81AD80A8F
:103840007C12C5CF86E40E9470178823D9F00E94AD
:103850005C176B017C0160932406709325068093AE
:1038600026069093270620E030E0A9010E94DFB7EA
:10387000181644F4C0920502D0920602E0920702A4
:10388000F0920802DF91CF911F910F91FF90EF907E
:10389000DF90CF90BF90AF909F908F907F900895D2
:1038A0000E94CB1B89E40E947017882359F00E9464
:1038B0005C17609328067093290680932A069093DC
:1038C0002B0608C0109228061092290610922A068C
:1038D00010922B068AE40E947017882359F00E94E8
:1038E0005C1760932C0670932D0680932E069093A0
:1038F0002F06089510922C0610922D0610922E0677
:1039000010922F0608950895CF92DF92EF92FF92C2
:103910000F931F930E94180F60937F04709380048D
:10392000809381049093820420913406309135066F
:103930004091360650913706609166067091670691
:1039400080916806909169060E94BDB5811121C0E1
:10395000209138063091390640913A0650913B0645
:1039600060916A0670916B0680916C0690916D066D
:103970000E94BDB581110DC020E030E040E752E467
:1039800060910502709106028091070290910802F1
:103990001EC060911F0270912002072E000C880B40
:1039A000990B0E9471B62091050230910602409158
:1039B0000702509108020E94C6B820E030E040E7BC
:1039C00052E40E94C7B520E030E048EC52E40E9487
:1039D000C7B526E4C22E26E0D22E7B018C0120E45E
:1039E00036E04CE356E068E376E084E396E00E943C
:1039F0002D508091340690913506A0913606B091F5
:103A000037068093660690936706A0936806B09386
:103A100069068091380690913906A0913A06B091D6
:103A20003B0680936A0690936B06A0936C06B09356
:103A30006D0680913C0690913D06A0913E06B091A6
:103A40003F0680936E0690936F06A0937006B09326
:103A500071068091400690914106A0914206B09176
:103A600043068093720690937306A0937406B093F6
:103A700075061F910F91FF90EF90DF90CF90089502
:103A8000AF92BF92CF92DF92EF92FF920F931F936C
:103A9000CF93DF93F82EE8E2F6E02481358146816A
:103AA000578160817181828193810E94F2B7EB011D
:103AB000182F092F60911F0270912002072E000C11
:103AC000880B990B0E9471B6209105023091060275
:103AD00040910702509108020E94C6B820E030E0F1
:103AE00040E752E40E94C7B520E030E048EC52E4E1
:103AF0000E94C7B55B016C01809146068F93FF92CF
:103B00000F931F93DF93CF9382E0E82E01E020E034
:103B100048E256E064E376E086E696E00E941949C2
:103B2000E6E6F6E0A4E3B6E04D915D916D917C91FF
:103B30001397408351836283738314964D915D91F3
:103B40006D917C911797448355836683778318968C
:103B50004D915D916D917C911B9740875187628754
:103B600073871C968D919D910D90BC91A02D84879B
:103B70009587A687B7870E94180F60937F0470937C
:103B8000800480938104909382040F900F900F9093
:103B90000F900F900F90DF91CF911F910F91FF9099
:103BA000EF90DF90CF90BF90AF900895F8940E946F
:103BB0001868159A10924B06179A10924C06429A62
:103BC00010924D06A09A60E08CE00E94EC10EDE9A6
:103BD000F9E08491882341F09091C00095FFFCCFDB
:103BE0008093C6003196F5CFE5E7F4E08491882311
:103BF00041F09091C00095FFFCCF8093C6003196B4
:103C0000F5CF8091C00085FFFCCF8AE08093C6008D
:103C10008CE694E00E947F950E94D215FFCFCF9250
:103C2000DF92EF92FF920F931F930E94180F009163
:103C30007B0410917C0420917D0430917E04C0901F
:103C40007F04D0908004E0908104F0908204DC0135
:103C5000CB018C199D09AE09BF09081719072A075E
:103C60003B0730F4012B022B032B11F00E94D61DD1
:103C70008091010290910202A0910302B09104028E
:103C8000892B8A2B8B2B19F10E94180F00917F042E
:103C9000109180042091810430918204DC01CB01D9
:103CA000801B910BA20BB30B009101021091020239
:103CB0002091030230910402081719072A073B07D5
:103CC00030F490919C0B80919B0B981741F01F91C1
:103CD0000F91FF90EF90DF90CF900C941150159AB8
:103CE00010924B06179A10924C06429A10924D066B
:103CF000A09AEDCF0E94186880917104811138C09C
:103D000081E0809371048091180690911906A0912A
:103D10001A06B0911B068093140690931506A09383
:103D20001606B0931706EDE9F9E08491882341F077
:103D30009091C00095FFFCCF8093C6003196F5CFDF
:103D4000E6EFF3E08491882341F09091C00095FF65
:103D5000FCCF8093C6003196F5CF8091C00085FFDF
:103D6000FCCF8AE08093C6008CEE93E00C947095B3
:103D7000089580917104089567707727E82FF0E027
:103D8000EA51FD4FE4918E2F90E0FC013697EC3024
:103D9000F10588F58827EC56FF4F8F4F0C9419BA20
:103DA0008091B100887F8093B1008091B100682B31
:103DB0006093B100089580919100887F8093910075
:103DC00080919100682B6093910008958091A100EB
:103DD000887F8093A1008091A100682B6093A1004F
:103DE000089580912101887F809321018091210194
:103DF000682B6093210108951F93CF93DF93EC010B
:103E0000809146068093720484E50E947017182FF3
:103E1000811102C010E074C00E945C170E9440B67D
:103E2000609372046623B1F3E7E9F9E09491992372
:103E300041F08091C00085FFFCCF9093C600319681
:103E4000F5CFCD36D105B9F054F4C836D105B1F06F
:103E5000C936D10509F045C0E6E2F3E021C0CA3D0C
:103E6000D10531F0CD3DD105E1F5E1EEF2E036C00E
:103E7000E8EFF2E029C0EFE0F3E01CC0EDE3F3E08F
:103E80008191882371F19091C00095FFFCCF8093C0
:103E9000C600F6CF9091C00095FFFCCF8093C6007E
:103EA00081918111F7CF1DC09091C00095FFFCCF8B
:103EB0008093C60081918111F7CF13C09091C0000B
:103EC00095FFFCCF8093C60081918111F7CF09C087
:103ED0009091C00095FFFCCF8093C6008191811125
:103EE000F7CF40E050E06091720489E099E00E94D1
:103EF00086378091C00085FFFCCF8AE08093C600A2
:103F0000812FDF91CF911F9108953F924F925F9241
:103F10006F927F928F929F92AF92BF92CF92DF92D9
:103F2000EF92FF920F931F93CF93DF93CDB7DEB73E
:103F3000E4970FB6F894DEBF0FBECDBF87E40E94B2
:103F40007017882309F493C30E945C170E9439B646
:103F500064307105D9F144F46230710521F15CF5EA
:103F600077FF17C00C9477336A35710509F42AC3BB
:103F700034F46C31710509F46FC00C9477336B35F0
:103F8000710509F423C36C35710509F424C30C943D
:103F9000773380917104811106C00E94CB1B0E946F
:103FA000841C0C94163580917104811104C00E9408
:103FB000501C81E007C080917104811107C00E94EC
:103FC000501C80E00E94401D0C9416358FEE96E048
:103FD0000E94709580E50E947017882339F00E9436
:103FE0005C170E9440B66B017C0103C0C12CD12C30
:103FF000760183E50E947017882361F00E945C17A8
:1040000020E030E04AE754E40E94C6B80E9440B67F
:104010006B017C010E942A640E94180FC60ED71EF5
:10402000E81EF91E0E94180F60937F0470938004AD
:1040300080938104909382040E94180F6C157D0573
:104040008E059F0510F00C9477330E9441650E9405
:104050000F1E0E940C96F0CF8091050290910602EF
:10406000A0910702B0910802809320069093210648
:10407000A0932206B093230680911F029091200204
:10408000909377068093760684E690E090932002E2
:1040900080931F020E94180F60937F047093800426
:1040A000809381049093820481E00E94595C809106
:1040B000660690916706A0916806B09169068093A4
:1040C000340690933506A0933606B0933706809158
:1040D0006A0690916B06A0916C06B0916D06809374
:1040E000380690933906A0933A06B0933B06809128
:1040F0006E0690916F06A0917006B0917106809344
:104100003C0690933D06A0933E06B0933F068091F7
:10411000720690917306A0917406B0917506809313
:10412000400690934106A0934206B0934306109236
:10413000050210920602109207021092080288E50A
:104140000E947017882311F080E00AC089E50E9460
:1041500070178111F9CF8AE50E94701791E08927C5
:104160008093090281110CC088E50E947017882392
:1041700009F47AC189E50E947017882309F474C193
:1041800010926606109267061092680610926906F1
:1041900010926A0610926B0610926C0610926D06D1
:1041A000E8E5F9E0149122E736E04EE656E06AE6EB
:1041B00076E086E696E00E94BB5A87E699E00E9488
:1041C000261320E030E040EC5FE30E94C6B86B01AC
:1041D0007C01612F110F770B880B990B0E9471B630
:1041E0009B01AC01C701B6010E94C6B860933406BA
:1041F0007093350680933606909337068BE699E0E8
:104200000E942613E9E5F9E0149120E030E040EC4B
:104210005FE30E94C6B86B017C01612F110F770B21
:10422000880B990B0E9471B69B01AC01C701B601C6
:104230000E94C6B8609338067093390680933A0698
:1042400090933B062091210230912202409123025B
:1042500050912402209305023093060240930702F6
:1042600050930802C0902502D0902602E0902702C9
:10427000F0902802C701B6010E94BDB587FF08C0B3
:10428000C0920502D0920602E0920702F092080264
:1042900087E699E00E9426136B017C018BE699E08A
:1042A0000E9426139B01AC01C701B6010E94DFB733
:1042B000181614F00C947A338BE699E00E942613BA
:1042C0006B017C0187E699E00E9426139B01AC01FB
:1042D000C701B6010E94C7B59B01AC010E94C6B8D8
:1042E00020E030E040E85FE30E94C8B40E9441B99A
:1042F0009B01AC016091050270910602809107025A
:10430000909108020E94C6B860930502709306025D
:10431000809307029093080220E030E040E752E4E7
:104320006091050270910602809107029091080247
:104330000E94C7B5F6E4CF2EF6E0DF2E7B018C019C
:1043400020E436E04CE356E068E376E084E396E070
:104350000E942D500E942A6480E090E00E942C135D
:1043600081E090E00E942C1322E736E04EE656E012
:104370006AE676E086E696E00E94BB5A8091660681
:1043800090916706A0916806B09169068093340603
:1043900090933506A0933606B093370680916A064F
:1043A00090916B06A0916C06B0916D0680933806D3
:1043B00090933906A0933A06B0933B0620E030E094
:1043C00040E752E460910502709106028091070275
:1043D000909108020E94C7B57B018C0120E436E071
:1043E0004CE356E068E376E084E396E00E942D50CB
:1043F0001092050210920602109207021092080213
:104400000E942A640E94525C809134069091350685
:10441000A0913606B09137068093660690936706A2
:10442000A0936806B093690680913806909139068A
:10443000A0913A06B0913B0680936A0690936B0672
:10444000A0936C06B0936D0680913C0690913D065A
:10445000A0913E06B0913F0680936E0690936F0642
:10446000A0937006B09371068091090281110C949B
:10447000843388E50E94701781110C9484338091F5
:10448000090281110C948A3389E50E947017811109
:104490000C948A3388E50E9470178823D1F00E941B
:1044A0006517672B682B692BA1F00E945C17209180
:1044B0005A0630915B0640915C0650915D060E9461
:1044C000C8B46093660670936706809368069093FD
:1044D000690689E50E9470178823D1F00E9465174C
:1044E000672B682B692BA1F00E945C1720915E0658
:1044F00030915F0640916006509161060E94C8B4F9
:1045000060936A0670936B0680936C0690936D06B9
:104510008091090281110C9490338AE50E947017F2
:1045200081110C9490338AE50E9470178823D1F092
:104530000E946517672B682B692BA1F00E945C17FE
:1045400020916206309163064091640650916506A1
:104550000E94C8B460936E0670936F0680937006D5
:104560009093710622E736E04EE656E06AE676E082
:1045700086E696E00E94BB5A809120069091210623
:10458000A0912206B0912306809305029093060223
:10459000A0930702B0930802809176069091770667
:1045A0009093200280931F020E94180F60937F0453
:1045B0007093800480938104909382040E94525CE3
:1045C0000C947733109213060C94773381E0809328
:1045D00013060C94773385E40E947017811102C092
:1045E0000E942A646DECA62E63E0B62E7AE5C72EF3
:1045F00076E0D72EE6E6EE2EE6E0FE2E10E0F501A0
:1046000081915F010E947017882331F1133061F4AA
:104610000E945C17F701608371838283938382E732
:1046200096E00E94425B18C00E945C17F601208150
:104630003181428153810E94C8B4F7016083718344
:104640008283938322E736E04EE656E06AE676E020
:1046500086E696E00E94BB5A1F5FF4E0CF0ED11CA5
:1046600024E0E20EF11C143051F60C9477338DE403
:104670000E947017882311F40C94A6320E945C17D4
:104680000E9439B66237710509F4A4C70CF0A7C0BF
:104690006F31710509F444C3A4F56631710509F45D
:1046A000E3C1BCF46131710509F4A0C134F4623096
:1046B000710508F43DC10C9477336431710509F438
:1046C0009FC10CF0CBC16231710509F4A2C60C94F4
:1046D00077336A31710509F4FCC13CF46831710526
:1046E00009F4E1C10CF4C6C1EEC16C31710509F4E5
:1046F00004C20CF4FCC16E31710509F434C20C948F
:1047000077336435710509F484C6A4F56035710505
:1047100009F467C654F46032710509F463C26A3261
:10472000710509F45AC30C9477336235710509F4A5
:1047300067C60CF069C60E9418680E942A64A09A95
:104740000E948964109245061092440668EE73E058
:1047500080E090E00E94490F0E942A640E94D215D6
:1047600010920A0282E196E00E9470950E940C96D7
:104770000C9477336936710509F47CC324F56C35E4
:10478000710509F47EC66836710509F444C36535C0
:10479000710511F00C94773383E50E9470170E9425
:1047A0005C1720E030E04AE754E40E94C6B80E945B
:1047B00040B660937B0470937C0480937D04909357
:1047C0007E040C9477336B36710509F404C60CF43F
:1047D000D2C56D36710509F45AC40C9477336D3D1A
:1047E000710511F40C94202E0CF048C06E3B71053D
:1047F00009F4BBC4ECF46737710509F496C054F4AE
:104800006337710509F4C2C66537710509F4CDC671
:104810000C9477336937710511F40C94CD2B14F493
:104820000C94C92B6C38710509F413C30C947733BD
:104830006C3C710511F40C94762D8CF4693C710577
:1048400011F40C94382D6B3C710511F40C94592D16
:10485000683C710511F00C9477330C94C02C6E3CBD
:10486000710511F40C94F42D14F40C94962D6C3DF8
:10487000710511F40C94112E0C947733643F31E0E0
:10488000730711F40C94972F2CF56D3291E0790792
:1048900011F40C948B2E64F4623E710511F40C94A7
:1048A000462E6C32714011F40C94572E0C947733D1
:1048B0006F3221E0720711F40C945F2F14F40C9402
:1048C000512F6039714011F00C9477330E942A64A3
:1048D0000C947733683592E0790711F40C947530B5
:1048E00094F4663FF1E07F0711F40C949D2F14F4CB
:1048F0000C949A2F673F714011F00C9477330E940B
:10490000297B0C947733603A83E0780709F4D4C1AB
:10491000673E93E0790711F40C948F32633573404E
:1049200011F00C9477330C94A02FE3E6F3E03FC72B
:104930008EED96E00E94709580E50E9470178823A6
:1049400039F00E945C170E9440B66B017C0103C0E5
:10495000C12CD12C760183E50E947017882361F069
:104960000E945C1720E030E04AE754E40E94C6B899
:104970000E9440B66B017C010E942A640E94180FBD
:1049800060937F04709380048093810490938204E9
:10499000C114D104E104F104C1F00E94180FC60E45
:1049A000D71EE81EF91E0E94180F6C157D058E0596
:1049B0009F05B0F40E94D696811112C00E944165F5
:1049C0000E940F1E0E940C96EECF0E94D696811177
:1049D00007C00E9441650E940F1E0E940C96F5CFF1
:1049E0008FEC96E00E9470950C94773386EC96E0FD
:1049F0000E947095159817984298A0980C94773358
:104A0000E6EBF6E08491882341F09091C00095FF99
:104A1000FCCF8093C6003196F5CF8091C00085FF12
:104A2000FCCF8AE08093C6008CE796E00E9462701B
:104A3000E8EAF6E08491882341F09091C00095FF68
:104A4000FCCF8093C6003196F5CF8091C00085FFE2
:104A5000FCCF8AE08093C6000C9477338CE796E015
:104A60000E94B9700C9477338CE796E00E948071B5
:104A70000C94773300918304109184040C5F1F4FD2
:104A80006AE270E0C8010E9457BD009719F0FC016E
:104A90003197108221E041E0B8018CE796E00E9456
:104AA000E2710C9477338CE796E00E9484710E9447
:104AB000180F60937704709378048093790490932F
:104AC0007A040C9477338CE796E00E948B710C94F7
:104AD000773380917F06882311F40C94773383E534
:104AE0000E94701781110C9496330C9477338CE7E5
:104AF00096E00E9434760C947733809183049091F1
:104B000084046AE270E004960E9457BD8C01892BF0
:104B1000E1F020918D0430918E0440E6429FC00167
:104B2000439F900D11246EE470E08D569B4F0E94C0
:104B300057BD60E270E00E9457BD019690938404D7
:104B400080938304F80131971082609183047091FF
:104B500084046C5F7F4F21E040E08CE796E00E9488
:104B6000E2710C94773380917F06882311F40C94C2
:104B7000773360E08CE796E00E94ED7780918304C4
:104B8000909184046AE270E004960E9457BD8C0103
:104B9000892BE1F020918D0430918E0440E6429FF4
:104BA000C001439F900D11246EE470E08D569B4F21
:104BB0000E9457BD60E270E00E9457BD019690933D
:104BC000840480938304F8013197108260918304F8
:104BD000709184046C5F7F4F8CE796E00E94FA74BA
:104BE0000C94773380917E0681110E942A64009193
:104BF0008304109184040C5F1F4F6AE270E0C801C7
:104C00000E9457BD7C0161E270E0C8010E9457BD5F
:104C1000009719F08C010F5F1F4FE114F10419F098
:104C2000F7013197108280E50E947017F82E80916D
:104C30008304909184040817190708F4F12C8091DB
:104C40007F06882311F40C94773321E02F2541E06F
:104C5000B8018CE796E00E94E27183E50E9470172C
:104C60008823B9F080918304909184048017910780
:104C700080F40E946517AB01BC014093FF0850937C
:104C8000000960930109709302098AE498E00E9488
:104C9000D63E8CE796E00E948471F1100C94773335
:104CA0000E94180F609377047093780480937904BE
:104CB00090937A040C9477338091830490918404C8
:104CC0006AE270E005960E9457BD8C01892BE1F0E5
:104CD00020918D0430918E0440E6429FC001439F95
:104CE000900D11246EE470E08D569B4F0E9457BDCD
:104CF00060E270E00E9457BD019690938404809317
:104D00008304F801319710826091830470918404C8
:104D10006B5F7F4F8CE796E00E94F4740C947733BE
:104D20000E94180F60937304709374048093750449
:104D3000909376040091770410917804209179047F
:104D400030917A04601B710B820B930B28EE33E0D9
:104D500040E050E00E94D8B9CA01B9012CE330E02C
:104D600040E050E00E94D8B97F936F933F932F9318
:104D700089E996E09F938F938E010F5F1F4F1F93DA
:104D80000F930E9486BDE7E9F9E094910FB6F8947D
:104D9000DEBF0FBECDBF992349F08091C00085FFD3
:104DA000FCCF9093C60031969491F5CFF801819194
:104DB000882339F09091C00095FFFCCF8093C60006
:104DC000F6CF8091C00085FFFCCF8AE08093C600BB
:104DD000C8010E9461950C94773383E50E94701797
:104DE000882311F40C9477330E945C176B017C01CB
:104DF00080E50E947017882311F40C947733C70163
:104E0000B6010E9439B66F3F710509F010F40C9499
:104E1000A7330C94773388E690E00E94FC1E811142
:104E20000C94773383E50E947017882371F000910A
:104E300072040E945C1710E0000F111F01571E4EF4
:104E40000E9439B6F801718360830E94DD670C947B
:104E5000773383E50E947017882311F40C9477331D
:104E60000E945C170E9439B670938E1160938D1169
:104E70000C94773389E690E00E94FC1E81110C941B
:104E80007733E3E9F6E08491882341F09091C00004
:104E900095FFFCCF8093C6003196F5CFE091720468
:104EA00024E0E29FF0011124E957FE4E4081518138
:104EB0006281738121E030E089E099E00E942C3822
:104EC000E0E9F6E08491882341F09091C00095FFDD
:104ED000FCCF8093C6003196F5CFE0917204F0E0EC
:104EE000EE0FFF1FE157FE4E60817181072E000C0F
:104EF000880B990B0E9471B6AB01BC0121E030E038
:104F000089E099E00E942C38ECE8F6E0849188234F
:104F100041F09091C00095FFFCCF8093C600319680
:104F2000F5CF409181115091821160918311709160
:104F3000841121E030E089E099E00E942C38E9E812
:104F4000F6E08491882341F09091C00095FFFCCF5A
:104F50008093C6003196F5CF60918D1170918E11BE
:104F6000072E000C880B990B0E9471B6AB01BC0197
:104F700021E030E089E099E00E942C38E6E8F6E094
:104F80008491882341F09091C00095FFFCCF8093DD
:104F9000C6003196F5CF4AE050E060E070E089E06D
:104FA00099E00E944C37E4E8F6E08491882341F0D0
:104FB0009091C00095FFFCCF8093C6003196F5CF4D
:104FC00040918711509188116091891170918A11D7
:104FD00021E030E089E099E00E942C38E1E8F6E039
:104FE0008491882341F09091C00095FFFCCF80937D
:104FF000C6003196F5CF60918F1170919011072EF8
:10500000000C880B990B0E9471B6AB01BC0121E02A
:1050100030E089E099E00E942C38EDE7F6E08491D9
:10502000882341F09091C00095FFFCCF8093C6008B
:105030003196F5CF8091720490E00E9436654AE087
:1050400050E0BC0189E099E00E944C37E8E7F6E0C7
:105050008491882341F09091C00095FFFCCF80930C
:10506000C6003196F5CF8FEF9FEF0E9436654AE07C
:1050700050E0BC0189E099E00E944C378091C0006B
:1050800085FFFCCF8AE08093C6000C9416358DE630
:1050900090E00E94FC1E81110C9477338DE696E01F
:1050A0000E94709583E50E947017882391F000910B
:1050B00072040E945C1710E0000F111F01571E4E72
:1050C0000E9439B6F8017183608381E08093000209
:1050D00015C082E50E947017882381F00091720448
:1050E0000E945C1710E0000F111F01571E4E0E9416
:1050F00039B6F80171836083109200020E94DD6767
:105100000E94180F2B013C010091720410E0F8017D
:10511000EE0FFF1FE157FE4E60817181072E000CDC
:10512000880B990B0E9471B6000F111F000F111F01
:10513000F801E957FE4E11E020813181428153810F
:105140000E94DFB718160CF010E01093700488244A
:105150008A94982C540178EEC72E73E0D72EE12C58
:10516000F12CEAE03E2E0C940A3487E496E00E948B
:10517000709583E50E947017882361F00E945C1788
:105180000E9439B670938E1160938D1181E08093E7
:1051900000020FC082E50E947017882351F00E9420
:1051A0005C170E9439B670938E1160938D11109226
:1051B00000020E94180F4B015C0160918D117091EB
:1051C0008E11072E000C880B990B0E9471B611E00E
:1051D000209181113091821140918311509184115D
:1051E0000E94DFB718160CF010E01093700404E46E
:1051F00016E070E4E72E76E0F72EECE3CE2EE6E044
:10520000DE2EFAE07F2E8091700460918D117091F6
:105210008E11882309F488C0072E000C880B990B87
:105220000E9471B6209181113091821140918311B9
:10523000509184110E94DFB718160CF08CC00E94A8
:10524000180FDC01CB0188199909AA09BB09893E0D
:105250009340A105B10508F460C0E091460634E032
:10526000E39FF0011124E957FE4E40815181628194
:105270007381F8018491E4E4F6E0882349F0909189
:10528000C00095FFFCCF8093C60031968491F5CF86
:1052900022E030E089E099E00E942C38F701849107
:1052A000E0E4F6E0882349F09091C00095FFFCCF40
:1052B0008093C60031968491F5CF6091460670E0E8
:1052C0004AE050E089E099E00E944C37F601849171
:1052D000ECE3F6E0882349F09091C00095FFFCCF05
:1052E0008093C60031968491F5CF40918111509101
:1052F0008211609183117091841121E030E089E086
:1053000099E00E942C388091C00085FFFCCF7092FC
:10531000C6000E94180F4B015C010E9441650E946B
:105320000F1E0E940C966FCF072E000C880B990B56
:105330000E9471B6209181113091821140918311A8
:10534000509184110E94BDB587FF05C08091000275
:10535000882309F474CF82E396E00E9470950E943E
:10536000180F60937F04709380048093810490935E
:1053700082040C94773383E50E947017882319F117
:105380000E945C1720E030E0A9010E94BDB587FDB6
:105390000FC00E945C1720E030E04FE753E40E940A
:1053A000DFB7181644F00E945C170E9439B605C09A
:1053B00060E070E002C06FEF70E0709345066093AC
:1053C00044060C9477338FEF90E0909345068093DA
:1053D00044060C94773310924506109244060C94C0
:1053E0007733269A2E98809A889A81E080930A02D1
:1053F00081E296E00E9470950E940C960C9477339F
:1054000010927B060C94773381E080937B060C949A
:10541000773383E50E9470178823A1F00E945C1700
:1054200020E030E04AE754E40E94C6B80E9440B64B
:10543000609301027093020280930302909304022E
:105440000C94773388E50E94701781110C94F43422
:1054500089E50E94701781110C94F4348AE50E944A
:10546000701781110C94F43485E40E947017811137
:105470000C94F4340E942A64A09A0E9489640C94CB
:1054800077335DEC852E53E0952E0DEC10E16DED3C
:10549000A62E60E1B62E21E930E138AB2FA7312CE2
:1054A000F40181914F010E947017882309F45DC0B7
:1054B000F3E03F1253C00E945C172B013C0120E037
:1054C00030E040EA51E40E94BDB587FF41C0A3012E
:1054D0009201F80160817181828193810E94C7B538
:1054E0006B017C019B01AC016091A5107091A6102D
:1054F0008091A7109091A8100E94C6B86093A51043
:105500007093A6108093A7109093A810A7019601FE
:10551000F50160817181828193810E94C6B8F50195
:105520006083718382839383EFA5F8A96081718181
:10553000828193810E946FB6A70196010E94C6B82E
:105540000E9440B6EFA5F8A960837183828393839C
:10555000F801408251826282738207C00E945C1708
:10556000F801608371838283938333940C5F1F4FB0
:10557000F4E0AF0EB11C2FA538A92C5F3F4F38AB1C
:105580002FA734E033128CCF0C947733E8E4F5E0A6
:105590008491882311F40C9477339091C00095FF87
:1055A000FCCF8093C6003196F3CF00918304109115
:1055B00084040B5F1F4F6AE270E0C8010E9457BD70
:1055C000009719F0FC0131971082C8010E94619583
:1055D0000C947733E5E4F5E08491882341F09091D1
:1055E000C00095FFFCCF8093C6003196F5CF409167
:1055F000660650916706609168067091690622E020
:1056000030E089E099E00E942C38E1E4F5E08491F3
:10561000882341F09091C00095FFFCCF8093C60095
:105620003196F5CF40916A0650916B0660916C06F9
:1056300070916D0622E030E089E099E00E942C38FC
:10564000EDE3F5E08491882341F09091C00095FF4F
:10565000FCCF8093C6003196F5CF40916E065091F5
:105660006F06609170067091710622E030E089E06B
:1056700099E00E942C38E9E3F5E08491882341F019
:105680009091C00095FFFCCF8093C6003196F5CF76
:105690004091720650917306609174067091750680
:1056A00022E030E089E099E00E942C38EEE2F5E05B
:1056B0008491882341F09091C00095FFFCCF8093A6
:1056C000C6003196F5CF0E947B640E9471B620918E
:1056D000CD103091CE104091CF105091D0100E943B
:1056E000C7B5AB01BC0122E030E089E099E00E943F
:1056F0002C38EAE2F5E08491882341F09091C000D3
:1057000095FFFCCF8093C6003196F5CF81E00E94D3
:105710007B640E9471B62091D1103091D2104091DB
:10572000D3105091D4100E94C7B5AB01BC0122E048
:1057300030E089E099E00E942C38E6E2F5E08491BF
:10574000882341F09091C00095FFFCCF8093C60064
:105750003196F5CF82E00E947B640E9471B6209161
:10576000D5103091D6104091D7105091D8100E948A
:10577000C7B5AB01BC0122E030E089E099E00E94AE
:105780002C388091C00085FFFCCF8AE08093C60052
:10579000AEC780E00E94595CAAC781E00E94595CB4
:1057A000A6C79091C00095FFFCCF8093C600819161
:1057B0008111F7CF8091C00085FFFCCF8AE08093F4
:1057C000C600EEE1F5E08491882341F09091C0009D
:1057D00095FFFCCF8093C6003196F5CF009B03C0A8
:1057E000EEE5F3E009C0E4E5F3E006C09091C00007
:1057F00095FFFCCF8093C60081918111F7CF8091F6
:10580000C00085FFFCCF8AE08093C600E6E1F5E0AA
:105810008491882341F09091C00095FFFCCF809344
:10582000C6003196F5CF029B03C0EEE5F3E009C058
:10583000E4E5F3E006C09091C00095FFFCCF8093B3
:10584000C60081918111F7CF8091C00085FFFCCF08
:105850008AE08093C600EEE0F5E08491882341F071
:105860009091C00095FFFCCF8093C6003196F5CF94
:10587000049B03C0EEE5F3E009C0E4E5F3E006C0F5
:105880009091C00095FFFCCF8093C600819181115B
:10589000F7CF8091C00085FFFCCF8AE08093C600DF
:1058A000E6E0F5E08491882341F09091C00095FFF7
:1058B000FCCF8093C6003196F5CF069B03C0EEE582
:1058C000F3E009C0E4E5F3E006C09091C00095FF65
:1058D000FCCF8093C60081918111F7CF8091C000E9
:1058E00085FFFCCF8AE08093C600EEEFF4E0849160
:1058F000882341F09091C00095FFFCCF8093C600B3
:105900003196F5CF379B03C0EEE5F3E009C0E4E53F
:10591000F3E006C09091C00095FFFCCF8093C600D5
:1059200081918111F7CF8091C00085FFFCCF8AE083
:105930008093C600E6EFF4E08491882341F09091D3
:10594000C00095FFFCCF8093C6003196F5CF359B04
:1059500003C0EEE5F3E009C0E4E5F3E006C0909192
:10596000C00095FFFCCF8093C60081918111F7CFD5
:105970008091C00085FFFCCF8AE08093C600B7C647
:1059800084E40E947017882309F4B1C60E945C1752
:1059900020E030E040E05FE30E94C6B86B017C018C
:1059A00020E030E0A9010E94BDB5882379F0A7016D
:1059B0009601C701B6010E94C6B82BED3FE049E44D
:1059C00050E40E94C6B89B01AC0104C020E030E066
:1059D00040E85FE3809146068093720484E529AB3A
:1059E0003AAB4BAB5CAB0E94701729A93AA94BA903
:1059F0005CA9811114C00091720484E0089F8001A9
:105A00001124095E1D4F60E070E080E89FE30E9472
:105A1000C7B5F801608371838283938368C629AB1D
:105A20003AAB4BAB5CAB0E945C170E9440B66093F4
:105A3000720429A93AA94BA95CA96623E1F2E7E916
:105A4000F9E08491882341F09091C00095FFFCCF4C
:105A50008093C6003196F5CFEEE7F3E0819188237D
:105A600051F29091C00095FFFCCF8093C600F6CF15
:105A70003DEBE32E30E1F32E0DEC13E044E0D42EA9
:105A8000D00EF80181918F010E947017882349F090
:105A90000E945C170E9440B6F70160837183828385
:105AA0009383F4E0EF0EF11CD012EBCF0E946F5BFA
:105AB0001EC69DEDE92E90E1F92E0DEC13E024E0D9
:105AC000D22ED00EF80181918F010E947017882389
:105AD00039F00E945C17F70160837183828393839E
