:100000000C94E21B0C949F1E0C94D01E0C94011FA8
:100010000C94321F0C94631F0C94941F0C94C51FF6
:100020000C94F61F0C94131C0C94131C0C94131CAE
:100030000C94131C0C9415E20C94131C0C94131CBC
:100040000C94131C0C94A4BB0C94131C0C94131C44
:100050000C94131C0C94131C0C9423CD0C94151CA1
:100060000C94131C0C9443950C94131C0C94131CAB
:100070000C94131C0C94131C0C94131C0C94131C44
:100080000C94131C0C94131C0C94131C0C94131C34
:100090000C94131C0C94131C0C94131C0C947129B9
:1000A0000C94131C0C94131C0C94131C0C94131C14
:1000B0000C94131C0C94131C0C94131C0C94131C04
:1000C0000C94131C0C94131C0C94131C0C94131CF4
:1000D0000C94131C0C94131C0C94131C0C94131CE4
:1000E0000C94131C4B1D501D551D5F1DD81D691D03
:1000F000711D791D831D8D1D971DA61DB01DD81D59
:10010000BA1DC41DCE1DF81DFB1DEE1DF21D321EB5
:10011000FF1D031E091E0D1E111E171E1B1E1F1E76
:10012000321E251E291E2D1E882388239623A423D4
:10013000C023CE23DC23EA23FB23B22375E078E03F
:1001400075E177E179E17BE12BE17DE17FE182E11E
:100150002BE185E189E148E18BE18DE18FE12BE144
:1001600055E16BE166E12BE170E18DE08FE09DE010
:100170009FE0A1E0A3E0A9E0ABE0ADE0AFE0B9E033
:10018000BBE0BFE0C1E0C7E0C9E02BE12BE12BE120
:100190002BE12BE12BE12BE12BE12BE12BE12BE1FF
:1001A0002BE12BE12BE12BE12BE12BE12BE12BE1EF
:1001B0002BE12BE12BE12BE12BE12BE12BE12BE1DF
:1001C0002BE12BE12BE12BE12BE12BE12BE12BE1CF
:1001D0002BE12BE12BE12BE12BE12BE12BE12BE1BF
:1001E0002BE12BE12BE12BE12BE12BE12BE12BE1AF
:1001F0002BE12BE12BE12BE12BE12BE12BE12BE19F
:100200002BE12BE1D0E0F0E0084AD73B3BCE016E7A
:1002100084BCBFFDC12F3D6C74319ABD56833DDA5D
:100220003D00C77F11BED9E4BB4C3E916BAAAABE6C
:10023000000000803F05A84CCDB2D44EB93836A995
:10024000020C50B9918688083CA6AAAA2ABE0000D2
:1002500000803F000C94BD340C94AA240C94473BBE
:100260000C94655A0C94F0E00C949D5C0C94503501
:100270000C9422440C94875B0C94BA490C94F64875
:100280000C947FE10C94A8550C94BF4D0C94573BF3
:100290000C94691D0C94F4410C94724D0C9466E11D
:1002A0000C945F5D0C94EF4F0C94AB5B0C941F4E61
:1002B0000C94EF620C942A3D0C94A73E0C94A9E098
:1002C0000C94586C0C94A3E00C949DE00C94F81DD5
:1002D0000C94031E0C94DC230C94C41D0C946D62CE
:1002E0000C9478E00C94C53E0C94ADE00C942B4932
:1002F0000C94831D0C94FB230C948DE10C941C5ADC
:100300000C94054B0C945BA30C94B4530C946BE1CC
:100310000C947B5F0C94F9620C9400280C94A42339
:100320000C949C670C9475650C94CD4E0C949B3783
:100330000C94654D0C94711D0C948BE10C94544AF3
:100340000C948FE00C94474A0C9455E10C94A665EC
:100350000C94CB5E0C94321E0C9448E10C94CE4766
:100360000C9415490C94FF940C943B210C948342FB
:100370000C94D9640C94D8370C94DB3E0C94E74170
:100380000C9427200C94F21D0C9455620C94F55893
:100390000C948FE10C94171E0C94504F0C94A25A9D
:1003A0000C9488230C94C23F0C94A61D0C94FB1D46
:1003B0000C9482E10C945D520C9475E00C94AFE0C7
:1003C0000C94B01D0C943A440C94C9E00C9475E163
:1003D0000C94415A0C9498560C94063B0C940E6461
:1003E0000C94783A0C9434470C9459360C94FC34A1
:1003F0000C94E33C0C94C7E00C942D1E0C94291E25
:100400000C946F4A0C949FE00C943D490C94EF536C
:100410000C94D81D0C94C1E00C94E7380C9479E14D
:100420000C94E03B0C947BE10C94501D0C94971DB4
:100430000C940D1E0C94C93C0C9428660C941095D9
:100440000C94CE230C945E5B0C94791D0C94E33DCC
:100450000C943F340C94C0230C94CE1D0C94103B90
:100460000C948B4E0C94DB480C94B24C0C94813E53
:100470000C9470350C945B500C947DE10C94503EC0
:100480000C94A5510C94615A0C9470E10C94EA23DD
:100490000C9496230C94305B0C94BBE00C94251EBA
:1004A0000C94EC430C9426350C945F1D0C9489E15C
:1004B0000C9495580C941A500C9467460C949D39E2
:1004C0000C94223E0C94A1E00C9445480C94F03519
:1004D0000C9431380C9454370C94103A0C94FF1D42
:1004E0000C94F83F0C94C2400C94BFE00C94B9E01B
:1004F0000C94551D0C944B1D0C945B410C94111ED7
:100500000C94C2360C940D370C948E440C94ABE0D2
:100510000C94C34F0C94603C0C94F6470C94C96146
:100520000C9477E10C94DC480C94AD350C94B22318
:100530000C9485E10C94E8200C948D1D0C94A06221
:100540000C9439340C941F1E0C94BA1D0C94EE1D9F
:100550000C941B1E0C942BE10C94713D0C94D0E078
:100560000C948DE00C94091E0C947E340000090A52
:1005700002080B0C0D070603040100000000000038
:10058000000000000000000000000000000000006B
:10059000000000000000000011100F00000000002B
:1005A000000000000000000000000000000000004B
:1005B0000000010210202008081020401020408078
:1005C0000201020108040201010204081020408017
:1005D00080402010080402018004020180402010A5
:1005E00008040201080402010102040810204080EE
:1005F00001020408102040800505050507050808CC
:100600000808020202020A0A08080404040401019C
:1006100001010101010103030303030303030407B1
:1006200007070C0C0C0C0C0C0C0C02020202060648
:100630000606060606060B0B0B0B0B0B0B0B00003E
:100640002200250028002B002E003100340002017A
:100650000000050108010B01000021002400270013
:100660002A002D00300033000101000004010701C1
:100670000A015052494E54004D4154455249414C93
:10068000004D41494E54454E414E4345005072691C
:100690006E74696E672077697468205553422E2EF8
:1006A0002E00756C74696D616B65722E636F6D2FB2
:1006B0004552303700476F20746F3A0058206F72F0
:1006C00020592073776974636820737475636B00B5
:1006D000756C74696D616B65722E636F6D2F455219
:1006E000303700476F20746F3A0058206F722059DE
:1006F000207377697463682062726F6B656E007532
:100700006C74696D616B65722E636F6D2F4552302D
:100710003600476F20746F3A005A2073776974630C
:100720006820737475636B00756C74696D616B65BB
:10073000722E636F6D2F4552303500476F20746FF6
:100740003A005A207377697463682062726F6B6530
:100750006E00756C74696D616B65722E636F6D2FC1
:100760004552303400476F20746F3A00536166651C
:100770007479206369726375697400756C74696D4E
:10078000616B65722E636F6D2F4552303300476F7A
:1007900020746F3A00486561746572206572726FEB
:1007A0007200756C74696D616B65722E636F6D2F6D
:1007B0004552303200476F20746F3A0054656D70B7
:1007C0002073656E736F722042454400756C7469C6
:1007D0006D616B65722E636F6D2F4552303100472E
:1007E0006F20746F3A0054656D702073656E736F7F
:1007F00072004552524F52202D2053544F505045B5
:100800004400801506060606FEFEFEFEFC00000003
:1008100000000000FCFEFEFEFC0000000EFEFEFEDE
:10082000FE0000E0FCFEFEFCE0E0000000CECECECC
:10083000000000C0C0C0C0C0C080000000000000B8
:1008400080C0C0800000000000008080C0C0C0C028
:10085000C0C0C080800000000006FEFEFEFE00005A
:10086000000080C0C0C00000000000008080C0C048
:10087000C080808000000000C0C0C0C00080C0C038
:10088000C0C08000000000007FFFFFFFFF8000006D
:1008900000000080FFFFFFFFFF00000000FFFFFFE0
:1008A000FF000000FFFFFFFF0000000000FFFFFF50
:1008B00000000081F1FFFF3F0F3FFFFCF0F0FCFF65
:1008C0003F0F3FFFFEF880000000C1E1F1F1713100
:1008D000010183FFFFFFFC000000FFFFFFFF000C92
:1008E0003EFFFFF7C301000000FCFEFF870311314C
:1008F00031333F3F3F1E000001FFFFFFFF070301B1
:10090000010101000000000000010307070F0F0FA5
:100910000F0F0F0F0707070F0F06000000070F0F3D
:1009200007000000070F0F0700000000000F0F0F67
:100930000000060F0F070100000001070F0F07015D
:1009400000000001070F0F06000003070F0F0E0E37
:10095000060703070F0F07000000070F0F0700002F
:100960000000030F0F0F060000000307070F0E0E15
:100970000E0E0E0E06000000000F0F0F0F000000FD
:1009800000000000507265763A200043414E434516
:100990004C002073656300206D696E0020686F75E0
:1009A000720020686F757273000000000000000084
:1009B0005F00000007000700147F147F14242A7FC3
:1009C0002A12231308646236495522500005030099
:1009D00000001C2241000041221C00082A1C2A0899
:1009E00008083E0808005030000008080808080001
:1009F0006060000020100804023E5149453E00425C
:100A00007F400042615149462141454B3118141243
:100A10007F1027454545393C4A4949300171090550
:100A2000033649494936064949291E003636000031
:100A30000056360000000814224114141414144106
:100A4000221408000201510906324979413E7E1103
:100A500011117E7F494949363E414141227F414142
:100A6000221C7F494949417F090901013E41415109
:100A7000327F0808087F00417F41002040413F014C
:100A80007F081422417F404040407F0204027F7F64
:100A90000408107F3E4141413E7F090909063E415D
:100AA00051215E7F09192946464949493101017F93
:100AB00001013F4040403F1F2040201F7F20182061
:100AC0007F631408146303047804036151494543A8
:100AD00000007F4141020408102041417F000004D2
:100AE0000201020440404040400001020400205442
:100AF0005454787F4844443838444444203844446B
:100B0000487F3854545418087E090102081454547C
:100B10003C7F0804047800447D40002040443D00B0
:100B2000007F10284400417F40007C041804787C3A
:100B30000804047838444444387C14141408081415
:100B400014187C7C080404084854545420043F447E
:100B500040203C4040207C1C2040201C3C40304039
:100B60003C44281028440C5050503C4464544C449D
:100B7000000836410000007F0000004136080008F0
:100B8000082A1C08081C2A08084731204625692025
:100B90005A2569205825692059256900473238208F
:100BA0005A30205830205930006275696C64706C7E
:100BB0006174652E006F662061646A757374696E76
:100BC0006720796F7572007468726F75676820743A
:100BD00068652070726F6365737300492077696C74
:100BE0006C20677569646520796F7500434F4E54BA
:100BF000494E55450043414E43454C00473238204D
:100C00005A3000746F207072696E7420697421000C
:100C1000616E6420707265737320746865206275FC
:100C200074746F6E006F6E207468652053442D637A
:100C30006172640053656C65637420612070726931
:100C40006E742066696C650032312F3231004C457C
:100C5000542753205052494E540052656164696EC6
:100C60006720636172642E2E2E0032312F323100E4
:100C7000796F757220556C74696D616B6572322E77
:100C80002E2E00746861742063616D65207769742D
:100C90006800506C6561736520696E7365727420BD
:100CA00053442D636172640032312F3231006D6123
:100CB0006B652061203344205072696E74210049B5
:100CC000276D207265616479206C6574277300322A
:100CD000302F32310041524520594F552052454165
:100CE00044593F0066726F6D206E6F7A7A6C652E84
:100CF0002E2E006D6174657269616C20657869746F
:100D000073005075736820627574746F6E20776815
:100D1000656E0031392F323100434F4E54494E55E4
:100D200045004C6F6164696E67206D61746572691E
:100D3000616C2E2E2E0031382F32310061626F76B9
:100D40006520746865206172726F772E00796F7507
:100D50007220556C74696D616B6572322C0066721D
:100D60006F6D207468652072656172206F6600493E
:100D70006E73657274206E6577206D61746572693B
:100D8000616C0031372F323100434F4E54494E557C
:100D900045006D6174657269616C206C6F61646996
:100DA0006E67007072696E74686561642068656161
:100DB00074696E6720666F7200506C6561736520A0
:100DC000776169742C0031362F32310053656C65C0
:100DD000637420746865206D6174657269616C006C
:100DE0006974206973207573696E672E006F6620C1
:100DF0006D6174657269616C006B6E6F77732077DB
:100E0000686174206B696E64004E6F7720796F752E
:100E10007220556C74696D616B6572320031352FCB
:100E2000323100434F4E54494E554500697320748A
:100E30006869732072696768743F00596F7520682C
:100E40006176652063686F73656E0031342F3231CF
:100E500000594553004E4F00206173206D61746549
:100E60007269616C2C0031332F3231004D41544591
:100E70005249414C00556C74696D616B6572322E3C
:100E800000696E7365727420696E207468697300FE
:100E90006D6174657269616C20796F752077696C1A
:100EA0006C004E6578742C2073656C6563742074D7
:100EB00068650031322F3231005245414459004DAE
:100EC000383400473120463132303030205831310B
:100ED000302059313000746F20696E736572742050
:100EE0006D6174657269616C2E00746865206E6551
:100EF000787420737465702069730074686520626B
:100F000075696C64706C617465004E6F77207468ED
:100F10006174207765206C6576656C65640031319D
:100F20002F323100434F4E54494E55450074686589
:100F300020726967687420636F726E65722E2E2E40
:100F400000526570656174207468697320666F7201
:100F50000031302F323100434F4E54494E55450039
:100F6000444F4E4500746865206C65667420636F5D
:100F7000726E65722E2E2E0052657065617420743B
:100F800068697320666F7200392F323100434F4E0B
:100F900054494E55450062697420726573697374D3
:100FA000616E63652E00756E74696C20796F7520B3
:100FB0006665656C2061006275696C64706C617453
:100FC0006520616E64206E6F7A7A6C6500536C697F
:100FD0006465206120706170657220626574776558
:100FE000656E00382F323100434F4E54494E5545FF
:100FF00000434F4E54494E55450047312046256920
:10100000205A30004731204625692058256920594B
:10101000256900473120462569205A3500746865E6
:10102000206275696C64706C617465206C657665AE
:101030006C2E00706170657220746F2066696E6539
:101040002D74756E65006E6F772075736520612055
:101050007368656574206F66005265706561742001
:101060007468697320737465702C2062757400371E
:101070002F323100434F4E54494E55450066726F32
:101080006D20746865206275696C64706C6174654C
:101090002E0069732061206D696C6C696D657465E3
:1010A0007220617761790073637265772074696C6F
:1010B0006C20746865206E6F7A7A6C650054757266
:1010C0006E207269676874206275696C64706C6107
:1010D000746500362F323100434F4E54494E55450A
:1010E00000473120462569205A30004731204625E7
:1010F000692058256920592569004731204625690E
:10110000205A350066726F6D2074686520627569BB
:101110006C64706C6174652E0069732061206D6968
:101120006C6C696D657465722061776179007363B9
:101130007265772074696C6C20746865206E6F7AB4
:101140007A6C65005475726E206C656674206275E9
:10115000696C64706C61746500352F323100434FE7
:101160004E54494E554500473120462569205A3096
:1011700000473120462569205825692059256900F6
:10118000473120462569205A350066726F6D2074FC
:101190006865206275696C64706C6174652E0061AD
:1011A000206D696C6C696D65746572206177617919
:1011B00000756E74696C20746865206E6F7A7A6C45
:1011C0006520697300526F746174652074686520CE
:1011D000627574746F6E00342F323100434F4E5479
:1011E000494E554500434F4E54494E5545004731F1
:1011F00020462569205A25692058256920592569E6
:101200000047323820583020593000676F696E67C8
:1012100020746F20646F2074686174206E6F772E65
:101220000061646A7573746D656E74732C207765E4
:1012300020617265007765206E65656420746F209B
:10124000646F20736F6D65004166746572207472FF
:10125000616E73706F72746174696F6E00332F32D8
:101260003100434F4E54494E5545004731204625E5
:1012700069205A256900473238205A3000612066BB
:10128000697273742072756E2077697A6172642E48
:101290000077616C6B20796F75207468726F756769
:1012A000680066697273742073746172747570205B
:1012B000492077696C6C00426563617573652074C1
:1012C0006869732069732074686500322F323100B9
:1012D000434F4E54494E554500627574746F6E20ED
:1012E000746F20636F6E74696E756500556C7469F8
:1012F0006D616B657221205072657373207468652F
:101300000073746172747570206F6620796F7572E6
:101310000057656C636F6D6520746F20746865207D
:10132000666972737400312F323100434F4E544955
:101330004E5545004300432F00436C69636B207496
:101340006F2072657475726E004275696C64706CA2
:101350006174652074656D702E3A003F3F3F004612
:101360006163746F72792072657365740052756E73
:1013700074696D6520737461747300566572736966
:101380006F6E004D6F74696F6E2073657474696E53
:1013900067730052657472616374696F6E20736560
:1013A0007474696E6773005365742066616E207390
:1013B00070656564004D6F7665206D617465726956
:1013C000616C00496E73657274206D617465726939
:1013D000616C005261697365206275696C64706C40
:1013E000617465004C6F776572206275696C64701A
:1013F0006C61746500486F6D6520686561640048C4
:101400006561747570206275696C64706C61746577
:1014100000486561747570206E6F7A7A6C65004C57
:1014200045442073657474696E6773003C205245AF
:101430005455524E00566572733A5F31352E303531
:101440002E30322E4D6F65627975736578002500F8
:101450004300432F004300432F0025003F3F3F0040
:1014600020476C6F77207768656E20646F6E65002B
:10147000204F6E207768696C65207072696E7469A0
:101480006E670020416C77617973204F666600209B
:10149000416C77617973204F6E004272696768749E
:1014A0006E657373003C2052455455524E00250022
:1014B00025004272696768746E657373004C454419
:1014C000004300432F00436C69636B20746F2072EC
:1014D000657475726E004E6F7A7A6C652074656DF6
:1014E00070657261747572653A0047323820583001
:1014F000205930004300432F00436C69636B207414
:101500006F2072657475726E00526F74617465201D
:10151000746F2065787472756465004E6F7A7A6CAA
:10152000652074656D70657261747572653A003F0F
:101530003F3F005265747261637420737065656427
:101540000052657472616374206C656E6774680024
:101550003C2052455455524E006D6D2F736563000B
:101560006D6D006D6D2F73656300526574726163FC
:1015700074207370656564006D6D005265747261EE
:101580006374206C656E6774680052455452414321
:1015900054494F4E003F3F3F0043757272656E7471
:1015A00020450043757272656E74205A004375724F
:1015B00072656E7420582F59004D617820737065E4
:1015C0006564205A004D6178207370656564205908
:1015D000004D6178207370656564205800582F595C
:1015E000204A65726B00416363656C657261746962
:1015F0006F6E003C2052455455524E006D41006DB7
:1016000041006D41006D6D2F736563006D6D2F732B
:101610006563006D6D2F736563006D6D2F7365637A
:10162000006D6D2F7365635E32006D41004375720E
:1016300072656E742045006D410043757272656E6F
:1016400074205A006D410043757272656E742058A3
:101650002F59006D6D2F736563004D617820737095
:10166000656564205A006D6D2F736563004D617868
:101670002073706565642059006D6D2F736563007C
:101680004D61782073706565642058006D6D2F730F
:10169000656300582F59204A65726B0030306D6DBC
:1016A0002F7365635E3200416363656C65726174BC
:1016B000696F6E004D4F54494F4E00566572733A34
:1016C0005F31352E30352E30322E4D6F6562797593
:1016D000736578004D6179203239203230313720FE
:1016E00031383A33303A33390052657475726E00CE
:1016F0006D00204D61743A003A005072696E746951
:101700006E673A003A004D616368696E65206F6EDE
:1017100020666F723A0052657475726E00746F20A5
:1017200064656661756C743F00526573657420650D
:10173000766572797468696E6700594553004E4F3B
:1017400000250046616E2073706565640047312096
:1017500046256920582569205925690047323820D7
:1017600058205900473120462569205A3430004717
:101770003238205A004D383400473238205A004D54
:101780003834004732382058205900473238205A20
:1017900000414456414E434544004255494C442D76
:1017A0007C504C41544500414456414E4345440011
:1017B00052455455524E0043504500435045004356
:1017C0005045005550455400435045004142530098
:1017D000504C4100250046616E3A20004300430012
:1017E0002500466C6F773A006D6D00636F6D657311
:1017F000206F757420746865206E6F7A7A6C65004E
:10180000576169742074696C6C206D6174657269CC
:10181000616C0052454144590043414E43454C00E0
:10182000466F7277617264696E67206D617465726C
:1018300069616C0061626F76652074686520617211
:10184000726F772E00796F7572206D616368696EB3
:10185000652C0066726F6D20746865206261636B31
:1018600073696465206F6600496E73657274206EDB
:101870006577206D6174657269616C005245414401
:10188000590043414E43454C006D61746572696176
:101890006C20696E73657274696F6E00436F6F6C54
:1018A000696E67207072696E746865616420666F26
:1018B000720048656174696E67207072696E746841
:1018C00065616420666F72004D4154455249414C38
:1018D0000052656D6F7665206D6174657269616C2B
:1018E0000052454144590043414E43454C00526526
:1018F00076657273696E67206D6174657269616C7B
:1019000000666F72206D6174657269616C2072652A
:101910006D6F76616C0048656174696E67207072E6
:10192000696E746865616400473238205830205908
:101930003000496D706F72742066726F6D20534471
:10194000004578706F727420746F205344004375A3
:1019500073746F6D697A65003C2052455455524E40
:10196000004C6F61647320616C6C206D61746572F2
:1019700069616C7300536176657320616C6C206DD6
:101980006174657269616C73004D6F64696679207A
:101990007468652073657474696E6773002500460A
:1019A000616E3A2000430043002500466C6F773A91
:1019B000006D6D003F3F3F0053746F72652061738F
:1019C0002070726573657400466C6F772025004641
:1019D000616E004469616D6574657200486561748B
:1019E0006564206275696C64706C6174650054652F
:1019F0006D7065726174757265003C205245545576
:101A0000524E00250025006D6D00430043004E65D9
:101A10007720707265736574003C205245545552AE
:101A20004E00505245534554530025004D61746596
:101A30007269616C20666C6F7700250046616E20CC
:101A40007370656564006D6D004D617465726961E8
:101A50006C204469616D657465720043004275696C
:101A60006C64706C6174652054656D702E00430069
:101A700054656D7065726174757265004D415445B1
:101A80005249414C00696E204D4154455249414CE8
:101A90002E54585400746F2074686520534420639A
:101AA000617264005361766564206D61746572696A
:101AB000616C73004F6B000A0A006469616D6574A4
:101AC00065723D000A00666C6F773D000A00666132
:101AD0006E5F73706565643D000A006265645F74E3
:101AE000656D70657261747572653D000A0074659C
:101AF0006D70657261747572653D000A006E616D8E
:101B0000653D005B6D6174657269616C5D0A0052D0
:101B1000656164696E6720636172642E2E2E0050C9
:101B20006C6561736520696E7365727420636172A0
:101B300064004E6F2053442D43415244210066728D
:101B40006F6D207468652053442063617264004C9B
:101B50006F61646564206D6174657269616C7300A6
:101B60004F6B006469616D6574657200666C6F77B8
:101B70000066616E5F7370656564006265645F74C2
:101B8000656D70657261747572650074656D706500
:101B9000726174757265006E616D65005B6D617474
:101BA000657269616C5D00466F756E64206F6E20B2
:101BB000636172642E004E6F206578706F727420BE
:101BC00066696C650052656164696E672063617265
:101BD000642E2E2E00506C6561736520696E7365EE
:101BE00072742063617264004E6F2053442D434130
:101BF0005244210053656C6563746564206D6174A3
:101C0000657269616C3A004F4B004D415445524931
:101C1000414C004731204625692058256920592527
:101C20006900473238205830205930004348414E2F
:101C300047450053455454494E4753005245545567
:101C4000524E004300432F00436C69636B20746F56
:101C50002072657475726E004E6F7A7A6C652074AE
:101C6000656D70657261747572653A005072657069
:101C70006172696E6720746F207072696E743A00C9
:101C800048656174696E672075702E2E2E0054555C
:101C90004E450041424F5254004C45442042726927
:101CA0006768746E657373005265747261637469FA
:101CB0006F6E004D6174657269616C20666C6F7740
:101CC0000046616E207370656564004275696C64DE
:101CD000706C6174652074656D702E0054656D7054
:101CE0006572617475726500537065656400416268
:101CF0006F7274003C2052455455524E0025002509
:101D00000025004300430043004300250041626F6B
:101D1000727420746865207072696E743F00594552
:101D200053004E4F003F3F3F005265747261637431
:101D30002073706565640052657472616374206C11
:101D4000656E677468003C2052455455524E006DD4
:101D50006D2F736563006D6D006D6D2F736563008E
:101D600052657472616374207370656564006D6D93
:101D70000052657472616374206C656E67746800EC
:101D800052455452414354494F4E00250042726916
:101D90006768746E6573730025004D6174657269C0
:101DA000616C20666C6F7700250046616E20737051
:101DB0006565640025005072696E742073706565F6
:101DC000640054554E450054696D65206C65667419
:101DD0000054696D65206C65667420756E6B6E6F5E
:101DE000776E004300430048656174696E67206246
:101DF00075696C64706C61746500430043004865EC
:101E00006174696E67005072696E74696E673A003A
:101E100054554E4500504155534500524553554D7C
:101E2000457C5052494E54004348414E47457C4DF5
:101E30004154455249414C0054554E45004D3834AB
:101E40000047323800473238205A300047323820B5
:101E50005830205930004731204625692045300050
:101E600047393220452569004D343031004D363038
:101E700031205835205935205A2569204C256900D4
:101E8000746865207072696E742E00596F752063D6
:101E9000616E2072656D6F7665005072696E742098
:101EA00066696E6973686564004241434B20544F14
:101EB000204D454E550043004320005072696E741A
:101EC000657220636F6F6C696E6720646F776E0058
:101ED0004241434B20544F204D454E55006F6620E4
:101EE0007072696E74696E67206172656100547208
:101EF000696564207072696E74696E67206F7574AD
:101F0000004552524F523A0052455455524E2054B9
:101F10004F204D41494E00756C74696D616B65725F
:101F20002E636F6D2F4552303800476F20746F3A23
:101F30000072656164696E672053442D6361726449
:101F400021004572726F72207768696C6500524596
:101F50005455524E20544F204D41494E0066726FE9
:101F60006D2074686520736C696365722E007365FB
:101F70007474696E67207769746820736574746916
:101F80006E67006F76657272696465206D61636863
:101F9000696E6500546869732066696C65207769AD
:101FA0006C6C00434F4E54494E55450043414E43DF
:101FB000454C003C204241434B003C205245545587
:101FC000524E005344204341524400473120463191
:101FD0003230303020583520593130004732380007
:101FE0003B464C41564F523A556C746947436F64B7
:101FF00065003B464C41564F523A556C7469474315
:102000006F6465004E6F2066696C657320666F753E
:102010006E6421004F4B004F4B0052656164696E46
:102020006720636172642E2E2E00506C65617365AB
:1020300020696E736572742063617264004E6F2054
:1020400053442D4341524421004E6F20696E666F08
:1020500020617661696C61626C65006D006D004D98
:102060006174657269616C3A200054696D653A204B
:10207000003B4D4154455249414C3A003B54494D77
:10208000453A00466F6C646572004D323138204924
:102090006E76616C6964206578747275646572200F
:1020A000004D31303920496E76616C696420657865
:1020B00074727564657220004D31303520496E763A
:1020C000616C696420657874727564657220004D76
:1020D00031303420496E76616C69642065787472A1
:1020E0007564657220005072696E74657220737435
:1020F0006F707065642064756520746F20657272FE
:102100006F72732E2046697820746865206572723C
:102110006F7220616E6420757365204D39393920E6
:10212000746F20726573746172742E202854656D0B
:10213000706572617475726520697320726573656C
:10214000742E205365742069742061667465722052
:1021500072657374617274696E6729005072696E7A
:102160007465722068616C7465642E206B696C6C98
:1021700028292063616C6C656421006F6B005265D7
:1021800073656E643A2000456E6473746F702073DB
:1021900074696C6C20707265737365642061667419
:1021A0006572206261636B696E67206F66662E20C0
:1021B000456E6473746F7020737475636B3F004574
:1021C0006E6473746F70206E6F74207072657373B9
:1021D000656420616674657220686F6D696E672042
:1021E000646F776E2E20456E6473746F7020627218
:1021F0006F6B656E3F00456E6473746F70206E6F19
:1022000074207072657373656420616674657220F2
:10221000686F6D696E6720646F776E2E20456E64FF
:1022200073746F702062726F6B656E3F0022005591
:102230006E6B6E6F776E20636F6D6D616E643A20AA
:102240002200456C656374726F6E6963735F7465B9
:10225000737400416374697665204578747275649F
:1022600065723A2000496E76616C69642065787405
:10227000727564657200540020423A300020423A80
:1022800031006F6B20523A0020633A0020643A001C
:1022900020693A0020703A006F6B002200556E6B87
:1022A0006E6F776E20636F6D6D616E643A202200F1
:1022B0006F70656E00545249474745524544007A55
:1022C0005F6D61783A20006F70656E005452494727
:1022D000474552454400795F6D61783A20006F7040
:1022E000656E0054524947474552454400785F6D3A
:1022F000696E3A20005265706F7274696E6720656E
:102300006E6473746F7020737461747573005A3ADD
:1023100000593A0020436F756E7420583A200045EA
:102320003A005A3A00593A00583A004649524D5735
:102330004152455F4E414D453A4D61726C696E2088
:10234000556C74696D616B6572323B2053707269B4
:102350006E7465722F6772626C206D617368757040
:1023600020666F722067656E36204649524D574190
:1023700052455F55524C3A687474703A2F2F676912
:10238000746875622E636F6D2F556C74696D616B27
:1023900065722050524F544F434F4C5F5645525335
:1023A000494F4E3A312E30204D414348494E455F0A
:1023B000545950453A556C74696D616B657220458E
:1023C000585452554445525F434F554E543A310A82
:1023D0000020423A0020453A00543A003F0020577E
:1023E0003A0020453A00543A002042403A0020404A
:1023F0003A00202F0020423A00202F006F6B20541B
:102400003A002569206D696E2C202569207365636B
:1024100000456E642066696C65206C6973740042C7
:102420006567696E2066696C65206C697374002548
:102430006920686F757273202569206D696E7574E7
:10244000657300446F6E65207072696E74696E67A3
:102450002066696C65005072696E746572207374D1
:102460006F707065642064756520746F206572728A
:102470006F72732E204669782074686520657272C9
:102480006F7220616E6420757365204D3939392073
:10249000746F20726573746172742E202854656D98
:1024A00070657261747572652069732072657365F9
:1024B000742E2053657420697420616674657220DF
:1024C00072657374617274696E6729006F6B004E78
:1024D0006F204C696E65204E756D6265722077695C
:1024E000746820636865636B73756D2C204C617331
:1024F00074204C696E653A20004E6F204368656316
:102500006B73756D2077697468206C696E65206ED9
:10251000756D6265722C204C617374204C696E6518
:102520003A2000636865636B73756D206D69736D28
:10253000617463682C204C617374204C696E653A39
:1025400020004C696E65204E756D6265722069735E
:10255000206E6F74204C617374204C696E65204E40
:10256000756D6265722B312C204C617374204C693F
:102570006E653A20004D31313000446F6E65207336
:102580006176696E672066696C652E006F6B004D21
:102590003239002020506C616E6E6572427566663D
:1025A000657242797465733A200020467265652031
:1025B0004D656D6F72793A20004D61792032392076
:1025C0003230313700436F6D70696C65643A2000BA
:1025D000566572733A5F31352E30352E30322E4DBE
:1025E0006F6562797573657800207C204175746829
:1025F0006F723A20004D6179203239203230313704
:102600002031383A33303A343000204C6173742032
:10261000557064617465643A2000312E302E3000AC
:102620004D61726C696E200020536F667477617221
:102630006520526573657400205761746368646F28
:1026400067205265736574002042726F776E206F49
:102650007574205265736574002045787465726ED8
:10266000616C20526573657400506F7765725570A8
:10267000007374617274002200656E717565696E15
:10268000672022002200656E717565696E672022E1
:1026900000FF01010000E0400000E0400000E040D9
:1026A00000006643008060430000A5430000000076
:1026B000008060430000A543000066430080604343
:1026C0000000A54300000000000000000000000022
:1026D0006563686F3A004572726F723A00000021BC
:1026E00010422063308440A550C660E770088129FD
:1026F000914AA16BB18CC1ADD1CEE1EFF131121095
:102700000273325222B5529442F772D6623993184C
:10271000837BB35AA3BDD39CC3FFF3DEE3622443A0
:102720003420040114E664C774A44485546AA54B9C
:10273000B528850995EEE5CFF5ACC58DD553367234
:102740002611163006D776F6669556B4465BB77AEC
:10275000A719973887DFF7FEE79DD7BCC7C448E5C0
:10276000588668A7784008611802282338CCC9ED3C
:10277000D98EE9AFF9488969990AA92BB9F55AD4D4
:102780004AB77A966A711A500A333A122AFDDBDC8C
:10279000CBBFFB9EEB799B588B3BBB1AABA66C87E0
:1027A0007CE44CC55C222C033C600C411CAEED8FDC
:1027B000FDECCDCDDD2AAD0BBD688D499D977EB674
:1027C0006ED55EF44E133E322E511E700E9FFFBE2C
:1027D000EFDDDFFCCF1BBF3AAF599F788F8891A9FF
:1027E00081CAB1EBA10CD12DC14EF16FE18010A1D6
:1027F00000C230E3200450254046706760B98398DA
:1028000093FBA3DAB33DC31CD37FE35EF3B1029025
:1028100012F322D2323542145277625672EAB5CBA5
:10282000A5A89589856EF54FE52CD50DC5E234C375
:1028300024A01481046674476424540544DBA7FA79
:10284000B79987B8975FE77EF71DC73CD7D326F2C5
:10285000369106B01657667676154634564CD96DC5
:10286000C90EF92FE9C899E9898AB9ABA944586515
:102870004806782768C018E1088238A3287DCB5C19
:10288000DB3FEB1EFBF98BD89BBBAB9ABB754A5465
:102890005A376A167AF10AD01AB32A923A2EFD0FE5
:1028A000ED6CDD4DCDAABD8BADE89DC98D267C07B5
:1028B0006C645C454CA23C832CE01CC10C1FEF3EB9
:1028C000FF5DCF7CDF9BAFBABFD98FF89F176E3605
:1028D0007E554E745E932EB23ED10EF01E7C3C3E71
:1028E0005E2B3D3F2F5B5D3B2C2A225C0020746FEA
:1028F0006F206C6F6E6720657874727573696F6E88
:102900002070726576656E7465640020636F6C6418
:1029100020657874727573696F6E20707265766564
:102920006E746564006563686F3A00205A3A00204F
:10293000593A0020583A00656E6473746F707320C2
:102940006869743A200024F4D43050C38E20C2A2A7
:102950004017828B7011127A910D816CD90AA8618F
:10296000E108C7586607615143061E4B5D05C14526
:10297000A7041A411104093D980371393103403607
:10298000DB0265339102D4305402802E1D02632C89
:10299000EE01752AC501B028A001102781018F25FD
:1029A00064012B244B01E0223401AC211F018D2056
:1029B0000D01801FFC00841EED00971DDF00B81C78
:1029C000D200E61BC600201BBC00641AB200B2197C
:1029D000A8000A19A0006A189900D11791004017A1
:1029E0008B00B516840031167E00B31579003A15B8
:1029F0007300C7146F0058146A00EE136600881342
:102A0000630025135E00C7125B006C12570015129D
:102A10005400C111510070114F0021114B00D6100C
:102A200049008D1047004610440002104200C00FBC
:102A30004000800F3E00420F3C00060F3B00CB0ED3
:102A40003800930E37005C0E3500270E3400F30D6E
:102A50003200C10D3100900D3000600D2E00320D9E
:102A60002D00050D2C00D90C2B00AE0C2900850C77
:102A700029005C0C2700350C27000E0C2600E80B03
:102A80002400C40B2400A00B23007D0B23005A0B51
:102A90002100390B2100180B2000F80A1F00D90A69
:102AA0001E00BB0A1E009D0A1D00800A1D00630A4D
:102AB0001C00470A1B002C0A1B00110A1A00F70908
:102AC0001A00DD091900C4091900AB09190092099F
:102AD00017007B091800630917004C091600360916
:102AE0001600200916000A091500F5081500E0086F
:102AF0001400CC081400B8081400A40814009008AE
:102B000013007D0812006B081300580812004608D5
:102B100012003408110023081100120811000108E6
:102B20001100F0071000E0071000D0071000C007E8
:102B30001000B0070F00A107100091070E008307D7
:102B40000F0074070F0065070E0057070E004907B6
:102B50000E003B070D002E070E0020070D00130787
:102B60000D0006070D00F9060C00ED060D00E0064D
:102B70000C00D4060C00C8060C00BC060C00B00605
:102B80000C00A4060B0099060C008D060B008206B3
:102B90000B0077060B006C060B0061060A00570657
:102BA0000B004C060A0042060A0038060A002E06F0
:102BB0000A0024060A001A060A0010060900070681
:102BC0000A00FD050900F4050900EB050900E2050E
:102BD0000900D9050900D0050900C7050900BE058F
:102BE0000900B5050800AD050800A50509009C050C
:102BF0000800940508008C050800840508007C0581
:102C00000800740508006C050700650508005D05EF
:102C10000700560508004E05070047050700400558
:102C2000080038050700310507002A0507002305BD
:102C300007001C050600160507000F05070008051C
:102C4000060002050700FB040600F5040700EE0479
:102C50000600E8040600E2040700DB040600D504D1
:102C60000600CF040600C9040600C3040600BD0424
:102C70000600B7040600B1040500AC040600A60473
:102C80000600A00405009B040600950405009004BE
:102C900006008A04050085040500800406007A0405
:102CA000050075040500700405006B04050066044A
:102CB0000500610405005C0405005704050052048A
:102CC00005004D04050048040500430405003E04CA
:102CD00004003A04050035040500300404002C0407
:102CE000050027040400230405001E0404001A0440
:102CF000040016040500110404000D040400090476
:102D000005000404040000040400FC030400F803AC
:102D10000400F4030400F0030400EC030400E803DF
:102D20000400E4030400E0030400DC030400D8030F
:102D30000400D4030400D0030400CC030400C8033F
:102D40000300C503030024F404D9201BC40C5C0E4B
:102D50009804C4095F0265077101F405F900FB04DA
:102D6000B30048048700C1036900580355000303FA
:102D70004500BE023A008402310053022A002902B3
:102D8000250004022000E4011C00C8011900AF0165
:102D900017009801140084011300710110006101F3
:102DA000100051010E0043010D0036010B002B01F4
:102DB0000B0020010B00150109000C0109000301A3
:102DC0000800FB000800F3000800EB000700E40027
:102DD0000600DE000600D8000600D2000600CC0087
:102DE0000500C7000500C2000500BD000400B900D1
:102DF0000400B5000400B1000400AD000400A90007
:102E00000400A5000300A20003009F0004009B0033
:102E10000300980003009500020093000300900057
:102E200003008D0002008B00030088000200860072
:102E3000020084000300810002007F0002007D0088
:102E400002007B000200790002007700010076009A
:102E500002007400020072000100710002006F00A5
:102E600002006D0001006C0002006A0001006900B0
:102E700002006700010066000100650001006400B7
:102E800002006200010061000100600001005F00BB
:102E900002005D0001005C0001005B0001005A00BF
:102EA00001005900010058000100570001005600C0
:102EB00001005500010054000100530000005300C0
:102EC00001005200010051000100500001004F00BC
:102ED00001004E0000004E0001004D0001004C00BA
:102EE00001004B0000004B0001004A0001004900B6
:102EF00001004800000048000100470001004600B2
:102F000000004600010045000000450001004400AB
:102F100001004300000043000100420000004200A5
:102F200001004100000041000100400001003F009D
:102F300000003F0001003E0000003E0001003D0097
:102F400000003D0001003C0000003C0000003C008F
:102F500001003B0000003B0001003A0000003A0085
:102F6000010039000000390001003800000038007D
:102F70000000380001003700000037000100360073
:102F8000000036000000360001003500000035006A
:102F9000000035000100340000003400000034005F
:102FA0000100330000003300000033000100320054
:102FB000000032000000320001003100000031004A
:102FC000000031000100300000003000000030003F
:102FD00001002F0000002F0000002F0000002F0034
:102FE00001002E0000002E0000002E0001002D0028
:102FF00000002D0000002D0000002D0001002C001D
:1030000000002C0000002C0000002C0001002B0010
:1030100000002B0000002B0000002B0001002A0004
:1030200000002A0000002A0000002A0001002900F8
:1030300000002900000029000000290000002900EC
:1030400001002800000028000000280000002800DF
:1030500000002800010027000000270000002700D2
:1030600000002700000027000100260000002600C5
:1030700000002600000026000000260001002500B8
:1030800000002500000025000000250000002500AC
:10309000000025000100240000002400000024009E
:1030A0000000240000002400010023000000230091
:1030B0000000230000002300000023000000230084
:1030C0000000230001002200000022000000220076
:1030D0000000220000002200000022000100210068
:1030E000000021000000210000002100000021005C
:1030F000000021000000210001002000000020004D
:10310000000020000000200000002000000020003F
:10311000000020000000200001001F0000001F0030
:1031200000001F0000001F0000001F0000001F0023
:1031300000001F0001001E0000001E0000001E0015
:1031400000001E0000006563686F3A003A20457871
:10315000747275646572207377697463686564203E
:103160006F66662E204D494E54454D50207472694D
:103170006767657265642021003A2045787472752E
:10318000646572207377697463686564206F66662E
:103190002E204D415854454D502074726967676523
:1031A00072656420210054656D706572617475727A
:1031B0006520686561746564206265642073776961
:1031C0007463686564206F66662E204D41585445CF
:1031D0004D50207472696767657265642021210013
:1031E000202D20496E76616C696420657874727553
:1031F000646572206E756D626572202100504944CD
:10320000204175746F74756E652066696E697368A8
:103210006564212050757420746865204B702C20E3
:103220004B6920616E64204B6420636F6E73746120
:103230006E747320696E746F20436F6E6669677574
:10324000726174696F6E2E68005049442041757434
:103250006F74756E65206661696C656421207469A0
:103260006D656F75740020403A006F6B20543A0012
:103270006F6B20423A00504944204175746F747559
:103280006E65206661696C6564212054656D7065AA
:1032900072617475726520746F6F20686967680069
:1032A000204B643A2000204B693A2000204B703AB2
:1032B000200020436C617369632050494420002042
:1032C00054753A2000204B753A2000206D61783A01
:1032D0002000206D696E3A200020643A20002062B0
:1032E0006961733A2000504944204175746F7475C8
:1032F0006E65207374617274005049442041757486
:103300006F74756E65206661696C65642E2042611C
:1033100064206578747275646572206E756D62657F
:10332000722E004572726F723A000000000018079A
:103330000100A807140030082800B8083C0038092C
:103340005000C0096400480A7800C80A8C00480B85
:10335000A000C80BB400480CC800C80CDC00400D2D
:10336000F000C00D0401380E1801B00E2C01280F1A
:103370004001A00F54011810680188107C01001151
:1033800090013013F401481558024017BC02281967
:103390002003F01A8403A81CE803401E4C044D3897
:1033A0003420582059205A20450043616E6E6F74B6
:1033B00020656E746572207375626469723A2000CC
:1033C0004D3234004D3233202573006175746F2502
:1033D000692E67006572726F722077726974696E08
:1033E0006720746F2066696C6500436172642065B4
:1033F00072726F723A004E6F74205344207072697B
:103400006E74696E67002F005344207072696E7489
:10341000696E67206279746520002E0044656C65D2
:1034200074696F6E206661696C65642C2046696CF6
:10343000653A200046696C652064656C6574656456
:103440003A002E006F70656E206661696C65642CB1
:103450002046696C653A200057726974696E67206E
:10346000746F2066696C653A20002E006F70656E7F
:10347000206661696C65642C2046696C653A2000A1
:103480002E006F70656E206661696C65642C204645
:10349000696C653A200046696C652073656C6563EC
:1034A000746564002053697A653A200046696C654A
:1034B000206F70656E65643A20002E006F70656E37
:1034C000206661696C65642C2046696C653A200051
:1034D00053442063617264206F6B006F70656E529D
:1034E0006F6F74206661696C656400766F6C756DD2
:1034F000652E696E6974206661696C656400534469
:1035000020696E6974206661696C0043616E6E6F3C
:1035100074206F70656E20737562646972006563F4
:10352000686F3A004572726F723A00486172646364
:103530006F6465642044656661756C7420536574BE
:1035400074696E6773204C6F616465640056303136
:10355000300053746F7265642073657474696E67AC
:10356000732072657472696576656400204400207A
:1035700049002020204D3330312050005049442054
:1035800073657474696E67733A00205A002059009D
:1035900020204D323036205800486F6D65206F6610
:1035A0006673657420286D6D293A00204500205A05
:1035B0000020580020420020540020204D32303599
:1035C000205300416476616E6365642076617269A0
:1035D00061626C65733A20533D4D696E2066656586
:1035E000647261746520286D6D2F73292C20543D01
:1035F0004D696E2074726176656C206665656472D3
:1036000061746520286D6D2F73292C20423D6D69F2
:103610006E696D756D207365676D656E7420746974
:103620006D6520286D73292C20583D6D6178696D7A
:10363000756D205859206A65726B20286D6D2F7347
:10364000292C20205A3D6D6178696D756D205A20B6
:103650006A65726B20286D6D2F73292C2020453DE3
:103660006D6178696D756D2045206A65726B2028E3
:103670006D6D2F73290020540020204D32303420EE
:103680005300416363656C65726174696F6E3A20C3
:10369000533D616363656C65726174696F6E2C2064
:1036A000543D7265747261637420616363656C6517
:1036B000726174696F6E00204500205A0020590025
:1036C00020204D3230312058004D6178696D756D84
:1036D00020416363656C65726174696F6E20286D4B
:1036E0006D2F7332293A00204500205A00205900DE
:1036F00020204D3230332058004D6178696D756D52
:103700002066656564726174657320286D6D2F7322
:10371000293A00204500205A0020590020204D3928
:103720003220580053746570732070657220756E76
:1037300069743A0053657474696E67732053746FCB
:10374000726564006563686F3A00544553540D0A0E
:10375000000D0A00556E6B6E6F776E20636F6D6D96
:10376000616E643A20000D0A003F00566572733A9C
:103770005F31352E30352E30322E4D6F65627975C2
:1037800073657800024E414E494E495459494E46A0
:10379000CDCCCC3D0AD7233C17B7D13877CC2B32D0
:1037A0009595E6241FB14F0A000020410000C84251
:1037B00000401C4620BCBE4CCA1B0E5AAEC59D74B0
:1037C000FF94109511241FBECFEFD1E2DEBFCDBF15
:1037D00000E00CBF13E0A0E0B2E0E2E6FEED01E0A5
:1037E0000BBF02C007900D92AE30B107D9F729E1A7
:1037F000AEE0B3E001C01D92A933B207E1F71BE1CF
:10380000C1EEDBE100E006C021970109802FFE0137
:103810000E94D1E7C03ED10780E00807A9F70E94C7
:1038200075E20C941FEF0C9400001F920F920FB6DC
:103830000F9211242F933F938F939F93AF93BF9336
:1038400080910F0390911003A0911103B091120386
:1038500030910E0323E0230F2D3720F40196A11D94
:10386000B11D05C026E8230F0296A11DB11D2093AE
:103870000E0380930F0390931003A0931103B09352
:1038800012038091130390911403A0911503B0913A
:1038900016030196A11DB11D809313039093140389
:1038A000A0931503B0931603BF91AF919F918F9191
:1038B0003F912F910F900FBE0F901F9018952FB72B
:1038C000F89460910F03709110038091110390910F
:1038D00012032FBF08953FB7F8948091130390917E
:1038E0001403A0911503B091160326B5A89B05C03B
:1038F0002F3F19F00196A11DB11D3FBFBA2FA92F6F
:10390000982F8827820F911DA11DB11DBC01CD01EB
:1039100042E0660F771F881F991F4A95D1F70895D7
:10392000CF92DF92EF92FF92CF93DF936B017C01F6
:103930000E946B1CEB01C114D104E104F10479F085
:103940000E946B1C6C1B7D0B683E7340A0F381E0F2
:10395000C81AD108E108F108C851DC4FECCFDF915B
:10396000CF91FF90EF90DF90CF900895019739F0BD
:10397000880F991F880F991F02970197F1F70895F3
:10398000789484B5826084BD84B5816084BD85B53A
:10399000826085BD85B5816085BDEEE6F0E0808101
:1039A00081608083E1E8F0E0108280818260808322
:1039B000808181608083E0E8F0E0808181608083A5
:1039C000E1EBF0E0808184608083E0EBF0E08081D7
:1039D00081608083E1E9F0E0808182608083808182
:1039E00081608083E0E9F0E0808181608083E1EAAA
:1039F000F0E0808182608083808181608083E0EA62
:103A0000F0E0808181608083E1E2F1E0808182608A
:103A10008083808181608083E0E2F1E08081816049
:103A20008083EAE7F0E08081846080838081826027
:103A30008083808181608083808180688083109210
:103A4000C10008951F93CF93DF93182FEB0161E01E
:103A50000E94331E209711F460E004C0CF3FD105CF
:103A600039F461E0812FDF91CF911F910C946F1E8B
:103A7000E12FF0E0E459FA4FE4914E2F50E0FA01C3
:103A80003197E131F10508F093C08827EE58FF4FD8
:103A90008F4F0C94D1E784B5806884BDC7BD8DC0BD
:103AA00084B5806284BDC8BD88C080918000806874
:103AB00080938000D0938900C09388007EC080915D
:103AC0008000806280938000D0938B00C0938A0036
:103AD00074C08091B00080688093B000C093B30040
:103AE0006CC08091B00080628093B000C093B4003D
:103AF00064C080919000806880939000D09399007A
:103B0000C09398005AC0809190008062809390008A
:103B1000D0939B00C0939A0050C080919000886021
:103B200080939000D0939D00C0939C0046C08091EC
:103B3000A00080688093A0008091A0008F7B80937C
:103B4000A000D093A900C093A80037C08091A00026
:103B500080628093A000D093AB00C093AA002DC0D8
:103B60008091A00088608093A000D093AD00C093A6
:103B7000AC0023C080912001806880932001D09305
:103B80002901C093280119C080912001806280938F
:103B90002001D0932B01C0932A010FC080912001F6
:103BA000886080932001D0932D01C0932C0105C023
:103BB000C038D1050CF055CF4FCFDF91CF911F9179
:103BC000089590E0FC013197E131F10508F04AC019
:103BD0008827ED57FF4F8F4F0C94D1E780918000DD
:103BE0008F7703C0809180008F7D8093800008953F
:103BF00084B58F7702C084B58F7D84BD0895809190
:103C0000B0008F7703C08091B0008F7D8093B000AB
:103C10000895809190008F7707C0809190008F7DEC
:103C200003C080919000877F8093900008958091D9
:103C3000A0008F7707C08091A0008F7D03C0809186
:103C4000A000877F8093A0000895809120018F7746
:103C500007C0809120018F7D03C080912001877F64
:103C6000809320010895CF93DF9390E0FC01EE5400
:103C7000FA4F2491FC01E850FA4F8491882361F1B6
:103C800090E0880F991FFC01E85AF94FC591D49133
:103C9000FC01E25CF94FA591B491611109C09FB795
:103CA000F8948881209582238883EC912E230BC081
:103CB000623061F49FB7F8943881822F8095832316
:103CC0008883EC912E2B2C939FBF06C08FB7F8945E
:103CD000E8812E2B28838FBFDF91CF9108951F930A
:103CE000CF93DF93282F30E0F901E459FA4F849104
:103CF000F901EE54FA4FD491F901E850FA4FC4910A
:103D0000CC23C9F0162F81110E94E11DEC2FF0E0A9
:103D1000EE0FFF1FE25CF94FA591B4918FB7F894B5
:103D2000111105C09C91ED2FE095E92302C0EC91A3
:103D3000ED2BEC938FBFDF91CF911F9108951F92D0
:103D40000F920FB60F9211240BB60F922F933F9341
:103D50004F935F936F937F938F939F93AF93BF9393
:103D6000EF93FF9380911B0390911C03892B29F003
:103D7000E0911B03F0911C031995FF91EF91BF9106
:103D8000AF919F918F917F916F915F914F913F91F3
:103D90002F910F900BBE0F900FBE0F901F90189594
:103DA0001F920F920FB60F9211240BB60F922F9302
:103DB0003F934F935F936F937F938F939F93AF93B3
:103DC000BF93EF93FF9380911D0390911E03892B66
:103DD00029F0E0911D03F0911E031995FF91EF91D9
:103DE000BF91AF919F918F917F916F915F914F9113
:103DF0003F912F910F900BBE0F900FBE0F901F9011
:103E000018951F920F920FB60F9211240BB60F92B6
:103E10002F933F934F935F936F937F938F939F93D2
:103E2000AF93BF93EF93FF9380911F039091200373
:103E3000892B29F0E0911F03F09120031995FF9140
:103E4000EF91BF91AF919F918F917F916F915F9112
:103E50004F913F912F910F900BBE0F900FBE0F907F
:103E60001F9018951F920F920FB60F9211240BB648
:103E70000F922F933F934F935F936F937F938F9303
:103E80009F93AF93BF93EF93FF9380912103909102
:103E90002203892B29F0E0912103F0912203199547
:103EA000FF91EF91BF91AF919F918F917F916F9112
:103EB0005F914F913F912F910F900BBE0F900FBECE
:103EC0000F901F9018951F920F920FB60F9211240A
:103ED0000BB60F922F933F934F935F936F937F9304
:103EE0008F939F93AF93BF93EF93FF9380911703AB
:103EF00090911803892B29F0E0911703F091180392
:103F00001995FF91EF91BF91AF919F918F917F9103
:103F10006F915F914F913F912F910F900BBE0F903A
:103F20000FBE0F901F9018951F920F920FB60F9211
:103F300011240BB60F922F933F934F935F936F9380
:103F40007F938F939F93AF93BF93EF93FF93809152
:103F5000190390911A03892B29F0E0911903F0912C
:103F60001A031995FF91EF91BF91AF919F918F9196
:103F70007F916F915F914F913F912F910F900BBE69
:103F80000F900FBE0F901F9018951F920F920FB6B3
:103F90000F9211240BB60F922F933F934F935F9381
:103FA0006F937F938F939F93AF93BF93EF93FF9301
:103FB0008091230390912403892B29F0E09123031E
:103FC000F09124031995FF91EF91BF91AF919F91CB
:103FD0008F917F916F915F914F913F912F910F90B2
:103FE0000BBE0F900FBE0F901F9018951F920F924F
:103FF0000FB60F9211240BB60F922F933F934F934E
:104000005F936F937F938F939F93AF93BF93EF9340
:10401000FF938091250390912603892B29F0E0914D
:104020002503F09126031995FF91EF91BF91AF9170
:104030009F918F917F916F915F914F913F912F91C0
:104040000F900BBE0F900FBE0F901F901895FF9210
:104050000F931F93CF93DF9388EA9FEF90934B03C7
:1040600080934A0340913E0388E0840F405E682FAE
:104070000E94F3290E94C52F80913E038435D8F514
:1040800042E058E066E180E00E94D030D7E1C6E12E
:1040900000E010E0F02E40913E03842F90E0880F66
:1040A000991F98012D5E3F4F2817390744F4440F9C
:1040B0004451401B2D2F6C2F80E00E94D02F809107
:1040C0003E03282F30E0220F331F2017310734F032
:1040D000880F2D2F4FE76C2F8F1904C02D2F4FE71E
:1040E0006C2F80E00E94D02F0F5F1F4FCE5FDE5FEE
:1040F000CA3281F609C0815080933E0342E058E005
:1041000066E180E00E94D0300E94B62980912703AA
:10411000811113C020913E0330E0220F331F4091E4
:104120000802429FC001439F900D112464E670E095
:104130000E947CE788E00E94221D80913D0381114E
:1041400004C0809149038823E9F1809127038111FC
:104150000DC0809108022FEF829FC001112464E6F8
:1041600070E00E947CE788E00E94221D10923D03CF
:1041700010923E034CE360E380E30E94F3298091B8
:10418000490381110E943B3180E094E00E94E6EEF9
:10419000853579F420E030E0A9016091860E7091B8
:1041A000870E8091880E9091890E0E9478E381118C
:1041B00003C083EE9DE302C088EE90E29093460335
:1041C00080934503DF91CF911F910F91FF90089548
:1041D00041E856E068E776E082E796E00E94E7244F
:1041E00080914903882349F180914A0390914B03C0
:1041F0009C01295F3F4F2F30310558F40E948E6794
:1042000080EA9EE00E9419D262E070E08CE997E6B5
:1042100012C09C01285031092830310528F468EA81
:104220007FEF84EB93E507C04097089730F468EA86
:104230007FEF80E59EE30E94B724809148038823A6
:10424000A1F080914A0390914B03883A9F4F69F403
:1042500010923D0380913E03893C58F068EA7FEF5D
:104260008BE391E20E94B72404C010923D031092A8
:104270003E030C94B6299F92AF92BF92CF92DF92E9
:10428000EF92FF920F931F93CF93DF9380914A0396
:1042900090914B03883A9F4F59F58AE190E09093B3
:1042A0004B0380934A032CE637E043E053E080E081
:1042B00090E0F901E80FF91F5083019685309105D0
:1042C000C1F741502B5F3F4F4111F1CF10927C0756
:1042D00010927B0780E099E390937E0780937D079F
:1042E0001092800710927F07109282071092810728
:1042F00080914A0390914B0397FF04C010924B03A7
:1043000010924A0380914A0390914B03880F991FA2
:104310008B36910534F085E390E090934B038093C6
:104320004A0380917F079091800740917B075091CD
:104330007C07480F591F50937C0740937B0760917F
:1043400081077091820720917D0730917E07260FAB
:10435000371F30937E0720937D074F3F510509F0AB
:104360001CF497FF0DC009C04130ECE75E0764F014
:1043700097FF03C091958195910991958195910938
:104380009093800780937F072F3F310509F05CF4FD
:10439000CB0177FF03C09195819591099093820796
:1043A0008093810705C02115FEE13F070CF051C045
:1043B000952F990F990B852F69E170E00E947CE79A
:1043C000262F932F990F990B832F6AE070E00E949C
:1043D0007CE785E0689FF0011124E20FF11DE459AC
:1043E000F84F80818823A9F18150808380918107D3
:1043F0009091820797FF03C09195819591099093C1
:104400008207809381074CE657E0BA0123E080E001
:1044100090E0FB01E80FF91F308131111AC00196BD
:1044200085309105B1F721506B5F7F4F2111EFCFA0
:1044300023E033E080E090E0FA01E80FF91F3083D9
:10444000019685309105C1F721504B5F5F4F2111D7
:10445000F1CF80917D0790917E0781309A430CF4D3
:1044600048C020917B0730917C0780914A0390914E
:104470004B030197880F991F582F4427241735079E
:1044800034F04796982F88278217930734F468EA08
:104490007FEF88EE90E20E94B72420914A0330918A
:1044A0004B038BEF9FEF821B930B982F8827990F5D
:1044B00020917B0730917C07820F931F97FDCF9649
:1044C00056E0959587955A95E1F720917F073091B1
:1044D0008007820F931F9093800780937F0797FF39
:1044E00003C0919581959109925090938207809392
:1044F00081078091810790918207892B59F580E08F
:1045000099E390937E0780937D0780914A03909171
:104510004B039C012B5F3F4F220F331F10927B07F1
:1045200020937C07209149032223A1F0809733E058
:10453000880F991F3A95E1F79093800780937F0742
:1045400097FF03C0919581959109925090938207AE
:10455000809381070E94C52F2CE6E22E27E0F22EE1
:10456000D3E087E0982E9D0ECC24CA94CD0E96E021
:10457000D92EDD0E8701C4E05801F801808188231F
:1045800041F0292D43E14C0F6C2D8FEF8C0F0E94D1
:10459000222FF8018081823039F42D2D42E14C0F19
:1045A0006D2F8C2F0E94562F0F5F1F4FF5018081BA
:1045B000833039F42D2D42E14C0F6D2F8C2F0E944A
:1045C0005230C75EC138C1F6D65FF5E0EF0EF11C80
:1045D000D13239F660917E0780917C0722E0260F68
:1045E00042E0480F0E94222F80914A03880F45E144
:1045F000480F2FE36CE30E94222FDF91CF911F9190
:104600000F91FF90EF90DF90CF90BF90AF909F9071
:104610000C94B6290E94B2310E941B59811106C028
:104620000E94735460E080E00E9401580E941E5670
:1046300087E290E2909346038093450360E070E048
:1046400088E00E94221D0E945F1CDC01CB0188587B
:104650009341A109B1098093290390932A03A09360
:104660002B03B0932C030895CF92DF92EF92FF9229
:104670000E94EE29882309F468C10E94913182B317
:1046800082FB992790F981E089279091A40E9817D1
:1046900059F090914810992321F09150909348102F
:1046A00006C08093A40E03C088E2809348109091C6
:1046B0003D0380913E03992341F0825080933E0355
:1046C00081110BC010923D0308C08E5F80933E03A2
:1046D0008E3719F481E080933D030E94EC7A8823A1
:1046E00009F491C00E94C52F62EF77E08AE00E9432
:1046F000BE2D0E94F37A90E0FC013197EA30F1057B
:1047000008F079C08827EC56FF4F8F4F0C94D1E703
:1047100066EE77E084E10E94BE2D4FED57E068E23F
:1047200081E00E94EA2B4CEC57E061C06CEB77E033
:1047300084E10E94BE2D45EB57E068E281E00E94D3
:10474000EA2B42EA57E053C065E977E084E10E9432
:10475000BE2D4EE857E068E281E00E94EA2B4BE76D
:1047600057E045C06CE677E084E10E94BE2D45E647
:1047700057E068E281E00E94EA2B42E557E037C04B
:1047800062E477E084E10E94BE2D4BE357E068E2EB
:1047900081E00E94EA2B48E257E029C069E177E016
:1047A00084E10E94BE2D42E157E068E281E00E9470
:1047B000EA2B4FEF56E01BC06AEE76E084E10E94E0
:1047C000BE2D43EE56E068E281E00E94EA2B40ED08
:1047D00056E00DC06CEB76E084E10E94BE2D45EB07
:1047E00056E068E281E00E94EA2B42EA56E062E38A
:1047F00081E00E94EA2B80913E0360E8681B482F0D
:104800000E94F32932C00E945F1CC0902903D090FF
:104810002A03E0902B03F0902C03DC01CB018C19D0
:104820009D09AE09BF0988389341A105B10518F566
:104830008091280381110AC00E94C52F6DE876E09F
:1048400084E10E94BE2D81E0809328038091AC0B0F
:104850008350833050F40E945F1C6093290370934F
:104860002A0380932B0390932C03FF90EF90DF900B
:10487000CF900C94B629109228032DEC3CEC4CE41C
:104880005DE3609122197091231980912419909110
:1048900025190E9481E66B017C0123E333E343E7A2
:1048A0005FE360910402709105028091060290918D
:1048B00007020E9481E69B01AC01C701B6010E947C
:1048C00083E2609304027093050280930602909342
:1048D00007022DEC3CEC4CE45DE360911C197091F7
:1048E0001D1980911E1990911F190E9481E66B017C
:1048F0007C0123E333E343E75FE3609100027091BF
:10490000010280910202909103020E9481E69B01C4
:10491000AC01C701B6010E9483E26093000270936C
:1049200001028093020290930302E0914503F0910B
:1049300046031995E0914103F0914203309729F025
:10494000FF90EF90DF90CF901994FF90EF90DF9061
:10495000CF90089510922B1910922A1910922919AC
:10496000109228191092700E08950C945E310F93D6
:104970001F93CF93DF938C01EB0110923C031092B5
:104980003D0310923E034CE360E380E30E94F32971
:104990000E943B31809145039091460390934403DC
:1049A0008093430380914A0390914B03909340037B
:1049B00080933F031093460300934503D0934B032A
:1049C000C0934A03DF91CF911F910F910895EF9209
:1049D000FF920F931F93CF93DF937C018B01EA012A
:1049E00020914A0330914B03283A8FEF3807A9F002
:1049F00037FF06C0285E3F4F30934B0320934A0396
:104A000020914A0330914B032831310534F028516D
:104A1000310930934B0320934A030E94C52F4DE286
:104A200065E080E40E94D12E40E36CE783E00E94C1
:104A3000B42E80914A0390914B0307960F9790F400
:104A40002BE24BE367E085E00E94222F2AE24AE353
:104A500068E086E00E945230A70166E181E20E9490
:104A60004D2E05C0A70166E181E20E94E62D8091EE
:104A70004A0390914B030897089790F42BE24BE779
:104A800067E085E40E94222F2AE24AE768E086E494
:104A90000E945230A80166E181E60E944D2E05C0B9
:104AA000A80166E181E60E94E62D209739F1809108
:104AB0004A0390914B0340970897B0F42DE34BE7DE
:104AC00063E385E00E94222F2CE34AE764E386E05B
:104AD0000E945230BE0185E3DF91CF911F910F916B
:104AE000FF90EF900C94D22DBE0185E3DF91CF9122
:104AF0001F910F91FF90EF900C94BE2DDF91CF91FD
:104B00001F910F91FF90EF9008950E94C52F40E3F1
:104B10006CE783E00C94B42E0F931F93CF93DF9335
:104B20001F921F92CDB7DEB78A0120914A033091C0
:104B30004B03283A4FEF3407A9F037FF06C0205F38
:104B40003F4F30934B0320934A0320914A03309107
:104B50004B032031310534F02051310930934B03A0
:104B600020934A03209149032223C1F020914A0354
:104B700030914B03295F3F4F2F30310578F4611599
:104B8000710531F089839A83FB0119959A81898196
:104B9000009721F068EA7FEF0E94B7240E948525E4
:104BA0000115110511F40BE819E080914A03909169
:104BB0004B0307960F97F8F42DE34BE763E385E08B
:104BC0000E94222F2CE34AE764E386E00E945230E1
:104BD000C8010E942CEB982F990F890FA80165E35B
:104BE00091E4981B892F0F900F90DF91CF911F9127
:104BF0000F910C94CD2CC8010E942CEB982F990F8B
:104C0000890FA80165E391E4981B892F0F900F90FD
:104C1000DF91CF911F910F910C94EA2BAF92BF922D
:104C2000CF92DF92EF92FF920F931F93CF93DF9378
:104C30006C01EA015901A0914A03B0914B03A83AD3
:104C40008FEFB80799F0B7FF05C05096B0934B03AC
:104C5000A0934A0380914A0390914B0380319105C0
:104C60002CF0409790934B0380934A038091490323
:104C7000882331F180914A0390914B039C01295F75
:104C80003F4F2F30310560F46115710511F0FB01C4
:104C90001995C114D104A1F068EA7FEFC6010EC0D6
:104CA0000897089768F40115110511F0F801199596
:104CB000A114B10429F068EA7FEFC5010E94B7246E
:104CC0000E94852580914A0390914B0307960F9788
:104CD000D0F42DE34EE363E385E00E94222F2CE322
:104CE0004DE364E386E00E945230CE010E942CEB3B
:104CF000982F990F890FAE0165E393E2981B892FD6
:104D00000E94CD2C0CC0CE010E942CEB982F880F56
:104D1000980FAE0165E383E2891B0E94EA2B809124
:104D20004A0390914B030897089718F52DE34AE73B
:104D300063E382E40E94222F2CE349E764E383E4E7
:104D40000E945230C7010E942CEB982F990F890FB7
:104D5000A70165E39FE5981B892FDF91CF911F91F4
:104D60000F91FF90EF90DF90CF90BF90AF900C9499
:104D7000CD2CC7010E942CEB982F880F980FA7010C
:104D800065E38FE5891BDF91CF911F910F91FF9014
:104D9000EF90DF90CF90BF90AF900C94EA2BEF9202
:104DA000FF921F93CF93DF93C82F2EE24CE766E26A
:104DB00083E00E94222FD0E0219714E08CE0E82EBF
:104DC000F12CCF3F8FEFD807C1F01D37B1F0CE01E6
:104DD000B7010E947CE7AC01453051051CF4485DE9
:104DE00068E205C08A3030F463E2640F4CE2812F40
:104DF0000E94D12E1F5F2197E4CFDF91CF911F91A9
:104E0000FF90EF9008954F925F926F927F928F92F2
:104E10009F92AF92BF92CF92DF92EF92FF920F9349
:104E20001F93CF93DF93709149037111D8C0E09124
:104E30004A03F0914B03E83AFF4F21F410924B03E1
:104E400010924A03A0914A03B0914B03862E062E7E
:104E5000000C9908B7FF0BC0F401EE0FFF1FEE0F17
:104E6000FF1FEA0FFB1FF0934B03E0934A03E0910F
:104E70004A03F0914B03D401AA0FBB1FAA0FBB1F1B
:104E8000EA17FB074CF074E06702E019F1091124FE
:104E9000F0934B03E0934A0300914A0310914B03B4
:104EA00017FF02C00D5F1F4F79015A016C01159564
:104EB000079515950795702E0E94C52FA0912D037B
:104EC000B0912E03C801992763E0880F991F6A9556
:104ED000E1F70F978A1B9B0BEC0197FD2396D59565
:104EE000C795D595C795AC0FBD1F1816190614F4B4
:104EF000119608C0892B29F4B0932E03A0932D039B
:104F000009C01197B0932E03A0932D0310923D0377
:104F100010923E0380912D0390912E03282F27702D
:104F200033E0969587953A95E1F79AE3692E621AF0
:104F3000DAE0D21BC82F8C2F90E088159905DCF49D
:104F40008C2FF50119952C01FC01148AC7110EC094
:104F500027E02D0F4CE76FEF6D0F83E00E9452307A
:104F6000A2016D2F84E00E94DC2A05C0AC016D2FE8
:104F700084E00E94FA29CF5FD85FD611DCCF28E009
:104F80004CE760E083E00E9452302FE34CE76FE291
:104F900083E00E94D02F29E04CE769E083E00E9483
:104FA000D02F40E36CE783E00E94B42EB60181E08D
:104FB0000E94D22D802FF7011995DF91CF911F917B
:104FC0000F91FF90EF90DF90CF90BF90AF909F90A8
:104FD0008F907F906F905F904F900C94B629DF91E7
:104FE000CF911F910F91FF90EF90DF90CF90BF90E6
:104FF000AF909F908F907F906F905F904F900895AB
:105000000F931F93CF93DF93CDB7DEB766970FB69D
:10501000F894DEBF0FBECDBF80913303909134036F
:1050200020914A0330914B032817390724F49093B9
:105030004B0380934A038091310390913203209176
:105040004A0330914B038217930724F490934B0348
:1050500080934A0380913503813041F4E091360317
:10506000F091370380914A0380838EC0823059F4D7
:10507000E0913603F091370380914A0390914B03FE
:105080009183808381C08330A9F40091360310910D
:10509000370360914A0370914B03072E000C880B75
:1050A000990B0E942CE420E030E048EC52E40E948E
:1050B00082E365C0843089F4E0913603F0913703D0
:1050C00080914A0390914B03092E000CAA0BBB0B55
:1050D00080839183A283B38357C08530A1F4E0918C
:1050E0003603F091370320914A0330914B034FEF81
:1050F000429FC001439F900D112464E670E00E941E
:105100007CE7608341C0863099F4009136031091AA
:10511000370360914A0370914B03072E000C880BF4
:10512000990B0E942CE420E030E040E752E414C0E8
:105130008730A9F4009136031091370360914A0338
:1051400070914B03072E000C880B990B0E942CE4E6
:1051500020E030E048EC52E40E9481E610C0883044
:1051600099F4009136031091370360914A037091CE
:105170004B03072E000C880B990B0E942CE4F801BE
:1051800060837183828393830E94852560913A03B3
:1051900070913B0384E10E94BE2D209135038091E4
:1051A0004A0390914B030091380310913903233047
:1051B00099F4BC01990F880B990B0E942CE420E014
:1051C00030E048EC52E40E9482E39801AE014F5F68
:1051D0005F4F0E94913306C0A801BE016F5F7F4FF1
:1051E0000E947732BE016F5F7F4F8EE10E94CA2B13
:1051F00064E879E0CE0101960E9425EB2091350309
:10520000009138031091390380912F03909130035E
:10521000233099F4BC01990F880B990B0E942CE460
:1052200020E030E048EC52E40E9482E39801AE01B5
:10523000495F5F4F0E94913306C0A801BE01695FBC
:105240007F4F0E947732BE016F5F7F4F85E30E94E0
:10525000CA2B0E94B62980914903882351F060919E
:105260003F037091400380914303909144030E9457
:10527000B72466960FB6F894DEBF0FBECDBFDF91A0
:10528000CF911F910F9108959091BC0097FFFCCF93
:105290008093BB0084E88093BC0008958091BC009B
:1052A00087FFFCCF84E98093BC0008951F93CF93C0
:1052B000DF931F92CDB7DEB7182F84EA8093BC002E
:1052C00080EC69830E944429812F0E9444296981CE
:1052D000862F0E9444290F90DF91CF911F910C944B
:1052E0004E291F920F920FB60F9211240BB60F92F8
:1052F0002F933F934F935F936F937F938F939F93DE
:10530000AF93BF93EF93FF9380914D0390914E0322
:10531000811524E0920719F40E944E2914C0FC0163
:10532000EE5AFC4F80810E9444298091BC0081602C
:105330008093BC0080914D0390914E030196909311
:105340004E0380934D03FF91EF91BF91AF919F91D9
:105350008F917F916F915F914F913F912F910F901E
:105360000BBE0F900FBE0F901F90189560915103C8
:1053700082E00E9456296091500383E00E945629E2
:1053800060914F0384E00E94562984EA8093BC0018
:1053900088E70E94442980E00E94442980E00E941E
:1053A000442980E10E94442980EB0E944429809195
:1053B000BC0087FFFCCF84EA8093BC0088E70E9492
:1053C000442980E40E94442910924E0310924D0318
:1053D0008091BC0081608093BC0008958091BC00E6
:1053E000809581700895809351036093500340939A
:1053F0004F030895DF92EF92FF920F931F93CF9385
:10540000DF93962F969596959695A82FB0E080E815
:10541000989FA00DB11D11249D012E5A3C4FAE52F4
:10542000BC4F677078E0761BE901249615E0FA011D
:10543000E080EE2009F4B8C0F12CE0E2EE1AF108A9
:105440001E9DC0011F9D900D11248755964FFC0194
:10545000F490062E01C0FF0C0A94EAF7F901E080EF
:10546000FE28F0827E01F3E0EF1AF108FC0131968C
:10547000E4910E2F062E01C0000F0A94EAF7F701FF
:10548000D0800D2900837E01F2E0EF1AF108FC01C3
:105490003296E4910E2F062E01C0000F0A94EAF70F
:1054A000F701D0800D290083FC013396E4910E2F83
:1054B000062E01C0000F0A94EAF7FE01D2900D29D2
:1054C0000083FC013496E491062E01C0EE0F0A948D
:1054D000EAF78881E82BE8832A5F3F4F662309F4C7
:1054E0005FC0FA01E080F12CF0E2EF1AF1081E9D96
:1054F000C0011F9D900D11248755964FFC0104910A
:10550000E02FF0E0072E02C0F595E7950A94E2F748
:10551000FC91EF2BEC93FC013196E491F0E0072E27
:1055200002C0F595E7950A94E2F71196FC91119760
:10553000EF2B1196EC931197FC013296E491F0E079
:10554000072E02C0F595E7950A94E2F71296FC91B2
:105550001297EF2B1296EC931297FC013396E4917D
:10556000F0E0072E02C0F595E7950A94E2F713964E
:10557000FC911397EF2B1396EC931397FC01349641
:10558000E491F0E0072E02C0F595E7950A94E2F762
:1055900014968C911497E82B1496EC931497169606
:1055A0004F5F5F4F269643CFDF91CF911F910F91B1
:1055B000FF90EF90DF900895DF92EF92FF920F93AC
:1055C0001F93CF93DF93962F969596959695A82F38
:1055D000B0E080E8989FA00DB11D11249D012E5AC6
:1055E0003C4FAE52BC4F677078E0761BE9012496C1
:1055F00015E0FA01E080EE2009F4C4C0F12CE0E2ED
:10560000EE1AF1081E9DC0011F9D900D11248755B3
:10561000964FFC01F490EF2D062E01C0EE0F0A9478
:10562000EAF7FE2EF094F901E080FE20F0827E0180
:10563000F3E0EF1AF108FC013196E491062E01C067
:10564000EE0F0A94EAF70E2F0095F701D0800D2196
:1056500000837E01F2E0EF1AF108FC013296E4913A
:10566000062E01C0EE0F0A94EAF70E2F0095F701FF
:10567000D0800D210083FC013396E491062E01C0F9
:10568000EE0F0A94EAF70E2F0095FE01D2900D213D
:105690000083FC013496E491062E01C0EE0F0A94BB
:1056A000EAF7E0958881E823E8832A5F3F4F662385
:1056B00009F464C0FA01E080F12CF0E2EF1AF1087D
:1056C0001E9DC0011F9D900D11248755964FFC0112
:1056D0000491E02FF0E0072E02C0F595E7950A94BB
:1056E000E2F7E095FC91EF23EC93FC013196E49115
:1056F000F0E0072E02C0F595E7950A94E2F7E095F1
:105700001196FC911197EF231196EC931197FC01E0
:105710003296E491F0E0072E02C0F595E7950A94E1
:10572000E2F7E0951296FC911297EF231296EC9314
:105730001297FC013396E491F0E0072E02C0F59534
:10574000E7950A94E2F7E0951396FC911397EF23FF
:105750001396EC931397FC013496E491F0E0072E36
:1057600002C0F595E7950A94E2F7E09514968C91BE
:105770001497E8231496EC93149716964F5F5F4F97
:10578000269637CFDF91CF911F910F91FF90EF9029
:10579000DF900895AB01FB0101900020E9F73197FC
:1057A000E61BF70B9E2F990FE90F682F80E48E1BE5
:1057B0000C94FA29AB01FB0101900020E9F7319725
:1057C000E61BF70B9E2F990FE90F682F80E48E1BC5
:1057D0000C94DC2A7F928F929F92AF92BF92CF92CD
:1057E000DF92EF92FF920F931F93CF93DF93962F49
:1057F000969596959695A82FB0E020E8929FA00DDB
:10580000B11D1124CD018E5A9C4F5C01AE52BC4F8C
:10581000677078E0761BFA0124916C01F4E0CF0EFA
:10582000D11C85E0982E222309F4A9C030E0205233
:105830003109929EC001939E900D11248755964F79
:10584000FC012491062E01C0220F0A94EAF7F5010B
:105850003081232B2083E60123977C01FFEFEF1A91
:10586000FF0AF7012491062E01C0220F0A94EAF7DD
:105870003881232B288321968C010E5F1F4FF8015E
:105880002491062E01C0220F0A94EAF73881232BB7
:105890002883EC012396FE018490062E01C0880C1B
:1058A0000A94EAF7F6017290872880829C012C5FA7
:1058B0003F4FF9018490062E01C0880C0A94EAF744
:1058C000F601708087288082F6E0AF0EB11C662357
:1058D00009F44DC0FC01849190E0072E02C095951B
:1058E00087950A94E2F79C91892B8C93F701E490B9
:1058F000F12C072E02C0F594E7940A94E2F7119672
:105900008C911197E82A1196EC921197F801049165
:1059100010E0072E02C0159507950A94E2F712963B
:105920008C911297082B12960C931297FE01C4913A
:10593000D0E0072E02C0D595C7950A94E2F71396DA
:105940008C911397C82B1396CC931397F90124913C
:1059500030E0072E02C0359527950A94E2F7149699
:105960008C911497282B14962C93149716964F5FAE
:105970005F4FFA012491F6E0CF0ED11C54CFDF9196
:10598000CF911F910F91FF90EF90DF90CF90BF903C
:10599000AF909F908F907F9008957F928F929F926B
:1059A000AF92BF92CF92DF92EF92FF920F931F932D
:1059B000CF93DF93962F969596959695A82FB0E066
:1059C00020E8929FA00DB11D1124CD018E5A9C4F4D
:1059D0005C01AE52BC4F677078E0761BFA012491EF
:1059E0006C01F4E0CF0ED11C85E0982E222309F43F
:1059F000B7C030E020523109929EC001939E900DB5
:105A000011248755964FFC012491062E01C0220FC8
:105A10000A94EAF72095F501308123232083E601DB
:105A200023977C01FFEFEF1AFF0AF7012491062E5E
:105A300001C0220F0A94EAF7209538812323288396
:105A400021968C010E5F1F4FF8012491062E01C094
:105A5000220F0A94EAF72095388123232883EC014A
:105A60002396FE018490E82D062E01C0EE0F0A94C5
:105A7000EAF78E2E8094F6017290872080829C0136
:105A80002C5F3F4FF9018490E82D062E01C0EE0FE8
:105A90000A94EAF78E2E8094F60170808720808227
:105AA000F6E0AF0EB11C662309F452C0FC018491EC
:105AB00090E0072E02C0959587950A94E2F78095AD
:105AC0009C9189238C93F701E490F12C072E02C05E
:105AD000F594E7940A94E2F7E09411968C9111976B
