:100000000C94570F0C9414120C9445120C94761205
:100010000C94A7120C94D8120C9409130C943A1354
:100020000C946B130C94880F0C94880F0C94880F0D
:100030000C94880F0C9456850C94880F0C94880FA0
:100040000C94880F0C94EF5D0C94880F0C94880F1F
:100050000C94880F0C94880F0C9453710C948A0F95
:100060000C94880F0C9427380C94880F0C94880FEC
:100070000C94880F0C94880F0C94880F0C94880FA4
:100080000C94880F0C94880F0C94880F0C94880F94
:100090000C94880F0C94880F0C94880F0C94880F84
:1000A0000C94880F0C94880F0C94880F0C94880F74
:1000B0000C94880F0C94880F0C94880F0C94880F64
:1000C0000C94880F0C94880F0C94880F0C94880F54
:1000D0000C94880F0C94880F0C94880F0C94880F44
:1000E0000C94880FC010C510CA10D4104D11DE102A
:1000F000E610EE10F81002110C111B1125114D1114
:100100002F11391143116D11701163116711A7116E
:10011000741178117E11821186118C119011941135
:10012000A7119A119E11A211212021202C202C20F0
:100130002C203720372037204C20422042204220DC
:10014000AE71BD71D971E871027211722B722F728A
:100150003772084AD73B3BCE016E84BCBFFDC12F2E
:100160003D6C74319ABD56833DDA3D00C77F11BEA8
:10017000D9E4BB4C3E916BAAAABE000000803F05AB
:10018000A84CCDB2D44EB93836A9020C50B99186DC
:1001900088083CA6AAAA2ABE000000803F000C9452
:1001A000F4370C94DE100C94A18A0C9437720C94E2
:1001B0006D110C9478110C9439110C94F8100C9466
:1001C000EE9E0C94878B0C943BB30C942F720C9482
:1001D000E6100C9439B40C94BD8A0C9473B50C944D
:1001E000A7110C94189D0C94E98E0C94B5B00C9446
:1001F000B9B30C9467110C948C110C941B110C94D2
:1002000070110C9419B80C9425110C94DFB10C9456
:1002100068B00C9411720C9431B10C9488940C94C5
:1002200016B60C94A2110C949E110C944D110C94C2
:10023000AF8A0C94C5100C940C110C9482110C9480
:10024000738B0C94FC5C0C94EE100C94D9710C9490
:1002500043110C94B3A50C94F0370C9402720C94D7
:1002600036980C9442200C942C200C944C200C9426
:10027000A8910C94C4A00C949A110C94D6BC0C9424
:10028000D4100C942B720C94D7450C94D0B40C94CD
:1002900021200C94B9B60C94BD710C9461960C9409
:1002A00074110C948DB20C94CA100C94C0100C9460
:1002B00046B80C9486110C9483870C94E8710C94C6
:1002C000418C0C9461B70C949C130C94AE710C94FB
:1002D00002110C9457AC0C9494110C942F110C94A3
:1002E00063110C9490110C9437200C947E110C9493
:1002F000E9880000090A02080B0C0D070603040137
:1003000000000000000000000000000000000000ED
:1003100000000000000000000000000000001110BC
:100320000F000000000000000000000000000000BE
:10033000000000000000000001021020200808104A
:100340002040102040800201020108040201010245
:10035000040810204080804020100804020180041E
:100360000201804020100804020108040201010279
:100370000408102040800102040810204080050578
:100380000505070508080808020202020A0A08080B
:100390000404040401010101010101010303030339
:1003A00003030303040707070C0C0C0C0C0C0C0CC8
:1003B0000202020206060606060606060B0B0B0BD9
:1003C0000B0B0B0B00002200250028002B002E0039
:1003D0003100340002010000050108010B0100009A
:1003E0002100240027002A002D00300033000101E5
:1003F0000000040107010A0153544F505045442E98
:1004000020005072696E7465722073746F7070652D
:10041000642064756520746F206572726F72732E2C
:100420002046697820746865206572726F72206159
:100430006E6420757365204D39393920746F2072D0
:100440006573746172742E202854656D70657261D5
:10045000747572652069732072657365742E2053FC
:1004600065742069742061667465722072657374A6
:10047000617274696E6729004B494C4C45442E20CB
:10048000005072696E7465722068616C7465642EC8
:10049000206B696C6C28292063616C6C6564210099
:1004A0006F6B00526573656E643A20002200556ED2
:1004B0006B6E6F776E20636F6D6D616E643A202294
:1004C000004368616E67652066696C616D656E7476
:1004D000005A204F6666736574203A20007A5F6D7B
:1004E00061783A20007A5F6D696E3A20005A204F99
:1004F0006666736574005A204F6666736574206F74
:100500006B00486F74656E64206F66667365747304
:100510003A007A5F6D696E3A2000795F6D696E3AD4
:100520002000785F6D696E3A2000205A3A00205909
:100530003A0020436F756E7420583A200020453AE7
:1005400000205A3A0020593A00583A004649524D84
:10055000574152455F4E414D453A4D61726C696E4F
:100560002056313B20537072696E7465722F67722A
:10057000626C206D617368757020666F72206765AC
:100580006E36204649524D574152455F55524C3ABE
:10059000687474703A2F2F6669726D776172652E78
:1005A000756C74696D616B65722E636F6D2050524E
:1005B0004F544F434F4C5F56455253494F4E3A317B
:1005C0002E30204D414348494E455F545950453ADD
:1005D000556C74696D616B65722045585452554471
:1005E00045525F434F554E543A3220555549443A8F
:1005F00030303030303030302D303030302D303001
:1006000030302D303030302D3030303030303030F0
:10061000303030300A00556C74696D616B65722042
:100620004F66662E0042656420646F6E652E002062
:10063000423A0020453A00543A0042656420486539
:100640006174696E672E0048656174696E67206425
:100650006F6E652E0020573A0020453A00543A004C
:1006600048656174696E672E2E2E002042403A0064
:1006700020403A00202F003A00205400202F002074
:10068000423A00202F006F6B20543A002569206DFC
:10069000696E2C2025692073656300456E642066B1
:1006A000696C65206C69737400426567696E2066C9
:1006B000696C65206C697374004E6F206D6F766590
:1006C0002E00526573756D696E67207072696E7465
:1006D000005761697420666F7220757365722E2EE3
:1006E0002E00536C6565702E2E2E00256920686FD4
:1006F000757273202569206D696E75746573004489
:100700006F6E65207072696E74696E672066696CC1
:10071000650053544F505045442E20005072696E6E
:100720007465722073746F707065642064756520E1
:10073000746F206572726F72732E20466978207410
:100740006865206572726F7220616E6420757365D2
:10075000204D39393920746F207265737461727459
:100760002E202854656D70657261747572652069FC
:10077000732072657365742E20536574206974202C
:1007800061667465722072657374617274696E67F4
:1007900029006F6B004E6F204C696E65204E756DA1
:1007A000626572207769746820636865636B73752E
:1007B0006D2C204C617374204C696E653A20004E9C
:1007C0006F20436865636B73756D2077697468206B
:1007D0006C696E65206E756D6265722C204C61735C
:1007E00074204C696E653A2000636865636B7375AD
:1007F0006D206D69736D617463682C204C61737436
:10080000204C696E653A20004C696E65204E756D0E
:10081000626572206973206E6F74204C617374205E
:100820004C696E65204E756D6265722B312C204CC3
:10083000617374204C696E653A20004D313130008F
:10084000446F6E6520736176696E672066696C65BA
:100850002E006F6B004D3239002020506C616E6E9F
:10086000657242756666657242797465733A2000F6
:100870002046726565204D656D6F72793A20004D96
:100880006179203135203230313700436F6D706926
:100890006C65643A20002844617669642042726184
:1008A000616D2900207C20417574686F723A2000C8
:1008B0004D617920313520323031372032303A33B2
:1008C000393A353800204C61737420557064617476
:1008D00065643A2000312E302E30004D61726C6913
:1008E0006E0020536F667477617265205265736580
:1008F0007400205761746368646F67205265736584
:1009000074002042726F776E206F75742052657389
:100910006574002045787465726E616C2052657351
:10092000657400506F7765725570007374617274EE
:10093000002200656E717565696E672022002200D5
:10094000656E717565696E67202200FFFFFF00000C
:10095000A0400000A0400000004000005243000002
:10096000524300005243000000000000000000005D
:1009700000000000524300005243000052430000B8
:10098000000000000000000000006563686F3A008E
:100990004572726F723A007C3C3E5E2B3D3F2F5B8E
:1009A0005D3B2C2A225C0020746F6F206C6F6E6799
:1009B00020657874727573696F6E207072657665E4
:1009C0006E7465640020636F6C6420657874727562
:1009D00073696F6E2070726576656E74656400650C
:1009E00063686F3A00656E6473746F707320686932
:1009F000743A205A00205A3A00656E6473746F701E
:100A000073206869743A20590020593A00656E6471
:100A100073746F7073206869743A20580020583AD4
:100A200000656E6473746F7073206869743A200097
:100A300024F4D43050C38E20C2A24017828B701190
:100A4000127A910D816CD90AA861E108C75866072E
:100A5000615143061E4B5D05C145A7041A411104AF
:100A6000093D9803713931034036DB026533910249
:100A7000D4305402802E1D02632CEE01752AC5016C
:100A8000B028A001102781018F2564012B244B0180
:100A9000E0223401AC211F018D200D01801FFC00DC
:100AA000841EED00971DDF00B81CD200E61BC600B7
:100AB000201BBC00641AB200B219A8000A19A000D9
:100AC0006A189900D117910040178B00B516840061
:100AD00031167E00B31579003A157300C7146F0004
:100AE00058146A00EE1366008813630025135E0035
:100AF000C7125B006C12570015125400C11151004F
:100B000070114F0021114B00D61049008D10470085
:100B10004610440002104200C00F4000800F3E000B
:100B2000420F3C00060F3B00CB0E3800930E3700FF
:100B30005C0E3500270E3400F30D3200C10D31007C
:100B4000900D3000600D2E00320D2D00050D2C0093
:100B5000D90C2B00AE0C2900850C29005C0C270059
:100B6000350C27000E0C2600E80B2400C40B2400D3
:100B7000A00B23007D0B23005A0B2100390B210011
:100B8000180B2000F80A1F00D90A1E00BB0A1E001D
:100B90009D0A1D00800A1D00630A1C00470A1B00F5
:100BA0002C0A1B00110A1A00F7091A00DD091900A6
:100BB000C4091900AB091900920917007B09180034
:100BC000630917004C0916003609160020091600A3
:100BD0000A091500F5081500E0081400CC081400F7
:100BE000B8081400A4081400900813007D0812002F
:100BF0006B08130058081200460812003408110050
:100C0000230811001208110001081100F00710005C
:100C1000E0071000D0071000C0071000B0070F0059
:100C2000A107100091070E0083070F0074070F0043
:100C300065070E0057070E0049070E003B070D0021
:100C40002E070E0020070D0013070D0006070D00EC
:100C5000F9060C00ED060D00E0060C00D4060C00B1
:100C6000C8060C00BC060C00B0060C00A4060B0065
:100C700099060C008D060B0082060B0077060B0010
:100C80006C060B0061060A0057060B004C060A00B2
:100C900042060A0038060A002E060A0024060A0048
:100CA0001A060A001006090007060A00FD050900D9
:100CB000F4050900EB050900E2050900D905090062
:100CC000D0050900C7050900BE050900B5050800E3
:100CD000AD050800A50509009C050800940508005D
:100CE0008C050800840508007C05080074050800D0
:100CF0006C050700650508005D050700560508003E
:100D00004E050700470507004005080038050700A5
:100D1000310507002A050700230507001C0506000A
:100D2000160507000F050700080506000205070065
:100D3000FB040600F5040700EE040600E8040600C4
:100D4000E2040700DB040600D5040600CF04060019
:100D5000C9040600C3040600BD040600B70406006B
:100D6000B1040500AC040600A6040600A0040500BA
:100D70009B04060095040500900406008A04050003
:100D800085040500800406007A040500750405004A
:100D9000700405006B04050066040500610405008D
:100DA0005C04050057040500520405004D040500CD
:100DB00048040500430405003E0404003A0405000D
:100DC00035040500300404002C0405002704040049
:100DD000230405001E0404001A0404001604050080
:100DE000110404000D0404000904050004040400B7
:100DF00000040400FC030400F8030400F4030400EE
:100E0000F0030400EC030400E8030400E40304001E
:100E1000E0030400DC030400D8030400D40304004E
:100E2000D0030400CC030400C8030300C50303007F
:100E300024F404D9201BC40C5C0E9804C4095F027E
:100E400065077101F405F900FB04B300480487004D
:100E5000C10369005803550003034500BE023A0070
:100E60008402310053022A002902250004022000D6
:100E7000E4011C00C8011900AF011700980114001B
:100E800084011300710110006101100051010E0076
:100E900043010D0036010B002B010B0020010B005C
:100EA000150109000C01090003010800FB000800FE
:100EB000F3000800EB000700E4000600DE00060077
:100EC000D8000600D2000600CC000500C7000500CF
:100ED000C2000500BD000400B9000400B500040014
:100EE000B1000400AD000400A9000400A500030047
:100EF000A20003009F0004009B0003009800030071
:100F00009500020093000300900003008D00020092
:100F10008B000300880002008600020084000300AA
:100F2000810002007F0002007D0002007B000200C1
:100F300079000200770001007600020074000200D0
:100F400072000100710002006F0002006D000100DC
:100F50006C0002006A0001006900020067000100E5
:100F600066000100650001006400020062000100EB
:100F700061000100600001005F0002005D000100EF
:100F80005C0001005B0001005A00010059000100F3
:100F900058000100570001005600010055000100F3
:100FA00054000100530000005300010052000100F2
:100FB00051000100500001004F0001004E000000F0
:100FC0004E0001004D0001004C0001004B000000EC
:100FD0004B0001004A0001004900010048000000E8
:100FE00048000100470001004600000046000100E3
:100FF00045000000450001004400010043000000DE
:1010000043000100420000004200010041000000D6
:1010100041000100400001003F0000003F000100CE
:101020003E0000003E0001003D0000003D000100C8
:101030003C0000003C0000003C0001003B000000C0
:101040003B0001003A0000003A00010039000000B6
:1010500039000100380000003800000038000100AD
:1010600037000000370001003600000036000000A5
:101070003600010035000000350000003500010099
:101080003400000034000000340001003300000090
:101090003300000033000100320000003200000085
:1010A0003200010031000000310000003100010079
:1010B0003000000030000000300001002F00000070
:1010C0002F0000002F0000002F0001002E00000064
:1010D0002E0000002E0001002D0000002D00000059
:1010E0002D0000002D0001002C0000002C0000004D
:1010F0002C0000002C0001002B0000002B00000041
:101100002B0000002B0001002A0000002A00000034
:101110002A0000002A000100290000002900000028
:10112000290000002900000029000100280000001B
:10113000280000002800000028000000280001000E
:101140002700000027000000270000002700000003
:1011500027000100260000002600000026000000F5
:1011600026000000260001002500000025000000E8
:1011700025000000250000002500000025000100DA
:1011800024000000240000002400000024000000CF
:1011900024000100230000002300000023000000C1
:1011A00023000000230000002300000023000100B2
:1011B00022000000220000002200000022000000A7
:1011C0002200000022000100210000002100000098
:1011D000210000002100000021000000210000008B
:1011E000210001002000000020000000200000007D
:1011F000200000002000000020000000200000006F
:10120000200001001F0000001F0000001F00000060
:101210001F0000001F0000001F0000001F00010051
:101220001E0000001E0000001E0000001E00000046
:101230006563686F3A004572723A204D41585445D3
:101240004D50204245440054656D7065726174755F
:1012500072652068656174656420626564207377D7
:10126000697463686564206F66662E204D4158542A
:10127000454D50207472696767657265642021214D
:10128000004572723A204D494E54454D50003A2067
:1012900045787472756465722073776974636865E4
:1012A00064206F66662E204D494E54454D50207483
:1012B00072696767657265642021004572723A2021
:1012C0004D415854454D50003A204578747275642C
:1012D0006572207377697463686564206F66662E33
:1012E000204D415854454D502074726967676572AE
:1012F000656420210048656174696E6720666169D4
:101300006C656400202D20496E76616C69642065EF
:1013100078747275646572206E756D6265722021D5
:1013200000504944204175746F74756E652066697C
:101330006E69736865642120507574207468652037
:101340006C617374204B702C204B6920616E64209B
:101350004B6420636F6E7374616E74732066726F7A
:101360006D2061626F766520696E746F20436F6EC9
:1013700066696775726174696F6E2E6800504944C2
:10138000204175746F74756E65206661696C656463
:10139000212074696D656F75740020403A006F6B91
:1013A00020543A006F6B20423A0050494420417566
:1013B000746F74756E65206661696C656421205474
:1013C000656D706572617475726520746F6F2068E9
:1013D00069676800204B643A2000204B693A20007E
:1013E000204B703A200020436C6173736963205076
:1013F000494420002054753A2000204B753A2000C3
:10140000206D61783A2000206D696E3A20002064DA
:101410003A200020626961733A20006563686F3A80
:10142000004572726F723A0000000000300E010039
:10143000C00E0A00500F1400D00F1E0060102800CC
:10144000E010320070113C00F011460070125000A4
:1014500000135A008013640000146E00901478008A
:101460001015820090158C00101696009016A000A2
:101470001017AA009017B4001018BE009018C800EA
:101480001019D2009019DC00101AE600801AF00042
:10149000001BFA00801B0401F01B0E01701C1801D8
:1014A000F01C2201601D2C01E01D3601501E400180
:1014B000D01E4A01401F5401B01F5E013020680158
:1014C000A020720110217C01902186010022900150
:1014D0006026F401902A5802802EBC02503220036C
:1014E000E03584035039E803803C4C044D38342007
:1014F000582059205A20450043616E6E6F74206554
:101500006E746572207375626469723A20004D32A0
:1015100034004D3233202573006175746F25692EB8
:1015200067006572726F722077726974696E6720E6
:10153000746F2066696C65004E6F74205344207090
:1015400072696E74696E67002F005344207072696F
:101550006E74696E67206279746520002E004465A0
:101560006C6574696F6E206661696C65642C2046D9
:10157000696C653A200046696C652064656C657429
:1015800065643A002E006F70656E206661696C6557
:10159000642C2046696C653A200057726974696E44
:1015A0006720746F2066696C653A20002E006F70AA
:1015B000656E206661696C65642C2046696C653ACD
:1015C00020002E006F70656E206661696C65642C6A
:1015D0002046696C653A200046696C652073656C2D
:1015E0006563746564002053697A653A2000466932
:1015F0006C65206F70656E65643A20002E006F7018
:10160000656E206661696C65642C2046696C653A7C
:1016100020004E6F772066726573682066696C657E
:101620003A20004E6F7720646F696E672066696CA0
:10163000653A20002220706F73002220706172656D
:101640006E743A2200535542524F5554494E45202C
:1016500043414C4C207461726765743A2200747285
:1016600079696E6720746F2063616C6C207375629A
:101670002D67636F64652066696C65732077697494
:101680006820746F6F206D616E79206C6576656C73
:10169000732E204D4158206C6576656C2069733A35
:1016A0000053442063617264206F6B006F70656E3D
:1016B000526F6F74206661696C656400766F6C753B
:1016C0006D652E696E6974206661696C656400538E
:1016D0004420696E6974206661696C006563686F97
:1016E0003A004572726F723A0048617264636F64C7
:1016F00065642044656661756C7420536574746913
:101700006E6773204C6F616465640053746F72651B
:10171000642073657474696E67732072657472698E
:1017200065766564002044002049002020204D3368
:1017300030312050005049442073657474696E67DD
:10174000733A00205A0020590020204D32303620B4
:101750005800486F6D65206F666673657420286D4C
:101760006D293A00204500205A00205800204200F0
:1017700020540020204D32303520530041647661E2
:101780006E636564207661726961626C65733A208C
:10179000533D4D696E2066656564726174652028ED
:1017A0006D6D2F73292C20543D4D696E207472612C
:1017B00076656C20666565647261746520286D6D60
:1017C0002F73292C20423D6D696E696D756D2073F4
:1017D00065676D656E742074696D6520286D732969
:1017E0002C20583D6D6178696D756D205859206ABF
:1017F00065726B20286D6D2F73292C20205A3D6D4A
:101800006178696D756D205A206A65726B20286D4C
:101810006D2F73292C2020453D6D6178696D756DA4
:101820002045206A65726B20286D6D2F732900207A
:10183000540020204D323034205300416363656CE6
:1018400065726174696F6E3A20533D616363656CC4
:1018500065726174696F6E2C20543D72657472619B
:10186000637420616363656C65726174696F6E0097
:10187000204500205A0020590020204D32303120D0
:1018800058004D6178696D756D20416363656C65C5
:10189000726174696F6E20286D6D2F7332293A0062
:1018A000204500205A0020590020204D323033209E
:1018B00058004D6178696D756D206665656472616B
:1018C00074657320286D6D2F73293A002045002020
:1018D0005A0020590020204D393220580053746599
:1018E00070732070657220756E69743A0053657468
:1018F00074696E67732053746F7265640065636802
:101900006F3A0002436172642072656D6F766564A0
:10191000004361726420696E736572746564002DA2
:101920002D3A2D2D002D2D2D0053440001200001B6
:1019300020000120004D363030004368616E67653D
:101940002066696C616D656E7400466C6F7720313E
:1019500000466C6F77203100466C6F772030004670
:101960006C6F7720300046616E207370656564008F
:1019700046616E207370656564004265640042656F
:1019800064004E6F7A7A6C6532004E6F7A7A6C65BD
:1019900032004E6F7A7A6C65004E6F7A7A6C650011
:1019A0005370656564005370656564004D61696ED0
:1019B000004D383420583020593000473238005A12
:1019C000005072656865617420504C412042656426
:1019D000005072656865617420504C4120416C6C08
:1019E000005072656865617420504C41203200508F
:1019F00072656865617420504C41203100507265F9
:101A0000706172650050726568656174204142536F
:101A100020426564005072656865617420414253DC
:101A200020416C6C005072656865617420414253BE
:101A30002032005072656865617420414253203144
:101A4000005072657061726500580059005A004577
:101A50007874727564657200457874727564657225
:101A6000004D6F7665205A004D6F76652059004D08
:101A70006F76652058004D6F766520617869730038
:101A80004D6F766520302E316D6D004D6F7665207F
:101A9000316D6D004D6F76652031306D6D00507287
:101AA0006570617265004D6F7665206178697300BD
:101AB000436F6F6C646F776E005072656865617418
:101AC00020414253005072656865617420504C415A
:101AD000004D6F7665205A004175746F20686F6DF8
:101AE00065004D38340044697361626C652073741D
:101AF000657070657273004D61696E0053746F722A
:101B000065206D656D6F72790042656400426564A1
:101B1000004E6F7A7A6C65004E6F7A7A6C6500467B
:101B2000616E2073706565640046616E2073706538
:101B300065640054656D70657261747572650053FB
:101B4000746F7265206D656D6F7279004265640017
:101B5000426564004E6F7A7A6C65004E6F7A7A6CDB
:101B6000650046616E2073706565640046616E2095
:101B700073706565640054656D706572617475722B
:101B80006500507265686561742041425320636F3F
:101B90006E66005072656865617420504C41206328
:101BA0006F6E66005049442D43005049442D430058
:101BB0005049442D44005049442D44005049442D7F
:101BC00049005049442D49005049442D5000504986
:101BD000442D500046616E20737065656400466157
:101BE0006E20737065656400426564004265640040
:101BF0004E6F7A7A6C6532004E6F7A7A6C6532007D
:101C00004E6F7A7A6C65004E6F7A7A6C6500436F1E
:101C10006E74726F6C004573746570732F6D6D0018
:101C20004573746570732F6D6D005A7374657073AE
:101C30002F6D6D005A73746570732F6D6D0059733D
:101C4000746570732F6D6D005973746570732F6DAB
:101C50006D005873746570732F6D6D0058737465E3
:101C600070732F6D6D00412D726574726163740025
:101C7000412D7265747261637400416D61782065F5
:101C800000416D6178206500416D6178207A0041E6
:101C90006D6178207A00416D6178207900416D6135
:101CA00078207900416D6178207800416D6178205D
:101CB00078005654726176206D696E0056547261D8
:101CC00076206D696E00566D696E00566D696E0006
:101CD000566D6178206500566D6178206500566DFF
:101CE0006178207A00566D6178207A00566D6178AF
:101CF000207900566D6178207900566D61782078E2
:101D000000566D617820780056652D6A65726B000B
:101D100056652D6A65726B00567A2D6A65726B0086
:101D2000567A2D6A65726B005678792D6A65726BEA
:101D3000005678792D6A65726B00416363656C00AB
:101D4000416363656C00436F6E74726F6C004D612C
:101D50007920313520323031372032303A33393A38
:101D60003539003235303030305F6475616C005584
:101D70006C74696D616B65722B3A31352E30352E7E
:101D800030312E4D6F6562797573004669726D77DB
:101D90006172652076657273696F6E004669726D57
:101DA000776172652076657273696F6E0052657334
:101DB000746F7265206661696C73616665004C6F53
:101DC0006164206D656D6F72790053746F72652068
:101DD0006D656D6F7279004D6F74696F6E0054653B
:101DE0006D7065726174757265004D61696E004D4C
:101DF000383420582059205A2045004D3234004DA7
:101E0000323320257300052E2E004D61696E004E81
:101E10006F2053442063617264005072696E7420B5
:101E200066726F6D2053440053746F702070726936
:101E30006E7400526573756D65207072696E740002
:101E40005061757365207072696E7400436F6E74B3
:101E5000726F6C00507265706172650054756E65CA
:101E600000496E666F2073637265656E004E414E69
:101E7000494E495459494E46CDCCCC3D0AD7233C16
:101E800017B7D13877CC2B329595E6241FB14F0A7E
:101E9000000020410000C84200401C4620BCBE4C4F
:101EA000CA1B0E5AAEC59D74F03768B0F4371124C2
:101EB0001FBECFEFD1E2DEBFCDBF00E00CBF14E00C
:101EC000A0E0B2E0E2E6F1E901E00BBF02C007905A
:101ED0000D92A037B107D9F722E1A0E7B4E001C025
:101EE0001D92A835B207E1F71FE0C6E5DFE000E08C
:101EF00006C021970109802FFE010E943BC2C43514
:101F0000D10780E00807A9F70E94DCBC0C949FC8A9
:101F10000C9400001F920F920FB60F9211242F9372
:101F20003F938F939F93AF93BF9380917104909150
:101F30007204A0917304B09174043091700423E092
:101F4000230F2D3720F40196A11DB11D05C026E8F1
:101F5000230F0296A11DB11D20937004809371047C
:101F600090937204A0937304B093740480917504E9
:101F700090917604A0917704B09178040196A11D08
:101F8000B11D8093750490937604A0937704B09369
:101F90007804BF91AF919F918F913F912F910F90B6
:101FA0000FBE0F901F9018952FB7F8946091710491
:101FB0007091720480917304909174042FBF0895FE
:101FC0003FB7F8948091750490917604A0917704BE
:101FD000B091780426B5A89B05C02F3F19F0019653
:101FE000A11DB11D3FBFBA2FA92F982F8827820F9F
:101FF000911DA11DB11DBC01CD0142E0660F771FEF
:10200000881F991F4A95D1F70895CF92DF92EF92DA
:10201000FF92CF93DF936B017C010E94E00FEB01F5
:10202000C114D104E104F10479F00E94E00F6C1BAB
:102030007D0B683E7340A0F381E0C81AD108E10827
:10204000F108C851DC4FECCFDF91CF91FF90EF90BA
:10205000DF90CF900895019739F0880F991F880F6E
:10206000991F02970197F1F70895789484B58260DB
:1020700084BD84B5816084BD85B5826085BD85B52C
:10208000816085BDEEE6F0E0808181608083E1E8DB
:10209000F0E0108280818260808380818160808313
:1020A000E0E8F0E0808181608083E1EBF0E0808116
:1020B00084608083E0EBF0E0808181608083E1E9EF
:1020C000F0E0808182608083808181608083E0E9AC
:1020D000F0E0808181608083E1EAF0E080818260CD
:1020E0008083808181608083E0EAF0E0808181608C
:1020F0008083E1E2F1E08081826080838081816081
:102100008083E0E2F1E0808181608083EAE7F0E0B3
:10211000808184608083808182608083808181600F
:1021200080838081806880831092C10008951F930E
:10213000CF93DF93182FEB0161E00E94A811209745
:1021400011F460E004C0CF3FD10539F461E0812F84
:10215000DF91CF911F910C94E411E12FF0E0EE504C
:10216000FD4FE4914E2F50E0FA013197E131F10536
:1021700008F093C08827EE58FF4F8F4F0C943BC256
:1021800084B5806884BDC7BD8DC084B5806284BDC0
:10219000C8BD88C080918000806880938000D09303
:1021A0008900C09388007EC0809180008062809307
:1021B0008000D0938B00C0938A0074C08091B000DF
:1021C00080688093B000C093B3006CC08091B00071
:1021D00080628093B000C093B40064C0809190008E
:1021E000806880939000D0939900C09398005AC063
:1021F00080919000806280939000D0939B00C09368
:102200009A0050C080919000886080939000D09395
:102210009D00C0939C0046C08091A0008068809380
:10222000A0008091A0008F7B8093A000D093A90094
:10223000C093A80037C08091A00080628093A00066
:10224000D093AB00C093AA002DC08091A0008860FD
:102250008093A000D093AD00C093AC0023C08091C8
:102260002001806880932001D0932901C093280128
:1022700019C080912001806280932001D0932B01AE
:10228000C0932A010FC080912001886080932001B3
:10229000D0932D01C0932C0105C0C038D1050CF09E
:1022A00055CF4FCFDF91CF911F91089590E0FC0162
:1022B0003197E131F10508F04AC08827ED57FF4F0B
:1022C0008F4F0C943BC2809180008F7703C0809128
:1022D00080008F7D80938000089584B58F7702C041
:1022E00084B58F7D84BD08958091B0008F7703C041
:1022F0008091B0008F7D8093B00008958091900010
:102300008F7707C0809190008F7D03C080919000EF
:10231000877F8093900008958091A0008F7707C0F9
:102320008091A0008F7D03C08091A000877F809363
:10233000A0000895809120018F7707C0809120012F
:102340008F7D03C080912001877F809320010895B5
:10235000CF93DF9390E0FC01E85CFC4F2491FC01FB
:10236000E258FC4F8491882361F190E0880F991F17
:10237000FC01E252FC4FC591D491FC01EC53FC4F9F
:10238000A591B491611109C09FB7F89488812095F7
:1023900082238883EC912E230BC0623061F49FB7B7
:1023A000F8943881822F809583238883EC912E2B9B
:1023B0002C939FBF06C08FB7F894E8812E2B2883FB
:1023C0008FBFDF91CF9108951F93CF93DF93282F75
:1023D00030E0F901EE50FD4F8491F901E85CFC4FCB
:1023E000D491F901E258FC4FC491CC23C9F0162FC7
:1023F00081110E945611EC2FF0E0EE0FFF1FEC53FD
:10240000FC4FA591B4918FB7F894111105C09C9120
:10241000ED2FE095E92302C0EC91ED2BEC938FBFFB
:10242000DF91CF911F9108951F920F920FB60F92D7
:1024300011240BB60F922F933F934F935F936F939B
:102440007F938F939F93AF93BF93EF93FF9380916D
:102450007D0490917E04892B29F0E0917D04F09118
:102460007E041995FF91EF91BF91AF919F918F914C
:102470007F916F915F914F913F912F910F900BBE84
:102480000F900FBE0F901F9018951F920F920FB6CE
:102490000F9211240BB60F922F933F934F935F939C
:1024A0006F937F938F939F93AF93BF93EF93FF931C
:1024B00080917F0490918004892B29F0E0917F0422
:1024C000F09180041995FF91EF91BF91AF919F9189
:1024D0008F917F916F915F914F913F912F910F90CD
:1024E0000BBE0F900FBE0F901F9018951F920F926A
:1024F0000FB60F9211240BB60F922F933F934F9369
:102500005F936F937F938F939F93AF93BF93EF935B
:10251000FF938091810490918204892B29F0E091AE
:102520008104F09182041995FF91EF91BF91AF91D1
:102530009F918F917F916F915F914F913F912F91DB
:102540000F900BBE0F900FBE0F901F9018951F920B
:102550000F920FB60F9211240BB60F922F933F9349
:102560004F935F936F937F938F939F93AF93BF939B
:10257000EF93FF938091830490918404892B29F039
:10258000E0918304F09184041995FF91EF91BF913C
:10259000AF919F918F917F916F915F914F913F91FB
:1025A0002F910F900BBE0F900FBE0F901F9018959C
:1025B0001F920F920FB60F9211240BB60F922F930A
:1025C0003F934F935F936F937F938F939F93AF93BB
:1025D000BF93EF93FF938091790490917A04892BB4
:1025E00029F0E0917904F0917A041995FF91EF9127
:1025F000BF91AF919F918F917F916F915F914F911B
:102600003F912F910F900BBE0F900FBE0F901F9018
:1026100018951F920F920FB60F9211240BB60F92BE
:102620002F933F934F935F936F937F938F939F93DA
:10263000AF93BF93EF93FF9380917B0490917C04C1
:10264000892B29F0E0917B04F0917C041995FF918E
:10265000EF91BF91AF919F918F917F916F915F911A
:102660004F913F912F910F900BBE0F900FBE0F9087
:102670001F9018951F920F920FB60F9211240BB650
:102680000F922F933F934F935F936F937F938F930B
:102690009F93AF93BF93EF93FF93809185049091A5
:1026A0008604892B29F0E0918504F0918604199520
:1026B000FF91EF91BF91AF919F918F917F916F911A
:1026C0005F914F913F912F910F900BBE0F900FBED6
:1026D0000F901F9018951F920F920FB60F92112412
:1026E0000BB60F922F933F934F935F936F937F930C
:1026F0008F939F93AF93BF93EF93FF938091870442
:1027000090918804892B29F0E0918704F091880446
:102710001995FF91EF91BF91AF919F918F917F910B
:102720006F915F914F913F912F910F900BBE0F9042
:102730000FBE0F901F901895CF92DF92EF92FF92ED
:102740000F931F93CF93DF936C01EB017B01E40E9A
:10275000F51E00E010E0CE15DF0561F06991D601AD
:10276000ED91FC910190F081E02DC6011995080FC3
:10277000191FF1CFC801DF91CF911F910F91FF90E9
:10278000EF90DF90CF9008956115710579F0FB010E
:1027900001900020E9F73197AF01461B570BDC0190
:1027A000ED91FC910280F381E02D199480E090E09E
:1027B00008950C94C413DC01ED91FC910190F0811B
:1027C000E02D1994FC01659175918591949108957E
:1027D000EF92FF920F931F93CF93DF93EC01CC0FF7
:1027E000DD1FCC0FDD1FCE018A59964F0E94E213E8
:1027F0009E012057394F79018E010C57194FF8016E
:1028000020813181428153810E94EABCF7016083BB
:10281000718382839383CE018258964F0E94E21384
:102820009E012858394F7901F80120813181428178
:1028300053810E94EABCF701608371838283938392
:10284000CE018E58964F0E94E213C55FDD4FF8010E
:1028500020813181428153810E94EABC688379835F
:102860008A839B83DF91CF911F910F91FF90EF900F
:1028700008952F923F924F925F926F927F928F9224
:102880009F92AF92BF92CF92DF92EF92FF920F93FF
:102890001F93CF93DF9300D01F92CDB7DEB79C83F9
:1028A0008B83FC01E55BF64F94905C01AA0CBB1C8A
:1028B000AA0CBB1CC5018057994F1C01FC0110825A
:1028C0001182128213822CE936E048E956E064E96D
:1028D00076E080E996E00E94485CC501865A964FF2
:1028E0000E94E2136B017C01692D990C770B880B18
:1028F000990B0E9493BE2B013C01C501825B994F4D
:102900004C0120E030E040EC5FE3C701B6010E94DB
:10291000E8C0A30192010E94E8C0F40160837183C2
:1029200082839383C501895D9D4F9A838983FC01CE
:1029300060817181828193816093050270930602A8
:10294000809307029093080220E030E040E752E4D1
:102950000E94E9BD20E6C22E26E0D22E7B018C012A
:102960002AE536E046E556E062E576E08EE496E05C
:102970000E94A0510E94A564F1011082118212826E
:1029800013822CE936E048E956E064E976E080E914
:1029900096E00E94485CC501825B964F5C010E94F4
:1029A000E2139058A30192010E94E8C0F4016083F1
:1029B00071838283938320E030E040E752E46091AA
:1029C00005027091060280910702909108020E9410
:1029D000E9BD7B018C012AE536E046E556E062E57B
:1029E00076E08EE496E00E94A0510E94A564C501A5
:1029F0000E94E2139B01AC010E94EABCA301920178
:102A00000E94E8C0F401608371838283938320E095
:102A100030E040E05FE3E981FA8160817181828189
:102A200093810E94E8C06093050270930602809330
:102A300007029093080220E030E040E752E40E9451
:102A4000E9BD7B018C012AE536E046E556E062E50A
:102A500076E08EE496E00E94A0510E94A5648B81EE
:102A60009C810E94E813F10180819181A281B38150
:102A7000F40180839183A283B383109205021092A4
:102A8000060210920702109208020E94DF5DEB819D
:102A9000FC81EB58F94F81E080830F900F900F90ED
:102AA0000F90DF91CF911F910F91FF90EF90DF90EA
:102AB000CF90BF90AF909F908F907F906F905F90DE
:102AC0004F903F902F900895FC012491222341F0D4
:102AD0003091C00035FFFCCF2093C6000196F4CFA3
:102AE00022E030E083E399E00C945E3AFC0124910B
:102AF000222341F03091C00035FFFCCF2093C60067
:102B00000196F4CF2AE030E083E399E00C94AC39ED
:102B1000CF93DF931F921F92CDB7DEB72091521251
:102B200030915312CE0101962115310519F48855C3
:102B3000924102C0821B930B9A83898389819A8177
:102B40000F900F90DF91CF9108952091A3043091C1
:102B5000A404243031050CF069C0BC012091A50407
:102B60003091A60440E6429FC001439F900D11247E
:102B700083559B4F0E948BC5EAE8F9E08491882336
:102B800041F09091C00095FFFCCF8093C600319634
:102B9000F5CFE0E4F9E08491882341F09091C00002
:102BA00095FFFCCF8093C6003196F5CF8091A504A8
:102BB0009091A60420E6289FF001299FF00D112492
:102BC000E355FB4F8191882339F09091C00095FF28
:102BD000FCCF8093C600F6CFEEE3F9E08491882322
:102BE00041F09091C00095FFFCCF8093C6003196D4
:102BF000F5CF8091C00085FFFCCF8AE08093C600AE
:102C00008091A5049091A604019664E070E00E9472
:102C1000E6C19093A6048093A5048091A3049091AB
:102C2000A40401969093A4048093A3040895209192
:102C3000A3043091A404243031050CF069C0BC0118
:102C40002091A5043091A60440E6429FC001439F15
:102C5000900D112483559B4F0E9417C5EAE8F9E0B7
:102C60008491882341F09091C00095FFFCCF809320
:102C7000C6003196F5CFE3E3F9E08491882341F073
:102C80009091C00095FFFCCF8093C6003196F5CFA0
:102C90008091A5049091A60420E6289FF001299F29
:102CA000F00D1124E355FB4F8191882339F0909169
:102CB000C00095FFFCCF8093C600F6CFE1E3F9E0BA
:102CC0008491882341F09091C00095FFFCCF8093C0
:102CD000C6003196F5CF8091C00085FFFCCF8AE019
:102CE0008093C6008091A5049091A604019664E0AB
:102CF00070E00E94E6C19093A6048093A5048091A1
:102D0000A3049091A40401969093A4048093A30437
:102D1000089540E950ED63E070E083E399E00E949C
:102D20006038EBE2F9E08491882341F09091C00093
:102D300095FFFCCF8093C6003196F5CF8091C000FF
:102D400085FFFCCF8AE08093C6008AE899E0FC0109
:102D50002491222341F03091C00035FFFCCF209315
:102D6000C6003196F5CF24B720FF14C0E3E2F9E0A6
:102D70003491332341F04091C00045FFFCCF3093A4
:102D8000C6003196F5CF3091C00035FFFCCF3AE058
:102D90003093C60021FF14C0E3E1F9E034913323FE
:102DA00041F04091C00045FFFCCF3093C600319602
:102DB000F5CF3091C00035FFFCCF3AE03093C6002C
:102DC00022FF14C0E2E0F9E03491332341F0409156
:102DD000C00045FFFCCF3093C6003196F5CF30914F
:102DE000C00035FFFCCF3AE03093C60023FF14C08B
:102DF000E2EFF8E03491332341F04091C00045FF09
:102E0000FCCF3093C6003196F5CF3091C00035FF2E
:102E1000FCCF3AE03093C60025FF14C0E2EEF8E0A4
:102E20002491222341F03091C00035FFFCCF209344
:102E3000C6003196F5CF2091C00025FFFCCF2AE0D7
:102E40002093C60014BEEBEDF8E02491222341F05C
:102E50003091C00035FFFCCF2093C6003196F5CFEE
:102E6000E5EDF8E02491222341F03091C00035FFD8
:102E7000FCCF2093C6003196F5CF2091C00025FFEE
:102E8000FCCF2AE02093C600FC012491EAE8F9E097
:102E9000222349F03091C00035FFFCCF2093C600BB
:102EA00031962491F5CFE5ECF8E02491222341F00E
:102EB0003091C00035FFFCCF2093C6003196F5CF8E
:102EC000E0EBF8E02491222341F03091C00035FF7F
:102ED000FCCF2093C6003196F5CFE4EAF8E02491C8
:102EE000222341F03091C00035FFFCCF2093C60073
:102EF0003196F5CFE6E9F8E02491222341F03091B4
:102F0000C00035FFFCCF2093C6003196F5CF20914D
:102F1000C00025FFFCCF2AE02093C600EBE8F8E0D4
:102F20002491222341F03091C00035FFFCCF209343
:102F3000C6003196F5CFEFE7F8E02491222341F067
:102F40003091C00035FFFCCF2093C6003196F5CFFD
:102F50002091C00025FFFCCF2AE02093C600FC0191
:102F60008491EAE8F9E0882349F09091C00095FF48
:102F7000FCCF8093C60031968491F5CFE0E7F8E06E
:102F80008491882341F09091C00095FFFCCF8093FD
:102F9000C6003196F5CF0E9488154AE050E0BC018A
:102FA00083E399E00E947E39E9E5F8E08491882383
:102FB00041F09091C00095FFFCCF8093C600319600
:102FC000F5CF4AE050E060ED74E083E399E00E94C1
:102FD0007E398091C00085FFFCCF8AE08093C600D7
:102FE0001092A9041092AA041092AB041092AC049F
:102FF0000E9403840E94E96A0E945E510E94028539
:103000000E949D650E94059BFFEF23ED80E3F15038
:1030100020408040E1F700C00000089580919D04A9
:1030200090919E0460E070E001960C946CC28091D7
:103030009D0490919E044AE050E060E070E00196AB
:103040000C94DBC3682F70E02091A7043091A80492
:1030500040E6429FC001439F900D112483559B4F32
:103060000E9480C59C0190939E0480939D0481E002
:10307000232B09F480E008950E94D40F60939904F3
:1030800070939A0480939B0490939C0408950E94EB
:10309000D40F6093990470939A0480939B04909347
:1030A0009C04E091A704F091A804E755FB4F8081B0
:1030B000811114C0E0EAF4E08491882341F09091FA
:1030C000C00095FFFCCF8093C6003196F5CF80916C
:1030D000C00085FFFCCF8AE08093C600089583E39B
:1030E00099E00E94B238E3EAF4E08491882341F049
:1030F0009091C00095FFFCCF8093C6003196F5CF2C
:103100004091320650913306609134067091350635
:103110004F5F5F4F6F4F7F4F2AE030E083E399E0CE
:103120000E9457398091C00085FFFCCF8AE08093D0
:10313000C6000C9447182F923F924F925F926F9265
:103140007F928F929F92AF92BF92CF92DF92EF9237
:10315000FF920F931F93CF93DF93CDB7DEB76E9798
:103160000FB6F894DEBF0FBECDBF30E6F32E44E0BD
:10317000A42EB12C5CE1852E57E0952E6AE0E62E58
:1031800072E9672E77E0772EDD24D3948091B4091D
:103190009091B5092091B6093091B709821B930B24
:1031A0008F779927892B09F428C28091A3049091E5
:1031B000A40404970CF021C283E399E00E9496389E
:1031C0008093A2042091A0043091A1048A3061F080
:1031D0008D3051F08A3321F490919F04992321F08E
:1031E0002F3531050CF42BC12115310519F410923E
:1031F0009F046AC3E091A504F091A604FE9E80019D
:10320000FF9E100D1124200F311FD901A355BB4F74
:103210001C9280919F0481110DC110929F04E7556B
:10322000FB4F1082980123553B4F29016EE470E05B
:10323000C9010E9480C50097E9F190939E04809394
:103240009D0484199509800F911F4AE050E060E0C9
:1032500070E082559B4F0E94DBC3609336067093EB
:103260003706809338069093390600913206109104
:10327000330620913406309135060F5F1F4F2F4FD4
:103280003F4F4090A5045090A60460177107820735
:10329000930709F4F3C0F49CC001F59C900D112430
:1032A0006BE378E083559B4F0E9445C5892B09F05D
:1032B000E5C076C16AE270E0C2010E9480C5892B38
:1032C00009F444C0E0E9F9E08491882341F0909149
:1032D000C00095FFFCCF8093C6003196F5CFE5E99D
:1032E000F7E08491882341F09091C00095FFFCCFD6
:1032F0008093C6003196F5CF409132065091330647
:1033000060913406709135062AE030E083E399E05D
:103310000E9457398091C00085FFFCCF8AE08093DE
:10332000C6001092A1041092A004CEC2809136066D
:1033300090913706A0913806B091390680933206F5
:1033400090933306A0933406B09335068091A5047C
:103350009091A604F89E8001F99E100D1124C801D9
:1033600083559B4F2C0167E470E00E9480C5009755
:1033700009F44BC090939E0480939D048419950991
:10338000800F911F60E070E082559B4F0E946CC2DD
:103390000E945BBE6430710508F037C080918B04D9
:1033A00081111AC08091A60681112FC0F30184916A
:1033B000E2E9F7E0882349F09091C00095FFFCCF47
:1033C0008093C60031968491F5CF8091C00085FF2F
:1033D000FCCFE092C60019C0F4018491ECE1F7E063
:1033E000882349F09091C00095FFFCCF8093C600E0
:1033F00031968491F5CF8091C00085FFFCCFE0929B
:10340000C60082E197E00E94949A8091A504909171
:10341000A6040196B5010E94E6C19093A60480938C
:10342000A5048091A3049091A40401969093A40410
:103430008093A3041092A1041092A004A7CE8B3312
:1034400011F4D0929F0490919F0491119FCE4091CE
:10345000A5045091A604B9016F5F7F4F7093A1043A
:103460006093A004F49EF001F59EF00D11242E0F40
:103470003F1FF901E355FB4F808388CEF49C800108
:10348000F59C100D1124C80183559B4F2C016AE255
:1034900070E00E9480C5009709F450C020E0312CF4
:1034A000F801E20FF11DE355FB4F30813A3219F07C
:1034B0002F5F3326F5CF90939E0480939D0484194B
:1034C0009509800F911F60E070E082559B4F0E942C
:1034D0006CC20E945BBE232D30E02617370709F42B
:1034E00025CFE0E9F9E08491882341F09091C00074
:1034F00095FFFCCF8093C6003196F5CFE9EEF7E05B
:103500008491882341F09091C00095FFFCCF809377
:10351000C6003196F5CF4091320650913306609146
:103520003406709135062AE030E083E399E00E948A
:1035300057398091C00085FFFCCF2CC0E0E9F9E04D
:103540008491882341F09091C00095FFFCCF809337
:10355000C6003196F5CFEFEBF7E08491882341F078
:103560009091C00095FFFCCF8093C6003196F5CFB7
:1035700040913206509133066091340670913506C1
:103580002AE030E083E399E00E9457398091C0003F
:1035900085FFFCCF8AE08093C6000E946F18C1CEE1
:1035A000E0E9F9E08491882341F09091C00095FF13
:1035B000FCCF8093C6003196F5CFE8E0F8E0849127
:1035C000882341F09091C00095FFFCCF8093C60006
:1035D0003196F5CF40913206509133066091340612
:1035E000709135062AE030E083E399E00E94573974
:1035F0008091C00085FFFCCFCDCF8091A8068823A5
:1036000009F462C18091A0049091A104892B09F072
:103610005BC18091A3049091A404892B11F41092B2
:10362000890400E611E084E0C82ED12C9CE3892EA9
:10363000912CA12CB12C2BEE222E26E0322E9E01B5
:103640002F5F3F4F79014091290950912A096091DC
:103650002B0970912C098091210990912209A09148
:103660002309B0912409481759076A077B0708F016
:103670002BC18091A3049091A40404970CF024C161
:1036800080918904811120C180917C0890917D08EE
:10369000A0917E08B0917F088093290990932A0910
:1036A000A0932B09B0932C0984E798E00E947E3FF9
:1036B000AC01982F4093A2048A30B9F09D30A9F054
:1036C000933229F480919F04882379F002C09A33C1
:1036D000C9F32091A0043091A1042F3531052CF4B9
:1036E0004F3F8FEF580709F0D1C040912909509101
:1036F0002A0960912B0970912C09809121099091E0
:103700002209A0912309B0912409481759076A0793
:103710007B0708F481C0EFEFF6E08491882341F045
:103720009091C00095FFFCCF8093C6003196F5CFF5
:103730008091C00085FFFCCFFAE0F093C6000E94A4
:10374000D40F60938D0470938E0480938F049093B4
:103750009004409091045090920460909304709073
:103760009404641975098609970928EE33E040E04E
:1037700050E00E94FAC129013A01CA01B901A5012C
:1037800094010E94FAC1CA01B901A50194010E94E5
:10379000FAC17F936F93C301B20120E13EE040E0A4
:1037A00050E00E94FAC13F932F933F922F92FF92D5
:1037B000EF920E94AFC5EAE8F9E084910FB6F89461
:1037C000DEBF0FBECDBF882349F09091C00095FFAA
:1037D000FCCF8093C60031968491F5CFF70181919B
:1037E000882339F09091C00095FFFCCF8093C600EC
:1037F000F6CF8091C00085FFFCCF3AE03093C60041
:10380000C7010E94859A86EA96E00E943A7E61E0AE
:1038100086EA96E00E94A47B8091A204833211F490
:10382000109389042091A0043091A1042115310541
:1038300009F4DDCC8091A5049091A604089FF001C5
:10384000099FF00D11242E0F3F1FF901E355FB4F87
:103850001082FC01E755FB4F10832091A3043091A7
:10386000A4042F5F3F4F3093A4042093A304019638
:10387000B6010E94E6C19093A6048093A50410921D
:103880009F041092A1041092A004DDCE9B3311F48A
:1038900010939F0480919F048111D5CE8091A5043F
:1038A0009091A604B9016F5F7F4F7093A10460935C
:1038B000A004089FF001099FF00D1124E20FF31FEF
:1038C000E355FB4F4083BFCE6E960FB6F894DEBF34
:1038D0000FBECDBFDF91CF911F910F91FF90EF9061
:1038E000DF90CF90BF90AF909F908F907F906F9020
:1038F0005F904F903F902F9008957F928F929F926C
:10390000AF92BF92CF92DF92EF92FF920F931F93ED
:10391000CF93DF9380E9E82E86E0F82E0EE416E0E0
:1039200092EAC92E96E0D92EC1EED3E07C2E84E037
:10393000780E89910E942218882311F10E940E1896
:103940004B015C01F6016081611102C060912D069E
:1039500070E080E090E00E9493BEF7012081318109
:10396000428153810E94E8C09B01AC01C501B401B2
:103970000E94EABCF80160837183828393830AC04A
:10398000F70180819181A281B381F80180839183C5
:10399000A283B383F4E0EF0EF11C0C5F1F4F8FEF97
:1039A000C81AD80A7C12C5CF86E40E942218882340
:1039B000D9F00E940E186B017C0160933E06709353
:1039C0003F06809340069093410620E030E0A90135
:1039D0000E9401C0181644F4C0920502D09206025B
:1039E000E0920702F0920802DF91CF911F910F91B0
:1039F000FF90EF90DF90CF90BF90AF909F908F900F
:103A00007F9008950E947D1C89E40E9422188823DB
:103A100059F00E940E1860934206709343068093FB
:103A200044069093450608C0109242061092430641
:103A300010924406109245068AE40E9422188823B8
:103A400059F00E940E1860934606709347068093C3
:103A5000480690934906089510924606109247062C
:103A600010924806109249060895CF92DF92EF9285
:103A7000FF92CF93DF93EC01C0907806D090790647
:103A8000E0907A06F0907B06A70196016881798123
:103A90008A819B810E94DFBD87FF04C0C882D982D2
:103AA000EA82FB82C0907C06D0907D06E0907E0684
:103AB000F0907F06A70196016C817D818E819F81A8
:103AC0000E94DFBD87FF04C0CC82DD82EE82FF82D0
:103AD000C0908006D0908106E0908206F090830628
:103AE000A7019601688579858A859B850E94DFBD3F
:103AF00087FF04C0C886D986EA86FB86C0900B0281
:103B0000D0900C02E0900D02F0900E02A7019601F9
:103B1000688179818A819B810E9401C0181624F4F2
:103B2000C882D982EA82FB82C0900F02D090100234
:103B3000E0901102F0901202A70196016C817D8144
:103B40008E819F810E9401C0181624F4CC82DD82F0
:103B5000EE82FF82C0901302D0901402E090150212
:103B6000F0901602A7019601688579858A859B8564
:103B70000E9401C0181624F4C886D986EA86FB86FE
:103B8000DF91CF91FF90EF90DF90CF900895CF928B
:103B9000DF92EF92FF920F931F938EE496E00E94C4
:103BA000351D0E94D40F6093990470939A048093FA
:103BB0009B0490939C0420914E0630914F064091B7
:103BC0005006509151066091900670919106809137
:103BD0009206909193060E94DFBD811121C0209131
:103BE000520630915306409154065091550660910B
:103BF00094067091950680919606909197060E9482
:103C0000DFBD81110DC020E030E040E752E460915B
:103C100005027091060280910702909108021EC071
:103C20006091250270912602072E000C880B990BDB
:103C30000E9493BE20910502309106024091070236
:103C4000509108020E94E8C020E030E040E752E4D2
:103C50000E94E9BD20E030E048EC52E40E94E9BD5A
:103C600020E6C22E26E0D22E7B018C012AE536E02A
:103C700046E556E062E576E08EE496E00E94A051CB
:103C800080914E0690914F06A0915006B09151063A
:103C90008093900690939106A0939206B09393061A
:103CA0008091520690915306A0915406B09155060A
:103CB0008093940690939506A0939606B0939706EA
:103CC0008091560690915706A0915806B0915906DA
:103CD0008093980690939906A0939A06B0939B06BA
:103CE00080915A0690915B06A0915C06B0915D06AA
:103CF00080939C0690939D06A0939E06B0939F068A
:103D00001F910F91FF90EF90DF90CF900895AF92A9
:103D1000BF92CF92DF92EF92FF920F931F93CF93B8
:103D2000DF93F82EE2E4F6E0248135814681578165
:103D300060817181828193810E9414C0EB01182FF0
:103D4000092F6091250270912602072E000C880B26
:103D5000990B0E9493BE209105023091060240917A
:103D60000702509108020E94E8C020E030E040E7DE
:103D700052E40E94E9BD20E030E048EC52E40E94A9
:103D8000E9BD5B016C01809160068F93FF920F93F8
:103D90001F93DF93CF9382E0E82E01E020E042E41E
:103DA00056E06EE476E080E996E00E948C4AE0E915
:103DB000F6E0AEE4B6E04D915D916D917C91139784
:103DC000408351836283738314964D915D916D910D
:103DD0007C911797448355836683778318964D911A
:103DE0005D916D917C911B974087518762877387A6
:103DF0001C968D919D910D90BC91A02D84879587E7
:103E0000A687B7870E94D40F6093990470939A0491
:103E100080939B0490939C040F900F900F900F90B1
:103E20000F900F90DF91CF911F910F91FF90EF9026
:103E3000DF90CF90BF90AF900895F8940E94526C9D
:103E4000159A10927506469A10927606439A109229
:103E50007706409A9FB7F89480910B018260809317
:103E60000B019FBFE0E9F9E08491882341F0909134
:103E7000C00095FFFCCF8093C6003196F5CFE1E8F6
:103E8000F4E08491882341F09091C00095FFFCCF2D
:103E90008093C6003196F5CF8091C00085FFFCCF9E
:103EA0008AE08093C60088E794E00E94A39AFFCF3F
:103EB000CF92DF92EF92FF920F931F930E94D40F45
:103EC00000919504109196042091970430919804E4
:103ED000C0909904D0909A04E0909B04F0909C04C8
:103EE000DC01CB018C199D09AE09BF090817190720
:103EF0002A073B0730F4012B022B032B11F00E9401
:103F00001D1F8091010290910202A0910302B091C5
:103F10000402892B8A2B8B2B19F10E94D40F00915C
:103F2000990410919A0420919B0430919C04DC0127
:103F3000CB01801B910BA20BB30B009101021091DE
:103F400002022091030230910402081719072A0780
:103F50003B0730F49091C60B8091C50B981741F048
:103F60001F910F91FF90EF90DF90CF900C948451B0
:103F7000159A10927506469A10927606439A1092F8
:103F80007706409A9FB7F89480910B0182608093E6
:103F90000B019FBFE5CF0E94526C80918B04811171
:103FA00038C081E080938B04809132069091330673
:103FB000A0913406B091350680932E0690932F067B
:103FC000A0933006B0933106E0E9F9E084918823AC
:103FD00041F09091C00095FFFCCF8093C6003196D0
:103FE000F5CFE2E0F4E08491882341F09091C000A5
:103FF00095FFFCCF8093C6003196F5CF8091C0002D
:1040000085FFFCCF8AE08093C60088EF93E00C9494
:10401000949A089580918B04089567707727E82F0C
:10402000F0E0EE50FD4FE4918E2F90E0FC013697CA
:10403000EC30F10588F58827EC56FF4F8F4F0C9434
:104040003BC28091B100887F8093B1008091B10024
:10405000682B6093B100089580919100887F8093D0
:10406000910080919100682B609391000895809158
:10407000A100887F8093A1008091A100682B6093AC
:10408000A100089580912101887F80932101809172
:104090002101682B6093210108951F93CF93DF9333
:1040A000EC018091600680938C0484E50E942218C4
:1040B000182F811102C010E074C00E940E180E94D7
:1040C00062BE60938C046230B0F3EAE8F9E0949148
:1040D000992341F08091C00085FFFCCF9093C600EA
:1040E0003196F5CFCD36D105B9F054F4C836D105A7
:1040F000B1F0C936D10509F045C0E8E3F3E021C0CD
:10410000CA3DD10531F0CD3DD105E1F5E3EFF2E057
:1041100036C0EAE0F3E029C0E1E2F3E01CC0EFE4DE
:10412000F3E08191882371F19091C00095FFFCCF5D
:104130008093C600F6CF9091C00095FFFCCF80938E
:10414000C60081918111F7CF1DC09091C00095FFED
:10415000FCCF8093C60081918111F7CF13C090915D
:10416000C00095FFFCCF8093C60081918111F7CFED
:1041700009C09091C00095FFFCCF8093C60081914B
:104180008111F7CF40E050E060918C0483E399E027
:104190000E94B8398091C00085FFFCCF8AE08093EF
:1041A000C600812FDF91CF911F9108953F924F92CA
:1041B0005F926F927F928F929F92AF92BF92CF92B7
:1041C000DF92EF92FF920F931F93CF93DF93CDB7C0
:1041D000DEB7E4970FB6F894DEBF0FBECDBF87E41D
:1041E0000E942218882309F496C30E940E180E9488
:1041F0005BBE64307105D9F144F46230710521F180
:104200005CF577FF17C00C94A0356A35710509F489
:104210002DC334F46C31710509F46FC00C94A035D2
:104220006B35710509F426C36C35710509F427C394
:104230000C94A03580918B04811106C00E947D1CD6
:104240000E94C71D0C94483780918B04811104C0D3
:104250000E94021D81E007C080918B04811107C07C
:104260000E94021D80E00E94871E0C94483782EE57
:1042700096E00E94949A80E50E942218882339F0E3
:104280000E940E180E9462BE6B017C0103C0C12C0B
:10429000D12C760183E50E942218882361F00E94C8
:1042A0000E1820E030E04AE754E40E94E8C00E9483
:1042B00062BE6B017C010E94A5640E94D40FC60EF1
:1042C000D71EE81EF91E0E94D40F609399047093C4
:1042D0009A0480939B0490939C040E94D40F6C15C5
:1042E0007D058E059F0510F00C94A0350E943D6859
:1042F0000E94581F0E94289BF0CF80910502909148
:104300000602A0910702B091080280933A069093AA
:104310003B06A0933C06B0933D0680912502909108
:1043200026029093A1068093A00684E690E09093E5
:104330002602809325020E94D40F60939904709303
:104340009A0480939B0490939C0481E00E94E65D14
:104350008091900690919106A0919206B09193065B
:1043600080934E0690934F06A0935006B09351064B
:104370008091940690919506A0919606B09197062B
:104380008093520690935306A0935406B09355061B
:104390008091980690919906A0919A06B0919B06FB
:1043A0008093560690935706A0935806B0935906EB
:1043B00080919C0690919D06A0919E06B0919F06CB
:1043C00080935A0690935B06A0935C06B0935D06BB
:1043D0001092050210920602109207021092080233
:1043E00088E50E942218882311F080E00AC089E540
:1043F0000E9422188111F9CF8AE50E94221891E0CB
:1044000089278093090281110CC088E50E94221837
:10441000882309F47AC189E50E942218882309F4C7
:1044200074C110929006109291061092920610920A
:10443000930610929406109295061092960610928A
:104440009706EBE4F9E014912CE936E048E956E0F0
:1044500064E976E080E996E00E94485C8AE599E0AC
:104460000E94E21320E030E040EC5FE30E94E8C0ED
:104470006B017C01612F110F770B880B990B0E9448
:1044800093BE9B01AC01C701B6010E94E8C06093D6
:104490004E0670934F0680935006909351068EE51A
:1044A00099E00E94E213ECE4F9E0149120E030E09E
:1044B00040EC5FE30E94E8C06B017C01612F110FAB
:1044C000770B880B990B0E9493BE9B01AC01C7012F
:1044D000B6010E94E8C06093520670935306809321
:1044E000540690935506209127023091280240915E
:1044F000290250912A02209305023093060240932C
:10450000070250930802C0902B02D0902C02E0903A
:104510002D02F0902E02C701B6010E94DFBD87FF79
:1045200008C0C0920502D0920602E0920702F09203
:1045300008028AE599E00E94E2136B017C018EE596
:1045400099E00E94E2139B01AC01C701B6010E94F1
:1045500001C0181614F00C94A3358EE599E00E9462
:10456000E2136B017C018AE599E00E94E2139B0152
:10457000AC01C701B6010E94E9BD9B01AC010E94DC
:10458000E8C020E030E040E85FE30E94EABC0E941F
:1045900063C19B01AC01609105027091060280919C
:1045A0000702909108020E94E8C060930502709390
:1045B0000602809307029093080220E030E040E773
:1045C00052E4609105027091060280910702909179
:1045D00008020E94E9BD20E6C22E26E0D22E7B0111
:1045E0008C012AE536E046E556E062E576E08EE4A9
:1045F00096E00E94A0510E94A56480E090E00E9495
:10460000E81381E090E00E94E8132CE936E048E9E5
:1046100056E064E976E080E996E00E94485C80918B
:10462000900690919106A0919206B0919306809386
:104630004E0690934F06A0935006B093510680917A
:10464000940690919506A0919606B0919706809356
:10465000520690935306A0935406B093550620E05B
:1046600030E040E752E460910502709106028091CB
:104670000702909108020E94E9BD7B018C012AE5A6
:1046800036E046E556E062E576E08EE496E00E948C
:10469000A051109205021092060210920702109289
:1046A00008020E94A5640E94DF5D80914E069091F1
:1046B0004F06A0915006B0915106809390069093BA
:1046C0009106A0939206B093930680915206909122
:1046D0005306A0915406B09155068093940690938A
:1046E0009506A0939606B0939706809156069091F2
:1046F0005706A0915806B09159068093980690935A
:104700009906A0939A06B0939B06809109028111A5
:104710000C94AD3588E50E94221881110C94AD35BA
:104720008091090281110C94B33589E50E94221809
:1047300081110C94B33588E50E9422188823D1F0AA
:104740000E941718672B682B692BA1F00E940E1886
:104750002091840630918506409186065091870607
:104760000E94EABC60939006709391068093920633
:104770009093930689E50E9422188823D1F00E9425
:104780001718672B682B692BA1F00E940E18209137
:1047900088063091890640918A0650918B060E94C6
:1047A000EABC609394067093950680939606909366
:1047B00097068091090281110C94B9358AE50E940F
:1047C000221881110C94B9358AE50E942218882399
:1047D000D1F00E941718672B682B692BA1F00E945B
:1047E0000E1820918C0630918D0640918E065091C6
:1047F0008F060E94EABC6093980670939906809396
:104800009A0690939B062CE936E048E956E064E965
:1048100076E080E996E00E94485C80E00E94E65DD8
:1048200080913A0690913B06A0913C06B0913D06DE
:104830008093050290930602A0930702B0930802AA
:104840008091A0069091A106909326028093250264
:104850000E94D40F6093990470939A0480939B04F0
:1048600090939C040E94DF5D0C94A03510922D065D
:104870000C94A03581E080932D060C94A03585E43E
:104880000E942218811102C00E94A56411EEA12E7F
:1048900013E0B12E04E8C02E06E0D02E80E9E82E09
:1048A00086E0F82E10E0F50181915F010E94221848
:1048B000882331F1133061F40E940E18F7016083F0
:1048C0007183828393838CE996E00E94CF5C18C049
:1048D0000E940E18F60120813181428153810E948D
:1048E000EABCF70160837183828393832CE936E00D
:1048F00048E956E064E976E080E996E00E94485C89
:104900001F5FF4E0CF0ED11C24E0E20EF11C143046
:1049100051F60C94A0358DE40E942218882311F4DE
:104920000C944F340E940E180E945BBE63377105D1
:1049300011F40C94562C0CF08AC06F31710509F4F7
:1049400046C3A4F56631710509F4E5C1BCF46131D3
:10495000710509F49AC134F46230710508F437C165
:104960000C94A0356431710509F4A1C10CF0CDC1DE
:104970006231710509F4CDC60C94A0356A31710518
:1049800009F4FEC13CF46831710509F4E3C10CF48B
:10499000C8C1F0C16C31710509F406C20CF4FEC146
:1049A0006E31710509F436C20C94A0356535710578
:1049B00009F4EFC6CCF46135710509F482C654F4EC
:1049C0006032710509F465C26A32710509F45CC38D
:1049D0000C94A0356335710509F496C60CF099C6A0
:1049E0001092A5060C94A0356A36710509F439C6F3
:1049F000DCF46836710509F465C30CF092C36C35BC
:104A0000710511F00C94A035B1EE8B2EB3E09B2E06
:104A100007EF10E187E0A82E81E1B82E2BEB30E103
:104A200038AB2FA7312C32C76D36710509F4A5C4F8
:104A30006237710509F45EC76B36710511F00C948D
:104A4000A03510925F0610925E060C94A0356D3D65
:104A5000710511F40C94C92F0CF063C0683C71050A
:104A600011F40C94DF2D2CF56837710511F40C94BA
:104A70005A2D6CF46537710509F427C7673771053E
:104A800011F00C94A035E5E7F3E00C94652D6C383B
:104A9000710509F435C36E3B710509F4DCC469374F
:104AA000710511F00C94A03581E00E94E65D0C9434
:104AB000A0356D3C710511F40C94AC2EC4F46B3C24
:104AC000710511F40C946F2E14F00C948C2E693C2B
:104AD000710511F00C94A035F7EEEF2EF0E1FF2EEA
:104AE00001EE13E0A4E0DA2ED00E0C94572E6A3DAE
:104AF000710511F40C941F2F6C3D710511F40C9489
:104B0000BA2F6E3C710511F00C94A03554E8E52ED7
:104B100056E0F52E01EE13E063E0D62ED00E0C9495
:104B2000102F653F31E0730711F40C94123134F506
:104B30006E3291E0790711F40C94C63064F4623E51
:104B4000710511F40C94EF2F6D32714011F40C9437
:104B500000300C94A035603921E0720711F40C94F8
:104B60000C31643F31E0730711F40C940F316F3254
:104B7000714011F00C94A0350C94D430633593E05F
:104B8000790711F40C941B3184F4673FF1E07F073F
:104B900011F40C94183114F40C94153168357240EA
:104BA00011F40C94F0310C94A035603A83E078074E
:104BB00009F4D9C1673E93E0790711F40C943834B5
:104BC0006B38734011F00C94A0350C94123481EDC5
:104BD00096E00E94949A80E50E942218882339F07A
:104BE0000E940E180E9462BE6B017C0103C0C12CA2
:104BF000D12C760183E50E942218882361F00E945F
:104C00000E1820E030E04AE754E40E94E8C00E9419
:104C100062BE6B017C010E94A5640E94D40F609368
:104C2000990470939A0480939B0490939C04C114FC
:104C3000D104E104F104C1F00E94D40FC60ED71EC6
:104C4000E81EF91E0E94D40F6C157D058E059F0588
:104C5000B0F40E94F39B811112C00E943D680E9433
:104C6000581F0E94289BEECF0E94F39B811107C022
:104C70000E943D680E94581F0E94289BF5CF82EC3D
:104C800096E00E94949A0C94A03589EB96E00E94DD
:104C9000949A15984698439840989FB7F8948091B5
:104CA0000B018D7F80930B019FBF0C94A035E9EA27
:104CB000F6E08491882341F09091C00095FFFCCFED
:104CC0008093C6003196F5CF8091C00085FFFCCF60
:104CD0008AE08093C60086EA96E00E940C75EBE9B4
:104CE000F6E08491882341F09091C00095FFFCCFBD
:104CF0008093C6003196F5CF8091C00085FFFCCF30
:104D00008AE08093C6000C94A03586EA96E00E9463
:104D100063750C94A03586EA96E00E942A760C947E
:104D2000A03500919D0410919E040C5F1F4F6AE214
:104D300070E0C8010E9480C5009719F0FC0131970E
:104D4000108221E041E0B80186EA96E00E948C766C
:104D50000C94A03586EA96E00E942E760E94D40F2D
:104D600060939104709392048093930490939404BD
:104D70000C94A03586EA96E00E9435760C94A03516
:104D80008091A906882311F40C94A03583E50E9434
:104D9000221881110C94BF350C94A03586EA96E058
:104DA0000E94DE7A0C94A03580919D0490919E041F
:104DB0006AE270E004960E9480C58C01892BE1F0C4
:104DC0002091A7043091A80440E6429FC001439F70
:104DD000900D11246EE470E083559B4F0E9480C5B6
:104DE00060E270E00E9480C5019690939E048093DB
:104DF0009D04F8013197108260919D0470919E048A
:104E00006C5F7F4F21E040E086EA96E00E948C765E
:104E10000C94A0358091A906882311F40C94A03538
:104E200060E086EA96E00E94977C80919D049091D4
:104E30009E046AE270E004960E9480C58C01892B72
:104E4000E1F02091A7043091A80440E6429FC00100
:104E5000439F900D11246EE470E083559B4F0E9498
:104E600080C560E270E00E9480C5019690939E0428
:104E700080939D04F8013197108260919D04709198
:104E80009E046C5F7F4F86EA96E00E94A4790C94A2
:104E9000A0358091A80681110E94A56400919D040F
:104EA00010919E040C5F1F4F6AE270E0C8010E94DF
:104EB00080C57C0161E270E0C8010E9480C5009756
:104EC00019F08C010F5F1F4FE114F10419F0F70185
:104ED0003197108280E50E942218F82E80919D045F
:104EE00090919E040817190708F4F12C8091A906E7
:104EF000882311F40C94A03521E02F2541E0B8015E
:104F000086EA96E00E948C7683E50E942218882328
:104F1000B9F080919D0490919E048017910780F4D0
:104F20000E941718AB01BC014093290950932A092C
:104F300060932B0970932C0984E798E00E94494004
:104F400086EA96E00E942E76F1100C94A0350E941D
:104F5000D40F609391047093920480939304909380
:104F600094040C94A03580919D0490919E046AE273
:104F700070E005960E9480C58C01892BE1F020919C
:104F8000A7043091A80440E6429FC001439F900DC2
:104F900011246EE470E083559B4F0E9480C560E24F
:104FA00070E00E9480C5019690939E0480939D04BA
:104FB000F8013197108260919D0470919E046B5F9F
:104FC0007F4F86EA96E00E949E790C94A0350E945D
:104FD000D40F60938D0470938E0480938F0490930C
:104FE00090040091910410919204209193043091C7
:104FF0009404601B710B820B930B28EE33E040E0AE
:1050000050E00E94FAC1CA01B9012CE330E040E04F
:1050100050E00E94FAC17F936F933F932F938CE8E7
:1050200096E09F938F938E010F5F1F4F1F930F93F7
:105030000E94AFC5EAE8F9E094910FB6F894DEBF9C
:105040000FBECDBF992349F08091C00085FFFCCFF2
:105050009093C60031969491F5CFF8018191882301
:1050600039F09091C00095FFFCCF8093C600F6CF39
:105070008091C00085FFFCCF8AE08093C600C80104
:105080000E94859A0C94A03583E50E9422188823FB
:1050900011F40C94A0350E940E186B017C0180E580
:1050A0000E942218882311F40C94A035C701B60180
:1050B0000E945BBE6F3F710509F010F40C94D0356F
:1050C0000C94A03588E690E00E944D2081110C944C
:1050D000A03583E50E942218882371F000918C048A
:1050E0000E940E1810E0000F111F07511E4E0E9463
:1050F0005BBEF801718360830E94E56B0C94A03560
:1051000083E50E942218882311F40C94A0350E9494
:105110000E180E945BBE7093E8116093E7110C9427
:10512000A03589E690E00E944D2081110C94A035B5
:10513000E6E8F6E08491882341F09091C00095FF65
:10514000FCCF8093C6003196F5CFE0918C0424E02B
:10515000E29FF0011124E552FE4E408151816281AF
:10516000738121E030E083E399E00E945E3AE3E856
:10517000F6E08491882341F09091C00095FFFCCF28
:105180008093C6003196F5CFE0918C04F0E0EE0FED
:10519000FF1FE751FE4E60817181072E000C880BC6
:1051A000990B0E9493BEAB01BC0121E030E083E388
:1051B00099E00E945E3AEFE7F6E08491882341F09F
:1051C0009091C00095FFFCCF8093C6003196F5CF3B
:1051D0004091D5115091D6116091D7117091D8118D
:1051E00021E030E083E399E00E945E3AECE7F6E0EC
:1051F0008491882341F09091C00095FFFCCF80936B
:10520000C6003196F5CF6091E7117091E811072E35
:10521000000C880B990B0E9493BEAB01BC0121E0EE
:1052200030E083E399E00E945E3A59EEC52E51E1E9
:10523000D52E6BEDA62E61E1B62E00E010E079E7E9
:10524000472E76E0572EE7E78E2EE6E09E2EF4E717
:105250006F2EF6E07F2EF2018491E9E7F6E08823D5
:1052600049F09091C00095FFFCCF8093C600319625
:105270008491F5CF4AE050E0B80183E399E00E94C1
:105280007E39F4018491E7E7F6E0882349F09091B4
:10529000C00095FFFCCF8093C60031968491F5CF76
:1052A000F50141915191619171915F0121E030E0EF
:1052B00083E399E00E945E3AF3018491E4E7F6E02B
:1052C000882349F09091C00095FFFCCF8093C600E1
:1052D00031968491F5CFF601619171916F01072E9E
:1052E000000C880B990B0E9493BEAB01BC0121E01E
:1052F00030E083E399E00E945E3A0130110519F035
:1053000001E010E0A8CFE0E7F6E08491882341F0C7
:105310009091C00095FFFCCF8093C6003196F5CFE9
:1053200080918C0490E00E9432684AE050E0BC0119
:1053300083E399E00E947E39EBE6F6E084918823CE
:1053400041F09091C00095FFFCCF8093C60031964C
:10535000F5CF8FEF9FEF0E9432684AE050E0BC012A
:1053600083E399E00E947E398091C00085FFFCCFE5
:105370008AE08093C6000C9448378DE690E00E9446
:105380004D2081110C94A03580E696E00E94949AFD
:1053900083E50E942218882391F000918C040E94DA
:1053A0000E1810E0000F111F07511E4E0E945BBE29
:1053B000F8017183608381E08093000215C082E56B
:1053C0000E942218882381F000918C040E940E18FC
:1053D00010E0000F111F07511E4E0E945BBEF80126
:1053E00071836083109200020E94E56B0E94D40FCB
:1053F0002B013C0100918C0410E0F801EE0FFF1F1F
:10540000E751FE4E60817181072E000C880B990BCD
:105410000E9493BE000F111F000F111FF801E552EB
:10542000FE4E11E020813181428153810E9401C0F2
:1054300018160CF010E010938A0488248A94982C93
:105440005401B8EECB2EB3E0DB2EE12CF12C1AE0A8
:10545000312E0C9433368AE396E00E94949A83E5C9
:105460000E942218882361F00E940E180E945BBEE1
:105470007093E8116093E71181E0809300020FC000
:1054800082E50E942218882351F00E940E180E9483
:105490005BBE7093E8116093E711109200020E94C6
:1054A000D40F4B015C016091E7117091E811072E58
:1054B000000C880B990B0E9493BE11E02091D5112E
:1054C0003091D6114091D7115091D8110E9401C04E
:1054D00018160CF010E010938A0407E316E093E32B
:1054E000E92E96E0F92E2FE2C22E26E0D22E3AE0E7
:1054F000732E80918A046091E7117091E8118823DE
:1055000009F488C0072E000C880B990B0E9493BEEB
:105510002091D5113091D6114091D7115091D811C9
:105520000E9401C018160CF08CC00E94D40FDC0140
:10553000CB0188199909AA09BB09893E9340A105A5
:10554000B10508F460C0E091600634E0E39FF0012B
:105550001124E552FE4E4081518162817381F80130
:105560008491E7E3F6E0882349F09091C00095FF2D
:10557000FCCF8093C60031968491F5CF22E030E0D5
:1055800083E399E00E945E3AF7018491E3E3F6E059
:10559000882349F09091C00095FFFCCF8093C6000E
:1055A00031968491F5CF6091600670E04AE050E05A
:1055B00083E399E00E947E39F6018491EFE2F6E000
:1055C000882349F09091C00095FFFCCF8093C600DE
:1055D00031968491F5CF4091D5115091D6116091BB
:1055E000D7117091D81121E030E083E399E00E9457
:1055F0005E3A8091C00085FFFCCF7092C6000E9489
:10560000D40F4B015C010E943D680E94581F0E940C
:10561000289B6FCF072E000C880B990B0E9493BE1E
:105620002091D5113091D6114091D7115091D811B8
:105630000E94DFBD87FF05C080910002882309F426
:1056400074CF85E296E00E94949A0E94D40F6093F2
:10565000990470939A0480939B0490939C040C94F7
:10566000A03583E50E942218882319F10E940E18A4
:1056700020E030E0A9010E94DFBD87FD0FC00E943D
:105680000E1820E030E04FE753E40E9401C01816E6
:1056900044F00E940E180E945BBE05C060E070E0FE
:1056A00002C06FEF70E070935F0660935E060C942B
:1056B000A0358FEF90E090935F0680935E060C9488
:1056C000A0350E94526C0E94A564409A9FB7F8943E
:1056D00080910B01826080930B019FBF0E94046543
:1056E00010925F0610925E0668EE73E080E090E034
:1056F0000E94051010920A0286E196E00E94949A98
:105700000E94289B0C94A03581E08093A5060C9400
:10571000A03583E50E9422188823A1F00E940E186C
:1057200020E030E04AE754E40E94E8C00E9462BEF4
:10573000609301027093020280930302909304022B
:105740000C94A03588E50E94221881110C941E3714
:1057500089E50E94221881110C941E378AE50E9467
:10576000221881110C941E3785E40E9422188111A1
:105770000C941E370E94A564409A9FB7F8948091BC
:105780000B01826080930B019FBF0E9404650C9403
:10579000A03583E50E9422180E940E1820E030E018
:1057A0004AE754E40E94E8C00E9462BE60939504F8
:1057B0007093960480939704909398040C94A0356A
:1057C000F3E03F126BC00E940E182B013C0120E059
:1057D00030E040EA51E40E94DFBD87FF41C0A301F1
:1057E0009201F80160817181828193810E94E9BDFB
:1057F0006B017C019B01AC016091CF107091D010C6
:105800008091D1109091D2100E94E8C06093CF1087
:105810007093D0108093D1109093D210A70196016D
:10582000F50160817181828193810E94E8C0F50158
:105830006083718382839383EFA5F8A9608171816E
:10584000828193810E9491BEA70196010E94E8C0C7
:105850000E9462BEEFA5F8A960837183828393835F
:10586000F801408251826282738233940C5F1F4F31
:10587000F4E0AF0EB11C2FA538A92C5F3F4F38AB19
:105880002FA734E0331611F40C94A035F401819164
:105890004F010E942218882341F392CF0E940E18D4
:1058A000F8016083718382839383DFCFECE4F5E0BA
:1058B0008491882311F40C94A0359091C00095FF39
:1058C000FCCF8093C6003196F3CF00919D041091D8
:1058D0009E040B5F1F4F6AE270E0C8010E9480C502
:1058E000009719F0FC0131971082C8010E94859A37
:1058F0000C94A035E9E4F5E08491882341F090917F
:10590000C00095FFFCCF8093C6003196F5CF409143
:10591000900650919106609192067091930622E054
:1059200030E083E399E00E945E3AE5E4F5E084919B
:10593000882341F09091C00095FFFCCF8093C60072
:105940003196F5CF40919406509195066091960658
:105950007091970622E030E083E399E00E945E3A7E
:10596000E1E4F5E08491882341F09091C00095FF37
:10597000FCCF8093C6003196F5CF409198065091A8
:10598000990660919A0670919B0622E030E083E3CD
:1059900099E00E945E3AEDE3F5E08491882341F0BE
:1059A0009091C00095FFFCCF8093C6003196F5CF53
:1059B00040919C0650919D0660919E0670919F06B5
:1059C00022E030E083E399E00E945E3AE2E3F5E012
:1059D0008491882341F09091C00095FFFCCF809383
:1059E000C6003196F5CF0E94F6640E9493BE2091C6
:1059F000F7103091F8104091F9105091FA100E9470
:105A0000E9BDAB01BC0122E030E083E399E00E94F4
:105A10005E3AEEE2F5E08491882341F09091C00077
:105A200095FFFCCF8093C6003196F5CF81E00E94B0
:105A3000F6640E9493BE2091FB103091FC104091BF
:105A4000FD105091FE100E94E9BDAB01BC0122E0A7
:105A500030E083E399E00E945E3AEAE2F5E0849167
:105A6000882341F09091C00095FFFCCF8093C60041
:105A70003196F5CF82E00E94F6640E9493BE209199
:105A8000FF103091001140910111509102110E94BC
:105A9000E9BDAB01BC0122E030E083E399E00E9464
:105AA0005E3A8091C00085FFFCCF8AE08093C600FB
:105AB0000C94A03580E00E94E65D0C94A035909196
:105AC000C00095FFFCCF8093C60081918111F7CF74
:105AD0008091C00085FFFCCF8AE08093C600E2E29F
