:100000000C94821C0C943F1F0C94701F0C94A11F25
:100010000C94D21F0C9403200C9434200C94652073
:100020000C9496200C94B31C0C94B31C0C94B31C2D
:100030000C94B31C0C94A5EC0C94B31C0C94B31C42
:100040000C94B31C0C9499C60C94B31C0C94B31C64
:100050000C94B31C0C94B31C0C94B3D70C94B51C27
:100060000C94B31C0C9438A00C94B31C0C94B31CCB
:100070000C94B31C0C94B31C0C94B31C0C94B31CC4
:100080000C94B31C0C94B31C0C94B31C0C94B31CB4
:100090000C94B31C0C94B31C0C94B31C0C94112A38
:1000A0000C94B31C0C94B31C0C94B31C0C94B31C94
:1000B0000C94B31C0C94B31C0C94B31C0C94B31C84
:1000C0000C94B31C0C94B31C0C94B31C0C94B31C74
:1000D0000C94B31C0C94B31C0C94B31C0C94B31C64
:1000E0000C94B31CEB1DF01DF51DFF1D781E091EA1
:1000F000111E191E231E2D1E371E461E501E781E51
:100100005A1E641E6E1E981E9B1E8E1E921ED21EAE
:100110009F1EA31EA91EAD1EB11EB71EBB1EBF1E75
:10012000D21EC51EC91ECD1E2824282436244424D0
:1001300060246E247C248A249B24522405EB08EB43
:1001400005EC07EC09EC0BECBBEB0DEC0FEC12EC47
:10015000BBEB15EC19ECD8EB1BEC1DEC1FECBBEB6F
:10016000E5EBFBEBF6EBBBEB00EC1DEB1FEB2DEB3C
:100170002FEB31EB33EB39EB3BEB3DEB3FEB49EB5B
:100180004BEB4FEB51EB57EB59EBBBEBBBEBBBEB4B
:10019000BBEBBBEBBBEBBBEBBBEBBBEBBBEBBBEB2F
:1001A000BBEBBBEBBBEBBBEBBBEBBBEBBBEBBBEB1F
:1001B000BBEBBBEBBBEBBBEBBBEBBBEBBBEBBBEB0F
:1001C000BBEBBBEBBBEBBBEBBBEBBBEBBBEBBBEBFF
:1001D000BBEBBBEBBBEBBBEBBBEBBBEBBBEBBBEBEF
:1001E000BBEBBBEBBBEBBBEBBBEBBBEBBBEBBBEBDF
:1001F000BBEBBBEBBBEBBBEBBBEBBBEBBBEBBBEBCF
:10020000BBEBBBEB60EB80EB084AD73B3BCE016E10
:1002100084BCBFFDC12F3D6C74319ABD56833DDA5D
:100220003D00C77F11BED9E4BB4C3E916BAAAABE6C
:10023000000000803F05A84CCDB2D44EB93836A995
:10024000020C50B9918688083CA6AAAA2ABE0000D2
:1002500000803F000C945D350C944A250C94E73BDC
:100260000C9411480C94524A0C94F0350C9491441F
:100270000C942C510C942B4F0C94FBEB0C942FEB07
:100280000C94C7540C94F73B0C94091E0C949442A4
:100290000C945F4A0C94C2520C941DEC0C9453586D
:1002A0000C940BEC0C9486550C94CA3D0C94473F6F
:1002B0000C9400650C9431640C94C9680C94981EDD
:1002C0000C94A31E0C947C240C944D770C94641E07
:1002D0000C9450AE0C94653F0C9421500C94231E4A
:1002E0000C949B240C9419520C94A0280C94A76C89
:1002F0000C9444240C9412EC0C941D4E0C94356414
:100300000C94EE550C943B380C94F49F0C94111EF5
:100310000C943F720C940DEC0C94BD510C94136F23
:100320000C94A5510C94DA6C0C94D21E0C94AE4F24
:100330000C94DB210C9423430C9405EC0C9478383A
:100340000C947B3F0C9487420C94C7200C9409ECCE
:100350000C94921E0C94B71E0C9418580C942824DC
:100360000C9462400C94461E0C949B1E0C942169C4
:100370000C94005E0C94501E0C941FEB0C941248CD
:100380000C94E0440C9400EC0C94E06F0C946270BC
:100390000C9461480C9405EB0C94296D0C94A63BCD
:1003A0000C94183B0C941DEB0C947B470C94F93681
:1003B0000C949C350C94833D0C94CD1E0C94B56923
:1003C0000C940FEC0C94036C0C94C91E0C94EE511D
:1003D0000C9433EB0C944D500C94C95F0C94781E24
:1003E0000C9487390C9449EB0C94C34D0C941FEC7E
:1003F0000C94803C0C94C0490C9451EB0C94F01D6F
:100400000C94371E0C94AD1E0C94693D0C941BEC9F
:100410000C943DEB0C946E240C9431EB0C94191E4F
:100420000C94AF6F0C94833E0C94486E0C94476709
:100430000C94DF340C9460240C946E1E0C94104DBC
:100440000C94B03B0C94EC630C943BEB0C94BA55BD
:100450000C947D4E0C942C480C945A520C9432629D
:100460000C944FEB0C94213F0C9410360C941164B7
:100470000C9412490C94F03E0C948A240C9436246B
:100480000C9485660C94C51E0C945B440C94C63584
:100490000C94FF1D0C94F6EB0C947A4A0C94336D7B
:1004A0000C9459EB0C9472640C9453470C9480EBAD
:1004B0000C944B480C943D3A0C9419EC0C94C23EAD
:1004C0000C9490360C94D1380C94F4370C94B03AC8
:1004D0000C9460EB0C949F1E0C943FEB0C94984092
:1004E0000C9457EB0C9462410C94F51D0C944BEB5F
:1004F0000C94EB1D0C94FB410C94B11E0C946237D0
:100500000C94AD370C942E650C9439EB0C942DEBB8
:100510000C94B9460C9405A00C94D04D0C949165A4
:100520000C94003D0C9408EB0C94E0480C948F6CF8
:100530000C94E94E0C944D360C94E5EB0C9452243B
:100540000C9488210C9457650C942D1E0C94BBEBD5
:100550000C9415EC0C94D8EB0C94D9340C94BF1E6D
:100560000C945A1E0C948E1E0C94BB1E0C943F4B84
:100570000C94113E0C9492620C94A91E0C94734836
:100580000C9407EC0C941E350000090A02080B0CB1
:100590000D07060304010000000000000000000039
:1005A000000000000000000000000000000000004B
:1005B0000000000011100F0000000000000000000B
:1005C0000000000000000000000000000000010228
:1005D0001020200808102040102040800201020155
:1005E000080402010102040810204080804020100D
:1005F0000804020180040201804020100804020166
:1006000008040201010204081020408001020408CD
:1006100010204080050505050705080808080202A6
:1006200002020A0A0808040404040101010101018C
:1006300001010303030303030303040707070C0C6F
:100640000C0C0C0C0C0C0202020206060606060636
:1006500006060B0B0B0B0B0B0B0B000022002500EF
:1006600028002B002E00310034000201000005019B
:1006700008010B0100002100240027002A002D00A2
:100680003000330001010000040107010A0150524B
:10069000494E54004D4154455249414C004D414949
:1006A0004E54454E414E4345005072696E74696E1A
:1006B000672077697468205553422E2E2E00756C82
:1006C00074696D616B65722E636F6D2F45523037A3
:1006D00000476F20746F3A0058206F7220592073C2
:1006E000776974636820737475636B00756C7469E3
:1006F0006D616B65722E636F6D2F45523037004709
:100700006F20746F3A0058206F72205920737769F8
:100710007463682062726F6B656E00756C74696DCE
:10072000616B65722E636F6D2F4552303600476FD7
:1007300020746F3A005A2073776974636820737469
:1007400075636B00756C74696D616B65722E636F98
:100750006D2F4552303500476F20746F3A005A2094
:100760007377697463682062726F6B656E00756C75
:1007700074696D616B65722E636F6D2F45523034F5
:1007800000476F20746F3A00536166657479206387
:1007900069726375697400756C74696D616B6572FB
:1007A0002E636F6D2F4552303300476F20746F3AC0
:1007B00000486561746572206572726F7200756CB5
:1007C00074696D616B65722E636F6D2F45523032A7
:1007D00000476F20746F3A0054656D702073656E2A
:1007E000736F722042454400756C74696D616B656E
:1007F000722E636F6D2F4552303100476F20746F3A
:100800003A0054656D702073656E736F72004552C7
:10081000524F52202D2053544F50504544008015C4
:1008200006060606FEFEFEFEFC00000000000000BC
:10083000FCFEFEFEFC0000000EFEFEFEFE0000E0E0
:10084000FCFEFEFCE0E0000000CECECE000000C0CA
:10085000C0C0C0C0C08000000000000080C0C080D8
:100860000000000000008080C0C0C0C0C0C0C080C8
:10087000800000000006FEFEFEFE0000000080C0BA
:10088000C0C00000000000008080C0C0C080808028
:1008900000000000C0C0C0C00080C0C0C0C0800058
:1008A000000000007FFFFFFFFF80000000000080CD
:1008B000FFFFFFFFFF00000000FFFFFFFF00000041
:1008C000FFFFFFFF0000000000FFFFFF00000081AE
:1008D000F1FFFF3F0F3FFFFCF0F0FCFF3F0F3FFF3A
:1008E000FEF880000000C1E1F1F17131010183FFE8
:1008F000FFFFFC000000FFFFFFFF000C3EFFFFF7C3
:10090000C301000000FCFEFF8703113131333F3F7C
:100910003F1E000001FFFFFFFF070301010101006F
:100920000000000000010307070F0F0F0F0F0F0F4C
:100930000707070F0F06000000070F0F0700000052
:10094000070F0F0700000000000F0F0F0000060F39
:100950000F070100000001070F0F07010000000151
:10096000070F0F06000003070F0F0E0E0607030701
:100970000F0F07000000070F0F0700000000030F14
:100980000F0F060000000307070F0E0E0E0E0E0ECF
:1009900006000000000F0F0F0F0000000000000015
:1009A000507265763A200043414E43454C00207317
:1009B000656300206D696E0020686F7572002068A5
:1009C0006F75727300000000000000005F000000FF
:1009D00007000700147F147F14242A7F2A12231390
:1009E00008646236495522500005030000001C22AD
:1009F00041000041221C00082A1C2A0808083E0861
:100A00000800503000000808080808006060000076
:100A100020100804023E5149453E00427F400042FA
:100A2000615149462141454B311814127F10274529
:100A30004545393C4A494930017109050336494960
:100A40004936064949291E00363600000056360050
:100A50000000081422411414141414412214080034
:100A60000201510906324979413E7E1111117E7F02
:100A7000494949363E414141227F4141221C7F493B
:100A80004949417F090901013E414151327F08082E
:100A9000087F00417F41002040413F017F08142230
:100AA000417F404040407F0204027F7F0408107F66
:100AB0003E4141413E7F090909063E4151215E7F89
:100AC00009192946464949493101017F01013F4041
:100AD00040403F1F2040201F7F2018207F631408C4
:100AE00014630304780403615149454300007F41C6
:100AF00041020408102041417F0000040201020469
:100B00004040404040000102040020545454787F8B
:100B1000484444383844444420384444487F385496
:100B2000545418087E090102081454543C7F0804E8
:100B3000047800447D40002040443D00007F1028A0
:100B40004400417F40007C041804787C0804047849
:100B500038444444387C14141408081414187C7C59
:100B6000080404084854545420043F4440203C40A6
:100B700040207C1C2040201C3C4030403C4428103D
:100B800028440C5050503C4464544C4400083641B6
:100B90000000007F0000004136080008082A1C08F9
:100BA000081C2A0808473120462569205A25692053
:100BB0005825692059256900473238205A30205875
:100BC00030205930006275696C64706C6174652EF8
:100BD000006F662061646A757374696E6720796F4F
:100BE0007572007468726F7567682074686520702C
:100BF000726F6365737300492077696C6C20677549
:100C000069646520796F7500434F4E54494E5545D0
:100C10000043414E43454C00473238205A3000745F
:100C20006F207072696E742069742100616E642097
:100C300070726573732074686520627574746F6E6A
:100C4000006F6E207468652053442D6361726400E8
:100C500053656C6563742061207072696E742066E0
:100C6000696C650032312F3231004C4554275320D6
:100C70005052494E540052656164696E6720636149
:100C800072642E2E2E0032312F323100796F757240
:100C900020556C74696D616B6572322E2E2E007456
:100CA0006861742063616D65207769746800506CB9
:100CB0006561736520696E736572742053442D639A
:100CC0006172640032312F3231006D616B652061D9
:100CD000203344205072696E74210049276D2072C0
:100CE00065616479206C657427730032302F32316E
:100CF0000041524520594F552052454144593F002B
:100D000066726F6D206E6F7A7A6C652E2E2E006D76
:100D10006174657269616C206578697473005075DF
:100D2000736820627574746F6E207768656E003129
:100D3000392F323100434F4E54494E5545004C6FC8
:100D40006164696E67206D6174657269616C2E2ED5
:100D50002E0031382F32310061626F766520746861
:100D600065206172726F772E00796F757220556CF5
:100D700074696D616B6572322C0066726F6D2074E0
:100D800068652072656172206F6600496E736572D6
:100D900074206E6577206D6174657269616C0031D5
:100DA000372F323100434F4E54494E5545006D6147
:100DB00074657269616C206C6F6164696E67007044
:100DC00072696E74686561642068656174696E67D4
:100DD00020666F7200506C6561736520776169747D
:100DE0002C0031362F32310053656C6563742074EA
:100DF0006865206D6174657269616C006974206951
:100E000073207573696E672E006F66206D6174655F
:100E10007269616C006B6E6F777320776861742004
:100E20006B696E64004E6F7720796F757220556C18
:100E300074696D616B6572320031352F3231004358
:100E40004F4E54494E5545006973207468697320AC
:100E500072696768743F00596F7520686176652014
:100E600063686F73656E0031342F3231005945531A
:100E7000004E4F00206173206D6174657269616C72
:100E80002C0031332F3231004D4154455249414CF1
:100E900000556C74696D616B6572322E00696E73FA
:100EA00065727420696E2074686973006D61746581
:100EB0007269616C20796F752077696C6C004E6582
:100EC00078742C2073656C656374207468650031D8
:100ED000322F3231005245414459004D38340047D9
:100EE00031204631323030302058313130205931C4
:100EF0003000746F20696E73657274206D61746563
:100F00007269616C2E00746865206E657874207358
:100F100074657020697300746865206275696C641B
:100F2000706C617465004E6F77207468617420770F
:100F300065206C6576656C65640031312F32310057
:100F4000434F4E54494E5545007468652072696799
:100F5000687420636F726E65722E2E2E005265705B
:100F6000656174207468697320666F720031302F78
:100F7000323100434F4E54494E554500444F4E4583
:100F800000746865206C65667420636F726E6572AC
:100F90002E2E2E005265706561742074686973206E
:100FA000666F7200392F323100434F4E54494E550F
:100FB000450062697420726573697374616E63655C
:100FC0002E00756E74696C20796F75206665656C8E
:100FD0002061006275696C64706C61746520616E7B
:100FE00064206E6F7A7A6C6500536C696465206169
:100FF000207061706572206265747765656E003877
:101000002F323100434F4E54494E554500434F4E09
:1010100054494E554500473120462569205A300035
:101020004731204625692058256920592569004700
:101030003120462569205A3500746865206275693B
:101040006C64706C617465206C6576656C2E0070E4
:101050006170657220746F2066696E652D74756E9F
:1010600065006E6F77207573652061207368656514
:1010700074206F66005265706561742074686973CE
:1010800020737465702C2062757400372F32310024
:10109000434F4E54494E55450066726F6D2074683B
:1010A00065206275696C64706C6174652E0069738B
:1010B0002061206D696C6C696D6574657220617763
:1010C00061790073637265772074696C6C20746851
:1010D00065206E6F7A7A6C65005475726E20726945
:1010E000676874206275696C64706C617465003641
:1010F0002F323100434F4E54494E55450047312061
:10110000462569205A300047312046256920582558
:10111000692059256900473120462569205A350044
:1011200066726F6D20746865206275696C64706C9E
:101130006174652E0069732061206D696C6C696D46
:1011400065746572206177617900736372657720D9
:1011500074696C6C20746865206E6F7A7A6C6500B7
:101160005475726E206C656674206275696C64706B
:101170006C61746500352F323100434F4E54494E37
:10118000554500473120462569205A300047312017
:101190004625692058256920592569004731204690
:1011A0002569205A350066726F6D2074686520626B
:1011B00075696C64706C6174652E0061206D696C7A
:1011C0006C696D65746572206177617900756E7404
:1011D000696C20746865206E6F7A7A6C652069731B
:1011E00000526F7461746520746865206275747450
:1011F0006F6E00342F323100434F4E54494E5545E7
:1012000000434F4E54494E5545004731204625690D
:10121000205A256920582569205925690047323808
:1012200020583020593000676F696E6720746F2036
:10123000646F2074686174206E6F772E0061646A39
:101240007573746D656E74732C207765206172659B
:10125000007765206E65656420746F20646F20736D
:101260006F6D65004166746572207472616E737093
:101270006F72746174696F6E00332F323100434FA7
:101280004E54494E554500473120462569205A2580
:101290006900473238205A300061206669727374E1
:1012A0002072756E2077697A6172642E0077616CA6
:1012B0006B20796F75207468726F75676800666956
:1012C0007273742073746172747570204920776929
:1012D0006C6C004265636175736520746869732086
:1012E00069732074686500322F323100434F4E54C9
:1012F000494E554500627574746F6E20746F20639B
:101300006F6E74696E756500556C74696D616B659F
:101310007221205072657373207468650073746164
:1013200072747570206F6620796F75720057656CE6
:10133000636F6D6520746F207468652066697273D1
:101340007400312F323100434F4E54494E55450001
:101350004300432F00436C69636B20746F207265F8
:101360007475726E004275696C64706C617465208E
:1013700074656D702E3A003F3F3F00466163746FA5
:1013800072792072657365740052756E74696D654B
:101390002073746174730056657273696F6E004DCB
:1013A0006F74696F6E2073657474696E6773005330
:1013B00065742066616E207370656564004D6F769C
:1013C00065206D6174657269616C00496E73657248
:1013D00074206D6174657269616C00526169736536
:1013E000206275696C64706C617465004C6F776520
:1013F00072206275696C64706C61746500486F6D11
:101400006520686561640048656174757020627567
:10141000696C64706C6174650048656174757020F6
:101420006E6F7A7A6C65004C4544207365747469FC
:101430006E6773003C2052455455524E00566572FB
:10144000733A5F31352E30352E30312E4D6F656257
:101450007975730025004300432F004300432F009C
:1014600025003F3F3F0020476C6F77207768656E0F
:1014700020646F6E6500204F6E207768696C652070
:101480007072696E74696E670020416C7761797360
:10149000204F66660020416C77617973204F6E00A3
:1014A0004272696768746E657373003C20524554DC
:1014B00055524E00250025004272696768746E65BA
:1014C0007373004C4544004300432F00436C696331
:1014D0006B20746F2072657475726E004E6F7A7A2D
:1014E0006C652074656D70657261747572653A0023
:1014F000473238205830205930004300432F0043F2
:101500006C69636B20746F2072657475726E005223
:101510006F7461746520746F20657874727564658A
:10152000004E6F7A7A6C652074656D7065726174B7
:101530007572653A003F3F3F0043757272656E7485
:1015400020450043757272656E74205A00437572AF
:1015500072656E7420582F59004D61782073706544
:101560006564205A004D6178207370656564205968
:10157000004D6178207370656564205800582F59BC
:10158000204A65726B00416363656C6572617469C2
:101590006F6E003C2052455455524E006D41006D17
:1015A00041006D41006D6D2F736563006D6D2F738C
:1015B0006563006D6D2F736563006D6D2F736563DB
:1015C000006D6D2F7365635E32006D41004375726F
:1015D00072656E742045006D410043757272656ED0
:1015E00074205A006D410043757272656E74205804
:1015F0002F59006D6D2F736563004D6178207370F6
:10160000656564205A006D6D2F736563004D6178C8
:101610002073706565642059006D6D2F73656300DC
:101620004D61782073706565642058006D6D2F736F
:10163000656300582F59204A65726B0030306D6D1C
:101640002F7365635E3200416363656C657261741C
:10165000696F6E004D4F54494F4E00566572733A94
:101660005F31352E30352E30312E4D6F65627975F4
:1016700073004D61792031352032303137203230DE
:101680003A34313A31390052657475726E006D002A
:10169000204D61743A003A005072696E74696E6749
:1016A0003A003A004D616368696E65206F6E20668E
:1016B0006F723A0052657475726E00746F206465C3
:1016C0006661756C743F005265736574206576655C
:1016D00072797468696E6700594553004E4F002552
:1016E0000046616E207370656564004731204625B1
:1016F000692058256920592569004732382058301B
:10170000205930004731205A343000473238205AAF
:101710003000473238205A300047323820583020C5
:10172000593000473238205A3000414456414E4328
:101730004544004255494C442D7C504C4154450091
:10174000414456414E4345440052455455524E0083
:101750004350450041425300504C410054505520E5
:10176000393541004350452B004E796C6F6E005067
:1017700043004350450041425300504C4100250076
:1017800046616E3A2000430043002500466C6F77A7
:101790003A006D6D00636F6D6573206F7574207412
:1017A0006865206E6F7A7A6C650057616974207481
:1017B000696C6C206D6174657269616C00524541A1
:1017C00044590043414E43454C00466F7277617265
:1017D00064696E67206D6174657269616C00616235
:1017E0006F766520746865206172726F772E00795C
:1017F0006F7572206D616368696E652C0066726F2B
:101800006D20746865206261636B73696465206F25
:101810006600496E73657274206E6577206D617421
:10182000657269616C0052454144590043414E4321
:10183000454C006D6174657269616C20696E7365F9
:101840007274696F6E00436F6F6C696E672070729F
:10185000696E746865616420666F720048656174C2
:10186000696E67207072696E746865616420666F66
:1018700072004D4154455249414C0052656D6F769E
:1018800065206D6174657269616C0052454144590F
:101890000043414E43454C00526576657273696E54
:1018A00067206D6174657269616C00666F72206D8E
:1018B0006174657269616C2072656D6F76616C0030
:1018C00048656174696E67207072696E74686561DD
:1018D000640047323820583020593000496D706F0D
:1018E00072742066726F6D205344004578706F7279
:1018F0007420746F20534400437573746F6D697A5C
:1019000065003C2052455455524E004C6F61647343
:1019100020616C6C206D6174657269616C73005339
:101920006176657320616C6C206D617465726961AC
:101930006C73004D6F646966792074686520736507
:101940007474696E677300250046616E3A20004327
:101950000043002500466C6F773A006D6D003F3FF5
:101960003F0053746F7265206173207072657365F8
:10197000740052657472616374696F6E00466C6FB7
:101980007720250046616E004469616D657465725B
:1019900000486561746564206275696C64706C618F
:1019A00074650054656D7065726174757265003C94
:1019B0002052455455524E00250025006D6D0043C0
:1019C0000043200043200054656D7065726174759A
:1019D00072653A20003C2052455455524E00430057
:1019E000430054656D7065726174757265004D4198
:1019F00054455249414C0052657472616374696F79
:101A00006E3A20003C2052455455524E006D6D2FC9
:101A100073006D6D20003F3F3F005265747261633B
:101A2000742073706565640052657472616374201C
:101A30006C656E677468003C2052455455524E00E8
:101A40006D6D2F736563006D6D006D6D2F73656334
:101A50000052657472616374207370656564006D13
:101A60006D0052657472616374206C656E67746892
:101A70000052455452414354494F4E004D41544544
:101A80005249414C004E6577207072657365740051
:101A90003C2052455455524E0050524553455453E4
:101AA0000025004D6174657269616C20666C6F770A
:101AB00000250046616E207370656564006D6D00E1
:101AC0004D6174657269616C204469616D6574650E
:101AD000720043004275696C64706C6174652054D7
:101AE000656D702E004D4154455249414C00696E60
:101AF000204D4154455249414C2E54585400746F66
:101B000020746865205344206361726400536176D9
:101B10006564206D6174657269616C73004F6B0060
:101B20000A006469616D657465723D000A00666C47
:101B30006F773D000A0066616E5F73706565643D96
:101B4000000A006265645F74656D7065726174752A
:101B500072653D000A003D007265747261637469CC
:101B60006F6E5F73706565645F000A003D007265AB
:101B70007472616374696F6E5F6C656E6774685FC1
:101B8000000A003D0074656D706572617475726560
:101B90005F000A0074656D70657261747572653DF1
:101BA000000A006E616D653D005B6D617465726970
:101BB000616C5D0A0052656164696E6720636172E1
:101BC000642E2E2E00506C6561736520696E7365FE
:101BD00072742063617264004E6F2053442D434140
:101BE0005244210066726F6D207468652053442052
:101BF00063617264004C6F61646564206D6174653B
:101C00007269616C73004F6B00726574726163740A
:101C1000696F6E5F73706565645F00726574726191
:101C20006374696F6E5F6C656E6774685F0074657E
:101C30006D70657261747572655F006469616D6570
:101C400074657200666C6F770066616E5F737065B5
:101C50006564006265645F74656D7065726174755A
:101C600072650074656D7065726174757265006E81
:101C7000616D65005B6D6174657269616C5D0046E4
:101C80006F756E64206F6E20636172642E004E6FFC
:101C9000206578706F72742066696C6500526561AA
:101CA00064696E6720636172642E2E2E00506C652D
:101CB00061736520696E736572742063617264007C
:101CC0004E6F2053442D43415244210053656C65AF
:101CD00063746564206D6174657269616C3A004F6C
:101CE0004B004D4154455249414C00473120462557
:101CF0006920582569205925690047323820583015
:101D0000205930004348414E4745005345545449FB
:101D10004E47530052455455524E004300432F0046
:101D2000436C69636B20746F2072657475726E000A
:101D30004E6F7A7A6C652074656D7065726174752A
:101D400072653A00507265706172696E6720746FD7
:101D5000207072696E743A0048656174696E67201C
:101D600075702E2E2E0054554E450041424F525450
:101D7000002573207673202573006D617465726988
:101D8000616C2E00666F7220612064696666657200
:101D9000656E7400546869732066696C65206973A8
:101DA000206372656174656400434F4E54494E551B
:101DB000450043414E43454C004C45442042726926
:101DC0006768746E657373005265747261637469D9
:101DD0006F6E004D6174657269616C20666C6F771F
:101DE0000046616E207370656564004275696C64BD
:101DF000706C6174652074656D702E0054656D7033
:101E00006572617475726500537065656400416246
:101E10006F7274003C2052455455524E00250025E7
:101E20000025004300430043004300250041626F4A
:101E3000727420746865207072696E743F00594531
:101E400053004E4F003F3F3F005265747261637410
:101E50002073706565640052657472616374206CF0
:101E6000656E677468003C2052455455524E006DB3
:101E70006D2F736563006D6D006D6D2F736563006D
:101E800052657472616374207370656564006D6D72
:101E90000052657472616374206C656E67746800CB
:101EA00052455452414354494F4E002500427269F5
:101EB0006768746E6573730025004D61746572699F
:101EC000616C20666C6F7700250046616E20737030
:101ED0006565640025005072696E742073706565D5
:101EE000640054554E450054696D65206C656674F8
:101EF0000054696D65206C65667420756E6B6E6F3D
:101F0000776E004300430048656174696E67206224
:101F100075696C64706C61746500430043004865CA
:101F20006174696E67005072696E74696E673A0019
:101F300054554E4500504155534500524553554D5B
:101F4000457C5052494E54004348414E47457C4DD4
:101F50004154455249414C0054554E45004D38348A
:101F60000047323800473238205A30004732382094
:101F7000583020593000473120462569204530002F
:101F800047393220452569004D343031004D363017
:101F900031205835205935205A2569204C256900B3
:101FA000746865207072696E742E00596F752063B5
:101FB000616E2072656D6F7665005072696E742077
:101FC00066696E6973686564004241434B20544FF3
:101FD000204D454E550043004320005072696E74F9
:101FE000657220636F6F6C696E6720646F776E0037
:101FF0004241434B20544F204D454E55006F6620C3
:102000007072696E74696E672061726561005472E6
:10201000696564207072696E74696E67206F75748B
:10202000004552524F523A0052455455524E205498
:102030004F204D41494E00756C74696D616B65723E
:102040002E636F6D2F4552303800476F20746F3A02
:102050000072656164696E672053442D6361726428
:1020600021004572726F72207768696C6500524575
:102070005455524E20544F204D41494E0066726FC8
:102080006D2074686520736C696365722E007365DA
:102090007474696E672077697468207365747469F5
:1020A0006E67006F76657272696465206D61636842
:1020B000696E6500546869732066696C652077698C
:1020C0006C6C00434F4E54494E55450043414E43BE
:1020D000454C003C204241434B003C205245545566
:1020E000524E005344204341524400473120463170
:1020F00032303030205835205931300047323800E6
:102100003B464C41564F523A556C746947436F6495
:1021100065003B464C41564F523A556C74694743F3
:102120006F6465004E6F2066696C657320666F751D
:102130006E6421004F4B004F4B0052656164696E25
:102140006720636172642E2E2E00506C656173658A
:1021500020696E736572742063617264004E6F2033
:1021600053442D4341524421004E6F20696E666FE7
:1021700020617661696C61626C65004E6F7A7A6C81
:10218000653A20006D006D004D6174657269616C87
:102190003A200054696D653A20003B4D5459504532
:1021A0003A003B4E4F5A5A4C455F4449414D4554C5
:1021B00045523A003B4D4154455249414C3A003B4F
:1021C00054494D453A00466F6C646572004D32319A
:1021D0003820496E76616C69642065787472756424
:1021E000657220004D31303920496E76616C69642A
:1021F00020657874727564657220004D3130352029
:10220000496E76616C696420657874727564657274
:1022100020004D31303420496E76616C6964206550
:102220007874727564657220005072696E7465729C
:102230002073746F707065642064756520746F20FE
:102240006572726F72732E204669782074686520FB
:102250006572726F7220616E6420757365204D39EE
:10226000393920746F20726573746172742E20285E
:1022700054656D7065726174757265206973207242
:10228000657365742E2053657420697420616674CB
:1022900065722072657374617274696E672900508B
:1022A00072696E7465722068616C7465642E206B4F
:1022B000696C6C28292063616C6C656421006F6B0C
:1022C00000526573656E643A2000456E6473746FE6
:1022D00070207374696C6C20707265737365642010
:1022E0006166746572206261636B696E67206F66F8
:1022F000662E20456E6473746F7020737475636B03
:102300003F00456E6473746F70206E6F742070723E
:10231000657373656420616674657220686F6D69AA
:102320006E6720646F776E2E20456E6473746F70D5
:102330002062726F6B656E3F00456E6473746F70E0
:10234000206E6F74207072657373656420616674AB
:10235000657220686F6D696E6720646F776E2E20DE
:10236000456E6473746F702062726F6B656E3F00B0
:102370002200556E6B6E6F776E20636F6D6D616EB0
:10238000643A202200456C656374726F6E696373F2
:102390005F74657374004163746976652045787471
:1023A00072756465723A2000496E76616C696420CA
:1023B000657874727564657200540020423A30008A
:1023C00020423A31006F6B20523A0020633A0020DD
:1023D000643A0020693A0020703A006F6B002200D6
:1023E000556E6B6E6F776E20636F6D6D616E643AC4
:1023F0002022006F70656E00545249474745524590
:1024000044007A5F6D61783A20006F70656E005409
:10241000524947474552454400795F6D61783A20FB
:10242000006F70656E00545249474745524544005D
:10243000785F6D696E3A20005265706F7274696ED4
:102440006720656E6473746F702073746174757344
:10245000005A3A00593A0020436F756E7420583A7A
:102460002000453A005A3A00593A00583A00464985
:10247000524D574152455F4E414D453A4D61726C48
:10248000696E20556C74696D616B6572323B2053C7
:102490007072696E7465722F6772626C206D617301
:1024A00068757020666F722067656E3620464952E7
:1024B0004D574152455F55524C3A687474703A2FEB
:1024C0002F6769746875622E636F6D2F556C746920
:1024D0006D616B65722050524F544F434F4C5F56A5
:1024E000455253494F4E3A312E30204D41434849D1
:1024F0004E455F545950453A556C74696D616B6532
:10250000722045585452554445525F434F554E54DE
:102510003A310A0020423A0020453A00543A003F3E
:102520000020573A0020453A00543A002042403AF1
:102530000020403A00202F0020423A00202F006F58
:102540006B20543A002569206D696E2C2025692086
:1025500073656300456E642066696C65206C697301
:102560007400426567696E2066696C65206C6973EA
:102570007400256920686F757273202569206D6964
:102580006E7574657300446F6E65207072696E7449
:10259000696E672066696C65005072696E74657259
:1025A0002073746F707065642064756520746F208B
:1025B0006572726F72732E20466978207468652088
:1025C0006572726F7220616E6420757365204D397B
:1025D000393920746F20726573746172742E2028EB
:1025E00054656D70657261747572652069732072CF
:1025F000657365742E205365742069742061667458
:1026000065722072657374617274696E6729006FF8
:102610006B004E6F204C696E65204E756D62657261
:10262000207769746820636865636B73756D2C200F
:102630004C617374204C696E653A20004E6F2043E4
:102640006865636B73756D2077697468206C696E5B
:1026500065206E756D6265722C204C617374204C20
:10266000696E653A2000636865636B73756D206DF4
:1026700069736D617463682C204C617374204C69BC
:102680006E653A20004C696E65204E756D6265720C
:10269000206973206E6F74204C617374204C696ED6
:1026A00065204E756D6265722B312C204C61737400
:1026B000204C696E653A20004D31313000446F6E18
:1026C0006520736176696E672066696C652E006FA0
:1026D0006B004D3239002020506C616E6E65724285
:1026E000756666657242797465733A200020467299
:1026F0006565204D656D6F72793A20004D617920D6
:102700003135203230313700436F6D70696C65644C
:102710003A2000566572733A5F31352E30352E30CF
:10272000312E4D6F656279757300207C2041757480
:10273000686F723A20004D61792031352032303196
:10274000372032303A34313A313900204C617374D9
:1027500020557064617465643A2000312E302E304B
:10276000004D61726C696E200020536F6674776152
:1027700072652052657365740020576174636864E4
:102780006F67205265736574002042726F776E2008
:102790006F75742052657365740020457874657296
:1027A0006E616C20526573657400506F7765725569
:1027B00070007374617274002200656E71756569D2
:1027C0006E672022002200656E717565696E672054
:1027D0002200FF01010000E0400000E0400000E0B6
:1027E0004000006643008060430000614300000039
:1027F0000000806043000061430000664300806089
:1028000043000061430000000000000000000000E1
:10281000006563686F3A004572726F723A0000009B
:102820002110422063308440A550C660E7700881C3
:1028300029914AA16BB18CC1ADD1CEE1EFF131123A
:10284000100273325222B5529442F772D662399313
:1028500018837BB35AA3BDD39CC3FFF3DEE362248A
:10286000433420040114E664C774A44485546AA563
:102870004BB528850995EEE5CFF5ACC58DD553361A
:10288000722611163006D776F6669556B4465BB7B3
:102890007AA719973887DFF7FEE79DD7BCC7C448EA
:1028A000E5588668A7784008611802282338CCC903
:1028B000EDD98EE9AFF9488969990AA92BB9F55A7A
:1028C000D44AB77A966A711A500A333A122AFDDB53
:1028D000DCCBBFFB9EEB799B588B3BBB1AABA66C4A
:1028E000877CE44CC55C222C033C600C411CAEEDA3
:1028F0008FFDECCDCDDD2AAD0BBD688D499D977E5A
:10290000B66ED55EF44E133E322E511E700E9FFFF2
:10291000BEEFDDDFFCCF1BBF3AAF599F788F8891A8
:10292000A981CAB1EBA10CD12DC14EF16FE180108C
:10293000A100C230E3200450254046706760B9838F
:102940009893FBA3DAB33DC31CD37FE35EF3B102DC
:102950009012F322D2323542145277625672EAB59F
:10296000CBA5A89589856EF54FE52CD50DC5E2342C
:10297000C324A01481046674476424540544DBA76F
:10298000FAB79987B8975FE77EF71DC73CD7D3267C
:10299000F2369106B01657667676154634564CD9FF
:1029A0006DC90EF92FE9C899E9898AB9ABA94458CC
:1029B000654806782768C018E1088238A3287DCBCF
:1029C0005CDB3FEB1EFBF98BD89BBBAB9ABB754A1C
:1029D000545A376A167AF10AD01AB32A923A2EFD5F
:1029E0000FED6CDD4DCDAABD8BADE89DC98D267C6C
:1029F000076C645C454CA23C832CE01CC10C1FEFAF
:102A00003EFF5DCF7CDF9BAFBABFD98FF89F176EBB
:102A1000367E554E745E932EB23ED10EF01E7C3C37
:102A20003E5E2B3D3F2F5B5D3B2C2A225C002074D9
:102A30006F6F206C6F6E6720657874727573696F45
:102A40006E2070726576656E7465640020636F6CCD
:102A50006420657874727573696F6E207072657624
:102A6000656E746564006563686F3A00205A3A00C9
:102A700020593A0020583A00656E6473746F707381
:102A8000206869743A200024F4D43050C38E20C2E8
:102A9000A24017828B7011127A910D816CD90AA80D
:102AA00061E108C7586607615143061E4B5D05C1C9
:102AB00045A7041A411104093D98037139310340B7
:102AC00036DB0265339102D4305402802E1D02633E
:102AD0002CEE01752AC501B028A001102781018FB5
:102AE0002564012B244B01E0223401AC211F018D10
:102AF000200D01801FFC00841EED00971DDF00B833
:102B00001CD200E61BC600201BBC00641AB200B237
:102B100019A8000A19A0006A189900D1179100405D
:102B2000178B00B516840031167E00B31579003A74
:102B3000157300C7146F0058146A00EE13660088FE
:102B400013630025135E00C7125B006C125700155B
:102B5000125400C111510070114F0021114B00D6C9
:102B60001049008D1047004610440002104200C07A
:102B70000F4000800F3E00420F3C00060F3B00CB91
:102B80000E3800930E37005C0E3500270E3400F32C
:102B90000D3200C10D3100900D3000600D2E00325D
:102BA0000D2D00050D2C00D90C2B00AE0C29008535
:102BB0000C29005C0C2700350C27000E0C2600E8C1
:102BC0000B2400C40B2400A00B23007D0B23005A10
:102BD0000B2100390B2100180B2000F80A1F00D927
:102BE0000A1E00BB0A1E009D0A1D00800A1D00630C
:102BF0000A1C00470A1B002C0A1B00110A1A00F7C6
:102C0000091A00DD091900C4091900AB091900925D
:102C10000917007B091800630917004C09160036D4
:102C2000091600200916000A091500F5081500E02C
:102C3000081400CC081400B8081400A4081400906C
:102C40000813007D0812006B081300580812004694
:102C500008120034081100230811001208110001A5
:102C6000081100F0071000E0071000D0071000C0A6
:102C7000071000B0070F00A107100091070E008396
:102C8000070F0074070F0065070E0057070E004975
:102C9000070E003B070D002E070E0020070D001346
:102CA000070D0006070D00F9060C00ED060D00E00B
:102CB000060C00D4060C00C8060C00BC060C00B0C4
:102CC000060C00A4060B0099060C008D060B008272
:102CD000060B0077060B006C060B0061060A005716
:102CE000060B004C060A0042060A0038060A002EAF
:102CF000060A0024060A001A060A00100609000740
:102D0000060A00FD050900F4050900EB050900E2CB
:102D1000050900D9050900D0050900C7050900BE4D
:102D2000050900B5050800AD050800A50509009CCA
:102D3000050800940508008C050800840508007C3F
:102D4000050800740508006C050700650508005DAE
:102D5000050700560508004E050700470507004017
:102D600005080038050700310507002A050700237C
:102D70000507001C050600160507000F05070008DB
:102D800005060002050700FB040600F5040700EE37
:102D9000040600E8040600E2040700DB040600D590
:102DA000040600CF040600C9040600C3040600BDE3
:102DB000040600B7040600B1040500AC040600A632
:102DC000040600A00405009B04060095040500907D
:102DD0000406008A04050085040500800406007AC4
:102DE00004050075040500700405006B0405006609
:102DF000040500610405005C040500570405005249
:102E00000405004D04050048040500430405003E88
:102E10000404003A04050035040500300404002CC5
:102E200004050027040400230405001E0404001AFE
:102E300004040016040500110404000D0404000934
:102E40000405000404040000040400FC030400F86A
:102E5000030400F4030400F0030400EC030400E89E
:102E6000030400E4030400E0030400DC030400D8CE
:102E7000030400D4030400D0030400CC030400C8FE
:102E8000030300C503030024F404D9201BC40C5C15
:102E90000E9804C4095F0265077101F405F900FB8F
:102EA00004B30048048700C10369005803550003B8
:102EB000034500BE023A008402310053022A002971
:102EC00002250004022000E4011C00C8011900AF23
:102ED00001170098011400840113007101100061B2
:102EE00001100051010E0043010D0036010B002BB3
:102EF000010B0020010B00150109000C0109000362
:102F0000010800FB000800F3000800EB000700E4E4
:102F1000000600DE000600D8000600D2000600CC45
:102F2000000500C7000500C2000500BD000400B98F
:102F3000000400B5000400B1000400AD000400A9C5
:102F4000000400A5000300A20003009F0004009BF2
:102F50000003009800030095000200930003009016
:102F60000003008D0002008B000300880002008631
:102F700000020084000300810002007F0002007D47
:102F80000002007B00020079000200770001007659
:102F90000002007400020072000100710002006F64
:102FA0000002006D0001006C0002006A000100696F
:102FB0000002006700010066000100650001006476
:102FC0000002006200010061000100600001005F7A
:102FD0000002005D0001005C0001005B0001005A7E
:102FE000000100590001005800010057000100567F
:102FF000000100550001005400010053000000537F
:103000000001005200010051000100500001004F7A
:103010000001004E0000004E0001004D0001004C78
:103020000001004B0000004B0001004A0001004974
:103030000001004800000048000100470001004670
:10304000000000460001004500000045000100446A
:103050000001004300000043000100420000004264
:103060000001004100000041000100400001003F5C
:103070000000003F0001003E0000003E0001003D56
:103080000000003D0001003C0000003C0000003C4E
:103090000001003B0000003B0001003A0000003A44
:1030A000000100390000003900010038000000383C
:1030B0000000003800010037000000370001003632
:1030C0000000003600000036000100350000003529
:1030D000000000350001003400000034000000341E
:1030E0000001003300000033000000330001003213
:1030F0000000003200000032000100310000003109
:1031000000000031000100300000003000000030FD
:103110000001002F0000002F0000002F0000002FF2
:103120000001002E0000002E0000002E0001002DE6
:103130000000002D0000002D0000002D0001002CDB
:103140000000002C0000002C0000002C0001002BCF
:103150000000002B0000002B0000002B0001002AC3
:103160000000002A0000002A0000002A00010029B7
:1031700000000029000000290000002900000029AB
:10318000000100280000002800000028000000289E
:103190000000002800010027000000270000002791
:1031A0000000002700000027000100260000002684
:1031B0000000002600000026000000260001002577
:1031C000000000250000002500000025000000256B
:1031D000000000250001002400000024000000245D
:1031E0000000002400000024000100230000002350
:1031F0000000002300000023000000230000002343
:103200000000002300010022000000220000002234
:103210000000002200000022000000220001002126
:10322000000000210000002100000021000000211A
:10323000000000210000002100010020000000200B
:1032400000000020000000200000002000000020FE
:1032500000000020000000200001001F0000001FEF
:103260000000001F0000001F0000001F0000001FE2
:103270000000001F0001001E0000001E0000001ED4
:103280000000001E0000006563686F3A003A2045A8
:1032900078747275646572207377697463686564A5
:1032A000206F66662E204D494E54454D5020747255
:1032B000696767657265642021003A2045787472F9
:1032C00075646572207377697463686564206F66DE
:1032D000662E204D415854454D50207472696767E1
:1032E0006572656420210054656D70657261747546
:1032F0007265206865617465642062656420737717
:10330000697463686564206F66662E204D41585469
:10331000454D50207472696767657265642021218C
:1033200000202D20496E76616C6964206578747286
:1033300075646572206E756D62657220210050495A
:1033400044204175746F74756E652066696E69738B
:10335000686564212050757420746865204B702C5A
:10336000204B6920616E64204B6420636F6E737420
:10337000616E747320696E746F20436F6E66696747
:1033800075726174696F6E2E6800504944204175F2
:10339000746F74756E65206661696C656421207454
:1033A000696D656F75740020403A006F6B20543A68
:1033B000006F6B20423A00504944204175746F748D
:1033C000756E65206661696C6564212054656D7059
:1033D0006572617475726520746F6F2068696768C3
:1033E00000204B643A2000204B693A2000204B70AB
:1033F0003A200020436C61736963205049442000E7
:103400002054753A2000204B753A2000206D6178D9
:103410003A2000206D696E3A200020643A20002096
:10342000626961733A2000504944204175746F7499
:10343000756E652073746172740050494420417543
:10344000746F74756E65206661696C65642E2042C8
:103450006164206578747275646572206E756D6242
:1034600065722E004572726F723A000000000018FB
:10347000070100A807140030082800B8083C0038ED
:10348000095000C0096400480A7800C80A8C004846
:103490000BA000C80BB400480CC800C80CDC0040EE
:1034A0000DF000C00D0401380E1801B00E2C0128DB
:1034B0000F4001A00F54011810680188107C010012
:1034C0001190013013F401481558024017BC02282E
:1034D000192003F01A8403A81CE803401E4C044D75
:1034E000383420582059205A20450043616E6E6FB1
:1034F0007420656E746572207375626469723A2017
:10350000004D3234004D3233202573006175746FE5
:1035100025692E67006572726F722077726974690F
:103520006E6720746F2066696C6500436172642069
:103530006572726F723A004E6F742053442070723D
:10354000696E74696E67002F005344207072696E53
:1035500074696E67206279746520002E0044656C82
:103560006574696F6E206661696C65642C204669BC
:103570006C653A200046696C652064656C6574650D
:10358000643A002E006F70656E206661696C656438
:103590002C2046696C653A200057726974696E6721
:1035A00020746F2066696C653A20002E006F70658C
:1035B0006E206661696C65642C2046696C653A20F2
:1035C000002E006F70656E206661696C65642C204A
:1035D00046696C653A200046696C652073656C65C8
:1035E00063746564002053697A653A200046696C0B
:1035F00065206F70656E65643A20002E006F7065FF
:103600006E206661696C65642C2046696C653A20A1
:103610000053442063617264206F6B006F70656EAD
:10362000526F6F74206661696C656400766F6C75AB
:103630006D652E696E6974206661696C65640053FE
:103640004420696E6974206661696C0043616E6E26
:103650006F74206F70656E207375626469720065A7
:1036600063686F3A004572726F723A004861726423
:10367000636F6465642044656661756C742053658E
:103680007474696E6773204C6F61646564005630B2
:1036900031300053746F7265642073657474696EA1
:1036A00067732072657472696576656400204400F2
:1036B0002049002020204D33303120500050494413
:1036C0002073657474696E67733A00205A0020593C
:1036D0000020204D323036205800486F6D65206F35
:1036E000666673657420286D6D293A0020450020B8
:1036F0005A0020580020420020540020204D323033
:1037000035205300416476616E6365642076617292
:103710006961626C65733A20533D4D696E20666540
:1037200065647261746520286D6D2F73292C205497
:103730003D4D696E2074726176656C2066656564C6
:103740007261746520286D6D2F73292C20423D6DA8
:10375000696E696D756D207365676D656E74207433
:10376000696D6520286D73292C20583D6D6178693D
:103770006D756D205859206A65726B20286D6D2F0C
:1037800073292C20205A3D6D6178696D756D205A22
:10379000206A65726B20286D6D2F73292C202045BF
:1037A0003D6D6178696D756D2045206A65726B208D
:1037B000286D6D2F73290020540020204D323034A5
:1037C000205300416363656C65726174696F6E3A82
:1037D00020533D616363656C65726174696F6E2C23
:1037E00020543D7265747261637420616363656C1B
:1037F00065726174696F6E00204500205A0020597F
:103800000020204D3230312058004D6178696D75AF
:103810006D20416363656C65726174696F6E202809
:103820006D6D2F7332293A00204500205A0020592F
:103830000020204D3230332058004D6178696D757D
:103840006D2066656564726174657320286D6D2FE7
:1038500073293A00204500205A0020590020204DAD
:10386000393220580053746570732070657220756A
:103870006E69743A0053657474696E67732053748B
:103880006F726564006563686F3A00544553540D68
:103890000A000D0A00556E6B6E6F776E20636F6DB8
:1038A0006D616E643A20000D0A003F005665727328
:1038B0003A5F31352E30352E30312E4D6F656279BD
:1038C000757300024E414E494E495459494E46CDFA
:1038D000CCCC3D0AD7233C17B7D13877CC2B3295C7
:1038E00095E6241FB14F0A000020410000C84200A5
:1038F000401C4620BCBE4CCA1B0E5AAEC59D74006F
:10390000F49F05A011241FBECFEFD1E2DEBFCDBFD3
:1039100000E00CBF13E0A0E0B2E0E2ECF3EF01E066
:103920000BBF02C007900D92A232B107D9F72AE16E
:10393000A2E2B3E001C01D92A030B207E1F71CE1A2
:10394000C1E8DCE100E006C021970109802FFE01FB
:103950000E9461F2C038D10780E00807A9F70E94F1
:1039600005ED0C94CFF90C9400001F920F920FB646
:103970000F9211242F933F938F939F93AF93BF93F5
:103980008091230390912403A0912503B0912603F5
:103990003091220323E0230F2D3720F40196A11D3F
:1039A000B11D05C026E8230F0296A11DB11D20936D
:1039B00022038093230390932403A0932503B093C1
:1039C00026038091270390912803A0912903B091A9
:1039D0002A030196A11DB11D80932703909328030C
:1039E000A0932903B0932A03BF91AF919F918F9128
:1039F0003F912F910F900FBE0F901F9018952FB7EA
:103A0000F894609123037091240380912503909191
:103A100026032FBF08953FB7F89480912703909114
:103A20002803A0912903B0912A0326B5A89B05C0BD
:103A30002F3F19F00196A11DB11D3FBFBA2FA92F2D
:103A4000982F8827820F911DA11DB11DBC01CD01AA
:103A500042E0660F771F881F991F4A95D1F7089596
:103A6000CF92DF92EF92FF92CF93DF936B017C01B5
:103A70000E940B1DEB01C114D104E104F10479F0A3
:103A80000E940B1D6C1B7D0B683E7340A0F381E010
:103A9000C81AD108E108F108C851DC4FECCFDF911A
:103AA000CF91FF90EF90DF90CF900895019739F07C
:103AB000880F991F880F991F02970197F1F70895B2
:103AC000789484B5826084BD84B5816084BD85B5F9
:103AD000826085BD85B5816085BDEEE6F0E08081C0
:103AE00081608083E1E8F0E01082808182608083E1
:103AF000808181608083E0E8F0E080818160808364
:103B0000E1EBF0E0808184608083E0EBF0E0808195
:103B100081608083E1E9F0E0808182608083808140
:103B200081608083E0E9F0E0808181608083E1EA68
:103B3000F0E0808182608083808181608083E0EA20
:103B4000F0E0808181608083E1E2F1E08081826049
:103B50008083808181608083E0E2F1E08081816008
:103B60008083EAE7F0E080818460808380818260E6
:103B700080838081816080838081806880831092CF
:103B8000C10008951F93CF93DF93182FEB0161E0DD
:103B90000E94D31E209711F460E004C0CF3FD105EE
:103BA00039F461E0812FDF91CF911F910C940F1FA9
:103BB000E12FF0E0E857FA4FE4914E2F50E0FA0180
:103BC0003197E131F10508F093C08827EE58FF4F97
:103BD0008F4F0C9461F284B5806884BDC7BD8DC0E1
:103BE00084B5806284BDC8BD88C080918000806833
:103BF00080938000D0938900C09388007EC080911C
:103C00008000806280938000D0938B00C0938A00F4
:103C100074C08091B00080688093B000C093B300FE
:103C20006CC08091B00080628093B000C093B400FB
:103C300064C080919000806880939000D093990038
:103C4000C09398005AC08091900080628093900049
:103C5000D0939B00C0939A0050C0809190008860E0
:103C600080939000D0939D00C0939C0046C08091AB
:103C7000A00080688093A0008091A0008F7B80933B
:103C8000A000D093A900C093A80037C08091A000E5
:103C900080628093A000D093AB00C093AA002DC097
:103CA0008091A00088608093A000D093AD00C09365
:103CB000AC0023C080912001806880932001D093C4
:103CC0002901C093280119C080912001806280934E
:103CD0002001D0932B01C0932A010FC080912001B5
:103CE000886080932001D0932D01C0932C0105C0E2
:103CF000C038D1050CF055CF4FCFDF91CF911F9138
:103D0000089590E0FC013197E131F10508F04AC0D7
:103D10008827ED57FF4F8F4F0C9461F28091800000
:103D20008F7703C0809180008F7D809380000895FD
:103D300084B58F7702C084B58F7D84BD089580914E
:103D4000B0008F7703C08091B0008F7D8093B0006A
:103D50000895809190008F7707C0809190008F7DAB
:103D600003C080919000877F809390000895809198
:103D7000A0008F7707C08091A0008F7D03C0809145
:103D8000A000877F8093A0000895809120018F7705
:103D900007C0809120018F7D03C080912001877F23
:103DA000809320010895CF93DF9390E0FC01E253CC
:103DB000FA4F2491FC01EC5EF94F8491882361F164
:103DC00090E0880F991FFC01EC58F94FC591D491F0
:103DD000FC01E65AF94FA591B491611109C09FB752
:103DE000F8948881209582238883EC912E230BC040
:103DF000623061F49FB7F8943881822F80958323D5
:103E00008883EC912E2B2C939FBF06C08FB7F8941C
:103E1000E8812E2B28838FBFDF91CF9108951F93C8
:103E2000CF93DF93282F30E0F901E857FA4F8491C0
:103E3000F901E253FA4FD491F901EC5EF94FC491C4
:103E4000CC23C9F0162F81110E94811EEC2FF0E0C7
:103E5000EE0FFF1FE65AF94FA591B4918FB7F89472
:103E6000111105C09C91ED2FE095E92302C0EC9162
:103E7000ED2BEC938FBFDF91CF911F9108951F928F
:103E80000F920FB60F9211240BB60F922F933F9300
:103E90004F935F936F937F938F939F93AF93BF9352
:103EA000EF93FF9380912F0390913003892B29F09A
:103EB000E0912F03F09130031995FF91EF91BF919D
:103EC000AF919F918F917F916F915F914F913F91B2
:103ED0002F910F900BBE0F900FBE0F901F90189553
:103EE0001F920F920FB60F9211240BB60F922F93C1
:103EF0003F934F935F936F937F938F939F93AF9372
:103F0000BF93EF93FF938091310390913203892BFC
:103F100029F0E0913103F09132031995FF91EF916F
:103F2000BF91AF919F918F917F916F915F914F91D1
:103F30003F912F910F900BBE0F900FBE0F901F90CF
:103F400018951F920F920FB60F9211240BB60F9275
:103F50002F933F934F935F936F937F938F939F9391
:103F6000AF93BF93EF93FF9380913303909134030A
:103F7000892B29F0E0913303F09134031995FF91D7
:103F8000EF91BF91AF919F918F917F916F915F91D1
:103F90004F913F912F910F900BBE0F900FBE0F903E
:103FA0001F9018951F920F920FB60F9211240BB607
:103FB0000F922F933F934F935F936F937F938F93C2
:103FC0009F93AF93BF93EF93FF93809135039091AD
:103FD0003603892B29F0E0913503F09136031995CA
:103FE000FF91EF91BF91AF919F918F917F916F91D1
:103FF0005F914F913F912F910F900BBE0F900FBE8D
:104000000F901F9018951F920F920FB60F921124C8
:104010000BB60F922F933F934F935F936F937F93C2
:104020008F939F93AF93BF93EF93FF9380912B0355
:1040300090912C03892B29F0E0912B03F0912C0314
:104040001995FF91EF91BF91AF919F918F917F91C2
:104050006F915F914F913F912F910F900BBE0F90F9
:104060000FBE0F901F9018951F920F920FB60F92D0
:1040700011240BB60F922F933F934F935F936F933F
:104080007F938F939F93AF93BF93EF93FF93809111
:104090002D0390912E03892B29F0E0912D03F091AF
:1040A0002E031995FF91EF91BF91AF919F918F9141
:1040B0007F916F915F914F913F912F910F900BBE28
:1040C0000F900FBE0F901F9018951F920F920FB672
:1040D0000F9211240BB60F922F933F934F935F9340
:1040E0006F937F938F939F93AF93BF93EF93FF93C0
:1040F0008091370390913803892B29F0E0913703A1
:10410000F09138031995FF91EF91BF91AF919F9175
:104110008F917F916F915F914F913F912F910F9070
:104120000BBE0F900FBE0F901F9018951F920F920D
:104130000FB60F9211240BB60F922F933F934F930C
:104140005F936F937F938F939F93AF93BF93EF93FF
:10415000FF938091390390913A03892B29F0E091E4
:104160003903F0913A031995FF91EF91BF91AF9107
:104170009F918F917F916F915F914F913F912F917F
:104180000F900BBE0F900FBE0F901F901895FF92CF
:104190000F931F93CF93DF9388EA9FEF90935F0372
:1041A00080935E034091520388E0840F405E682F45
:1041B0000E94932A0E946530809152038435D8F57D
:1041C0004EE158E066E180E00E947031D7E1C6E13F
:1041D00000E010E0F02E40915203842F90E0880F11
:1041E000991F98012D5E3F4F2817390744F4440F5B
:1041F0004451401B2D2F6C2F80E00E947030809125
:104200005203282F30E0220F331F2017310734F0DC
:10421000880F2D2F4FE76C2F8F1904C02D2F4FE7DC
:104220006C2F80E00E9470300F5F1F4FCE5FDE5F0B
:10423000CA3281F609C08150809352034EE158E0A2
:1042400066E180E00E9470310E94562A80913B0313
:10425000811113C02091520330E0220F331F40918F
:104260000802429FC001439F900D112464E670E054
:104270000E940CF288E00E94C21D809151038111BE
:1042800004C080915D038823E9F180913B03811193
:104290000DC0809108022FEF829FC001112464E6B7
:1042A00070E00E940CF288E00E94C21D109251033F
:1042B000109252034CE360E380E30E94932A8091C2
:1042C0005D0381110E94DB3180E094E00E9496F949
:1042D000853579F420E030E0A90160914D0F7091AF
:1042E0004E0F80914F0F9091500F0E9408EE811158
:1042F00003C083E89EE302C088E891E290935A03EA
:1043000080935903DF91CF911F910F91FF900895F2
:104310004DE956E064E976E08EE896E00E94872554
:1043200080915D03882349F180915E0390915F0342
:104330009C01295F3F4F2F30310558F40E943172A4
:1043400087E69FE00E94A9DC62E070E08FE392E7DD
:1043500012C09C01285031092830310528F468EA40
:104360007FEF88E198E507C04097089730F468EA46
:104370007FEF80EF9EE30E94572580915C038823A6
:10438000A1F080915E0390915F03883A9F4F69F49A
:104390001092510380915203893C58F068EA7FEFF4
:1043A0008BED91E20E94572504C0109251031092A8
:1043B00052030C94562A9F92AF92BF92CF92DF92F3
:1043C000EF92FF920F931F93CF93DF9380915E0341
:1043D00090915F03883A9F4F59F58AE190E090935E
:1043E0005F0380935E0327E238E043E053E080E020
:1043F00090E0F901E80FF91F50830196853091058F
:10440000C1F741502B5F3F4F4111F1CF1092370858
:104410001092360880E099E3909339088093380829
:1044200010923B0810923A0810923D0810923C08F6
:1044300080915E0390915F0397FF04C010925F0329
:1044400010925E0380915E0390915F03880F991F25
:104450008B36910534F085E390E090935F03809371
:104460005E0380913A0890913B0840913608509144
:104470003708480F591F509337084093360860910A
:104480003C0870913D082091380830913908260F7A
:10449000371F30933908209338084F3F510509F0F2
:1044A0001CF497FF0DC009C04130ECE75E0764F0D3
:1044B00097FF03C0919581959109919581959109F7
:1044C00090933B0880933A082F3F310509F05CF444
:1044D000CB0177FF03C091958195910990933D0899
:1044E00080933C0805C02115FEE13F070CF051C048
:1044F000952F990F990B852F69E170E00E940CF2BE
:10450000262F932F990F990B832F6AE070E00E945A
:104510000CF285E0689FF0011124E20FF11DE95DC6
:10452000F74F80818823A9F18150808380913C08D6
:1045300090913D0897FF03C09195819591099093C3
:104540003D0880933C0847E258E0BA0123E080E050
:1045500090E0FB01E80FF91F308131111AC001967C
:1045600085309105B1F721506B5F7F4F2111EFCF5F
:1045700023E033E080E090E0FA01E80FF91F308398
:10458000019685309105C1F721504B5F5F4F211196
:10459000F1CF809138089091390881309A430CF41A
:1045A00048C0209136083091370880915E03909181
:1045B0005F030197880F991F582F44272417350749
:1045C00034F04796982F88278217930734F468EAC7
:1045D0007FEF88E891E20E94572520915E03309199
:1045E0005F038BEF9FEF821B930B982F8827990F08
:1045F0002091360830913708820F931F97FDCF9690
:1046000056E0959587955A95E1F720913A083091B3
:104610003B08820F931F90933B0880933A0897FFC3
:1046200003C0919581959109925090933D08809394
:104630003C0880913C0890913D08892B59F580E019
:1046400099E3909339088093380880915E039091A4
:104650005F039C012B5F3F4F220F331F10923608E0
:104660002093370820915D032223A1F0809733E047
:10467000880F991F3A95E1F790933B0880933A0889
:1046800097FF03C0919581959109925090933D08B1
:1046900080933C080E94653027E2E22E28E0F22E4B
:1046A000D3E087E0982E9D0ECC24CA94CD0E96E0E0
:1046B000D92EDD0E8701C4E05801F80180818823DE
:1046C00041F0292D43E14C0F6C2D8FEF8C0F0E9490
:1046D000C22FF8018081823039F42D2D42E14C0F38
:1046E0006D2F8C2F0E94F62F0F5F1F4FF5018081D9
:1046F000833039F42D2D42E14C0F6D2F8C2F0E9409
:10470000F230C75EC138C1F6D65FF5E0EF0EF11C9E
:10471000D13239F6609139088091370822E0260FAE
:1047200042E0480F0E94C22F80915E03880F45E14E
:10473000480F2FE36CE30E94C22FDF91CF911F91AE
:104740000F91FF90EF90DF90CF90BF90AF909F9030
:104750000C94562A0E9452320E94B862811106C0FF
:104760000E94D75860E080E00E9410610E94765E4F
:1047700087EC90E290935A038093590360E070E0D5
:1047800088E00E94C21D0E94FF1CDC01CB018858FA
:104790009341A109B10980933D0390933E03A093F7
:1047A0003F03B09340030895CF92DF92EF92FF92C0
:1047B0000E948E2A882309F468C10E94313282B394
:1047C00082FB992790F981E0892790916B0F9817C8
:1047D00059F090910F11992321F0915090930F115E
:1047E00006C080936B0F03C088E280930F119091F5
:1047F000510380915203992341F0825080935203D8
:1048000081110BC01092510308C08E5F8093520338
:104810008E3719F481E0809351030E94E18588234B
:1048200009F491C00E9465306EE078E08AE00E9451
:104830005E2E0E94E88590E0FC013197EA30F10598
:1048400008F079C08827EC56FF4F8F4F0C9461F227
:1048500062E078E084E10E945E2E4BEF57E068E270
:1048600081E00E948A2C48EE57E061C068ED77E055
:1048700084E10E945E2E41ED57E068E281E00E94F3
:104880008A2C4EEB57E053C061EB77E084E10E9445
:104890005E2E4AEA57E068E281E00E948A2C47E9EE
:1048A00057E045C068E877E084E10E945E2E41E869
:1048B00057E068E281E00E948A2C4EE657E037C05C
:1048C0006EE577E084E10E945E2E47E557E068E2FE
:1048D00081E00E948A2C44E457E029C065E377E038
:1048E00084E10E945E2E4EE257E068E281E00E9481
:1048F0008A2C4BE157E01BC066E077E084E10E9420
:104900005E2E4FEF56E068E281E00E948A2C4CEE6A
:1049100056E00DC068ED76E084E10E945E2E41ED28
:1049200056E068E281E00E948A2C4EEB56E062E39A
:1049300081E00E948A2C8091520360E8681B482F16
:104940000E94932A32C00E94FF1CC0903D03D09069
:104950003E03E0903F03F0904003DC01CB018C1953
:104960009D09AE09BF0988389341A105B10518F525
:1049700080913C0381110AC00E94653069EA76E0AB
:1049800084E10E945E2E81E080933C038091730C51
:104990008350833050F40E94FF1C60933D0370935A
:1049A0003E0380933F0390934003FF90EF90DF908E
:1049B000CF900C94562A10923C032DEC3CEC4CE426
:1049C0005DE36091E9197091EA198091EB1990917A
:1049D000EC190E9411F16B017C0123E333E343E7FF
:1049E0005FE360910402709105028091060290914C
:1049F00007020E9411F19B01AC01C701B6010E94A0
:104A000013ED609304027093050280930602909365
:104A100007022DEC3CEC4CE45DE36091E3197091EE
:104A2000E4198091E5199091E6190E9411F16B014A
:104A30007C0123E333E343E75FE36091000270917D
:104A4000010280910202909103020E9411F19B01E8
:104A5000AC01C701B6010E9413ED60930002709390
:104A600001028093020290930302E0915903F091B6
:104A70005A031995E0915503F0915603309729F0A8
:104A8000FF90EF90DF90CF901994FF90EF90DF9020
:104A9000CF9008951092F2191092F1191092F01916
:104AA0001092EF191092370F08950C94FE310F9366
:104AB0001F93CF93DF938C01EB0110925003109260
:104AC0005103109252034CE360E380E30E94932A67
:104AD0000E94DB318091590390915A0390935803BF
:104AE0008093570380915E0390915F0390935403EA
:104AF0008093530310935A0300935903D0935F0399
:104B0000C0935E03DF91CF911F910F910895EF92B3
:104B1000FF920F931F93CF93DF937C018B01EA01E8
:104B200020915E0330915F03283A8FEF3807A9F098
:104B300037FF06C0285E3F4F30935F0320935E032C
:104B400020915E0330915F032831310534F0285104
:104B5000310930935F0320935E030E9465304DE27C
:104B600065E080E40E94712F40E36CE783E00E94DF
:104B7000542F80915E0390915F0307960F9790F4F6
:104B80002BE24BE367E085E00E94C22F2AE24AE372
:104B900068E086E00E94F230A70166E181E20E94AF
:104BA000ED2E05C0A70166E181E20E94862E80916C
:104BB0005E0390915F030897089790F42BE24BE710
:104BC00067E085E40E94C22F2AE24AE768E086E4B3
:104BD0000E94F230A80166E181E60E94ED2E05C038
:104BE000A80166E181E60E94862E209739F1809126
:104BF0005E0390915F0340970897B0F42DE34BE775
:104C000063E385E00E94C22F2CE34AE764E386E079
:104C10000E94F230BE0185E3DF91CF911F910F9189
:104C2000FF90EF900C94722EBE0185E3DF91CF913F
:104C30001F910F91FF90EF900C945E2EDF91CF911A
:104C40001F910F91FF90EF9008950E94653040E30F
:104C50006CE783E00C94542F0F931F93CF93DF9353
:104C60001F921F92CDB7DEB78A0120915E0330916B
:104C70005F03283A4FEF3407A9F037FF06C0205FE3
:104C80003F4F30935F0320935E0320915E0330918A
:104C90005F032031310534F02051310930935F0337
:104CA00020935E0320915D032223C1F020915E03D7
:104CB00030915F03295F3F4F2F30310578F4611544
:104CC000710531F089839A83FB0119959A81898155
:104CD000009721F068EA7FEF0E9457250E94252661
:104CE0000115110511F407EA19E080915E03909116
:104CF0005F0307960F97F8F42DE34BE763E385E036
:104D00000E94C22F2CE34AE764E386E00E94F2305F
:104D1000C8010E94C0F5982F990F890FA80165E37B
:104D200091E4981B892F0F900F90DF91CF911F91E5
:104D30000F910C946D2DC8010E94C0F5982F990F0A
:104D4000890FA80165E391E4981B892F0F900F90BC
:104D5000DF91CF911F910F910C948A2CAF92BF924B
:104D6000CF92DF92EF92FF920F931F93CF93DF9337
:104D70006C01EA015901A0915E03B0915F03A83A6A
:104D80008FEFB80799F0B7FF05C05096B0935F0357
:104D9000A0935E0380915E0390915F038031910543
:104DA0002CF0409790935F0380935E0380915D03A6
:104DB000882331F180915E0390915F039C01295F0C
:104DC0003F4F2F30310560F46115710511F0FB0183
:104DD0001995C114D104A1F068EA7FEFC6010EC095
:104DE0000897089768F40115110511F0F801199555
:104DF000A114B10429F068EA7FEFC5010E9457258C
:104E00000E94252680915E0390915F0307960F977D
:104E1000D0F42DE34EE363E385E00E94C22F2CE340
:104E20004DE364E386E00E94F230CE010E94C0F5BB
:104E3000982F990F890FAE0165E393E2981B892F94
:104E40000E946D2D0CC0CE010E94C0F5982F880FD6
:104E5000980FAE0165E383E2891B0E948A2C809142
:104E60005E0390915F030897089718F52DE34AE7D2
:104E700063E382E40E94C22F2CE349E764E383E406
:104E80000E94F230C7010E94C0F5982F990F890F38
:104E9000A70165E39FE5981B892FDF91CF911F91B3
:104EA0000F91FF90EF90DF90CF90BF90AF900C9458
:104EB0006D2DC7010E94C0F5982F880F980FA7018C
:104EC00065E38FE5891BDF91CF911F910F91FF90D3
:104ED000EF90DF90CF90BF90AF900C948A2CEF9220
:104EE000FF921F93CF93DF93C82F2EE24CE766E229
:104EF00083E00E94C22FD0E0219714E08CE0E82EDE
:104F0000F12CCF3F8FEFD807C1F01D37B1F0CE01A4
:104F1000B7010E940CF2AC01453051051CF4485D0C
:104F200068E205C08A3030F463E2640F4CE2812FFE
:104F30000E94712F1F5F2197E4CFDF91CF911F91C6
:104F4000FF90EF9008954F925F926F927F928F92B1
:104F50009F92AF92BF92CF92DF92EF92FF920F9308
:104F60001F93CF93DF9370915D037111D8C0E091CF
:104F70005E03F0915F03E83AFF4F21F410925F0364
:104F800010925E03A0915E03B0915F03862E062E01
:104F9000000C9908B7FF0BC0F401EE0FFF1FEE0FD6
:104FA000FF1FEA0FFB1FF0935F03E0935E03E091A6
:104FB0005E03F0915F03D401AA0FBB1FAA0FBB1FB2
:104FC000EA17FB074CF074E06702E019F1091124BD
:104FD000F0935F03E0935E0300915E0310915F0323
:104FE00017FF02C00D5F1F4F79015A016C01159523
:104FF000079515950795702E0E946530A091410385
:10500000B0914203C801992763E0880F991F6A9500
:10501000E1F70F978A1B9B0BEC0197FD2396D59523
:10502000C795D595C795AC0FBD1F1816190614F472
:10503000119608C0892B29F4B0934203A093410331
:1050400009C01197B0934203A093410310925103FA
:10505000109252038091410390914203282F2770B0
:1050600033E0969587953A95E1F79AE3692E621AAF
:10507000DAE0D21BC82F8C2F90E088159905DCF45C
:105080008C2FF50119952C01FC01148AC7110EC053
:1050900027E02D0F4CE76FEF6D0F83E00E94F23099
:1050A000A2016D2F84E00E947C2B05C0AC016D2F06
:1050B00084E00E949A2ACF5FD85FD611DCCF28E027
:1050C0004CE760E083E00E94F2302FE34CE76FE2B0
:1050D00083E00E94703029E04CE769E083E00E94A1
:1050E000703040E36CE783E00E94542FB60181E00A
:1050F0000E94722E802FF7011995DF91CF911F9199
:105100000F91FF90EF90DF90CF90BF90AF909F9066
:105110008F907F906F905F904F900C94562ADF9104
:10512000CF911F910F91FF90EF90DF90CF90BF90A4
:10513000AF909F908F907F906F905F904F90089569
:105140000F931F93CF93DF93CDB7DEB766970FB65C
:10515000F894DEBF0FBECDBF809147039091480306
:1051600020915E0330915F032817390724F4909350
:105170005F0380935E0380914503909146032091E5
:105180005E0330915F038217930724F490935F03CB
:1051900080935E0380914903813041F4E0914A039A
:1051A000F0914B0380915E0380838EC0823059F46E
:1051B000E0914A03F0914B0380915E0390915F036D
:1051C0009183808381C08330A9F400914A031091B8
:1051D0004B0360915E0370915F03072E000C880BF8
:1051E000990B0E94BCEE20E030E048EC52E40E94B3
:1051F00012EE65C0843089F4E0914A03F0914B03CC
:1052000080915E0390915F03092E000CAA0BBB0BEB
:1052100080839183A283B38357C08530A1F4E0914A
:105220004A03F0914B0320915E0330915F034FEFEF
:10523000429FC001439F900D112464E670E00E94DC
:105240000CF2608341C0863099F400914A031091BA
:105250004B0360915E0370915F03072E000C880B77
:10526000990B0E94BCEE20E030E040E752E414C00D
:105270008730A9F400914A0310914B0360915E03BB
:1052800070915F03072E000C880B990B0E94BCEEF7
:1052900020E030E048EC52E40E9411F110C0883068
:1052A00099F400914A0310914B0360915E03709151
:1052B0005F03072E000C880B990B0E94BCEEF801CF
:1052C00060837183828393830E94252660914E03BD
:1052D00070914F0384E10E945E2E209149038091DA
:1052E0005E0390915F0300914C0310914D032330B6
:1052F00099F4BC01990F880B990B0E94BCEE20E039
:1053000030E048EC52E40E9412EE9801AE014F5F8B
:105310005F4F0E94313406C0A801BE016F5F7F4F0E
:105320000E941733BE016F5F7F4F8EE10E946A2C8F
:1053300060EA79E0CE0101960E94B9F52091490317
:1053400000914C0310914D038091430390914403CD
:10535000233099F4BC01990F880B990B0E94BCEE85
:1053600020E030E048EC52E40E9412EE9801AE01D9
:10537000495F5F4F0E94313406C0A801BE01695FDA
:105380007F4F0E941733BE016F5F7F4F85E30E94FE
:105390006A2C0E94562A80915D03882351F0609107
:1053A00053037091540380915703909158030E94C6
:1053B000572566960FB6F894DEBF0FBECDBFDF91BE
:1053C000CF911F910F9108959091BC0097FFFCCF52
:1053D0008093BB0084E88093BC0008958091BC005A
:1053E00087FFFCCF84E98093BC0008951F93CF937F
:1053F000DF931F92CDB7DEB7182F84EA8093BC00ED
:1054000080EC69830E94E429812F0E94E42969814C
:10541000862F0E94E4290F90DF91CF911F910C9469
:10542000EE291F920F920FB60F9211240BB60F9216
:105430002F933F934F935F936F937F938F939F939C
:10544000AF93BF93EF93FF938091610390916203B9
:10545000811524E0920719F40E94EE2914C0FC0182
:10546000EA59FC4F80810E94E4298091BC00816050
:105470008093BC00809161039091620301969093A8
:10548000620380936103FF91EF91BF91AF919F9170
:105490008F917F916F915F914F913F912F910F90DD
:1054A0000BBE0F900FBE0F901F9018956091650373
:1054B00082E00E94F6296091640383E00E94F6294D
:1054C0006091630384E00E94F62984EA8093BC0023
:1054D00088E70E94E42980E00E94E42980E00E949D
:1054E000E42980E10E94E42980EB0E94E429809174
:1054F000BC0087FFFCCF84EA8093BC0088E70E9451
:10550000E42980E40E94E42910926203109261036E
:105510008091BC0081608093BC0008958091BC00A4
:105520008095817008958093650360936403409330
:1055300063030895DF92EF92FF920F931F93CF932F
:10554000DF93962F969596959695A82FB0E080E8D4
:10555000989FA00DB11D11249D012A593C4FAA51BD
:10556000BC4F677078E0761BE901249615E0FA01DC
:10557000E080EE2009F4B8C0F12CE0E2EE1AF10868
:105580001E9DC0011F9D900D11248B53964FFC0151
:10559000F490062E01C0FF0C0A94EAF7F901E080AE
:1055A000FE28F0827E01F3E0EF1AF108FC0131964B
:1055B000E4910E2F062E01C0000F0A94EAF7F701BE
:1055C000D0800D2900837E01F2E0EF1AF108FC0182
:1055D0003296E4910E2F062E01C0000F0A94EAF7CE
:1055E000F701D0800D290083FC013396E4910E2F42
:1055F000062E01C0000F0A94EAF7FE01D2900D2991
:105600000083FC013496E491062E01C0EE0F0A944B
:10561000EAF78881E82BE8832A5F3F4F662309F485
:105620005FC0FA01E080F12CF0E2EF1AF1081E9D54
:10563000C0011F9D900D11248B53964FFC010491C6
:10564000E02FF0E0072E02C0F595E7950A94E2F707
:10565000FC91EF2BEC93FC013196E491F0E0072EE6
:1056600002C0F595E7950A94E2F71196FC9111971F
:10567000EF2B1196EC931197FC013296E491F0E038
:10568000072E02C0F595E7950A94E2F71296FC9171
:105690001297EF2B1296EC931297FC013396E4913C
:1056A000F0E0072E02C0F595E7950A94E2F713960D
:1056B000FC911397EF2B1396EC931397FC01349600
:1056C000E491F0E0072E02C0F595E7950A94E2F721
:1056D00014968C911497E82B1496EC9314971696C5
:1056E0004F5F5F4F269643CFDF91CF911F910F9170
:1056F000FF90EF90DF900895DF92EF92FF920F936B
:105700001F93CF93DF93962F969596959695A82FF6
:10571000B0E080E8989FA00DB11D11249D012A5989
:105720003C4FAA51BC4F677078E0761BE901249684
:1057300015E0FA01E080EE2009F4C4C0F12CE0E2AB
:10574000EE1AF1081E9DC0011F9D900D11248B5370
:10575000964FFC01F490EF2D062E01C0EE0F0A9437
:10576000EAF7FE2EF094F901E080FE20F0827E013F
:10577000F3E0EF1AF108FC013196E491062E01C026
:10578000EE0F0A94EAF70E2F0095F701D0800D2155
:1057900000837E01F2E0EF1AF108FC013296E491F9
:1057A000062E01C0EE0F0A94EAF70E2F0095F701BE
:1057B000D0800D210083FC013396E491062E01C0B8
:1057C000EE0F0A94EAF70E2F0095FE01D2900D21FC
:1057D0000083FC013496E491062E01C0EE0F0A947A
:1057E000EAF7E0958881E823E8832A5F3F4F662344
:1057F00009F464C0FA01E080F12CF0E2EF1AF1083C
:105800001E9DC0011F9D900D11248B53964FFC01CE
:105810000491E02FF0E0072E02C0F595E7950A9479
:10582000E2F7E095FC91EF23EC93FC013196E491D3
:10583000F0E0072E02C0F595E7950A94E2F7E095AF
:105840001196FC911197EF231196EC931197FC019F
:105850003296E491F0E0072E02C0F595E7950A94A0
:10586000E2F7E0951296FC911297EF231296EC93D3
:105870001297FC013396E491F0E0072E02C0F595F3
:10588000E7950A94E2F7E0951396FC911397EF23BE
:105890001396EC931397FC013496E491F0E0072EF5
:1058A00002C0F595E7950A94E2F7E09514968C917D
:1058B0001497E8231496EC93149716964F5F5F4F56
:1058C000269637CFDF91CF911F910F91FF90EF90E8
:1058D000DF900895AB01FB0101900020E9F73197BB
:1058E000E61BF70B9E2F990FE90F682F80E48E1BA4
:1058F0000C949A2AAB01FB0101900020E9F7319743
:10590000E61BF70B9E2F990FE90F682F80E48E1B83
:105910000C947C2B7F928F929F92AF92BF92CF92EA
:10592000DF92EF92FF920F931F93CF93DF93962F07
:10593000969596959695A82FB0E020E8929FA00D99
:10594000B11D1124CD018A599C4F5C01AA51BC4F55
:10595000677078E0761BFA0124916C01F4E0CF0EB9
:10596000D11C85E0982E222309F4A9C030E02052F2
:105970003109929EC001939E900D11248B53964F36
:10598000FC012491062E01C0220F0A94EAF7F501CA
:105990003081232B2083E60123977C01FFEFEF1A50
:1059A000FF0AF7012491062E01C0220F0A94EAF79C
:1059B0003881232B288321968C010E5F1F4FF8011D
:1059C0002491062E01C0220F0A94EAF73881232B76
:1059D0002883EC012396FE018490062E01C0880CDA
:1059E0000A94EAF7F6017290872880829C012C5F66
:1059F0003F4FF9018490062E01C0880C0A94EAF703
:105A0000F601708087288082F6E0AF0EB11C662315
:105A100009F44DC0FC01849190E0072E02C09595D9
:105A200087950A94E2F79C91892B8C93F701E49077
:105A3000F12C072E02C0F594E7940A94E2F7119630
:105A40008C911197E82A1196EC921197F801049124
:105A500010E0072E02C0159507950A94E2F71296FA
:105A60008C911297082B12960C931297FE01C491F9
:105A7000D0E0072E02C0D595C7950A94E2F7139699
:105A80008C911397C82B1396CC931397F9012491FB
:105A900030E0072E02C0359527950A94E2F7149658
:105AA0008C911497282B14962C93149716964F5F6D
:105AB0005F4FFA012491F6E0CF0ED11C54CFDF9155
:105AC000CF911F910F91FF90EF90DF90CF90BF90FB
:105AD000AF909F908F907F9008957F928F929F922A
