:100000000C94270F0C94E4110C9415120C944612C6
:100010000C9477120C94A8120C94D9120C940A1315
:100020000C943B130C94580F0C94580F0C94580FCD
:100030000C94580F0C9496850C94580F0C94580FF0
:100040000C94580F0C94B95C0C94580F0C94580FE6
:100050000C94580F0C94580F0C94686E0C945A0F13
:100060000C94580F0C940B370C94580F0C94580F99
:100070000C94580F0C94580F0C94580F0C94580F64
:100080000C94580F0C94580F0C94580F0C94580F54
:100090000C94580F0C94580F0C94580F0C94580F44
:1000A0000C94580F0C94580F0C94580F0C94580F34
:1000B0000C94580F0C94580F0C94580F0C94580F24
:1000C0000C94580F0C94580F0C94580F0C94580F14
:1000D0000C94580F0C94580F0C94580F0C94580F04
:1000E0000C94580F901095109A10A4101D11AE107A
:1000F000B610BE10C810D210DC10EB10F5101D1198
:10010000FF10091113113D114011331137117711EF
:10011000441148114E11521156115C1160116411B5
:1001200077116A116E117211EB1FEB1FF61FF61F8C
:10013000F61F01200120012016200C200C200C208D
:10014000B36EC26EDE6EED6E076F166F306F346F7A
:100150003C6F084AD73B3BCE016E84BCBFFDC12F2C
:100160003D6C74319ABD56833DDA3D00C77F11BEA8
:10017000D9E4BB4C3E916BAAAABE000000803F05AB
:10018000A84CCDB2D44EB93836A9020C50B99186DC
:1001900088083CA6AAAA2ABE000000803F000C9452
:1001A00054940C94D8360C94AE100C94C79D0C94B7
:1001B000B36E0C94E18A0C9484AE0C94F19B0C9475
:1001C0003D110C9448110C9409110C94C8100C9416
:1001D000C78B0C94A9B00C943C6F0C94306F0C94AA
:1001E00062B60C94B6100C94ECB20C94FD8A0C948C
:1001F0007DB50C9477110C94298F0C9457B10C9405
:1002000037110C945C110C94ED6E0C94EB100C9463
:1002100040110C94D5B40C94DE6E0C94F5100C9433
:10022000D1AE0C94C26E0C94D5B10C9408970C947A
:1002300072110C946E110C94C65B0C941D110C94ED
:10024000EF8A0C9495100C94DC100C9452110C94C1
:10025000B38B0C940EA40C94346F0C94BE100C94BD
:1002600013110C94D4360C940C200C94F61F0C949F
:1002700016200C94E8910C94FBAF0C946A110C942A
:10028000A4100C9432B40C94EB1F0C9435B60C945F
:10029000BEBA0C9444110C9455B20C94076F0C9494
:1002A0009A100C9490100C9456110C94B2AA0C94C1
:1002B000BB440C948FB30C94C3870C94818C0C9426
:1002C0004DAF0C949D9F0C946C130C94D2100C9415
:1002D000166F0C9464110C94FF100C9433110C9451
:1002E00060110C94B1950C9401200C944E110C9457
:1002F00029890000090A02080B0C0D0706030401F6
:1003000000000000000000000000000000000000ED
:1003100000000000000000000000000000001110BC
:100320000F000000000000000000000000000000BE
:10033000000000000000000001021020200808104A
:100340002040102040800201020108040201010245
:10035000040810204080804020100804020180041E
:100360000201804020100804020108040201010279
:100370000408102040800102040810204080050578
:100380000505070508080808020202020A0A08080B
:100390000404040401010101010101010303030339
:1003A00003030303040707070C0C0C0C0C0C0C0CC8
:1003B0000202020206060606060606060B0B0B0BD9
:1003C0000B0B0B0B00002200250028002B002E0039
:1003D0003100340002010000050108010B0100009A
:1003E0002100240027002A002D00300033000101E5
:1003F0000000040107010A0153544F505045442E98
:1004000020005072696E7465722073746F7070652D
:10041000642064756520746F206572726F72732E2C
:100420002046697820746865206572726F72206159
:100430006E6420757365204D39393920746F2072D0
:100440006573746172742E202854656D70657261D5
:10045000747572652069732072657365742E2053FC
:1004600065742069742061667465722072657374A6
:10047000617274696E6729004B494C4C45442E20CB
:10048000005072696E7465722068616C7465642EC8
:10049000206B696C6C28292063616C6C6564210099
:1004A0006F6B00526573656E643A20002200556ED2
:1004B0006B6E6F776E20636F6D6D616E643A202294
:1004C000004368616E67652066696C616D656E7476
:1004D000005A204F6666736574203A20007A5F6D7B
:1004E00061783A20007A5F6D696E3A20005A204F99
:1004F0006666736574005A204F6666736574206F74
:100500006B007A5F6D61783A20007A5F6D696E3AB0
:100510002000795F6D61783A2000795F6D696E3AED
:100520002000785F6D61783A2000785F6D696E3ADF
:100530002000205A3A0020593A0020436F756E740B
:1005400020583A200020453A00205A3A0020593AD3
:1005500000583A004649524D574152455F4E414D71
:10056000453A4D61726C696E2056313B2053707272
:10057000696E7465722F6772626C206D6173687545
:100580007020666F722067656E36204649524D575F
:100590004152455F55524C3A687474703A2F2F6639
:1005A00069726D776172652E756C74696D616B65CA
:1005B000722E636F6D2050524F544F434F4C5F5615
:1005C000455253494F4E3A312E30204D4143484910
:1005D0004E455F545950453A556C74696D616B6571
:1005E000722045585452554445525F434F554E541E
:1005F0003A3120555549443A30303030303030307F
:100600002D303030302D303030302D303030302DF6
:100610003030303030303030303030300A00556CCF
:1006200074696D616B6572204F66662E0042656469
:1006300020646F6E652E0020423A0020453A005437
:100640003A004265642048656174696E672E00480F
:10065000656174696E6720646F6E652E0020573A7D
:100660000020453A00543A0048656174696E672E6F
:100670002E2E002042403A0020403A00202F003A1F
:1006800000205400202F0020423A00202F006F6BE2
:1006900020543A002569206D696E2C20256920734D
:1006A000656300456E642066696C65206C697374CF
:1006B00000426567696E2066696C65206C697374B9
:1006C000004E6F206D6F76652E00526573756D69F3
:1006D0006E67207072696E74005761697420666F6E
:1006E0007220757365722E2E2E00536C6565702E08
:1006F0002E2E00256920686F757273202569206D84
:10070000696E7574657300446F6E65207072696EF2
:1007100074696E672066696C650053544F5050458C
:10072000442E20005072696E7465722073746F706D
:100730007065642064756520746F206572726F72D5
:10074000732E2046697820746865206572726F7216
:1007500020616E6420757365204D39393920746FBE
:1007600020726573746172742E202854656D7065F3
:100770007261747572652069732072657365742E79
:1007800020536574206974206166746572207265F7
:100790007374617274696E6729006F6B004E6F200D
:1007A0004C696E65204E756D62657220776974685C
:1007B00020636865636B73756D2C204C61737420C6
:1007C0004C696E653A20004E6F20436865636B7319
:1007D000756D2077697468206C696E65206E756D23
:1007E0006265722C204C617374204C696E653A20EE
:1007F00000636865636B73756D206D69736D6174FB
:1008000063682C204C617374204C696E653A20003B
:100810004C696E65204E756D626572206973206E3D
:100820006F74204C617374204C696E65204E756D39
:100830006265722B312C204C617374204C696E659B
:100840003A20004D31313000446F6E65207361767F
:10085000696E672066696C652E006F6B004D3239DA
:10086000002020506C616E6E65724275666665721E
:1008700042797465733A20002046726565204D65A3
:100880006D6F72793A20004D617920323920323013
:10089000313700436F6D70696C65643A20002844FD
:1008A0006176696420427261616D2900207C20417B
:1008B0007574686F723A20004D61792032392032A8
:1008C0003031372031383A32393A353700204C61EF
:1008D000737420557064617465643A2000312E3061
:1008E0002E30004D61726C696E0020536F66747714
:1008F0006172652052657365740020576174636886
:10090000646F67205265736574002042726F776E62
:10091000206F757420526573657400204578746586
:10092000726E616C20526573657400506F776572EA
:100930005570007374617274002200656E71756584
:10094000696E672022002200656E717565696E67A9
:10095000202200FFFFFF0000A0400000A040000098
:100960000040000052430000524300005243000088
:1009700000000000000000000000000052430000E2
:10098000524300005243000000000000000000003D
:1009900000006563686F3A004572726F723A007CBE
:1009A0003C3E5E2B3D3F2F5B5D3B2C2A225C0020B2
:1009B000746F6F206C6F6E672065787472757369E1
:1009C0006F6E2070726576656E7465640020636F6B
:1009D0006C6420657874727573696F6E20707265CF
:1009E00076656E746564006563686F3A00656E6471
:1009F00073746F7073206869743A205A00205A3AF1
:100A000000656E6473746F7073206869743A20595E
:100A10000020593A00656E6473746F7073206869C2
:100A2000743A20580020583A00656E6473746F70F1
:100A300073206869743A200024F4D43050C38E20A7
:100A4000C2A24017828B7011127A910D816CD90A63
:100A5000A861E108C7586607615143061E4B5D0552
:100A6000C145A7041A411104093D980371393103A6
:100A70004036DB0265339102D4305402802E1D02D1
:100A8000632CEE01752AC501B028A0011027810151
:100A90008F2564012B244B01E0223401AC211F017E
:100AA0008D200D01801FFC00841EED00971DDF00CE
:100AB000B81CD200E61BC600201BBC00641AB200A2
:100AC000B219A8000A19A0006A189900D11791005C
:100AD00040178B00B516840031167E00B3157900DF
:100AE0003A157300C7146F0058146A00EE136600BD
:100AF0008813630025135E00C7125B006C12570059
:100B000015125400C111510070114F0021114B00FA
:100B1000D61049008D1047004610440002104200D4
:100B2000C00F4000800F3E00420F3C00060F3B000C
:100B3000CB0E3800930E37005C0E3500270E3400C4
:100B4000F30D3200C10D3100900D3000600D2E000C
:100B5000320D2D00050D2C00D90C2B00AE0C2900F8
:100B6000850C29005C0C2700350C27000E0C260094
:100B7000E80B2400C40B2400A00B23007D0B2300F2
:100B80005A0B2100390B2100180B2000F80A1F0016
:100B9000D90A1E00BB0A1E009D0A1D00800A1D0006
:100BA000630A1C00470A1B002C0A1B00110A1A00CA
:100BB000F7091A00DD091900C4091900AB09190069
:100BC000920917007B091800630917004C091600E9
:100BD00036091600200916000A091500F508150047
:100BE000E0081400CC081400B8081400A40814008D
:100BF000900813007D0812006B08130058081200BB
:100C000046081200340811002308110012081100D0
:100C100001081100F0071000E0071000D0071000D5
:100C2000C0071000B0070F00A107100091070E00C9
:100C300083070F0074070F0065070E0057070E00AB
:100C400049070E003B070D002E070E0020070D0080
:100C500013070D0006070D00F9060C00ED060D0048
:100C6000E0060C00D4060C00C8060C00BC060C0004
:100C7000B0060C00A4060B0099060C008D060B00B4
:100C800082060B0077060B006C060B0061060A005B
:100C900057060B004C060A0042060A0038060A00F6
:100CA0002E060A0024060A001A060A001006090089
:100CB00007060A00FD050900F4050900EB05090017
:100CC000E2050900D9050900D0050900C70509009A
:100CD000BE050900B5050800AD050800A505090019
:100CE0009C050800940508008C0508008405080090
:100CF0007C050800740508006C0507006505080000
:100D00005D050700560508004E050700470507006A
:100D10004005080038050700310507002A050700CF
:100D2000230507001C050600160507000F05070030
:100D30000805060002050700FB040600F50407008D
:100D4000EE040600E8040600E2040700DB040600E7
:100D5000D5040600CF040600C9040600C30406003B
:100D6000BD040600B7040600B1040500AC0406008B
:100D7000A6040600A00405009B04060095040500D7
:100D8000900406008A04050085040500800406001E
:100D90007A04050075040500700405006B04050065
:100DA00066040500610405005C04050057040500A5
:100DB000520405004D0405004804050043040500E5
:100DC0003E0404003A040500350405003004040024
:100DD0002C04050027040400230405001E0404005D
:100DE0001A04040016040500110404000D04040094
:100DF000090405000404040000040400FC030400CA
:100E0000F8030400F4030400F0030400EC030400FE
:100E1000E8030400E4030400E0030400DC0304002E
:100E2000D8030400D4030400D0030400CC0304005E
:100E3000C8030300C503030024F404D9201BC40C19
:100E40005C0E9804C4095F0265077101F405F9009E
:100E5000FB04B30048048700C10369005803550030
:100E600003034500BE023A008402310053022A0007
:100E70002902250004022000E4011C00C801190019
:100E8000AF011700980114008401130071011000D4
:100E90006101100051010E0043010D0036010B00ED
:100EA0002B010B0020010B00150109000C010900AA
:100EB00003010800FB000800F3000800EB00070036
:100EC000E4000600DE000600D8000600D20006009E
:100ED000CC000500C7000500C2000500BD000400ED
:100EE000B9000400B5000400B1000400AD00040026
:100EF000A9000400A5000300A20003009F00040055
:100F00009B0003009800030095000200930003007B
:100F1000900003008D0002008B0003008800020097
:100F20008600020084000300810002007F000200AE
:100F30007D0002007B0002007900020077000100C2
:100F400076000200740002007200010071000200CD
:100F50006F0002006D0001006C0002006A000100D9
:100F600069000200670001006600010065000100E1
:100F700064000200620001006100010060000100E5
:100F80005F0002005D0001005C0001005B000100E9
:100F90005A000100590001005800010057000100EB
:100FA00056000100550001005400010053000000EC
:100FB00053000100520001005100010050000100E7
:100FC0004F0001004E0000004E0001004D000100E6
:100FD0004C0001004B0000004B0001004A000100E2
:100FE00049000100480000004800010047000100DE
:100FF00046000000460001004500000045000100D9
:1010000044000100430000004300010042000000D2
:1010100042000100410000004100010040000100C9
:101020003F0000003F0001003E0000003E000100C4
:101030003D0000003D0001003C0000003C000000BD
:101040003C0001003B0000003B0001003A000000B2
:101050003A000100390000003900010038000000AA
:1010600038000000380001003700000037000100A0
:101070003600000036000000360001003500000098
:10108000350000003500010034000000340000008D
:101090003400010033000000330000003300010081
:1010A0003200000032000000320001003100000078
:1010B000310000003100010030000000300000006D
:1010C000300001002F0000002F0000002F00000062
:1010D0002F0001002E0000002E0000002E00010055
:1010E0002D0000002D0000002D0000002D0001004B
:1010F0002C0000002C0000002C0000002C0001003F
:101100002B0000002B0000002B0000002B00010032
:101110002A0000002A0000002A0000002A00010026
:10112000290000002900000029000000290000001B
:10113000290001002800000028000000280000000D
:101140002800000028000100270000002700000000
:1011500027000000270000002700010026000000F3
:1011600026000000260000002600000026000100E6
:1011700025000000250000002500000025000000DB
:1011800025000000250001002400000024000000CC
:1011900024000000240000002400010023000000BF
:1011A00023000000230000002300000023000000B3
:1011B00023000000230001002200000022000000A4
:1011C0002200000022000000220000002200010096
:1011D000210000002100000021000000210000008B
:1011E000210000002100000021000100200000007B
:1011F000200000002000000020000000200000006F
:101200002000000020000000200001001F0000005E
:101210001F0000001F0000001F0000001F00000052
:101220001F0000001F0001001E0000001E00000043
:101230001E0000001E0000006563686F3A004572E2
:10124000723A204D415854454D5020424544005477
:10125000656D70657261747572652068656174652D
:101260006420626564207377697463686564206FC5
:1012700066662E204D415854454D50207472696762
:101280006765726564202121004572723A204D49DC
:101290004E54454D50003A2045787472756465721D
:1012A000207377697463686564206F66662E204DCD
:1012B000494E54454D502074726967676572656484
:1012C0002021004572723A204D415854454D50003E
:1012D0003A20457874727564657220737769746317
:1012E000686564206F66662E204D415854454D5008
:1012F00020747269676765726564202100486561C2
:1013000074696E67206661696C656400202D2049F0
:101310006E76616C6964206578747275646572209C
:101320006E756D62657220210050494420417574CC
:101330006F74756E652066696E69736865642120D7
:1013400050757420746865206C617374204B702C28
:10135000204B6920616E64204B6420636F6E737450
:10136000616E74732066726F6D2061626F766520A6
:10137000696E746F20436F6E666967757261746918
:101380006F6E2E6800504944204175746F74756EFD
:1013900065206661696C6564212074696D656F758F
:1013A000740020403A006F6B20543A006F6B20426B
:1013B0003A00504944204175746F74756E6520661B
:1013C00061696C6564212054656D70657261747526
:1013D000726520746F6F206869676800204B643AFB
:1013E0002000204B693A2000204B703A2000204317
:1013F0006C61737369632050494420002054753A2E
:101400002000204B753A2000206D61783A200020A2
:101410006D696E3A200020643A2000206269617391
:101420003A20006563686F3A004572726F723A0045
:1014300000000000300E0100C00E0A00500F140022
:10144000D00F1E0060102800E010320070113C0028
:10145000F01146007012500000135A00801364000F
:1014600000146E00901478001015820090158C0006
:10147000101696009016A0001017AA009017B4003E
:101480001018BE009018C8001019D2009019DC0086
:10149000101AE600801AF000001BFA00801B0401FD
:1014A000F01B0E01701C1801F01C2201601D2C01A4
:1014B000E01D3601501E4001D01E4A01401F54015C
:1014C000B01F5E0130206801A020720110217C0154
:1014D00090218601002290016026F401902A580292
:1014E000802EBC0250322003E03584035039E803DB
:1014F000803C4C044D383420582059205A20450057
:1015000043616E6E6F7420656E74657220737562D0
:101510006469723A20004D3234004D323320257315
:10152000006175746F25692E67006572726F722095
:1015300077726974696E6720746F2066696C6500E4
:101540004E6F74205344207072696E74696E670028
:101550002F005344207072696E74696E672062793F
:10156000746520002E0044656C6574696F6E20669A
:1015700061696C65642C2046696C653A2000466997
:101580006C652064656C657465643A002E006F704C
:10159000656E206661696C65642C2046696C653AED
:1015A000200057726974696E6720746F2066696CD9
:1015B000653A20002E006F70656E206661696C656B
:1015C000642C2046696C653A20002E006F70656EB1
:1015D000206661696C65642C2046696C653A200060
:1015E00046696C652073656C65637465640020539F
:1015F000697A653A200046696C65206F70656E6592
:10160000643A20002E006F70656E206661696C651B
:10161000642C2046696C653A20004E6F7720667214
:101620006573682066696C653A20004E6F772064A8
:101630006F696E672066696C653A20002220706FC2
:1016400073002220706172656E743A220053554215
:10165000524F5554494E452043414C4C20746172C1
:101660006765743A2200747279696E6720746F201E
:1016700063616C6C207375622D67636F64652066AF
:10168000696C6573207769746820746F6F206D6171
:101690006E79206C6576656C732E204D4158206CF8
:1016A0006576656C2069733A005344206361726407
:1016B000206F6B006F70656E526F6F74206661698A
:1016C0006C656400766F6C756D652E696E6974204B
:1016D0006661696C656400534420696E69742066B4
:1016E00061696C006563686F3A004572726F723AA7
:1016F0000048617264636F64656420446566617567
:101700006C742053657474696E6773204C6F6164E8
:1017100065640053746F7265642073657474696ED8
:101720006773207265747269657665640020440091
:101730002049002020204D333031205000504944B2
:101740002073657474696E67733A00205A002059DB
:101750000020204D323036205800486F6D65206FD4
:10176000666673657420286D6D293A002045002057
:101770005A0020580020420020540020204D3230D2
:1017800035205300416476616E6365642076617232
:101790006961626C65733A20533D4D696E206665E0
:1017A00065647261746520286D6D2F73292C205437
:1017B0003D4D696E2074726176656C206665656466
:1017C0007261746520286D6D2F73292C20423D6D48
:1017D000696E696D756D207365676D656E742074D3
:1017E000696D6520286D73292C20583D6D617869DD
:1017F0006D756D205859206A65726B20286D6D2FAC
:1018000073292C20205A3D6D6178696D756D205AC1
:10181000206A65726B20286D6D2F73292C2020455E
:101820003D6D6178696D756D2045206A65726B202C
:10183000286D6D2F73290020540020204D32303444
:10184000205300416363656C65726174696F6E3A21
:1018500020533D616363656C65726174696F6E2CC2
:1018600020543D7265747261637420616363656CBA
:1018700065726174696F6E00204500205A0020591E
:101880000020204D3230312058004D6178696D754F
:101890006D20416363656C65726174696F6E2028A9
:1018A0006D6D2F7332293A00204500205A002059CF
:1018B0000020204D3230332058004D6178696D751D
:1018C0006D2066656564726174657320286D6D2F87
:1018D00073293A00204500205A0020590020204D4D
:1018E000393220580053746570732070657220750A
:1018F0006E69743A0053657474696E67732053742B
:101900006F726564006563686F3A000243617264D8
:101910002072656D6F766564004361726420696E44
:10192000736572746564002D2D3A2D2D002D2D2DBB
:10193000005344002059000120000120004D3630A2
:1019400030004368616E67652066696C616D656E25
:101950007400466C6F7700466C6F770046616E20AE
:1019600073706565640046616E2073706565640020
:1019700042656400426564004E6F7A7A6C65004E81
:101980006F7A7A6C650053706565640053706565A5
:1019900064004D61696E004D383420583020593054
:1019A00000473238005A00507265686561742050F3
:1019B0004C41204265640050726568656174205036
:1019C0004C41203100507265706172650050726543
:1019D000686561742041425320426564005072651D
:1019E0006865617420414253203100507265706116
:1019F000726500580059005A004578747275646524
:101A000072004578747275646572004D6F7665205A
:101A10005A004D6F76652059004D6F76652058004D
:101A20004D6F76652061786973004D6F7665203063
:101A30002E316D6D004D6F766520316D6D004D6FEF
:101A400076652031306D6D00507265706172650091
:101A50004D6F7665206178697300436F6F6C646FBA
:101A6000776E005072656865617420414253005082
:101A700072656865617420504C41004D6F76652039
:101A80005A004175746F20686F6D65004D383400E1
:101A900044697361626C65207374657070657273FC
:101AA000004D61696E0053746F7265206D656D6FD6
:101AB00072790042656400426564004E6F7A7A6C08
:101AC00065004E6F7A7A6C650046616E20737065B2
:101AD00065640046616E2073706565640054656DD1
:101AE00070657261747572650053746F7265206DF4
:101AF000656D6F72790042656400426564004E6FE7
:101B00007A7A6C65004E6F7A7A6C650046616E2059
:101B100073706565640046616E207370656564006E
:101B200054656D7065726174757265005072656898
:101B30006561742041425320636F6E660050726588
:101B40006865617420504C4120636F6E6600504997
:101B5000442D43005049442D43005049442D440036
:101B60005049442D44005049442D49005049442DCA
:101B700049005049442D50005049442D50004661C1
:101B80006E2073706565640046616E2073706565D4
:101B9000640042656400426564004E6F7A7A6C6549
:101BA000004E6F7A7A6C6500436F6E74726F6C00D2
:101BB0004573746570732F6D6D0045737465707334
:101BC0002F6D6D005A73746570732F6D6D005A73AD
:101BD000746570732F6D6D005973746570732F6D1C
:101BE0006D005973746570732F6D6D005873746553
:101BF00070732F6D6D005873746570732F6D6D0069
:101C0000412D7265747261637400412D7265747246
:101C100061637400416D6178206500416D617820D9
:101C20006500416D6178207A00416D6178207A000D
:101C3000416D6178207900416D6178207900416DB6
:101C40006178207800416D61782078005654726187
:101C500076206D696E005654726176206D696E0053
:101C6000566D696E00566D696E00566D617820651F
:101C700000566D6178206500566D6178207A0056B7
:101C80006D6178207A00566D6178207900566D611B
:101C900078207900566D6178207800566D61782043
:101CA000780056652D6A65726B0056652D6A6572FF
:101CB0006B00567A2D6A65726B00567A2D6A6572D2
:101CC0006B005678792D6A65726B005678792D6AAB
:101CD00065726B00416363656C00416363656C0012
:101CE000436F6E74726F6C004D617920323920320F
:101CF0003031372031383A32393A353800323530E0
:101D00003030305F73696E676C655F484200556CB8
:101D100074696D616B65723A5F31352E30352E30E6
:101D2000322E4D6F6562797573004669726D776109
:101D300072652076657273696F6E004669726D77A1
:101D40006172652076657273696F6E005265737497
:101D50006F7265206661696C73616665004C6F61C6
:101D600064206D656D6F72790053746F7265206DBC
:101D7000656D6F7279004D6F74696F6E0054656D9B
:101D80007065726174757265004D61696E004D38E1
:101D90003420582059205A2045004D3234004D320D
:101DA0003320257300052E2E004D61696E004E6FA5
:101DB0002053442063617264005072696E7420661F
:101DC000726F6D2053440053746F70207072696E8F
:101DD0007400526573756D65207072696E74005081
:101DE00061757365207072696E7400436F6E7472F2
:101DF0006F6C00507265706172650054756E65009D
:101E0000496E666F2073637265656E004E414E4980
:101E10004E495459494E46CDCCCC3D0AD7233C17A8
:101E2000B7D13877CC2B329595E6241FB14F0A00F5
:101E30000020410000C84200401C4620BCBE4CCAE5
:101E40001B0E5AAEC59D7400D43684AED83611240C
:101E50001FBECFEFD1E2DEBFCDBF00E00CBF14E06C
:101E6000A0E0B2E0E4E2FDE801E00BBF02C00790B1
:101E70000D92A835B107D9F722E1A8E5B4E001C079
:101E80001D92A132B207E1F71FE0C6E2DFE000E0F9
:101E900006C021970109802FFE010E9423C0C43291
:101EA000D10780E00807A9F70E94C4BA0C9480C645
:101EB0000C9400001F920F920FB60F9211242F93D3
:101EC0003F938F939F93AF93BF93809159049091C9
:101ED0005A04A0915B04B0915C043091580423E053
:101EE000230F2D3720F40196A11DB11D05C026E852
:101EF000230F0296A11DB11D20935804809359040D
:101F000090935A04A0935B04B0935C0480915D04A9
:101F100090915E04A0915F04B09160040196A11DB0
:101F2000B11D80935D0490935E04A0935F04B09311
:101F30006004BF91AF919F918F913F912F910F902E
:101F40000FBE0F901F9018952FB7F8946091590409
:101F500070915A0480915B0490915C042FBF0895A6
:101F60003FB7F89480915D0490915E04A0915F0466
:101F7000B091600426B5A89B05C02F3F19F00196CB
:101F8000A11DB11D3FBFBA2FA92F982F8827820FFF
:101F9000911DA11DB11DBC01CD0142E0660F771F4F
:101FA000881F991F4A95D1F70895CF92DF92EF923B
:101FB000FF92CF93DF936B017C010E94B00FEB0186
:101FC000C114D104E104F10479F00E94B00F6C1B3C
:101FD0007D0B683E7340A0F381E0C81AD108E10888
:101FE000F108C851DC4FECCFDF91CF91FF90EF901B
:101FF000DF90CF900895019739F0880F991F880FCF
:10200000991F02970197F1F70895789484B582603B
:1020100084BD84B5816084BD85B5826085BD85B58C
:10202000816085BDEEE6F0E0808181608083E1E83B
:10203000F0E0108280818260808380818160808373
:10204000E0E8F0E0808181608083E1EBF0E0808176
:1020500084608083E0EBF0E0808181608083E1E94F
:10206000F0E0808182608083808181608083E0E90C
:10207000F0E0808181608083E1EAF0E0808182602D
:102080008083808181608083E0EAF0E080818160EC
:102090008083E1E2F1E080818260808380818160E1
:1020A0008083E0E2F1E0808181608083EAE7F0E014
:1020B0008081846080838081826080838081816070
:1020C00080838081806880831092C10008951F936F
:1020D000CF93DF93182FEB0161E00E9478112097D6
:1020E00011F460E004C0CF3FD10539F461E0812FE5
:1020F000DF91CF911F910C94B411E12FF0E0EE50DD
:10210000FD4FE4914E2F50E0FA013197E131F10596
:1021100008F093C08827EE58FF4F8F4F0C9423C0D0
:1021200084B5806884BDC7BD8DC084B5806284BD20
:10213000C8BD88C080918000806880938000D09363
:102140008900C09388007EC0809180008062809367
:102150008000D0938B00C0938A0074C08091B0003F
:1021600080688093B000C093B3006CC08091B000D1
:1021700080628093B000C093B40064C080919000EE
:10218000806880939000D0939900C09398005AC0C3
:1021900080919000806280939000D0939B00C093C8
:1021A0009A0050C080919000886080939000D093F6
:1021B0009D00C0939C0046C08091A00080688093E1
:1021C000A0008091A0008F7B8093A000D093A900F5
:1021D000C093A80037C08091A00080628093A000C7
:1021E000D093AB00C093AA002DC08091A00088605E
:1021F0008093A000D093AD00C093AC0023C0809129
:102200002001806880932001D0932901C093280188
:1022100019C080912001806280932001D0932B010E
:10222000C0932A010FC08091200188608093200113
:10223000D0932D01C0932C0105C0C038D1050CF0FE
:1022400055CF4FCFDF91CF911F91089590E0FC01C2
:102250003197E131F10508F04AC08827ED57FF4F6B
:102260008F4F0C9423C0809180008F7703C08091A2
:1022700080008F7D80938000089584B58F7702C0A1
:1022800084B58F7D84BD08958091B0008F7703C0A1
:102290008091B0008F7D8093B00008958091900070
:1022A0008F7707C0809190008F7D03C08091900050
:1022B000877F8093900008958091A0008F7707C05A
:1022C0008091A0008F7D03C08091A000877F8093C4
:1022D000A0000895809120018F7707C08091200190
:1022E0008F7D03C080912001877F80932001089516
:1022F000CF93DF9390E0FC01E85CFC4F2491FC015C
:10230000E258FC4F8491882361F190E0880F991F77
:10231000FC01E252FC4FC591D491FC01EC53FC4FFF
:10232000A591B491611109C09FB7F8948881209557
:1023300082238883EC912E230BC0623061F49FB717
:10234000F8943881822F809583238883EC912E2BFB
:102350002C939FBF06C08FB7F894E8812E2B28835B
:102360008FBFDF91CF9108951F93CF93DF93282FD5
:1023700030E0F901EE50FD4F8491F901E85CFC4F2B
:10238000D491F901E258FC4FC491CC23C9F0162F27
:1023900081110E942611EC2FF0E0EE0FFF1FEC538D
:1023A000FC4FA591B4918FB7F894111105C09C9181
:1023B000ED2FE095E92302C0EC91ED2BEC938FBF5C
:1023C000DF91CF911F9108951F920F920FB60F9238
:1023D00011240BB60F922F933F934F935F936F93FC
:1023E0007F938F939F93AF93BF93EF93FF938091CE
:1023F000650490916604892B29F0E0916504F091C1
:1024000066041995FF91EF91BF91AF919F918F91C4
:102410007F916F915F914F913F912F910F900BBEE4
:102420000F900FBE0F901F9018951F920F920FB62E
:102430000F9211240BB60F922F933F934F935F93FC
:102440006F937F938F939F93AF93BF93EF93FF937C
:102450008091670490916804892B29F0E0916704CA
:10246000F09168041995FF91EF91BF91AF919F9101
:102470008F917F916F915F914F913F912F910F902D
:102480000BBE0F900FBE0F901F9018951F920F92CA
:102490000FB60F9211240BB60F922F933F934F93C9
:1024A0005F936F937F938F939F93AF93BF93EF93BC
:1024B000FF938091690490916A04892B29F0E0913F
:1024C0006904F0916A041995FF91EF91BF91AF9162
:1024D0009F918F917F916F915F914F913F912F913C
:1024E0000F900BBE0F900FBE0F901F9018951F926C
:1024F0000F920FB60F9211240BB60F922F933F93AA
:102500004F935F936F937F938F939F93AF93BF93FB
:10251000EF93FF9380916B0490916C04892B29F0C9
:10252000E0916B04F0916C041995FF91EF91BF91CC
:10253000AF919F918F917F916F915F914F913F915B
:102540002F910F900BBE0F900FBE0F901F901895FC
:102550001F920F920FB60F9211240BB60F922F936A
:102560003F934F935F936F937F938F939F93AF931B
:10257000BF93EF93FF938091610490916204892B44
:1025800029F0E0916104F09162041995FF91EF91B7
:10259000BF91AF919F918F917F916F915F914F917B
:1025A0003F912F910F900BBE0F900FBE0F901F9079
:1025B00018951F920F920FB60F9211240BB60F921F
:1025C0002F933F934F935F936F937F938F939F933B
:1025D000AF93BF93EF93FF93809163049091640452
:1025E000892B29F0E0916304F09164041995FF911F
:1025F000EF91BF91AF919F918F917F916F915F917B
:102600004F913F912F910F900BBE0F900FBE0F90E7
:102610001F9018951F920F920FB60F9211240BB6B0
:102620000F922F933F934F935F936F937F938F936B
:102630009F93AF93BF93EF93FF9380916D0490911D
:102640006E04892B29F0E0916D04F0916E041995C8
:10265000FF91EF91BF91AF919F918F917F916F917A
:102660005F914F913F912F910F900BBE0F900FBE36
:102670000F901F9018951F920F920FB60F92112472
:102680000BB60F922F933F934F935F936F937F936C
:102690008F939F93AF93BF93EF93FF9380916F04BA
:1026A00090917004892B29F0E0916F04F0917004EF
:1026B0001995FF91EF91BF91AF919F918F917F916C
:1026C0006F915F914F913F912F910F900BBE0F90A3
:1026D0000FBE0F901F901895CF92DF92EF92FF924E
:1026E0000F931F93CF93DF936C01EB017B01E40EFB
:1026F000F51E00E010E0CE15DF0561F06991D6010E
:10270000ED91FC910190F081E02DC6011995080F23
:10271000191FF1CFC801DF91CF911F910F91FF9049
:10272000EF90DF90CF9008956115710579F0FB016E
:1027300001900020E9F73197AF01461B570BDC01F0
:10274000ED91FC910280F381E02D199480E090E0FE
:1027500008950C949413DC01ED91FC910190F081AB
:10276000E02D1994FC0165917591859194910895DE
:10277000EF92FF920F931F93CF93DF93EC01CC0F57
:10278000DD1FCC0FDD1FCE018259964F0E94B21380
:102790009E012859394F79018E01045A194FF801C9
:1027A00020813181428153810E94D2BAF701608336
:1027B000718382839383CE018A57964F0E94B2130E
:1027C0009E01205B394F7901F801208131814281DE
:1027D00053810E94D2BAF70160837183828393830D
:1027E000CE018658964F0E94B213C55FDD4FF801A7
:1027F00020813181428153810E94D2BA68837983DA
:102800008A839B83DF91CF911F910F91FF90EF906F
:1028100008952F923F924F925F926F927F928F9284
:102820009F92AF92BF92CF92DF92EF92FF920F935F
:102830001F93CF93DF9300D01F92CDB7DEB79C8359
:102840008B83FC01ED5AF64F94905C01AA0CBB1CE3
:10285000AA0CBB1CC5018859994F1C01FC011082B0
:1028600011821282138224E736E040E756E06CE6DC
:1028700076E088E696E00E94125BC5018E59964F7D
:102880000E94B2136B017C01692D990C770B880BA8
:10289000990B0E947BBC2B013C01C5018A5C994FBE
:1028A0004C0120E030E040EC5FE3C701B6010E943C
:1028B000D0BEA30192010E94D0BEF4016083718357
:1028C00082839383C5018F5D9D4F9A838983FC0129
:1028D0006081718182819381609305027093060209
:1028E000809307029093080220E030E040E752E432
:1028F0000E94D1BB28E4C22E26E0D22E7B018C019F
:1029000022E436E04EE356E06AE376E086E396E0C2
:102910000E9484500E948164F1011082118212820F
:10292000138224E736E040E756E06CE676E088E67E
:1029300096E00E94125BC5018A5A964F5C010E9484
:10294000B2139058A30192010E94D0BEF40160839B
:1029500071838283938320E030E040E752E460910A
:1029600005027091060280910702909108020E9470
:10297000D1BB7B018C0122E436E04EE356E06AE3F2
:1029800076E086E396E00E9484500E948164C5014F
:102990000E94B2139B01AC010E94D2BAA301920122
:1029A0000E94D0BEF401608371838283938320E010
:1029B00030E040E05FE3E981FA81608171818281EA
:1029C00093810E94D0BE60930502709306028093AB
:1029D00007029093080220E030E040E752E40E94B2
:1029E000D1BB7B018C0122E436E04EE356E06AE382
:1029F00076E086E396E00E9484500E9481648B8199
:102A00009C810E94B813F10180819181A281B381E0
:102A1000F40180839183A283B38310920502109204
:102A2000060210920702109208020E94A95CEB8134
:102A3000FC81E35BF94F81E080830F900F900F9052
:102A40000F90DF91CF911F910F91FF90EF90DF904A
:102A5000CF90BF90AF909F908F907F906F905F903E
:102A60004F903F902F900895FC012491222341F034
:102A70003091C00035FFFCCF2093C6000196F4CF03
:102A800022E030E08BE099E00C944239FC01249183
:102A9000222341F03091C00035FFFCCF2093C600C7
:102AA0000196F4CF2AE030E08BE099E00C94903866
:102AB000CF93DF931F921F92CDB7DEB720911B12E9
:102AC00030911C12CE0101962115310519F4815265
:102AD000924102C0821B930B9A83898389819A81D8
:102AE0000F900F90DF91CF91089520918B0430913A
:102AF0008C04243031050CF069C0BC0120918D0498
:102B000030918E0440E6429FC001439F900D1124F6
:102B10008B569B4F0E946CC3E2E9F9E084918823B5
:102B200041F09091C00095FFFCCF8093C600319694
:102B3000F5CFE8E4F9E08491882341F09091C0005A
:102B400095FFFCCF8093C6003196F5CF80918D0420
:102B500090918E0420E6289FF001299FF00D11240A
:102B6000EB56FB4F8191882339F09091C00095FF7F
:102B7000FCCF8093C600F6CFE6E4F9E08491882389
:102B800041F09091C00095FFFCCF8093C600319634
:102B9000F5CF8091C00085FFFCCF8AE08093C6000E
:102BA00080918D0490918E04019664E070E00E9403
:102BB000CEBF90938E0480938D0480918B0490916E
:102BC0008C04019690938C0480938B04089520913B
:102BD0008B0430918C04243031050CF069C0BC01A9
:102BE00020918D0430918E0440E6429FC001439FA6
:102BF000900D11248B569B4F0E94F8C2E2E9F9E038
:102C00008491882341F09091C00095FFFCCF809380
:102C1000C6003196F5CFEBE3F9E08491882341F0CB
:102C20009091C00095FFFCCF8093C6003196F5CF00
:102C300080918D0490918E0420E6289FF001299FB9
:102C4000F00D1124EB56FB4F8191882339F09091C0
:102C5000C00095FFFCCF8093C600F6CFE9E3F9E012
:102C60008491882341F09091C00095FFFCCF809320
:102C7000C6003196F5CF8091C00085FFFCCF8AE079
:102C80008093C60080918D0490918E04019664E03B
:102C900070E00E94CEBF90938E0480938D0480914B
:102CA0008B0490918C04019690938C0480938B04F8
:102CB0000895809A889A0895809A889808950E9425
:102CC000591640E950ED63E070E08BE099E00E9416
:102CD0004437E3E3F9E08491882341F09091C00008
:102CE00095FFFCCF8093C6003196F5CF8091C00050
:102CF00085FFFCCF8AE08093C60082E999E0FC0161
:102D00002491222341F03091C00035FFFCCF209365
:102D1000C6003196F5CF24B720FF14C0EBE2F9E0EE
:102D20003491332341F04091C00045FFFCCF3093F4
:102D3000C6003196F5CF3091C00035FFFCCF3AE0A8
:102D40003093C60021FF14C0EBE1F9E03491332346
:102D500041F04091C00045FFFCCF3093C600319652
:102D6000F5CF3091C00035FFFCCF3AE03093C6007C
:102D700022FF14C0EAE0F9E03491332341F040919E
:102D8000C00045FFFCCF3093C6003196F5CF30919F
:102D9000C00035FFFCCF3AE03093C60023FF14C0DB
:102DA000EAEFF8E03491332341F04091C00045FF51
:102DB000FCCF3093C6003196F5CF3091C00035FF7F
:102DC000FCCF3AE03093C60025FF14C0EAEEF8E0ED
:102DD0002491222341F03091C00035FFFCCF209395
:102DE000C6003196F5CF2091C00025FFFCCF2AE028
:102DF0002093C60014BEE3EEF8E02491222341F0B4
:102E00003091C00035FFFCCF2093C6003196F5CF3E
:102E1000EDEDF8E02491222341F03091C00035FF20
:102E2000FCCF2093C6003196F5CF2091C00025FF3E
:102E3000FCCF2AE02093C600FC012491E2E9F9E0EE
:102E4000222349F03091C00035FFFCCF2093C6000B
:102E500031962491F5CFEDECF8E02491222341F056
:102E60003091C00035FFFCCF2093C6003196F5CFDE
:102E7000E8EBF8E02491222341F03091C00035FFC7
:102E8000FCCF2093C6003196F5CFECEAF8E0249110
:102E9000222341F03091C00035FFFCCF2093C600C3
:102EA0003196F5CFEEE9F8E02491222341F03091FC
:102EB000C00035FFFCCF2093C6003196F5CF20919E
:102EC000C00025FFFCCF2AE02093C600E3E9F8E02C
:102ED0002491222341F03091C00035FFFCCF209394
:102EE000C6003196F5CFE7E8F8E02491222341F0BF
:102EF0003091C00035FFFCCF2093C6003196F5CF4E
:102F00002091C00025FFFCCF2AE02093C600FC01E1
:102F10008491E2E9F9E0882349F09091C00095FF9F
:102F2000FCCF8093C60031968491F5CFE8E7F8E0B6
:102F30008491882341F09091C00095FFFCCF80934D
:102F4000C6003196F5CF0E9458154AE050E0BC010A
:102F50008BE099E00E946238E1E6F8E084918823F2
:102F600041F09091C00095FFFCCF8093C600319650
:102F7000F5CF4AE050E060ED74E08BE099E00E940C
:102F800062388091C00085FFFCCF8AE08093C60044
:102F9000109291041092920410929304109294044F
:102FA0000E94E4800E9485680E9442500E94E38152
:102FB0000E9404640E94D999FFEF23ED80E3F15051
:102FC00020408040E1F700C0000008958091850412
:102FD0009091860460E070E001960C944DC0809161
:102FE0008504909186044AE050E060E070E001962C
:102FF0000C94BCC1682F70E020918F043091900434
:1030000040E6429FC001439F900D11248B569B4F79
:103010000E9461C39C01909386048093850481E0A3
:10302000232B09F480E008950E94A40F609381048B
:1030300070938204809383049093840408950E9483
:10304000A40F60938104709382048093830490930F
:103050008404E0918F04F0919004EF56FB4F80813F
:10306000811114C0E0EAF4E08491882341F090914A
:10307000C00095FFFCCF8093C6003196F5CF8091BC
:10308000C00085FFFCCF8AE08093C60008958BE0E6
:1030900099E00E949637E3EAF4E08491882341F0B6
:1030A0009091C00095FFFCCF8093C6003196F5CF7C
:1030B00040911A0650911B0660911C0670911D06E6
:1030C0004F5F5F4F6F4F7F4F2AE030E08BE099E01A
:1030D0000E943B388091C00085FFFCCF8AE080933E
:1030E000C6000C941F182F923F924F925F926F92DE
:1030F0007F928F929F92AF92BF92CF92DF92EF9288
:10310000FF920F931F93CF93DF93CDB7DEB76E97E8
:103110000FB6F894DEBF0FBECDBF30E6F32E44E00D
:10312000A42EB12C54E2852E57E0952E6AE0E62EAF
:103130007AE9672E77E0772EDD24D39480918C098D
:1031400090918D0920918E0930918F09821B930BEC
:103150008F779927892B09F428C280918B0490914D
:103160008C0404970CF021C28BE099E00E947A371E
:1031700080938A0420918804309189048A3061F018
:103180008D3051F08A3321F490918704992321F0F6
:103190002F3531050CF42BC12115310519F410928E
:1031A00087046AC3E0918D04F0918E04FE9E800135
:1031B000FF9E100D1124200F311FD901AB56BB4FBC
:1031C0001C928091870481110DC110928704EF56E3
:1031D000FB4F108298012B563B4F29016EE470E0A3
:1031E000C9010E9461C30097E9F19093860480931E
:1031F000850484199509800F911F4AE050E060E032
:1032000070E08A569B4F0E94BCC160931E0670936B
:103210001F06809320069093210600911A061091B4
:103220001B0620911C0630911D060F5F1F4F2F4F6C
:103230003F4F40908D0450908E04601771078207B5
:10324000930709F4F3C0F49CC001F59C900D112480
:1032500063E478E08B569B4F0E9426C3892B09F0CC
:10326000E5C076C16AE270E0C2010E9461C3892BA9
:1032700009F444C0E8E9F9E08491882341F0909191
:10328000C00095FFFCCF8093C6003196F5CFEDE9E5
:10329000F7E08491882341F09091C00095FFFCCF26
:1032A0008093C6003196F5CF40911A0650911B06C7
:1032B00060911C0670911D062AE030E08BE099E0D9
:1032C0000E943B388091C00085FFFCCF8AE080934C
:1032D000C6001092890410928804CEC280911E0606
:1032E00090911F06A0912006B091210680931A06A6
:1032F00090931B06A0931C06B0931D0680918D042D
:1033000090918E04F89E8001F99E100D1124C80141
:103310008B569B4F2C0167E470E00E9461C30097BD
:1033200009F44BC090938604809385048419950911
:10333000800F911F60E070E08A569B4F0E944DC045
:103340000E9443BC6430710508F037C0809173045B
:1033500081111AC080917E0681112FC0F3018491E2
:10336000EAE9F7E0882349F09091C00095FFFCCF8F
:103370008093C60031968491F5CF8091C00085FF7F
:10338000FCCFE092C60019C0F4018491E4E2F7E0BA
:10339000882349F09091C00095FFFCCF8093C60030
:1033A00031968491F5CF8091C00085FFFCCFE092EB
:1033B000C6008AE197E00E94669980918D04909101
:1033C0008E040196B5010E94CEBF90938E04809327
:1033D0008D0480918B0490918C04019690938C04C1
:1033E00080938B041092890410928804A7CE8B33AB
:1033F00011F4D09287049091870491119FCE40914F
:103400008D0450918E04B9016F5F7F4F70938904D2
:1034100060938804F49EF001F59EF00D11242E0FA8
:103420003F1FF901EB56FB4F808388CEF49C80014F
:10343000F59C100D1124C8018B569B4F2C016AE29C
:1034400070E00E9461C3009709F450C020E0312C65
:10345000F801E20FF11DEB56FB4F30813A3219F0C3
:103460002F5F3326F5CF90938604809385048419CB
:103470009509800F911F60E070E08A569B4F0E9473
:103480004DC00E9443BC232D30E02617370709F4B6
:1034900025CFE8E9F9E08491882341F09091C000BC
:1034A00095FFFCCF8093C6003196F5CFE1EFF7E0B2
:1034B0008491882341F09091C00095FFFCCF8093C8
:1034C000C6003196F5CF40911A0650911B066091C7
:1034D0001C0670911D062AE030E08BE099E00E9406
:1034E0003B388091C00085FFFCCF2CC0E8E9F9E0B3
:1034F0008491882341F09091C00095FFFCCF809388
:10350000C6003196F5CFE7ECF7E08491882341F0CF
:103510009091C00095FFFCCF8093C6003196F5CF07
:1035200040911A0650911B0660911C0670911D0671
:103530002AE030E08BE099E00E943B388091C000A7
:1035400085FFFCCF8AE08093C6000E944718C1CE59
:10355000E8E9F9E08491882341F09091C00095FF5B
:10356000FCCF8093C6003196F5CFE0E1F8E084917E
:10357000882341F09091C00095FFFCCF8093C60056
:103580003196F5CF40911A0650911B0660911C06AA
:1035900070911D062AE030E08BE099E00E943B38F4
:1035A0008091C00085FFFCCFCDCF8091800688231D
:1035B00009F462C18091880490918904892B09F0F3
:1035C0005BC180918B0490918C04892B11F4109233
:1035D000710400E611E084E0C82ED12C9CE3892E12
:1035E000912CA12CB12C23EF222E26E0322E9E010D
:1035F0002F5F3F4F7901409101095091020960917D
:103600000309709104098091F9089091FA08A0913A
:10361000FB08B091FC08481759076A077B0708F0B8
:103620002BC180918B0490918C0404970CF024C1E1
:1036300080917104811120C18091540890915508A6
:10364000A0915608B0915708809301099093020900
:10365000A0930309B09304098CE498E00E94623EB1
:10366000AC01982F40938A048A30B9F09D30A9F0BC
:10367000933229F480918704882379F002C09A3329
:10368000C9F320918804309189042F3531052CF439
:103690004F3F8FEF580709F0D1C040910109509179
:1036A000020960910309709104098091F9089091D1
:1036B000FA08A091FB08B091FC08481759076A075F
:1036C0007B0708F481C0E7E0F7E08491882341F0AC
:1036D0009091C00095FFFCCF8093C6003196F5CF46
:1036E0008091C00085FFFCCFFAE0F093C6000E94F5
:1036F000A40F60937504709376048093770490937D
:1037000078044090790450907A0460907B04709023
:103710007C04641975098609970928EE33E040E0B6
:1037200050E00E94E2BF29013A01CA01B901A50196
:1037300094010E94E2BFCA01B901A50194010E944F
:10374000E2BF7F936F93C301B20120E13EE040E00E
:1037500050E00E94E2BF3F932F933F922F92FF923F
:10376000EF920E9490C3E2E9F9E084910FB6F894D9
:10377000DEBF0FBECDBF882349F09091C00095FFFA
:10378000FCCF8093C60031968491F5CFF7018191EB
:10379000882339F09091C00095FFFCCF8093C6003C
:1037A000F6CF8091C00085FFFCCF3AE03093C60091
:1037B000C7010E9457998EE796E00E941B7B61E04B
:1037C0008EE796E00E94857880918A04833211F416
:1037D00010937104209188043091890421153105DA
:1037E00009F4DDCC80918D0490918E04089FF00146
:1037F000099FF00D11242E0F3F1FF901EB56FB4FCF
:103800001082FC01EF56FB4F108320918B04309106
:103810008C042F5F3F4F30938C0420938B040196D0
:10382000B6010E94CEBF90938E0480938D041092B7
:1038300087041092890410928804DDCE9B3311F422
:1038400010938704809187048111D5CE80918D04D7
:1038500090918E04B9016F5F7F4F709389046093DC
:103860008804089FF001099FF00D1124E20FF31F57
:10387000EB56FB4F4083BFCE6E960FB6F894DEBF7B
:103880000FBECDBFDF91CF911F910F91FF90EF90B1
:10389000DF90CF90BF90AF909F908F907F906F9070
:1038A0005F904F903F902F9008957F928F929F92BC
:1038B000AF92BF92CF92DF92EF92FF920F931F933E
:1038C000CF93DF9388E6E82E86E0F82E06E316E035
:1038D0009AE7C92E96E0D92ECFECD3E07C2E84E077
:1038E000780E89910E94FA17882311F10E94E61739
:1038F0004B015C01F6016081611102C06091150607
:1039000070E080E090E00E947BBCF7012081318173
:10391000428153810E94D0BE9B01AC01C501B4011C
:103920000E94D2BAF80160837183828393830AC0B4
:10393000F70180819181A281B381F8018083918315
:10394000A283B383F4E0EF0EF11C0C5F1F4F8FEFE7
:10395000C81AD80A7C12C5CF86E40E94FA178823B9
:10396000D9F00E94E6176B017C01609326067093E4
:103970002706809328069093290620E030E0A901CD
:103980000E94E9BD181644F4C0920502D0920602C6
:10399000E0920702F0920802DF91CF911F910F9100
:1039A000FF90EF90DF90CF90BF90AF909F908F905F
:1039B0007F9008950E94551C89E40E94FA1788237D
:1039C00059F00E94E61760932A0670932B068093A5
:1039D0002C0690932D0608C010922A0610922B06F2
:1039E00010922C0610922D068AE40E94FA17882362
:1039F00059F00E94E61760932E0670932F0680936D
:103A0000300690933106089510922E0610922F06DC
:103A100010923006109231060895CF92DF92EF9205
:103A2000FF92CF93DF93EC01C0905006D0905106E7
:103A3000E0905206F0905306A701960168817981C3
:103A40008A819B810E94C7BB87FF04C0C882D9823C
:103A5000EA82FB82C0905406D0905506E09056064C
:103A6000F0905706A70196016C817D818E819F8120
:103A70000E94C7BB87FF04C0CC82DD82EE82FF823A
:103A8000C0905806D0905906E0905A06F0905B0618
:103A9000A7019601688579858A859B850E94C7BBA9
:103AA00087FF04C0C886D986EA86FB86C0900B02D1
:103AB000D0900C02E0900D02F0900E02A70196014A
:103AC000688179818A819B810E94E9BD181624F45E
:103AD000C882D982EA82FB82C0900F02D090100285
:103AE000E0901102F0901202A70196016C817D8195
:103AF0008E819F810E94E9BD181624F4CC82DD825C
:103B0000EE82FF82C0901302D0901402E090150262
:103B1000F0901602A7019601688579858A859B85B4
:103B20000E94E9BD181624F4C886D986EA86FB8669
:103B3000DF91CF91FF90EF90DF90CF900895CF92DB
:103B4000DF92EF92FF920F931F9386E396E00E941D
:103B50000D1D0E94A40F60938104709382048093D2
:103B60008304909384042091360630913706409167
:103B70003806509139066091680670916906809107
:103B80006A0690916B060E94C7BB811121C02091EB
:103B90003A0630913B0640913C0650913D066091BB
:103BA0006C0670916D0680916E0690916F060E9472
:103BB000C7BB81110DC020E030E040E752E46091C6
:103BC00005027091060280910702909108021EC0C2
:103BD00060911F0270912002072E000C880B990B38
:103BE0000E947BBC209105023091060240910702A1
:103BF000509108020E94D0BE20E030E040E752E43D
:103C00000E94D1BB20E030E048EC52E40E94D1BBDE
:103C100028E4C22E26E0D22E7B018C0122E436E07D
:103C20004EE356E06AE376E086E396E00E94845035
:103C30008091360690913706A0913806B0913906EA
:103C40008093680690936906A0936A06B0936B060A
:103C500080913A0690913B06A0913C06B0913D06BA
:103C600080936C0690936D06A0936E06B0936F06DA
:103C700080913E0690913F06A0914006B09141068A
:103C80008093700690937106A0937206B0937306AA
:103C90008091420690914306A0914406B09145065A
:103CA0008093740690937506A0937606B09377067A
:103CB0001F910F91FF90EF90DF90CF900895AF92FA
:103CC000BF92CF92DF92EF92FF920F931F93CF9309
:103CD000DF93F82EEAE2F6E02481358146815781B0
:103CE00060817181828193810E94FCBDEB01182F5C
:103CF000092F60911F0270912002072E000C880B83
:103D0000990B0E947BBC20910502309106024091E4
:103D10000702509108020E94D0BE20E030E040E748
:103D200052E40E94D1BB20E030E048EC52E40E9413
:103D3000D1BB5B016C01809148068F93FF920F937A
:103D40001F93DF93CF9382E0E82E01E020E04AE268
:103D500056E066E376E088E696E00E947049E8E681
:103D6000F6E0A6E3B6E04D915D916D917C911397DD
:103D7000408351836283738314964D915D916D915D
:103D80007C911797448355836683778318964D916A
:103D90005D916D917C911B974087518762877387F6
:103DA0001C968D919D910D90BC91A02D8487958737
:103DB000A687B7870E94A40F609381047093820442
:103DC00080938304909384040F900F900F900F9032
:103DD0000F900F90DF91CF911F910F91FF90EF9077
:103DE000DF90CF90BF90AF900895F8940E946669DD
:103DF000159A10924D06179A10924E06429A1092FA
:103E00004F06A09AE8E9F9E08491882341F0909167
:103E1000C00095FFFCCF8093C6003196F5CFE1E856
:103E2000F4E08491882341F09091C00095FFFCCF8D
:103E30008093C6003196F5CF8091C00085FFFCCFFE
:103E40008AE08093C60088E794E00E9475990E94FA
:103E50005C16FFCFCF92DF92EF92FF920F931F93EA
:103E60000E94A40F00917D0410917E0420917F0494
:103E700030918004C0908104D0908204E09083044B
:103E8000F0908404DC01CB018C199D09AE09BF09B7
:103E9000081719072A073B0730F4012B022B032BC5
:103EA00011F00E94F51E8091010290910202A091F2
:103EB0000302B0910402892B8A2B8B2B19F10E94EB
:103EC000A40F009181041091820420918304309109
:103ED0008404DC01CB01801B910BA20BB30B00917E
:103EE000010210910202209103023091040208178E
:103EF00019072A073B0730F490919E0B80919D0B88
:103F0000981741F01F910F91FF90EF90DF90CF90A5
:103F10000C946850159A10924D06179A10924E06FE
:103F2000429A10924F06A09AEDCF0E946669809146
:103F30007304811138C081E08093730480911A0664
:103F400090911B06A0911C06B0911D068093160649
:103F500090931706A0931806B0931906E8E9F9E0C4
:103F60008491882341F09091C00095FFFCCF80930D
:103F7000C6003196F5CFE2E0F4E08491882341F069
:103F80009091C00095FFFCCF8093C6003196F5CF8D
:103F90008091C00085FFFCCF8AE08093C60088EF47
:103FA00093E00C9466990895809173040895677066
:103FB0007727E82FF0E0EE50FD4FE4918E2F90E050
:103FC000FC013697EC30F10588F58827EC56FF4F59
:103FD0008F4F0C9423C08091B100887F8093B100F3
:103FE0008091B100682B6093B10008958091910099
:103FF000887F8093910080919100682B609391005D
:1040000008958091A100887F8093A1008091A100F4
:10401000682B6093A100089580912101887F80938F
:10402000210180912101682B6093210108951F9344
:10403000CF93DF93EC01809148068093740484E56C
:104040000E94FA17182F811102C010E074C00E945C
:10405000E6170E944ABC609374046623B1F3E2E958
:10406000F9E09491992341F08091C00085FFFCCF45
:104070009093C6003196F5CFCD36D105B9F054F402
:10408000C836D105B1F0C936D10509F045C0E8E21E
:10409000F3E021C0CA3DD10531F0CD3DD105E1F5B8
:1040A000E3EEF2E036C0EAEFF2E029C0E1E1F3E04E
:1040B0001CC0EFE3F3E08191882371F19091C0007F
:1040C00095FFFCCF8093C600F6CF9091C00095FF7E
:1040D000FCCF8093C60081918111F7CF1DC09091D4
:1040E000C00095FFFCCF8093C60081918111F7CF6E
:1040F00013C09091C00095FFFCCF8093C6008191C2
:104100008111F7CF09C09091C00095FFFCCF80933B
:10411000C60081918111F7CF40E050E060917404B6
:104120008BE099E00E949C388091C00085FFFCCF15
:104130008AE08093C600812FDF91CF911F9108956F
:104140003F924F925F926F927F928F929F92AF9227
:10415000BF92CF92DF92EF92FF920F931F93CF9374
:10416000DF93CDB7DEB7E4970FB6F894DEBF0FBE8E
:10417000CDBF87E40E94FA17882309F496C30E94F2
:10418000E6170E9443BC64307105D9F144F46230F3
:10419000710521F15CF577FF17C00C948D346A35F9
:1041A000710509F42DC334F46C31710509F46FC045
:1041B0000C948D346B35710509F426C36C3571058B
:1041C00009F427C30C948D3480917304811106C0C7
:1041D0000E94551C0E949F1D0C942C3680917304E4
:1041E000811104C00E94DA1C81E007C08091730431
:1041F000811107C00E94DA1C80E00E945F1E0C94AF
:104200002C368AEE96E00E94669980E50E94FA17A5
:10421000882339F00E94E6170E944ABC6B017C019A
:1042200003C0C12CD12C760183E50E94FA178823A4
:1042300061F00E94E61720E030E04AE754E40E9473
:10424000D0BE0E944ABC6B017C010E9481640E9426
:10425000A40FC60ED71EE81EF91E0E94A40F60937D
:1042600081047093820480938304909384040E9459
:10427000A40F6C157D058E059F0510F00C948D34F0
:104280000E943D660E942A1F0E94029AF0CF8091F0
:10429000050290910602A0910702B0910802809356
:1042A000220690932306A0932406B09325068091BE
:1042B0001F0290912002909379068093780684E6FD
:1042C00090E09093200280931F020E94A40F6093BD
:1042D000810470938204809383049093840481E02A
:1042E0000E94B05C8091680690916906A0916A0670
:1042F000B0916B068093360690933706A0933806EC
:10430000B093390680916C0690916D06A0916E066F
:10431000B0916F0680933A0690933B06A0933C06BB
:10432000B0933D068091700690917106A09172063F
:10433000B091730680933E0690933F06A09340068B
:10434000B09341068091740690917506A09176060F
:10435000B09177068093420690934306A09344065B
:10436000B0934506109205021092060210920702C1
:104370001092080288E50E94FA17882311F080E065
:104380000AC089E50E94FA178111F9CF8AE50E94D7
:10439000FA1791E089278093090281110CC088E502
:1043A0000E94FA17882309F47AC189E50E94FA1756
:1043B000882309F474C1109268061092690610925D
:1043C0006A0610926B0610926C0610926D0610929F
:1043D0006E0610926F06E3E5F9E0149124E736E0EB
:1043E00040E756E06CE676E088E696E00E94125BD5
:1043F00082E699E00E94B21320E030E040EC5FE3F7
:104400000E94D0BE6B017C01612F110F770B880BCE
:10441000990B0E947BBC9B01AC01C701B6010E94B5
:10442000D0BE60933606709337068093380690931B
:10443000390686E699E00E94B213E4E5F9E01491AA
:1044400020E030E040EC5FE30E94D0BE6B017C01D5
:10445000612F110F770B880B990B0E947BBC9B017E
:10446000AC01C701B6010E94D0BE60933A067093BA
:104470003B0680933C0690933D06209121023091AB
:10448000220240912302509124022093050230938E
:1044900006024093070250930802C0902502D09074
:1044A0002602E0902702F0902802C701B6010E9480
:1044B000C7BB87FF08C0C0920502D0920602E092F7
:1044C0000702F092080282E699E00E94B2136B01A3
:1044D0007C0186E699E00E94B2139B01AC01C70102
:1044E000B6010E94E9BD181614F00C94903486E6CB
:1044F00099E00E94B2136B017C0182E699E00E9470
:10450000B2139B01AC01C701B6010E94D1BB9B0154
:10451000AC010E94D0BE20E030E040E85FE30E94A2
:10452000D2BA0E944BBF9B01AC0160910502709111
:10453000060280910702909108020E94D0BE60930B
:10454000050270930602809307029093080220E010
:1045500030E040E752E460910502709106028091DC
:104560000702909108020E94D1BBF8E4CF2EF6E03A
:10457000DF2E7B018C0122E436E04EE356E06AE355
:1045800076E086E396E00E9484500E94816480E099
:1045900090E00E94B81381E090E00E94B81324E7F5
:1045A00036E040E756E06CE676E088E696E00E946A
:1045B000125B8091680690916906A0916A06B0919D
:1045C0006B068093360690933706A0933806B09317
:1045D000390680916C0690916D06A0916E06B0919F
:1045E0006F0680933A0690933B06A0933C06B093E7
:1045F0003D0620E030E040E752E460910502709112
:10460000060280910702909108020E94D1BB7B01B3
:104610008C0122E436E04EE356E06AE376E086E37E
:1046200096E00E94845010920502109206021092A9
:104630000702109208020E9481640E94A95C809186
:10464000360690913706A0913806B09139068093CE
:10465000680690936906A0936A06B0936B068091F2
:104660003A0690913B06A0913C06B0913D0680939E
:104670006C0690936D06A0936E06B0936F068091C2
:104680003E0690913F06A0914006B091410680936E
:10469000700690937106A0937206B0937306809192
:1046A000090281110C949A3488E50E94FA1781114D
:1046B0000C949A348091090281110C94A03489E5FC
:1046C0000E94FA1781110C94A03488E50E94FA1711
:1046D0008823D1F00E94EF17672B682B692BA1F07C
:1046E0000E94E61720915C0630915D0640915E06BF
:1046F00050915F060E94D2BA609368067093690673
:1047000080936A0690936B0689E50E94FA178823C6
:10471000D1F00E94EF17672B682B692BA1F00E9444
:10472000E617209160063091610640916206509133
:1047300063060E94D2BA60936C0670936D068093F4
:104740006E0690936F068091090281110C94A63435
:104750008AE50E94FA1781110C94A6348AE50E941A
:10476000FA178823D1F00E94EF17672B682B692B6B
:10477000A1F00E94E61720916406309165064091F1
:104780006606509167060E94D2BA609370067093D5
:104790007106809372069093730624E736E040E733
:1047A00056E06CE676E088E696E00E94125B80E0D8
:1047B0000E94B05C8091220690912306A09124066D
:1047C000B09125068093050290930602A0930702FC
:1047D000B093080280917806909179069093200218
:1047E00080931F020E94A40F60938104709382043F
:1047F00080938304909384040E94A95C0C948D346C
:10480000109215060C948D3481E0809315060C945B
:104810008D3485E40E94FA17811102C00E948164E0
:104820006FECA62E63E0B62E7CE5C72E76E0D72E81
:10483000E8E6EE2EE6E0FE2E10E0F50181915F0144
:104840000E94FA17882331F1133061F40E94E617B1
:10485000F701608371838283938384E796E00E94EB
:10486000995B18C00E94E617F601208131814281D0
:1048700053810E94D2BAF70160837183828393834C
:1048800024E736E040E756E06CE676E088E696E01E
:104890000E94125B1F5FF4E0CF0ED11C24E0E20EF9
:1048A000F11C143051F60C948D348DE40E94FA17EB
:1048B000882311F40C94BC330E94E6170E9443BC79
:1048C0006237710509F49CC70CF0BFC06E317105E9
:1048D00009F46EC20CF046C06631710509F4F9C1E5
:1048E000BCF46131710509F4B6C134F4623071056C
:1048F00008F453C10C948D346431710509F4B5C1C9
:104900000CF0E1C16231710509F499C60C948D3443
:104910006931710509F4FCC1CCF46731710509F402
:10492000DEC16831710511F00C948D348EE796E08C
:104930000E940F730E94A40F6093790470937A040D
:1049400080937B0490937C040C948D346B317105BF
:1049500009F4F2C10CF4E2C16C31710509F4F2C141
:104960000C948D346435710509F469C6CCF56A324E
:10497000710509F457C354F46F31710509F4F5C298
:104980006032710509F453C20C948D34623571059F
:1049900009F44CC60CF04EC66135710511F00C944B
:1049A0008D340E9466690E948164A09A0E94E0642E
:1049B000109247061092460668EE73E080E090E0A1
:1049C0000E94D50F0E9481640E945C1610920A0218
:1049D0008EE196E00E9466990E94029A0C948D34B2
:1049E0006936710509F46BC324F56C35710509F45A
:1049F0005EC66836710509F433C36535710511F07B
:104A00000C948D3483E50E94FA170E94E61720E08B
:104A100030E04AE754E40E94D0BE0E944ABC609352
:104A20007D0470937E0480937F04909380040C94A3
:104A30008D346B36710509F4F3C50CF4C1C56D36C0
:104A4000710509F449C40C948D346D3D710511F460
:104A50000C94362F0CF047C06E3B710509F4AAC4C4
:104A6000E4F46737710509F495C054F463377105B0
:104A700009F4A2C66537710509F4ADC60C948D34EE
:104A80006937710511F40C94E32C0CF498C76C3859
:104A9000710509F403C30C948D346C3C710511F459
:104AA0000C948C2E8CF4693C710511F40C944E2EF0
:104AB0006B3C710511F40C946F2E683C710511F07C
:104AC0000C948D340C94D62D6E3C710511F40C941D
:104AD0000A2F14F40C94AC2E6C3D710511F40C9457
:104AE000272F0C948D34643F31E0730711F40C943C
:104AF000AD302CF56D3291E0790711F40C94A12FB3
:104B000064F4623E710511F40C945C2F6C327140B8
:104B100011F40C946D2F0C948D346F3221E07207D8
:104B200011F40C94753014F40C94673060397140B2
:104B300011F00C948D340E9481640C948D3468358E
:104B400092E0790711F40C948B3194F4663FF1E014
:104B50007F0711F40C94B33014F40C94B030673F19
:104B6000714011F00C948D340E94B47C0C948D34FF
:104B7000603A83E0780709F4C4C1673E93E079079F
:104B800011F40C94A5336335734011F00C948D34FB
:104B90000C94B630E5E6F3E020C789ED96E00E947C
:104BA000669980E50E94FA17882339F00E94E6177B
:104BB0000E944ABC6B017C0103C0C12CD12C760140
:104BC00083E50E94FA17882361F00E94E61720E02F
:104BD00030E04AE754E40E94D0BE0E944ABC6B0118
:104BE0007C010E9481640E94A40F609381047093F1
:104BF00082048093830490938404C114D104E1045B
:104C0000F104C1F00E94A40FC60ED71EE81EF91EC3
:104C10000E94A40F6C157D058E059F05B0F40E94BF
:104C2000CC9A811112C00E943D660E942A1F0E94E8
:104C3000029AEECF0E94CC9A811107C00E943D6675
:104C40000E942A1F0E94029AF5CF8AEC96E00E94E9
:104C500066990C948D3481EC96E00E9466991598C3
:104C600017984298A0980C948D34E1EBF6E084916B
:104C7000882341F09091C00095FFFCCF8093C6003F
:104C80003196F5CF8091C00085FFFCCF8AE08093FC
:104C9000C6008EE796E00E94ED71E3EAF6E08491AB
:104CA000882341F09091C00095FFFCCF8093C6000F
:104CB0003196F5CF8091C00085FFFCCF8AE08093CC
:104CC000C6000C948D348EE796E00E9444720C94DA
:104CD0008D348EE796E00E940B730C948D34009116
:104CE0008504109186040C5F1F4F6AE270E0C801D2
:104CF0000E9461C3009719F0FC013197108221E0F6
:104D000041E0B8018EE796E00E946D730C948D34FB
:104D10008EE796E00E9416730C948D348091810684
:104D2000882311F40C948D3483E50E94FA178111C5
:104D30000C94AC340C948D348EE796E00E94BF77CF
:104D40000C948D3480918504909186046AE270E021
:104D500004960E9461C38C01892BE1F020918F049D
:104D60003091900440E6429FC001439F900D112472
:104D70006EE470E08B569B4F0E9461C360E270E06E
:104D80000E9461C301969093860480938504F80184
:104D90003197108260918504709186046C5F7F4F1B
:104DA00021E040E08EE796E00E946D730C948D3414
:104DB00080918106882311F40C948D3460E08EE795
:104DC00096E00E94787980918504909186046AE249
:104DD00070E004960E9461C38C01892BE1F0209160
:104DE0008F043091900440E6429FC001439F900D94
:104DF00011246EE470E08B569B4F0E9461C360E209
:104E000070E00E9461C301969093860480938504AC
:104E1000F8013197108260918504709186046C5F6F
:104E20007F4F8EE796E00E9485760C948D348091BA
:104E3000800681110E94816400918504109186048E
:104E40000C5F1F4F6AE270E0C8010E9461C37C01E1
:104E500061E270E0C8010E9461C3009719F08C0103
:104E60000F5F1F4FE114F10419F0F7013197108221
:104E700080E50E94FA17F82E8091850490918604AF
:104E80000817190708F4F12C80918106882311F482
:104E90000C948D3421E02F2541E0B8018EE796E097
:104EA0000E946D7383E50E94FA178823B9F0809100
:104EB0008504909186048017910780F40E94EF1773
:104EC000AB01BC01409301095093020960930309AF
:104ED000709304098CE498E00E942D3F8EE796E0E1
:104EE0000E940F73F1100C948D340E94A40F6093F4
:104EF000790470937A0480937B0490937C040C94DF
:104F00008D3480918504909186046AE270E0059664
:104F10000E9461C38C01892BE1F020918F043091B4
:104F2000900440E6429FC001439F900D11246EE41F
:104F300070E08B569B4F0E9461C360E270E00E945C
:104F400061C301969093860480938504F80131979C
:104F5000108260918504709186046B5F7F4F8EE7AD
:104F600096E00E947F760C948D340E94A40F60938B
:104F7000750470937604809377049093780400917D
:104F8000790410917A0420917B0430917C04601B99
:104F9000710B820B930B28EE33E040E050E00E944F
:104FA000E2BFCA01B9012CE330E040E050E00E94CA
:104FB000E2BF7F936F933F932F9384E996E09F9393
:104FC0008F938E010F5F1F4F1F930F930E9490C30B
:104FD000E2E9F9E094910FB6F894DEBF0FBECDBFC1
:104FE000992349F08091C00085FFFCCF9093C600C3
:104FF00031969491F5CFF8018191882339F0909101
:10500000C00095FFFCCF8093C600F6CF8091C00012
:1050100085FFFCCF8AE08093C600C8010E945799A3
:105020000C948D3483E50E94FA17882311F40C94B4
:105030008D340E94E6176B017C0180E50E94FA170F
:10504000882311F40C948D34C701B6010E9443BC2F
:105050006F3F710509F010F40C94BD340C948D343D
:1050600088E690E00E94172081110C948D3483E52E
:105070000E94FA17882371F0009174040E94E617C9
:1050800010E0000F111F0F561E4E0E9443BCF80186
:10509000718360830E942B690C948D3483E50E9498
:1050A000FA17882311F40C948D340E94E6170E949D
:1050B00043BC7093901160938F110C948D3489E6EA
:1050C00090E00E94172081110C948D34EEE8F6E0F8
:1050D0008491882341F09091C00095FFFCCF80938C
:1050E000C6003196F5CFE091740424E0E29FF00110
:1050F0001124E757FE4E408151816281738121E086
:1051000030E08BE099E00E944239EBE8F6E08491D0
:10511000882341F09091C00095FFFCCF8093C6009A
:105120003196F5CFE0917404F0E0EE0FFF1FEF56DB
:10513000FE4E60817181072E000C880B990B0E9436
:105140007BBCAB01BC0121E030E08BE099E00E9428
:105150004239E7E8F6E08491882341F09091C0005D
:1051600095FFFCCF8093C6003196F5CF4091831117
:1051700050918411609185117091861121E030E089
:105180008BE099E00E944239E4E8F6E084918823BC
:1051900041F09091C00095FFFCCF8093C6003196FE
:1051A000F5CF60918F1170919011072E000C880B34
:1051B000990B0E947BBCAB01BC0121E030E08BE08D
:1051C00099E00E944239E1E8F6E08491882341F0B9
:1051D0009091C00095FFFCCF8093C6003196F5CF2B
:1051E0004AE050E060E070E08BE099E00E946238B5
:1051F000EFE7F6E08491882341F09091C00095FF9D
:10520000FCCF8093C6003196F5CF40918911509123
:105210008A1160918B1170918C1121E030E08BE04C
:1052200099E00E944239ECE7F6E08491882341F04E
:105230009091C00095FFFCCF8093C6003196F5CFCA
:105240006091911170919211072E000C880B990BAF
:105250000E947BBCAB01BC0121E030E08BE099E017
:105260000E944239E8E7F6E08491882341F090916A
:10527000C00095FFFCCF8093C6003196F5CF80919A
:10528000740490E00E9432664AE050E0BC018BE07A
:1052900099E00E946238E3E7F6E08491882341F0C8
:1052A0009091C00095FFFCCF8093C6003196F5CF5A
:1052B0008FEF9FEF0E9432664AE050E0BC018BE026
:1052C00099E00E9462388091C00085FFFCCF8AE09F
:1052D0008093C6000C942C368DE690E00E94172037
:1052E00081110C948D3488E696E00E94669983E5DE
:1052F0000E94FA17882391F0009174040E94E61727
:1053000010E0000F111F0F561E4E0E9443BCF80103
:105310007183608381E08093000215C082E50E9462
:10532000FA17882381F0009174040E94E61710E0B8
:10533000000F111F0F561E4E0E9443BCF8017183CF
:105340006083109200020E942B690E94A40F2B011F
:105350003C010091740410E0F801EE0FFF1FEF56BE
:10536000FE4E60817181072E000C880B990B0E9404
:105370007BBC000F111F000F111FF801E757FE4EF5
:1053800011E020813181428153810E94E9BD1816CC
:105390000CF010E01093720488248A94982C540125
:1053A00078EEC72E73E0D72EE12CF12CEAE03E2EEA
:1053B0000C94203582E496E00E94669983E50E9471
:1053C000FA17882361F00E94E6170E9443BC70938D
:1053D000901160938F1181E0809300020FC082E5ED
:1053E0000E94FA17882351F00E94E6170E9443BCDE
:1053F0007093901160938F11109200020E94A40F7D
:105400004B015C0160918F1170919011072E000C7F
:10541000880B990B0E947BBC11E020918311309185
:10542000841140918511509186110E94E9BD181692
:105430000CF010E0109372040FE316E07BE3E72E0C
:1054400076E0F72EE7E3CE2EE6E0DE2EFAE07F2EC2
:105450008091720460918F1170919011882309F4EA
:1054600088C0072E000C880B990B0E947BBC2091F2
:1054700083113091841140918511509186110E94C1
:10548000E9BD18160CF08CC00E94A40FDC01CB0102
:1054900088199909AA09BB09893E9340A105B1055C
:1054A00008F460C0E091480634E0E39FF001112465
:1054B000E757FE4E4081518162817381F8018491EA
:1054C000EFE3F6E0882349F09091C00095FFFCCF10
:1054D0008093C60031968491F5CF22E030E08BE0D6
:1054E00099E00E944239F7018491EBE3F6E08823CA
:1054F00049F09091C00095FFFCCF8093C600319693
:105500008491F5CF6091480670E04AE050E08BE06E
:1055100099E00E946238F6018491E7E3F6E088237F
:1055200049F09091C00095FFFCCF8093C600319662
:105530008491F5CF40918311509184116091851130
:105540007091861121E030E08BE099E00E944239B1
:105550008091C00085FFFCCF7092C6000E94A40F0E
:105560004B015C010E943D660E942A1F0E94029A24
:105570006FCF072E000C880B990B0E947BBC2091EB
:1055800083113091841140918511509186110E94B0
:10559000C7BB87FF05C080910002882309F474CF40
:1055A0008DE296E00E9466990E94A40F60938104A8
:1055B0007093820480938304909384040C948D34BC
:1055C00083E50E94FA17882319F10E94E61720E06C
:1055D00030E0A9010E94C7BB87FD0FC00E94E617FB
:1055E00020E030E04FE753E40E94E9BD181644F094
:1055F0000E94E6170E9443BC05C060E070E002C054
:105600006FEF70E070934706609346060C948D34FC
:105610008FEF90E090934706809346060C948D346C
:1056200010924706109246060C948D3410927D0617
:105630000C948D3481E080937D060C948D3483E549
:105640000E94FA178823A1F00E94E61720E030E0BC
:105650004AE754E40E94D0BE0E944ABC6093010213
:105660007093020280930302909304020C948D3491
:1056700088E50E94FA1781110C940A3689E50E9488
:10568000FA1781110C940A368AE50E94FA178111E3
:105690000C940A3685E40E94FA1781110C940A369C
:1056A0000E948164A09A0E94E0640C948D345FECA7
:1056B000852E53E0952E0FEC10E16FEDA62E60E1E4
:1056C000B62E23E930E138AB2FA7312CF4018191BC
:1056D0004F010E94FA17882309F45DC0F3E03F12DE
:1056E00053C00E94E6172B013C0120E030E040EA65
:1056F00051E40E94C7BB87FF41C0A3019201F8019A
:1057000060817181828193810E94D1BB6B017C0198
:105710009B01AC016091A7107091A8108091A91015
:105720009091AA100E94D0BE6093A7107093A81009
:105730008093A9109093AA10A7019601F5016081AA
:105740007181828193810E94D0BEF5016083718353
:1057500082839383EFA5F8A960817181828193810F
:105760000E9479BCA70196010E94D0BE0E944ABC4B
:10577000EFA5F8A96083718382839383F801408247
:1057800051826282738207C00E94E617F80160832B
:1057900071838283938333940C5F1F4FF4E0AF0EC9
:1057A000B11C2FA538A92C5F3F4F38AB2FA734E091
:1057B00033128CCF0C948D34E4E5F5E0849188238A
:1057C00011F40C948D349091C00095FFFCCF809320
:1057D000C6003196F3CF00918504109186040B5FCB
:1057E0001F4F6AE270E0C8010E9461C3009719F080
:1057F000FC0131971082C8010E9457990C948D3496
:10580000E1E5F5E08491882341F09091C00095FF97
:10581000FCCF8093C6003196F5CF40916806509139
:10582000690660916A0670916B0622E030E08BE0B9
:1058300099E00E944239EDE4F5E08491882341F03B
:105840009091C00095FFFCCF8093C6003196F5CFB4
:1058500040916C0650916D0660916E0670916F06D6
:1058600022E030E08BE099E00E944239E9E4F5E083
:105870008491882341F09091C00095FFFCCF8093E4
:10588000C6003196F5CF4091700650917106609137
:1058900072067091730622E030E08BE099E00E947E
:1058A0004239E5E4F5E08491882341F09091C0000D
:1058B00095FFFCCF8093C6003196F5CF40917406DA
:1058C00050917506609176067091770622E030E07F
:1058D0008BE099E00E944239EAE3F5E08491882365
:1058E00041F09091C00095FFFCCF8093C6003196A7
:1058F000F5CF0E94D2640E947BBC2091CF103091E2
:10590000D0104091D1105091D2100E94D1BBAB0168
:10591000BC0122E030E08BE099E00E944239E6E3EE
:10592000F5E08491882341F09091C00095FFFCCF71
:105930008093C6003196F5CF81E00E94D2640E9428
:105940007BBC2091D3103091D4104091D510509150
:10595000D6100E94D1BBAB01BC0122E030E08BE04D
:1059600099E00E944239E2E3F5E08491882341F016
:105970009091C00095FFFCCF8093C6003196F5CF83
:1059800082E00E94D2640E947BBC2091D7103091AB
:10599000D8104091D9105091DA100E94D1BBAB01C0
:1059A000BC0122E030E08BE099E00E944239809116
:1059B000C00085FFFCCF8AE08093C600AEC780E0C0
:1059C0000E94B05CAAC781E00E94B05CA6C790911B
:1059D000C00095FFFCCF8093C60081918111F7CF65
:1059E0008091C00085FFFCCF8AE08093C600EAE288
:1059F000F5E08491882341F09091C00095FFFCCFA1
:105A00008093C6003196F5CF009B03C0E0E6F3E03B
:105A100009C0E6E5F3E006C09091C00095FFFCCF19
:105A20008093C60081918111F7CF8091C00085FFDE
:105A3000FCCF8AE08093C600E2E2F5E084918823FF
:105A400041F09091C00095FFFCCF8093C600319645
:105A5000F5CF029B03C0E0E6F3E009C0E6E5F3E022
:105A600006C09091C00095FFFCCF8093C600819145
:105A70008111F7CF8091C00085FFFCCF8AE0809331
:105A8000C600EAE1F5E08491882341F09091C000DE
:105A900095FFFCCF8093C6003196F5CF049B03C0E1
:105AA000E0E6F3E009C0E6E5F3E006C09091C0004F
:105AB00095FFFCCF8093C60081918111F7CF809133
:105AC000C00085FFFCCF8AE08093C600E2E1F5E0EC
:105AD0008491882341F09091C00095FFFCCF809382
